:100000000C9402020C941F020C941F020C94391CD5
:100010000C941F020C941F020C941F020C941F02DC
:100020000C941F020C941F020C94721A0C944A1B1D
:100030000C94271A0C941F020C941F020C941F029C
:100040000C941F020C941F020C941F020C941F02AC
:100050000C941F020C944E1A0C941F020C941F0255
:100060000C941F020C941F020C941F020C941F028C
:100070000C941F020C941F020C941F020C941F027C
:100080000C941F020C941F020C941F020C941F026C
:100090000C941F020C941F020C941F020C941F025C
:1000A0000C941F020C941F020C941F0237003600A0
:1000B000110010000000070009000D000E000000F4
:1000C00010000E000F0000000D000E000F000000D9
:1000D0000D000F0000000D000E0000000E000F00CC
:1000E00000000C0012000D0000000C0012000000C7
:1000F0001B000600190000001B000600000016008F
:100100000700190000001600070009000000160093
:1001100009000000070009000000160007000000A9
:100120001A00140000001A0008000000050109066A
:10013000A1018506050719E029E7150025019508A5
:10014000750181020507190029EF1500250195F0B9
:1001500075018102050819012905950575019102AE
:10016000950175039101C005010906A10105071953
:10017000E029E715002501950875018102950175B3
:100180000881010507190029FF150026FF009506C3
:100190007508810005081901290515002501950537
:1001A00075019102950175039101C009023B00029E
:1001B0000100A0FA09040000010301010009211156
:1001C0000100012244000705810308000109040120
:1001D000000103000000092111010001223B00077A
:1001E00005820320000112010002000000085346AE
:1001F00001000100010200011E0343006F007200B4
:100200006E00650020004B006500790062006F0001
:1002100061007200640000000C03430052004B00B8
:100220004200440000000403090400000000000034
:1002300000000000000000000000000000000000BE
:1002400000000000000000000000000000007E0F21
:1002500000D4FFFFFFC7000000780000000000008E
:1002600000002A2B28000000000000000000000011
:10027000000000000029000000002C1E3420212274
:1002800024342627252E362D3738271E1F202122DD
:10029000232425263333362E37381F040506070856
:1002A000090A0B0C0D0E0F10111213141516171846
:1002B000191A1B1C1D2F3130232D35040506070884
:1002C000090A0B0C0D0E0F10111213141516171826
:1002D000191A1B1C1D2F3130354C000014001A0058
:1002E00008001500170000000400160007000900B0
:1002F0000A0000001D001B00060019000500000098
:10030000000000000000215228000000130012002D
:100310000C0018001C00000033000F000E000D0040
:100320000B000000380037003600100011000000FC
:1003300000000000000021522C00000035002400C5
:1003400025002600270000002F00210022002300A6
:100350003000000001001E001F002000010000000E
:10036000000000000100E1000100000001002E007B
:100370002D0001004600000034004F0052005100E3
:1003800050000000310001000100010001000000E8
:10039000000000000100010001000000290014001D
:1003A0001A000800150000002B00040016000700CA
:1003B00009000000E1001D001B00060019000000FC
:1003C00000000000E00028002C00000001000100F7
:1003D0000100010001000000010001000100010016
:1003E0000100000001000100010001000100000007
:1003F000000000000000010001003A77710A003A95
:10040000770A000011241FBECFEFDAE0DEBFCDBFB8
:1004100011E0A0E0B1E0EEE1FCE302C005900D9236
:10042000A83BB107D9F723E0A8EBB1E001C01D92CA
:10043000AA35B207E1F70E94DC170C94031E0C9456
:10044000000080935803089580935903089521E094
:1004500001C0220F8A95EAF780915903822B0E94EE
:100460002402089521E030E0A90101C0440F8A95DB
:10047000EAF7842F80959091590389230E942402E2
:100480000895292F983090F5863080F590E036E079
:10049000239F800D911D112451E081FD54E080FDCA
:1004A000550F82FD529523E0969587952A95E1F7A1
:1004B000FC01EE0FFF1FE80FF91FE853FD4F20E08E
:1004C00030E070E04191DF01CB01022E02C0969531
:1004D00087950A94E2F78695880B842785238427DD
:1004E0008E932F5F3F4F2330310561F70895292FF9
:1004F000983070F5863060F590E036E0239F800DEF
:10050000911D1124682F677023E0969587952A9591
:10051000E1F7FC01EE0FFF1FE80FF91FE853FD4F55
:1005200040E050E080E0219130E0062E02C0369598
:1005300027950A94E2F72170042E01C0220F0A9435
:10054000EAF7822B4F5F5F4F4330510561F7089503
:1005500080E00895E091760290917502E91302C05F
:1005600080E008959F0159E0E59FF0011124E958CA
:10057000FD4F5181561306C05081581303C0558159
:10058000541304C0F9013196E770E8CF81E0089573
:100590008091760220917502281301C0089501967A
:1005A0008770FACF9091DD02809589238093DD02D8
:1005B000282F277069F4891759F09091DF0292FF74
:1005C00007C08695869586950E9432021092DD02BC
:1005D00008958091DA029091E002892B9091DB02DC
:1005E0009115C9F0892B90912B01911521F09091D3
:1005F000DE0297FD11C096E02CEB31E040E0915017
:10060000F90150812F5F3F4F51114F5F9111F7CF8B
:1006100041111092DB0208959EE124EC31E0EECF0F
:10062000982F90958091DA0289238093DA020895B9
:10063000972F7830B8F46630A8F48330B0F470E0C7
:1006400026E0929F600D711D1124FB0190E3899FAC
:10065000E00DF11D1124EE0FFF1FE652FD4F8591B5
:100660009591089580E090E0089581E0FCCF803E70
:100670009105D1F1C8F48133910509F481C048F4A2
:100680008932910509F471C08A32910509F47FC05D
:10069000089589339105E1F082389105C9F08533D9
:1006A000910509F45DC00895843E9105D1F148F4A7
:1006B000823E910531F1833E910541F181EE90E05A
:1006C0000895863E9105C1F1873E9105F1F10895A7
:1006D0002091DE02237009F064C02091DF0223FF25
:1006E00014C089E290E008952091DE0220FD45C00B
:1006F0003091DF0230FF09C024FD24C083EE90E07A
:1007000008952091DE0222FDF7CF08952091DE02A8
:1007100022FD44C03091DF0230FD43C024FFF5CFFD
:1007200011C02091DF0221FFF0CF8091DE0284FD15
:1007300009C087EE90E008952091DE0223FFE5CF07
:1007400024FFF7CF80E090E008952091DE0223FDA2
:100750002BC03091DF0231FFE1CF84EE90E00895AD
:100760002091DE0225FFD1CFBCCF2091DE0225FDF6
:100770001EC02091DF0223FFC8CF89E390E00895D7
:100780002091DE0226FFC1CF8AE290E008952091F9
:10079000DE0226FFBACF81E390E0089582EE90E07A
:1007A000089580EE90E0089586EE90E0089585E348
:1007B00090E008959091DE0292FF10C041E0282F52
:1007C0002471243009F040E031E0282F28712830CE
:1007D00009F030E0431711F02CE0822793FF10C09E
:1007E00041E0282F2471243109F040E031E0282F26
:1007F0002871283109F030E0431711F02CE08227EE
:100800003091DF0230FF10C051E0282F21712130DC
:1008100009F050E041E0282F2871283009F040E02D
:10082000541711F029E0822731FF10C041E0282F32
:100830002171213109F040E031E0282F2871283161
:1008400009F030E0431711F029E0822794FD877EFC
:1008500008950F931F93CF93DF930E943703EC010A
:10086000923508F03FC0903508F0AFC0883E910542
:10087000E0F4803E910558F4853A910570F40497B0
:1008800030F481E0219709F080E0C82FD0E0CE015C
:10089000DF91CF911F910F9108958D5C9109D065E3
:1008A0004397A8F3C0E0D0E0F2CFD03490F4D03238
:1008B00008F0A0C0CE0191509F31A0F78D2F0E946B
:1008C000DA03082F8C2F90E00E943703EC01D02B25
:1008D000DECF8C2F90E00E943703DF70C82FD92B1A
:1008E000D06AD5CF803842E59407C8F5803652E506
:1008F000950708F04FC0C03482E5D807D0F48C2F9C
:10090000C03292E5D90708F040C08695869520E26E
:10091000829FC0011124C37021E030E0A90102C010
:10092000440F551FCA95E2F7EA01C82BD92BDD68A1
:10093000AECF8C2F86958695877050E2859FC0013B
:100940001124C37021E030E0A90102C0440F551FFB
:10095000CA95E2F7EA01C82BD92BDC6898CF803C16
:1009600052E5950740F48F71C03AD24540F5D82F33
:10097000C4EFD06A8CCF805C9245809708F092CF0C
:10098000DC2FDF71C0EFD06A82CF8F71D82FC1EF1B
:10099000D06A7DCF86958695877020E2829FC001C0
:1009A0001124C37021E030E0A90102C0440F551F9B
:1009B000CA95E2F7EA01C82BD92BDA6868CF0E9402
:1009C000DA03C0E0D82FD06262CF8F710E94DA03C1
:1009D00093E0CC0FDD1F9A95E1F7DF70282F30E010
:1009E00084FF04C050E1859F90011124C22FD32BB6
:1009F000D0694DCF8D2F8F710E94DA03082F8C2F75
:100A000090E00E943703EC01D02BDDCFA4E0B0E0F2
:100A1000ECE0F5E00C946B1D89839A8300915903F7
:100A200080915803082B87E08B831C8210E0C8015B
:100A30000B8002C0959587950A94E2F780FD0DC062
:100A40008B819C8101978B839C83019681F7F12C8C
:100A50008F2D2496E5E00C94871DFB8069817A81B7
:100A60008F2D0E9418030E942904019749F3F0CFAB
:100A70000F931F93CF93FC012781308521153105FA
:100A8000A1F48581008111818115A1F0611591F09A
:100A9000C8010E940605C82F682FC8010E944102A4
:100AA000B8018C2F0E9418039C01C901CF911F919E
:100AB0000F910895C8010E947702C82FF1CFA2E0DC
:100AC000B0E0E5E6F5E00C946E1D89839A830E9400
:100AD000060569817A810E9418030E9429042296E2
:100AE000E2E00C948A1DFC018481811511F187815B
:100AF00090850097A1F00E942904282F92959F705D
:100B00009630C1F088F4925F9F70923030F4203FAD
:100B1000D9F060F481E0283E60F080E008958081A3
:100B200091810E945F05E9CF9A5FEECF81E0243F7B
:100B3000A1F7089591E0813F09F090E081E0283E1F
:100B400008F080E0892B089581E0089580E0089501
:100B5000F894E82FE295EF70F0E041A18F7021E06A
:100B600030E0B90101C0660F8A95EAF7862F962F0B
:100B70009095942391A392A1892B82A378940895B0
:100B80001092E9021092EA02ECE2F1E08581811113
:100B900002C014821682379681E0EA3AF807B1F76C
:100BA0000895AC018091EC026091EB02982F6913DB
:100BB00001C00895292F30E0F901EE0FFF1FEF511A
:100BC000FD4F0190F081E02DE417F507B9F4E0E066
:100BD000F0E04231510540F467E0649FF001659F09
:100BE000F00D1124E45DFE4F41E044839813E1CF02
:100BF0002F5F3F4F23702093EC0208952395922F8F
:100C00009370D5CFFC01AC014C5F5F4F8FEF61E378
:100C10009191892728E030E0982F990F87FF09C02C
:100C2000892F862721503040B9F7E417F50781F75F
:100C30000895892FF7CF80914302811561F0E091EB
:100C40006B02F0916C02309729F00190F081E02D59
:100C50000995089580E0089590912B01911521F058
:100C60009091DE0297FD0CC0ECEBF1E091918913BD
:100C700002C0DF011E9291E0E23CF907B9F7089546
:100C8000E82FE695E695E695803FC8F7F0E0EE534D
:100C9000FE4F9DEF81FD97EF80FF959582FD929528
:100CA00082818923828308952FB7F89480910D0261
:100CB00090910E02A0910F02B09110022FBF0895E3
:100CC0002FB7F89460910D0270910E0280910F027F
:100CD000909110022FBF089580914302811519F061
:100CE0000E94600608950E9460062091450230919E
:100CF00046024091470250914802620F731F841FC1
:100D0000951F08959C014FB7F89480910D02909122
:100D10000E02A0910F02B09110024FBF821B930BE5
:100D2000089587E797E7809300089093010888E18A
:100D30009AE00FB6F894A895809360000FBE909348
:100D40006000FFCF8091F601089508950895FC0199
:100D50008091EC019091ED018617970748F061159D
:100D6000710529F48091E8008E778093E800CB012B
:100D700040E0009741F4411106C08091E80082FFF5
:100D800030C080E008952091FA012115B1F125309D
:100D9000B1F12091E80023FD2EC02091E80022FD52
:100DA000ECCF2091E80020FFE4CF4091F3002091A8
:100DB000F200342F009719F02830310558F041E047
:100DC0002830310509F040E02091E8002E7720938B
:100DD000E800CFCF41914093F10001972F5F3F4F43
:100DE000E9CF8091FA01811541F0853041F0809181
:100DF000E80083FFC2CF81E0089582E0089583E098
:100E00000895982F9093E900891771F07091EC0084
:100E10002091ED005091F00021FD09C09F5F9730B7
:100E200089F78093E9000895762F242F50E03091C0
:100E3000EB003E7F3093EB003091ED003D7F30932F
:100E4000ED003091EB0031603093EB007093EC00DB
:100E50002093ED005093F0002091EE0027FDDECFAF
:100E600008958091E60187FF13C08091E80082FF1A
:100E700006C08091E8008B778093E8000895809108
:100E8000FA018111F2CF08958091FA018115D9F309
:100E90008091E80080FFF8CF8091E8008E77ECCF5A
:100EA0002091E4003091E50095E6A9012091EC0045
:100EB000822F817020FF06C08091E80080FF06C06D
:100EC00080E008952091E80022FD1AC08091FA0187
:100ED000811589F0853089F08091EB0085FD0FC088
:100EE0002091E4003091E50042175307F9F2915048
:100EF000E1F684E0089582E0089583E0089581E0BA
:100F00000895A0E0B0E0E7E8F7E00C94681DC8EDB4
:100F1000D0E088818F7E8883E7EDF0E0808181607A
:100F2000808384E082BF81E08093E50188818E7FA9
:100F3000888302EE10E0E2EE10821092DA0068017F
:100F4000CA94E1EE108288818F77888388818068D7
:100F5000888388818F7D888319BC1092FA01109252
:100F6000E4011092F9011092E3017601EA94E0EEB7
:100F700080818B7F808388818160888342E060E00C
:100F800080E00E940107F60180818E7F8083E2EE7F
:100F9000808181608083808188608083E0EE8081B1
:100FA0008E7F8083888180618883CDB7DEB7E8E05B
:100FB0000C94841DE8EDF0E080818E7F8083109298
:100FC000E2001092DA001092E100A0EEB0E08C9105
:100FD00081608C9380818F77808319BCA7ED8C9181
:100FE0008E7F8C9380818F7E80831092E50108959F
:100FF000A8E0B0E0EEEFF7E00C946C1D89839A83D3
:101000006B837C834D835E8380912A020AE010E02B
:101010008A3010F001E010E021E02F8318866B8108
:101020007C8189819A81ED81FE81099581111BC0A6
:101030002F8138852F5F3F4F2F8338870217130783
:1010400094F0C901889F9001899F300D300D1124C3
:1010500080E090E045E34A95F1F7000001968217A1
:101060009307C1F7DCCF2896E4E00C94881D0F931A
:101070001F93CF93DF93EB018A019091FA01943093
:1010800061F58093E9008FEF9091E80095FD06C02F
:1010900095ED9A95F1F700008150B1F78091E80045
:1010A00085FF1BC00E945007811112C08091E8008B
:1010B00085FD06C08091E8008E778093E800F2CF2E
:1010C00088818093F1000150104011F02196EECFFD
:1010D0008091E8008E778093E800DF91CF911F9197
:1010E0000F910895CF93DF93EC0148E050E0BC01ED
:1010F00081E00E94370888E0FE01AEEEB1E0019089
:101100000D928A95E1F7DF91CF91089540E250E08A
:10111000BC0182E00E94370808959091DF0292FBA3
:10112000222720F9281779F080FB92F99093DF02AB
:101130006091DE027091DF0284E090E00E94D71D92
:1011400082E00E94D202089580912B01811559F10D
:101150008091DE0287FF27C00E94E9028093C301CD
:1011600040E250E06BE472E082EC91E00E94ED1D01
:10117000892BC1F080E2E2ECF1E0ABE4B2E0019057
:101180000D928A95E1F7E0916B02F0916C02309735
:1011900049F086E08093C2010480F581E02D82EC65
:1011A00091E0099508950E94E9028093BA0148E010
:1011B00050E06DE672E08AEB91E00E94ED1D892B14
:1011C00089F388E0EAEBF1E0ADE6B2E001900D9240
:1011D0008A95E1F7E0916B02F0916C02309711F380
:1011E0000280F381E02D8AEB91E0DBCFCF93C82F13
:1011F000811509F463C08CEF8C0F813A08F060C050
:1012000080912B01811127C0ECEBF1E08081C817A0
:10121000C9F1319681E0E23CF807C1F780912B01DA
:10122000811136C0ACEBB1E0EFEF80E09C91C917C3
:1012300009F442C01196EF3F19F4911101C0E82F53
:101240008F5F863099F7EF3FB9F1FE2FFF0FFF0B4D
:10125000E654FE4F30C08091DE0287FFD5CFEC2FE1
:10126000E695E695E695F0E0EE53FE4F828190E03C
:101270004C2F477021E001C0220F4A95EAF78223E4
:10128000892B31F08C2F0E942C060E94A408C6CF17
:101290008091DE0287FFC6CFEC2FE695E695E695B6
:1012A000F0E0EE53FE4FC77081E001C0880FCA9591
:1012B000EAF7C281C82BC2830E94A408CF91089587
:1012C00080E28C0F8830D0F7C77081E001C0880FB2
:1012D000CA95EAF7C091DA02C82BC093DA02ECCFC4
:1012E000811541F09CEF980F913A28F40E942C064A
:1012F0000E94A408089590E2980F9830D8F7982F8C
:1013000081E091FD84E090FD880F92FD82950E941E
:101310001003EECFA3E0B0E0E0E9F9E00C946E1D1D
:1013200089836A837B830E94F6088A819B81892B4B
:1013300039F489810E9470092396E2E00C948A1D99
:101340008FE99FE00197F1F700C000008A819B813F
:1013500001978A839B83E9CFA3E0B0E0E2EBF9E059
:101360000C94681D8C01F8019491913008F4B9C077
:1013700009F063C098012F5F3F4F2A833B83F90137
:101380008491813099F42F5F3F4F2A833B83F90189
:10139000849160E570E0893311F060E070E00E94B4
:1013A0008A090A811B810F5F1F4FDDCF823051F404
:1013B00098012E5F3F4F2A833B83F90184910E945D
:1013C000F608EFCF833051F498012E5F3F4F2A8308
:1013D0003B83F90184910E947009E3CF843009F7BF
:1013E00098012E5F3F4F2A833B83F901849120E0CF
:1013F00030E04AE08053990B8A30910560F0211566
:10140000310579F28FE99FE00197F1F700C0000004
:1014100021503109F4CF6A817B816F5F7F4F6A83EE
:101420007B83429FB001439F700D11249C01260FC6
:10143000371FEA81FB818491DDCFE92FF0E0E65A86
:10144000FD4F24912983292F26952695269530E056
:10145000F901E65BFD4FE4909770F12C092E02C074
:10146000F594E7940A94E2F7F901E65CFD4FC49025
:10147000D12C092E02C0D594C7940A94E2F7F90141
:10148000E65DFD4F3491632F70E002C0759567955E
:101490009A95E2F76A837B83E0FE03C081EE0E94A7
:1014A000F608C0FE03C086EE0E94F60860E070E019
:1014B00089810E948A09C0FE03C086EE0E947009DD
:1014C000E0FE03C081EE0E9470098A819B8180FF4B
:1014D00005C060E070E08CE20E948A090A831B83E9
:1014E00060CF2396E8E00C94841D811539F090912B
:1014F000DA02982B9093DA020E94A40808958115CD
:1015000021F00E9410030E94A40808951092DA02AC
:1015100080912B01811581F08091DE0287FF0CC044
:10152000E4ECF1E08EE1DF011D928A95E9F710927B
:10153000E0020E94A4080895ECEBF1E086E0F3CF0E
:101540000E94860A2FEF84E39CE021508040904067
:10155000E1F700C0000088E19AE00FB6F894A89582
:10156000809360000FBE90936000FFCFA0E0B0E0DA
:10157000ECEBFAE00C94681D7C01FC018481811580
:1015800009F47CC061E0C7010E943805F70125819C
:101590002115A9F08A35FCE79F0709F49AC008F0E5
:1015A00072C081303CE7930709F491C08330ECE7C7
:1015B0009E0709F486C081159C4709F475C0F701A0
:1015C00087819085009709F488C00E942904D82F4C
:1015D000C92FF701D580C680C2948FE0C8228091C0
:1015E000DD028770F9F00D2DD114E9F0892F807F8D
:1015F000803461F080E28D0F8830A0F0892F807EEA
:10160000803221F4D23070F0C11461F08091DF0299
:1016100082FF08C082E00E94D2028091DD028770C2
:1016200001E0811100E08C2F82958F70883009F4E1
:1016300030C108F069C0823008F478C0825F8F70D2
:10164000823008F4ABC00115A9F08091DD0280FD65
:1016500011C0F70115828695869586950E9427020E
:10166000C7010E94B60A8091DD028695869586950F
:101670000E94320260E0C7010E943805CDB7DEB794
:10168000E8E00C94841D8B352CE7920721F18C3512
:101690009C4709F094CF8091DF02002482FF0394DD
:1016A000802D0E948D088BCF0E94860A8FEF94E3D5
:1016B000ECE081509040E040E1F700C000000E9463
:1016C00091066FEF7FEF80E090E00E94D71D0E94AF
:1016D000A00A81E0E6CF80E0E4CF8581008111811E
:1016E000811569F0C8010E940605C82F682FC8013E
:1016F0000E944102B8018C2F0E94180366CFC801D6
:101700000E947702C82FF6CF893009F432C18A5F70
:101710008F70823008F097CFD23F09F03BC18C2FF9
:101720008F71D11034C10E942702E0C01C2F1F709E
:10173000C03110F01295107FD114B9F0111569F075
:1017400080E28D0F883010F0D11109C08091DA024B
:10175000812B8093DA020E94A4088D2F40C08091D3
:10176000E002812B8093E002F6CF8D2F0E9470095A
:10177000111509F468CF80E28D0F883010F0D11177
:1017800004C0812F0E94100306C010958091E002D2
:1017900081238093E0020E94A40855CF1C2F1F7064
:1017A000C07FC03211F01295107FD13040F009F4A3
:1017B00050C0D11409F45CC0C114F9F0CECF8091AF
:1017C000DF0282FD16C0D11469F0111539F0809145
:1017D000DA02812B8093DA020E94A40880E00E9442
:1017E000F60831CF80E00E947009111509F42BCF63
:1017F000C8CFD114A1F0C11004C0812F0E94750A76
:1018000022CFF1E0CF121FCF8091DB02912F9823DE
:10181000191709F418CF812B8093DB0214CFC11064
:1018200012CF812F0E947F0A9091DB02812F8923A2
:1018300029F0812F809589238093DB028091DC023F
:10184000912F982309F4FFCE109518231093DC02F2
:10185000FACED11429F026E0C21608F0F4CECDCF8E
:1018600035E0C31608F0EFCE812F0E947F0AEBCE41
:10187000C114D1F3D93349F48FEF97EEE3E08150EF
:101880009040E040E1F700C000008D2F0E947009F9
:10189000DACE8C2F8370A9F5D11028C08D2F8295B8
:1018A00086958770880F880F4D2F4F70082E01C0C6
:1018B000440F0A94EAF72D2F2071D4FF06C02FE0C1
:1018C00001C0220F8A95EAF72095C695C695C37088
:1018D000C23091F0822F842BC33031F080915803B5
:1018E000C13039F0242B82230E9421020E941B0662
:1018F000AACE842B822BF8CF242B809158038227E9
:10190000F3CFD11459F1C0FFF1CF8D2F8295869579
:101910008770880F880F4D2F4F70082E01C0440F1D
:101920000A94EAF72D2F2071D4FF06C02FE001C0E2
:10193000220F8A95EAF72095C695C695C370C230E6
:1019400099F0822F842BC33031F080915903C1303C
:1019500041F0242B82230E942402C8CF823030F22F
:10196000D4CF842B822BF7CF242B8091590382274D
:10197000F2CFCF70D11439F08C2F0E9427028D2F17
:101980000E94750AB3CF8D2F0E947F0A8C2F0E9470
:101990003202ACCF70F4D03FC9F0D13F91F0D114F6
:1019A00009F44CC0C11409F446C08D2F0E94F608FA
:1019B0009DCFD33FE9F0D43F91F79091DF0292FDA4
:1019C00022C08C2F8F71D11411F3ADCED11469F0D8
:1019D000F5E0CF1608F08ACFCF7181E090E09C014E
:1019E00001C0220FCA95EAF7C0CF36E0C316F2CF86
:1019F00080E0D11409F4AFCFCF7181E001C0880F2E
:101A0000CA95EAF7A8CFD11461F08C2F8F7192FF9D
:101A10008ACE982F990F990F990F93609093DD02BA
:101A200082CE81E00E94D20282E0C81608F45ECF26
:101A30000E94D2025BCF8C2F8F7175CEC11479F0CA
:101A4000D93349F49FEFE7EEF3E09150E040F040E6
:101A5000E1F700C000008D2F0E94700947CF8C2F46
:101A60008F7195CF8091C502803170F48091C4024E
:101A7000811551F0E0917602209175023091C002FB
:101A80004091BF022E1301C00895BF0189E0E89F75
:101A9000F0011124DF01A958BD4F14968C911497C1
:101AA000811561F111968C911197831327C08C9148
:101AB000841324C015968C91159781111FC012961E
:101AC0008D919D91A091C102B091C2028A1B9B0B86
:101AD000883C910598F48091C5028F708061809355
:101AE000C502E358FD4F80818F70806180838FEB4A
:101AF00092E00E94B60A0E94C8020895FB01319646
:101B0000E770C0CFAFE0B0E0E8E8FDE00C94631D03
:101B10008C0186E0F801DE011A9601900D928A95FB
:101B2000E1F7F801F580C4808FEB882E82E0982ED3
:101B30007090C302711020C0C114D9F0F11409F4DF
:101B400049C1C8010E947305811509F443C189E0A8
:101B5000F801D40101900D928A95E1F7F1E0CF12DE
:101B600006C08091BF029091C0020E945F050E9452
:101B7000320DFF24F3945DC0E080A280B380D0904A
:101B8000C4028091C1029091C2029501281B390BB9
:101B9000D11409F4E8C0283C310508F0B4C0C114E0
:101BA00041F39091C002C1808091C502803108F05C
:101BB00061C0C9121DC09091BF029E1119C0409111
:101BC000C6025091C702278130854217530781F41E
:101BD000F1104AC08F7080618093C5028FEB92E054
:101BE0000E94B60A8091C502F8018683F12C21C0BB
:101BF000F1103AC040E06C2D8E2D0E94AA0240E008
:101C00006C2D8E2D0E94AA02F82E8111EFCF8A85AD
:101C10009B850E945F05292F22952F70903470F4C8
:101C20009F702230A0F09115B1F0F80196819031AB
:101C300090F48F2D2F96EDE00C947F1D2A5F2F706E
:101C4000223068F0C8010E94B60AFD2CF2CF91152F
:101C500011F0811571F3805E883058F3F3CF803F27
:101C600040F3815F8330F9CF8091C502816080931A
:101C7000C502BCCFC9121CC09091BF029E1118C0F2
:101C80004091C6025091C702278130854217530701
:101C900079F4F1100DC08683C8010E94B60A89E06C
:101CA000F801AFEBB2E001900D928A95E1F761CFB8
:101CB000C8010E947305811509F48CC0F11409F460
:101CC00089C08091C5028032A8F02091BF02309176
:101CD000C00229833A83AB82BC827D821E828F83BD
:101CE0008091C6029091C70288879987CE0101969C
:101CF0000E94B60A89E0F801AFEBB2E001900D92C4
:101D00008A95E1F734CF8091C502803150F48FEB92
:101D100092E00E94B60A89E0F40111928A95E9F7EF
:101D200065CFC11409F425CF2091C00291812913F8
:101D3000BFCF9091BF029E11BBCF4091C602509180
:101D4000C702278130854217530709F0B1CFF11040
:101D5000AFCF8683C8010E94B60A89E0F4011192D0
:101D60008A95E9F706CF283C3105A8F6C11409F495
:101D700000CFF11479F19091C0028181981320C0B5
:101D80008091BF028E111CC02091C6023091C70203
:101D9000878190852817390799F49091C50290FDA5
:101DA0007ECF903108F47BCF892F9683907F903F30
:101DB00009F472CF982F907F905F8F70892B6BCF33
:101DC000C8010E947305811195CF8091C502816081
:101DD0008093C502C8010E94B60ACBCEA2E1B0E052
:101DE000E4EFFEE00C946C1D0A871B872C873D876F
:101DF0004E875F87688B798B8A8BCE010A960E940B
:101E0000820D811128C0209175023091760289E0FF
:101E1000FE013A96DE01119601900D928A95E1F746
:101E20008E858115C1F0822F90E08395877090E0B8
:101E300038171906D1F099E0929FD0011124A958C2
:101E4000BD4FFE01319601900D929A95E1F7809376
:101E500075020E94C80280917602909175028913E2
:101E600012C06296E4E00C94881D0E94860A1092CB
:101E700075021092760289E0EFEBF2E0DF011D922D
:101E80008A95E9F7E8CFB9E08B9FC0011124895802
:101E90009D4F0E94820D811521F3209176022F5FC4
:101EA0003F4FC901877080937602D5CFEF92FF92A2
:101EB0000F931F93CF93DF9380915503811561F0AA
:101EC000E091F7018DE0F82E80915503E81748F076
:101ED000109255031092F701CDB7DEB7E6E00C94EF
:101EE000861DEE24E394EE0EE092F701CE2FD0E0B3
:101EF000FE9EF0011124E351FD4F84818115F9F01C
:101F000087819085892B39F5818592858F3F980748
:101F100011F188309105A9F081319105A9F0079759
:101F200021F48FEF93E00E94AC09FC9EF001FD9E2E
:101F3000F00D1124E351FD4F14821092E002EE2DBA
:101F4000C3CF8AEF93E0EFCF8091590394E08927C4
:101F50000E942402EACF00811181228133814481D1
:101F600055816681778180850E94EE0EDECF4F928B
:101F70005F927F928F929F92AF92BF92CF92DF92A9
:101F8000EF92FF920F931F93CF93DF93C091EC02D8
:101F900001E010E08091EB028C1314C00E94560FF8
:101FA0000E94C005DF91CF911F910F91FF90EF909C
:101FB000DF90CF90BF90AF909F908F907F905F9079
:101FC0004F900895D0E0FE01EE0FFF1FEF51FD4F3F
:101FD00080819181A0E0B0E08231910540F427E05A
:101FE000289FD001299FB00D1124A45DBE4F1496E7
:101FF0002C911497211152C0709055036DEE72E030
:1020000040E050E0A12C471508F046C0FB01438496
:102010005484CD90DD90129799249A94892CB12CF8
:102020002B2D30E0F601EB0DF11DEB0DF11DE590D0
:10203000F5904E145F0409F09401EF2819F0B39461
:102040004901EECF2F3F320771F1F80101C0EE0FC9
:102050002A95EAF7AE2A980102C0220F331FBA94DC
:10206000E2F721503109A2161306D9F412962D91E8
:102070003D916DE0649FF001659FF00D1124E351E7
:10208000FD4F2783308724E02483108211828187CB
:10209000928761E011966C930E94D105C395C3703D
:1020A00079CFFB0114824F5F5F4F635F7F4FABCFF0
:1020B00010925603109257031092AA018091EB02DE
:1020C0008093EC020E94C0050E94560F0895AEE175
:1020D000B0E0EDE6F0E10C945E1D4B8B5C8B6D8BFC
:1020E0007E8B8F8B592E988F91111092E002188A57
:1020F000198A1A8A86E0FE017396DE011A9601900B
:102100000D928A95E1F74F88411489F04E865F86DB
:1021100061E0CE010A960E9438055C0180352CE70B
:10212000920791F4511419F181E08093AA014E862F
:102130005F860A851B852C853D85A2016889798982
:102140008A890E94EE0EC2C081353CE7930729F4CC
:10215000511469F00E945810EACF82359C4739F437
:10216000511429F08091AA018111F4CFDDCF5CE2F6
:10217000E52E51E0F52E312C812C912C3401639405
:10218000D7012D913D916FEF80E09FEFC82ED12CAC
:10219000F901E80FF11DE80FF11D45915591A416C5
:1021A000B50611F0C62ED92E452B21F08F5F6C2D70
:1021B0009D2DECCF10E0BFEFCB16DC0409F445C039
:1021C000F70144811091AA01411110E0D701159641
:1021D0002D909C911697511409F401C1111509F421
:1021E000FEC0211015C021E00C2C01C0220F0A9462
:1021F000EAF7922B16969C932091E9023091EA021D
:102200002233310528F422E32093E9021092EA02F6
:10221000F30102C0EE0FFF1F8A95E2F7CF0101978D
:10222000D70116962C912817190679F48091560338
:1022300090915703009709F44DC00E948206C397FE
:1022400008F448C081E0F7018483312ABFEF8B1A7C
:102250009B0AE7E0EE0EF11CF2E18F16910409F003
:102260008FCF511409F417C1311409F414C10E941D
:1022700054068093560390935703809155038830FA
:1022800028F591E0980F9093550399E0FE013A9656
:10229000DE01119601900D929A95E1F74D825E82D2
:1022A0002DE0829FC001112483519D4F29E0FE0142
:1022B0003196DC0101900D922A95E1F72FEF3FEF67
:1022C000DC0119962D933D93AD92BD926E96E2E19D
:1022D0000C947A1D9091EC028091EB02292FA0E0E2
:1022E000B0E037E061E0981709F44FC0492F50E0A3
:1022F000998F1A8EFA01EE0FFF1FEF51FD4F4081AB
:102300005181A0E0B0E04231510538F4349FD00152
:10231000359FB00D1124A45DBE4F4D915D91129774
:102320004D8F5E8F212C70E000E0ED8DFE8DE00F73
:10233000F11DE00FF11DC590D590C114D104E1F05D
:10234000F7010190F081E02DEB8FFC8F70E007C06A
:10235000E1E0C416D50609F0E0E02E2A7F5FEB8DA0
:10236000FC8DE70FF11DE70FF11D459155914115CA
:10237000510571F70F5FD9CF211471F17017C0F4B7
:10238000E1E0D7011496EC9314972093EC02AE157C
:10239000BF0509F45ACF90E0FC01EE0FFF1FEF518B
:1023A000FD4F80829182019683708093EB024DCF26
:1023B000109761F014966C931497AE15BF0529F32E
:1023C000921304C0A9014395242F2370498D5A8D7F
:1023D0004395942F937087CFA0E0B0E0F7CF292FDB
:1023E00030E0211020C0B30102C0660F771F8A952C
:1023F000E2F7CB0101978217930779F010E0F30120
:1024000002C0EE0FFF1FCA94E2F76F01C094D7011C
:1024100016968C918C218C9318CF411581F3C401B1
:102420000E94D105EBCFA9010C2C02C05595479510
:102430000A94E2F7C901019782239323892B41F57E
:1024400040FF26C0D70112968D919D91892BD9F01E
:10245000FE01319687E0DF011D928A95E9F70E941F
:1024600054069C018B839C8384E08D83F7019281C9
:102470008381792F9887898709811A8144E05E8159
:102480006F810E94EE0ED70115961C92122DB7CFC8
:10249000142F1170B4CF9091EC028091EB02981739
:1024A00029F00E94B70F311011CF41CE0E94560F74
:1024B00010925603109257030E94C005F4CFA6E075
:1024C000B0E0E5E6F2E10C946C1D0E9454068C012C
:1024D0008091490290914A028017910779F0198200
:1024E0001A820E945406BC0149815A8180E090E022
:1024F0000E9467100093490210934A022696E4E076
:102500000C94881DAAE2B0E0E8E8F2E10C946D1D9D
:1025100086EE91E0FC0101962091F100208321E0FC
:102520008E3E9207B9F78091E701893009F456C0D1
:10253000C8F4823009F4B3C0833009F482C081301A
:1025400071F18091E80083FFE7C08091E6019091EE
:10255000E7019A3008F0E0C0E92FF0E0EB5FF14EC0
:102560000C94951D8A3009F489C08B3051F7809105
:10257000E601813231F78091EA019091EB01892BDC
:1025800001F78091E800877F8093E8000E9431077F
:102590008091E80180932B010E94860AD2CF80911E
:1025A000E601813A71F68091E800877F8093E80028
:1025B0008091EA019091EB01892B61F060E080E06D
:1025C00090E070E00E94A7068091E8008B778093EE
:1025D000E800B7CF68E08EEE91E0F3CF8091E6019E
:1025E000813209F0AECF8091EA019091EB01029720
:1025F00008F0A7CF8091E800877F8093E800809162
:10260000E80082FF19C02091F3008091F200922F20
:10261000029731F48091F100813011F0863021F47D
:102620008091F1008093F6018091E8008B77809390
:10263000E8000E94310785CF8091FA018111DFCF38
:1026400080CF8091E601813A09F07BCF8091EA0149
:102650009091EB01892B09F074CF8091E800877F7E
:102660008093E8008091E80080FFFCCF80912B01EF
:102670008093F1008091E8008E77D9CF8091E601B8
:10268000813209F05ECF8091E800877F8093E80077
:102690000E9431078091E9018093E20152CF80913D
:1026A000E601813A09F04DCF8091E800877F809361
:1026B000E8008091E80080FFFCCF8091E201D8CF54
:1026C000803889F0823841F58091EA018F70873037
:1026D00018F58093E9008091EB0085FB882780F94D
:1026E0001092E90006C08091F901880F9091E301F2
:1026F000892B9091E800977F9093E8008093F100F8
:102700001092F1008091E8008E7723C0811116C0ED
:102710008091E801813011F18091E80083FF0AC0C7
:102720008091E800877F8093E8008091EB008062D1
:102730008093EB00AA96E3E00C94891D823061F748
:102740008091E801811581F01092E9008091E80004
:10275000877F8093E8000E943107DECF933009F035
:1027600080E08093F901F0CF8091EA018F702FEF24
:10277000280F263088F68093E9002091EB0020FF97
:10278000E3CF933031F48091EB0080628093EB00D3
:10279000DBCF9091EB0090619093EB0021E030E073
:1027A000A90101C0440F8A95EAF74093EA0010920C
:1027B000EA008091EB008860E9CF8111ADCF1091E4
:1027C000E8011F778091E3008078812B8093E300FC
:1027D0008091E800877F8093E8000E943107809114
:1027E000E80080FFFCCF8091E30080688093E300E5
:1027F00083E0111101C082E08093FA018DCF8058EF
:10280000823008F089CF2091E8013091E9012C3D18
:1028100053E0350791F583E08A838AE289834FB7D5
:10282000F894DE01139620E03EE051E2E32FF0E061
:1028300050935700849120FF03C082958F703F5FB3
:102840008F708A30C0F0895C8D931D922F5F243188
:1028500069F74FBF8091E800877F8093E8006AE2C4
:1028600070E0CE0101960E94A7068091E8008B7768
:102870008093E80051CF805DE7CF832F90E08330D5
:10288000910519F160F48130910509F46CC0823032
:10289000910509F041CF8BE3EBEAF1E029C02091EB
:1028A000EA013091EB018132910509F453C0823283
:1028B000910509F031CF2130310508F45CC009F0F1
:1028C0002BCF8BE3ECE2F1E013C0822F90E02130BC
:1028D00099F182309105B9F1009709F01DCFE6E238
:1028E000F2E0E4918E2FE6E2F2E0009709F414CFD3
:1028F0002091E800277F2093E8002091EC0130919F
:10290000ED018217930708F49C0140E02115310581
:10291000B1F5411134C08091E80082FDA6CF8091CD
:10292000FA01811509F4A1CF853009F49ECF809179
:10293000E80083FFF0CF99CFE8E1F2E0E4918E2F39
:10294000E8E1F2E0D2CFE8EFF1E0E4918E2FE8EF9A
:10295000F1E0CBCF2130310550F009F0DDCE89E038
:10296000E6EDF1E0C5CF82E1E6EEF1E0C1CF89E02E
:10297000EDEBF1E0BDCF84E4E7E6F1E0B9CF809183
:10298000FA01811509F471CF853009F46ECF809179
:10299000E80083FD6ACF8091E80082FDBCCF809182
:1029A000E80080FFB3CF4091F3008091F200942FB4
:1029B0002115310519F08830910550F041E0089754
:1029C00009F040E08091E8008E778093E8009ECF88
:1029D00044914093F1003196215031090196E8CF9E
:1029E000803809F099CE8091E800877F8093E800D5
:1029F0008091E4018093F10085CE81118DCE1091FC
:102A0000E801123008F088CE8091E800877F80933B
:102A1000E8001093E4010E943107111581F084E071
:102A20008093FA0142E061EC81E00E94010742E2FA
:102A300061EC82E00E9401078091FA016DCE8091E5
:102A4000E30087FDECCF81E0EBCFAEE0B0E0EBE25E
:102A5000F5E10C94691DFE01319688E0DF011D92BD
:102A60008A95E9F78DEAE82E81E0F82E8F01ED874F
:102A70001E87F70181917F018F3F09F43FC0F894D1
:102A8000E82FE295EF70F0E021A18F7041E001C0E6
:102A9000440F8A95EAF7842F922F942B91A392A149
:102AA0008095892382A3789400C0E1EBF1E031E0C6
:102AB000D12C21912F3F79F0A22FA295AF70A05E6B
:102AC000B0E08C9190E02F7002C0959587952A9583
:102AD000E2F780FF82C080E0D82A330F87EB91E0D5
:102AE0008E179F0731F7F70182918F3F11F00E94F7
:102AF000A80590EA9A95F1F7D801DC920F5F1F4F75
:102B0000B1EBEB16B1E0FB0609F0B3CF48E050E0C3
:102B10006D857E858BE392E00E94ED1D009749F064
:102B200028E0ED85FE85ABE3B2E001900D922A9599
:102B3000E1F700913A0210E00E5C1D4F892B09F479
:102B40004EC081E0809331020E94540680932F0290
:102B50009093300280914302811509F497C07E0161
:102B6000E9E0EE0EF11C84E0D7011D928A95E9F7A9
:102B700080912A028A3008F054C040EF56E1B70134
:102B8000C8010E94F807811509F46EC04AE857E1B0
:102B9000B701C8010E94F807811509F465C04AE928
:102BA00056E1B701C8010E94F807811509F45CC01D
:102BB00010922A0280912E0290E044E050E0B7018A
:102BC0008E5C9D4F0E94ED1D21E020932D02892BEC
:102BD000E9F52E96E7E00C94851D832F7DCF80913B
:102BE0003102811509F4B6CF80912F029091300205
:102BF0000E948206059708F4ADCF44E050E06BE3F5
:102C000072E0C8010E94ED1D892B41F084E0EBE3E6
:102C1000F2E0D80101900D928A95E1F7109231020D
:102C200099CF80912B0290912C020E948206843FC2
:102C3000914008F0A2CF80912D02811551F284E0DD
:102C4000F70111928A95E9F710922D02E0912E0278
:102C5000F0E0EE5CFD4F89859A85AB85BC8580836D
:102C60009183A283B383B5CF80912A028F3F39F439
:102C70000E94540680932B0290932C02DCCF8F5F2E
:102C800080932A028A3008F495CFF2CFE0902E028A
:102C9000F12CA7014E5C5D4F7A01F8018081918192
:102CA000A281B3818093120290931302A093140225
:102CB000B093150282E192E00E9402068093110215
:102CC0008091160290911702A0911802B0911902FA
:102CD000F70180839183A283B383E0901A02F0907E
:102CE0001B0200911C0210911D02809126029091FE
:102CF0002702A0912802B0912902E816F9060A07D6
:102D00001B0709F466CFE0922602F0922702009397
:102D10002802109329020E946006E61AF70A080B9F
:102D2000190BE0924502F09246020093470210937D
:102D300048024FCFA4E0B0E0E0EAF6E10C946D1D4C
:102D400040910502509106026091070270910802BD
:102D50002FB7F89480910D0290910E02A0910F026E
:102D6000B09110022FBF841B950BA60BB70B11E07F
:102D700084369105A105B10570F10E946C06DC0155
:102D8000CB010296A11DB11D89839A83AB83BC83BD
:102D900080912401909125018F5E9D4F2091230108
:102DA000422F50E0253008F044E0BE016F5F7F4FB6
:102DB0000E94FA1D83E090E00E94DC1C182F811510
:102DC00051F00E94600660930502709306028093A2
:102DD000070290930802812F2496E3E00C94891D4A
:102DE000A7E0B0E0E6EFF6E10C946D1D6E837F8303
:102DF00080E090E00E94DC1C182F811509F469C066
:102E000080910E01482F50E0811141E060910F0147
:102E1000709110016F5E7D4FCE0105960E94FA1DE4
:102E20004091220250912302609124027091250268
:102E30002FB7F89480910D0290910E02A0910F028D
:102E4000B09110022FBF841B950BA60BB70B8436D5
:102E50009105A105B10538F482E192E00E940206D5
:102E60009D818917B1F181E090E00E94DC1C811501
:102E7000F1F180911601482F50E0853008F044E0D0
:102E800060911701709118016F5E7D4FCE01019620
:102E90000E94FA1D82E192E00E9402069D81891340
:102EA00026C00E94600660932202709323028093E2
:102EB00024029093250289819A81AB81BC81809301
:102EC0001E0290931F02A0932002B093210281E082
:102ED0000FC08091120290911302A0911402B09140
:102EE000150289839A83AB83BC831111E4CF80E000
:102EF00040911E0250911F026091200270912102A8
:102F0000EE81FF8140835183628373832796E3E0E0
:102F10000C94891DA2E0B0E0E0E9F7E10C946C1D8F
:102F200089839A8344E050E066E172E00E94ED1DDF
:102F30000091090210910A0220910B0230910C02BB
:102F4000EFB7F89440910D0250910E0260910F027C
:102F500070911002EFBF401B510B620B730B443694
:102F600051056105710510F4892B09F180911C014F
:102F700090911D018F5E9D4F20911B01422F50E0CB
:102F8000253008F044E069817A810E94FA1D82E0D0
:102F900090E00E94DC1C811559F00E94600660934D
:102FA000090270930A0280930B0290930C0281E055
:102FB0002296E4E00C94881DCDB7DEB72A970FB6B1
:102FC000F894DEBF0FBECDBF85B7806885BF85B7DB
:102FD000806885BF84B7877F84BF0FB6F894A895B3
:102FE00080916000886180936000109260000FBE45
:102FF00080E890E00FB6F8948093610090936100B0
:103000000FBE86EA95E08093B8019093B9010E94C3
:10301000DA070E9481078091E20084608093E200D9
:1030200078948091FA01811599F08091E9001091CE
:10303000EC008F7010FB112717F9182B1092E90084
:103040008091E80083FD0E9482121F701093E900B6
:1030500082E084BD93E095BD9AEF97BD80936E00AA
:1030600010924502109246021092470210924802B6
:1030700088EC90E02091E30027FD0EC0AFE3BCE9AF
:103080001197F1F700C000000197A1F70E94DA073D
:103090001092FA0180E001C081E0809343028093A6
:1030A00044028093000181110E94EA1B809100017B
:1030B0008091000191E08927880F880F80933A0260
:1030C00094E0981B90932E020DEA11E091EBE92E0B
:1030D00091E0F92EF80181918F018F3F11F00E944C
:1030E000A805E016F106B1F701EB11E087EBE82E39
:1030F00081E0F82ED8018D918D018F3F11F00E9453
:10310000A805E016F106B1F788E0E2E3F2E0DF019E
:10311000282F1D922A95E9F7EBE3F2E0DF011D92DB
:103120008A95E9F780E090E00E94A31D853E9E4FBE
:1031300009F45EC065EE7EEF80E090E00E94D71D4E
:1031400060E082E090E00E94B91D81E08093580326
:1031500061E083E090E00E94B91D60E074E184E0EA
:1031600090E00E94D71D60E086E090E00E94B91DCB
:1031700060E087E090E00E94B91D60E070E0AB0184
:1031800088E090E00E94CB1D60E083E290E00E9426
:10319000B91D60E08CE090E00E94B91D60E08DE018
:1031A00090E00E94B91D19821A821B821C821D8226
:1031B0001E821F82188648E050E067E170E0CE0171
:1031C00001960E94A91D60E070E0AB018FE190E0E4
:1031D0000E94CB1D60E070E0AB018FE090E00E94A8
:1031E000CB1D60E070E0AB0183E190E00E94CB1D5D
:1031F00082E090E00E949B1D8093FB0184E090E0C0
:103200000E94A31D8093DE029093DF020E94251589
:10321000EFEFF6E721E0E150F0402040E1F700C099
:1032200000000E942515E091440281E0E827EE0F9E
:10323000EE0FF0E0EE5CFD4F808181FF08C06FEF84
:103240007FEF80E090E00E94D71D0E94910683E00E
:1032500090E00E949B1D0E942102809143028111F7
:1032600002C00E94ED1B81E091E080936B0290937D
:103270006C028091FA0102E110E4853009F481C00A
:103280000E9425150CEF11E0E2E3F2E0E987FA87EE
:10329000D8019D91808124E032E02A173B0709F490
:1032A0007AC031969817A9F3A0904302F12CA98512
:1032B000BA85ED90A987BA87F801B1908F01BE1445
:1032C00029F1BE24CC24C394D12C8B2D8C21B9F0B0
:1032D000A114A9F0D982FA820E9454068B839C83A0
:1032E000F1E0FD8391E08E2D8C2109F490E09E8326
:1032F00049815A816B817C818D810E946710D394B2
:10330000CC0C26E0D212E1CFF801E292F39438E03F
:10331000F312CDCF0E946C0642C08091FA01843036
:1033200019F11092F80188E190E00FB6F894A89591
:10333000809360000FBE1093600083B7817F84602C
:1033400083BF83B7816083BF7894889583B78E7F6E
:1033500083BF0FB6F894A895809160008861809330
:103360006000109260000FBE0E942515E2E3F2E0BB
:103370008081811150C03196AAE3B2E0AE17BF0739
:10338000B9F78091FA01853009F4C7CF0E94860A07
:103390000E941B0675CF981387CF0E945F12809101
:1033A0004302811519F18091AA018115F9F08091EC
:1033B0005603909157030097C9F00E94820620910E
:1033C000E9023091EA022817390780F49091EC0263
:1033D0008091EB029817B1F00E94B70F1092E902AA
:1033E0001092EA0210925603109257030E941B0695
:1033F00090910402891709F43CCF809304020E9443
:10340000600637CF0E94560F109256031092570352
:103410000E94C005EBCF8091F901811509F4B1CF6D
:10342000B0E1B9BD09BD09B400FEFDCF8091D8005F
:103430008F7D8093D8008091E00082608093E000CF
:103440008091E00081FDFCCF0E94860A9ACF1F92F6
:103450001FB61F9211248F939F93AF93BF938091B8
:10346000F801811113C080910D0290910E02A0917C
:103470000F02B09110024196A11DB11D80930D0263
:1034800090930E02A0930F02B0931002BF91AF91E0
:103490009F918F911F901FBE1F90189578941F9237
:1034A0001FB61F9211248F939F93AF93BF93809168
:1034B0000D0290910E02A0910F02B09110020196A0
:1034C000A11DB11D80930D0290930E02A0930F02D7
:1034D000B0931002BF91AF919F918F911F901FBE2B
:1034E0001F9018951F920F920FB60F9211242F93D1
:1034F0003F934F935F936F937F938F939F93AF937C
:10350000BF93EF93FF938091E10082FF09C0809108
:10351000E20082FF05C08091E1008B7F8093E10093
:103520008091DA0080FF24C08091D80080FF20C005
:103530008091DA008E7F8093DA008091D90080FF3D
:103540009BC080E189BD82E189BD09B400FEFDCF49
:1035500081E08093FA018091E501811109C00E9408
:10356000DA070E9481078091E20084608093E20084
:103570008091E10080FF17C08091E20080FF13C0BE
:103580008091E2008E7F8093E2008091E200806172
:103590008093E2008091D80080628093D80019BCAB
:1035A00085E08093FA018091E10084FF29C0809139
:1035B000E20084FF25C080E189BD82E189BD09B4B4
:1035C00000FEFDCF8091D8008F7D8093D800809140
:1035D000E1008F7E8093E1008091E2008F7E8093F6
:1035E000E2008091E20081608093E2008091E4013A
:1035F000811509F447C084E08093FA018091FA01B3
:103600008091E10083FF27C08091E20083FF23C007
:103610008091E100877F8093E10082E08093FA014E
:103620001092E4018091E1008E7F8093E10080910F
:10363000E2008E7F8093E2008091E20080618093BF
:10364000E20042E060E080E00E9401078091F0002B
:1036500088608093F000FF91EF91BF91AF919F91AF
:103660008F917F916F915F914F913F912F910F902B
:103670000FBE0F901F90189519BC1092FA0110926E
:10368000E50176CF8091E30087FF02C083E0B4CFED
:1036900081E0B2CF1F920F920FB60F921124EF92DA
:1036A000FF920F931F932F933F934F935F936F93CB
:1036B0007F938F939F93AF93BF93CF93EF93FF939A
:1036C00009EE10E0F8018081C091EC008F70C0FB22
:1036D000CC27C7F9C82B1082E0EF8081877F8083D9
:1036E00078940E948212F8011082E0EF8081886055
:1036F0008083CF70E9EEC083FF91EF91CF91BF91AE
:10370000AF919F918F917F916F915F914F913F9179
:103710002F911F910F91FF90EF900F900FBE0F9080
:103720001F9018958EE14A9B02C08150E1F74A9B99
:10373000FECF08955A9880E28A95F1F75A9A089533
:10374000FC012BE02A95F1F728E080E090E031E0E1
:1037500040E14A95F1F7880F4A9B02C081609327A8
:1037600042E04A95F1F7000040E14A95F1F7215017
:1037700079F720E12A95F1F729B132E03A95F1F78E
:10378000000040E14A95F1F731E022FD93272081C6
:10379000920F90830895A1E0B0E0E1EDFBE10C947D
:1037A0006A1D19828C017C01E60EF11C0E94921B9D
:1037B000CE0101960E94A01BF80181938F01EE15A6
:1037C000FF05A1F781E09981911180E02196E6E063
:1037D0000C94861D529A5A9A089552985A9AEA9AC7
:1037E000E9E6F0E080818F7C808308956150770B5B
:1037F00091E001C0990F6A95EAF7692F90E021E006
:10380000611108C0911591F05A9A80E28A95F1F7FA
:103810005A980895362F382339F05A9A922730E271
:103820003A95F1F76695ECCF5A98F9CF5A98EDCFC3
:10383000A3E0B0E0EEE1FCE10C946C1D8A839B8375
:103840000A811B81060F111DEA81FB818191EA83A8
:10385000FB8389830E949A1B68E089810E94F61B82
:10386000EA81FB81E017F10779F72396E4E00C94F5
:10387000881D1F920F920FB60F9211240F931F9362
:103880002F933F934F935F936F937F938F939F9368
:10389000AF93BF93EF93FF93CF93DF930F92CDB787
:1038A000DEB719820E94921BCE0101960E94A01BD6
:1038B000082F069506950695282F22952570902F9E
:1038C0009570920F292F237096959695920F9827B1
:1038D00097708981892B09F059C0053008F056C0CE
:1038E00080E18A95F1F75A9A529A82E08A95F1F727
:1038F00000C05A9888E0089F80011124D801A55F74
:10390000BE4F1696ED91FD911897309791F060910A
:10391000AB017091AC0114962D913D91260F371F8C
:1039200015978D919D91680F791F4C9113978C91EC
:103930000995F801E55FFE4F6381611551F0209113
:10394000AB013091AC0184819581820F931F0E945D
:10395000181C0E949A1B80E18A95F1F75A98529898
:103960005A9A80E18A95F1F7F801E55FFE4F608190
:10397000611551F02091AB013091AC0181819281B0
:10398000820F931F0E94CB1B0E94921B0F90DF910E
:10399000CF91FF91EF91BF91AF919F918F917F91C7
:1039A0006F915F914F913F912F911F910F910F90C8
:1039B0000FBE0F901F901895A4E0B0E0E2EEFCE17E
:1039C0000C946E1D89839A83853091050CF06FC02D
:1039D000F894529A5A9845E04A95F1F70000982FCA
:1039E0009695957089818570980F892F8370292FFE
:1039F00026952695E981FA8193E0EE0FFF1F9A95AF
:103A0000E1F7EB83FC83280FE22BF32BE983FA83A6
:103A10000E949A1B00C068E089810E94F61BF0E1B9
:103A2000FA95F1F752985A9A4A9B3AC087E090E08B
:103A30004A9938C0EB81FC81E55FFE4F63816115D7
:103A400061F02091AB013091AC0184819581820FAE
:103A5000931F0E94CB1B811539F10E94921B40E2FB
:103A60004A95F1F75A98529A50E15A95F1F78B819D
:103A70009C81855F9E4F89839A83FC0160816115DB
:103A800051F02091AB013091AC0181819281820F84
:103A9000931F0E94181C0E949A1B789481E008C012
:103AA00000C0C2CF019741F4529A5A9A789480E0AC
:103AB0002496E2E00C948A1D00C0BACF2F923F9268
:103AC0004F925F926F927F928F929F92AF92BF922E
:103AD000CF92DF92EF92FF920F931F93CF93DF93DA
:103AE000CDB7DEB7CA1BDB0B0FB6F894DEBF0FBE37
:103AF000CDBF09942A88398848885F846E847D8484
:103B00008C849B84AA84B984C884DF80EE80FD8085
:103B10000C811B81AA81B981CE0FD11D0FB6F894FB
:103B2000DEBF0FBECDBFED010895EE0FFF1F059064
:103B3000F491E02D0994F999FECF92BD81BDF89AD8
:103B4000992780B50895A8E1B0E042E050E00C94D8
:103B5000DF1DDC01A40FB51F4150504048F0CB01E0
:103B6000840F951F2E910E94BA1D41505040D0F7EE
:103B70000895262FF999FECF92BD81BDF89A01973D
:103B800000B4021639F01FBA20BD0FB6F894FA9AA5
:103B9000F99A0FBE08950396272F0E94BA1D0E941E
:103BA000B91D252F0E94BA1D242F0C94BA1D019611
:103BB000272F0E94BA1D0C94B91DDC01CB01FC011A
:103BC000F999FECF06C0F2BDE1BDF89A319600B476
:103BD0000D9241505040B8F70895FB01DC0104C03C
:103BE0008D910190801921F441505040C8F7881BF5
:103BF000990B0895FB01DC0102C001900D92415028
:103C00005040D8F70895F894FFCF601386138C13B3
:0E3C100086138C13DD13FF138C13F014FD14B8
:103C1E0001A20672088608A506A60600000001008D
:103C2E000000000000000401000000040500000078
:103C3E000000000409000000000000012601290018
:103C4E0000000020012B000000001A01A852000005
:103C5E00001401A2520000000E01A1520000000645
:103C6E0001AA52000000FE00A352000000F800005E
:103C7E0000000000F0000000000000EA002A000032
:103C8E000000E2004C00000000DC00B85200000012
:103C9E00D600B252000000D000B152000000C800A1
:103CAE00BA52000000C000B352000000B600390046
:103CBE00000000AC000000000000011102946697A5
:083CCE00C6F4F5F6F7313300EE
:00000001FF
