:100000000C949E010C94BB010C94BB010C94DA1A65
:100010000C94BB010C94BB010C94BB010C94BB0170
:100020000C94BB010C94BB010C9413190C94EB19A8
:100030000C94C8180C94BB010C94BB010C94BB012C
:100040000C94BB010C94BB010C94BB010C94BB0140
:100050000C94BB010C94EF180C94BB010C94BB01E5
:100060000C94BB010C94BB010C94BB010C94BB0120
:100070000C94BB010C94BB010C94BB010C94BB0110
:100080000C94BB010C94BB010C94BB010C94BB0100
:100090000C94BB010C94BB010C94BB010C94BB01F0
:1000A0000C94BB010C94BB010C94BB0137003600CF
:1000B000110010000000070009000D000E000000F4
:1000C00010000E000F0000000D000E000F000000D9
:1000D0000D000F0000000D000E0000000E000F00CC
:1000E00000000C0012000D0000000C0012000000C7
:1000F0001B00060000001600070019000000160093
:1001000007000900000016000900000007000900B0
:1001100000001600070000001A000800000005019A
:100120000906A1018506050719E029E71500250143
:100130009508750181020507190029EF15002501B1
:1001400095F07501810205081901290595057501CC
:100150009102950175039101C005010906A10105F0
:100160000719E029E7150025019508750181029519
:1001700001750881010507190029FF150026FF00F8
:100180009506750881000508190129051500250146
:10019000950575019102950175039101C009023B16
:1001A00000020100A0FA0904000001030101000996
:1001B0002111010001224400070581030800010903
:1001C0000401000103000000092111010001223B8C
:1001D0000007058203200001120100020000000850
:1001E000534601000100010200011E0343006F009D
:1001F00072006E00650020004B006500790062000F
:100200006F0061007200640000000C0343005200A4
:100210004B004200440000000403090400001400E5
:100220001A0008001500170000000400160007005F
:1002300009000A0000001D001B000600190005004F
:100240000000000000000000215228000000130000
:1002500012000C0018001C00000033000F000E00FC
:100260000D000B00000038003700360010001100B0
:10027000000000000000000021522C0000003500AA
:10028000240025002600270000002F002100220066
:1002900023003000000046001E001F002000010067
:1002A0000000000000000100E1000100000001006A
:1002B0002E002D0001008000000034004F0052008D
:1002C00051005000000031000100010001008100D8
:1002D00000000000000001000100010000002900F2
:1002E00014001A000800150000002B00040016007E
:1002F000070009000000E1001D001B0006001900B6
:10030000000000000000E00028002C0000000100B8
:1003100001000100010001000000010001000100D6
:1003200001000100000001000100010001000100C6
:1003300000000000000000000100010011241FBEA9
:10034000CFEFDAE0DEBFCDBF11E0A0E0B1E0E0E644
:10035000F9E302C005900D92AA3AB107D9F723E05C
:10036000AAEAB1E001C01D92AC34B207E1F70E94E5
:100370007D160C94A41C0C94000080934A030895ED
:1003800080934B03089521E001C0220F8A95EAF77C
:1003900080914B03822B0E94C001089521E030E040
:1003A000A90101C0440F8A95EAF7842F80959091A6
:1003B0004B0389230E94C0010895292F983090F59E
:1003C000863080F590E036E0239F800D911D11244A
:1003D00051E081FD54E080FD550F82FD529523E0F0
:1003E000969587952A95E1F7FC01EE0FFF1FE80F20
:1003F000F91FE654FD4F20E030E070E04191DF014D
:10040000CB01022E02C0969587950A94E2F7869555
:10041000880B8427852384278E932F5F3F4F2330BB
:10042000310561F70895292F983070F5863060F511
:1004300090E036E0239F800D911D1124682F677096
:1004400023E0969587952A95E1F7FC01EE0FFF1FB3
:10045000E80FF91FE654FD4F40E050E080E02191A5
:1004600030E0062E02C0369527950A94E2F72170F7
:10047000042E01C0220F0A94EAF7822B4F5F5F4FD0
:100480004330510561F7089580E00895E0916802D6
:1004900090916702E91302C080E008959F0159E03E
:1004A000E59FF0011124E759FD4F5181561306C015
:1004B0005081581303C05581541304C0F90131967B
:1004C000E770E8CF81E0089580916802209167028B
:1004D000281301C0089501968770FACF9091CF023A
:1004E000809589238093CF02282F277069F489177C
:1004F00059F09091D10292FF07C086958695869516
:100500000E94CE011092CF0208958091CC0290916A
:10051000D202892B9091CD029115C9F0892B90912F
:100520002B01911521F09091D00297FD11C096E01A
:100530002EEA31E040E09150F90150812F5F3F4FAA
:1005400051114F5F9111F7CF41111092CD020895D3
:100550009EE126EB31E0EECF982F90958091CC0272
:1005600089238093CC020895972F7830B8F46630B1
:10057000A8F48330B0F470E026E0929F600D711D06
:100580001124FB0190E3899FE00DF11D1124EE0F72
:10059000FF1FE45EFD4F85919591089580E090E006
:1005A000089581E0FCCF803E9105D1F1C8F48133FC
:1005B000910509F481C048F48932910509F471C0AC
:1005C0008A32910509F47FC0089589339105E1F0DD
:1005D00082389105C9F08533910509F45DC008950D
:1005E000843E9105D1F148F4823E910531F1833E7C
:1005F000910541F181EE90E00895863E9105C1F1AB
:10060000873E9105F1F108952091D002237009F001
:1006100064C02091D10223FF14C089E290E00895C4
:100620002091D00220FD45C03091D10230FF09C099
:1006300024FD24C083EE90E008952091D00222FD95
:10064000F7CF08952091D00222FD44C03091D1020D
:1006500030FD43C024FFF5CF11C02091D10221FF0E
:10066000F0CF8091D00284FD09C087EE90E008951C
:100670002091D00223FFE5CF24FFF7CF80E090E068
:1006800008952091D00223FD2BC03091D10231FF7B
:10069000E1CF84EE90E008952091D00225FFD1CFE4
:1006A000BCCF2091D00225FD1EC02091D10223FF96
:1006B000C8CF89E390E008952091D00226FFC1CFF2
:1006C0008AE290E008952091D00226FFBACF81E31C
:1006D00090E0089582EE90E0089580EE90E0089515
:1006E00086EE90E0089585E390E008959091D00221
:1006F00092FF10C041E0282F2471243009F040E01F
:1007000031E0282F2871283009F030E0431711F02C
:100710002CE0822793FF10C041E0282F2471243160
:1007200009F040E031E0282F2871283109F030E04D
:10073000431711F02CE082273091D10230FF10C016
:1007400051E0282F2171213009F050E041E0282F9D
:100750002871283009F040E0541711F029E0822771
:1007600031FF10C041E0282F2171213109F040E014
:1007700031E0282F2871283109F030E0431711F0BB
:1007800029E0822794FD877E08950F931F93CF93CE
:10079000DF930E94D302EC01923508F03FC0903500
:1007A00008F0AFC0883E9105E0F4803E910558F412
:1007B000853A910570F4049730F481E0219709F0AF
:1007C00080E0C82FD0E0CE01DF91CF911F910F9133
:1007D00008958D5C9109D0654397A8F3C0E0D0E0FF
:1007E000F2CFD03490F4D03208F0A0C0CE019150B6
:1007F0009F31A0F78D2F0E947603082F8C2F90E059
:100800000E94D302EC01D02BDECF8C2F90E00E940F
:10081000D302DF70C82FD92BD06AD5CF803842E5FC
:100820009407C8F5803652E5950708F04FC0C034EC
:1008300082E5D807D0F48C2FC03292E5D90708F0B2
:1008400040C08695869520E2829FC0011124C37026
:1008500021E030E0A90102C0440F551FCA95E2F71C
:10086000EA01C82BD92BDD68AECF8C2F86958695F3
:10087000877050E2859FC0011124C37021E030E0F1
:10088000A90102C0440F551FCA95E2F7EA01C82B1F
:10089000D92BDC6898CF803C52E5950740F48F71E6
:1008A000C03AD24540F5D82FC4EFD06A8CCF805CD7
:1008B0009245809708F092CFDC2FDF71C0EFD06AAD
:1008C00082CF8F71D82FC1EFD06A7DCF8695869564
:1008D000877020E2829FC0011124C37021E030E0C4
:1008E000A90102C0440F551FCA95E2F7EA01C82BBF
:1008F000D92BDA6868CF0E947603C0E0D82FD06287
:1009000062CF8F710E94760393E0CC0FDD1F9A9522
:10091000E1F7DF70282F30E084FF04C050E1859FAD
:1009200090011124C22FD32BD0694DCF8D2F8F7101
:100930000E947603082F8C2F90E00E94D302EC01D6
:10094000D02BDDCFA4E0B0E0E8EAF4E00C940C1C7E
:1009500089839A8300914B0380914A03082B87E097
:100960008B831C8210E0C8010B8002C0959587958F
:100970000A94E2F780FD0DC08B819C8101978B83E7
:100980009C83019681F7F12C8F2D2496E5E00C9441
:10099000281CFB8069817A818F2D0E94B4020E94FD
:1009A000C503019749F3F0CF0F931F93CF93FC0139
:1009B0002781308521153105A1F4858100811181C0
:1009C0008115A1F0611591F0C8010E94A204C82F01
:1009D000682FC8010E94DD01B8018C2F0E94B4026B
:1009E0009C01C901CF911F910F910895C8010E94E8
:1009F0001302C82FF1CFA2E0B0E0E1E0F5E00C94E3
:100A00000F1C89839A830E94A20469817A810E94C3
:100A1000B4020E94C5032296E2E00C942B1CFC0158
:100A20008481811511F1878190850097A1F00E9442
:100A3000C503282F92959F709630C1F088F4925F7D
:100A40009F70923030F4203FD9F060F481E0283E6E
:100A500060F080E00895808191810E94FB04E9CFDD
:100A60009A5FEECF81E0243FA1F7089591E0813FA6
:100A700009F090E081E0283E08F080E0892B08959D
:100A800081E0089580E00895F894E82FE295EF70F2
:100A9000F0E041A18F7021E030E0B90101C0660FA4
:100AA0008A95EAF7862F962F9095942391A392A189
:100AB000892B82A3789408951092DB021092DC02B5
:100AC000ECE2F1E08581811102C014821682379632
:100AD00081E0EC39F807B1F70895AC018091DE02AE
:100AE0006091DD02982F691301C00895292F30E02D
:100AF000F901EE0FFF1FED52FD4F0190F081E02D47
:100B0000E417F507B9F4E0E0F0E04031510540F4B6
:100B100067E0649FF001659FF00D1124E45DFE4FD6
:100B200041E044839813E1CF2F5F3F4F2370209320
:100B3000DE0208952395922F9370D5CFFC01AC016E
:100B40004C5F5F4F8FEF61E39191892728E030E0A0
:100B5000982F990F87FF09C0892F86272150304091
:100B6000B9F7E417F50781F70895892FF7CF80913A
:100B70003502811561F0E0915D02F0915E023097DF
:100B800029F00190F081E02D0995089580E0089505
:100B900090912B01911521F09091D00297FD0CC0FE
:100BA000EEEAF1E09191891302C0DF011E9291E01B
:100BB000E43BF907B9F70895E82FE695E695E69541
:100BC000803FC8F7F0E0EC54FE4F9DEF81FD97EFBA
:100BD00080FF959582FD9295828189238283089575
:100BE0002FB7F8948091FF0190910002A09101022B
:100BF000B09102022FBF08952FB7F8946091FF01C2
:100C00007091000280910102909102022FBF08951D
:100C100080913502811519F00E94FC0508950E940B
:100C2000FC052091370230913802409139025091F1
:100C30003A02620F731F841F951F08959C014FB7DE
:100C4000F8948091FF0190910002A0910102B0916F
:100C500002024FBF821B930B089587E797E78093AB
:100C600000089093010888E19AE00FB6F894A895DF
:100C7000809360000FBE90936000FFCF8091E801E9
:100C8000089508950895FC018091DE019091DF019F
:100C90008617970748F06115710529F48091E800DF
:100CA0008E778093E800CB0140E0009741F441113A
:100CB00006C08091E80082FF30C080E00895209156
:100CC000EC012115B1F12530B1F12091E80023FDAF
:100CD0002EC02091E80022FDECCF2091E80020FFFB
:100CE000E4CF4091F3002091F200342F009719F0E7
:100CF0002830310558F041E02830310509F040E056
:100D00002091E8002E772093E800CFCF41914093C7
:100D1000F10001972F5F3F4FE9CF8091EC018115E2
:100D200041F0853041F08091E80083FFC2CF81E03F
:100D3000089582E0089583E00895982F9093E90044
:100D4000891771F07091EC002091ED005091F00046
:100D500021FD09C09F5F973089F78093E9000895CE
:100D6000762F242F50E03091EB003E7F3093EB0044
:100D70003091ED003D7F3093ED003091EB0031601C
:100D80003093EB007093EC002093ED005093F00053
:100D90002091EE0027FDDECF08958091D80187FFD6
:100DA00013C08091E80082FF06C08091E8008B7735
:100DB0008093E80008958091EC018111F2CF0895AD
:100DC0008091EC018115D9F38091E80080FFF8CF84
:100DD0008091E8008E77ECCF2091E4003091E5001F
:100DE00095E6A9012091EC00822F817020FF06C0BA
:100DF0008091E80080FF06C080E008952091E8001F
:100E000022FD1AC08091EC01811589F0853089F0AE
:100E10008091EB0085FD0FC02091E4003091E5004A
:100E200042175307F9F29150E1F684E0089582E009
:100E3000089583E0089581E00895A0E0B0E0E3E242
:100E4000F7E00C94091CC8EDD0E088818F7E888380
:100E5000E7EDF0E080818160808384E082BF81E003
:100E60008093D70188818E7F888302EE10E0E2EEC6
:100E700010821092DA006801CA94E1EE1082888133
:100E80008F77888388818068888388818F7D888335
:100E900019BC1092EC011092D6011092EB01109245
:100EA000D5017601EA94E0EE80818B7F8083888192
:100EB0008160888342E060E080E00E949D06F60148
:100EC00080818E7F8083E2EE80818160808380815B
:100ED00088608083E0EE80818E7F8083888180615E
:100EE0008883CDB7DEB7E8E00C94251CE8EDF0E090
:100EF00080818E7F80831092E2001092DA0010923F
:100F0000E100A0EEB0E08C9181608C9380818F77BE
:100F1000808319BCA7ED8C918E7F8C9380818F7E0E
:100F200080831092D7010895A8E0B0E0EAE9F7E0E5
:100F30000C940D1C89839A836B837C834D835E8321
:100F400080911C020AE010E08A3010F001E010E00D
:100F500021E02F8318866B817C8189819A81ED81C4
:100F6000FE81099581111BC02F8138852F5F3F4F6E
:100F70002F8338870217130794F0C901889F9001C7
:100F8000899F300D300D112480E090E045E34A95B3
:100F9000F1F70000019682179307C1F7DCCF28967E
:100FA000E4E00C94291C0F931F93CF93DF93EB0184
:100FB0008A019091EC01943061F58093E9008FEF04
:100FC0009091E80095FD06C095ED9A95F1F7000027
:100FD0008150B1F78091E80085FF1BC00E94EC06AC
:100FE000811112C08091E80085FD06C08091E80063
:100FF0008E778093E800F2CF88818093F1000150D2
:10100000104011F02196EECF8091E8008E7780930A
:10101000E800DF91CF911F910F910895CF93DF9357
:10102000EC0148E050E0BC0181E00E94D30788E079
:10103000FE01A0EEB1E001900D928A95E1F7DF91FB
:10104000CF91089540E250E0BC0182E00E94D307B6
:1010500008959091D10292FB222720F9281779F068
:1010600080FB92F99093D1026091D0027091D102ED
:1010700084E090E00E94781C82E00E946E02089555
:1010800080912B01811559F18091D00287FF27C0F3
:101090000E9485028093B50140E250E06DE372E06A
:1010A00084EB91E00E948E1C892BC1F080E2E4EB7E
:1010B000F1E0ADE3B2E001900D928A95E1F7E091A5
:1010C0005D02F0915E02309749F086E08093B401B2
:1010D0000480F581E02D84EB91E0099508950E944C
:1010E00085028093AC0148E050E06FE572E08CEA45
:1010F00091E00E948E1C892B89F388E0ECEAF1E0F4
:10110000AFE5B2E001900D928A95E1F7E0915D02C2
:10111000F0915E02309711F30280F381E02D8CEAAA
:1011200091E0DBCFCF93C82F811509F463C08CEF1A
:101130008C0F813A08F060C080912B01811127C08B
:10114000EEEAF1E08081C817C9F1319681E0E43B15
:10115000F807C1F780912B01811136C0AEEAB1E0EA
:10116000EFEF80E09C91C91709F442C01196EF3F60
:1011700019F4911101C0E82F8F5F863099F7EF3F86
:10118000B9F1FE2FFF0FFF0BE455FE4F30C08091E9
:10119000D00287FFD5CFEC2FE695E695E695F0E0F7
:1011A000EC54FE4F828190E04C2F477021E001C04B
:1011B000220F4A95EAF78223892B31F08C2F0E9467
:1011C000C8050E944008C6CF8091D00287FFC6CFD5
:1011D000EC2FE695E695E695F0E0EC54FE4FC770EF
:1011E00081E001C0880FCA95EAF7C281C82BC2838B
:1011F0000E944008CF91089580E28C0F8830D0F78C
:10120000C77081E001C0880FCA95EAF7C091CC028F
:10121000C82BC093CC02ECCF811541F09CEF980F06
:10122000913A28F40E94C8050E944008089590E26F
:10123000980F9830D8F7982F81E091FD84E090FDC9
:10124000880F92FD82950E94AC02EECF811539F095
:101250009091CC02982B9093CC020E944008089564
:10126000811521F00E94AC020E944008089510925E
:10127000CC0280912B01811581F08091D00287FFF3
:101280000CC0E6EBF1E08EE1DF011D928A95E9F7F3
:101290001092D2020E9440080895EEEAF1E086E042
:1012A000F3CF0E9437092FEF84E39CE02150804068
:1012B0009040E1F700C0000088E19AE00FB6F89492
:1012C000A895809360000FBE90936000FFCFA0E0D0
:1012D000B0E0EDE6F9E00C94091C7C01FC0184818E
:1012E000811509F47CC061E0C7010E94D404F701B4
:1012F00025812115A9F08A35FCE79F0709F49AC0DA
:1013000008F072C081303CE7930709F491C0833044
:10131000ECE79E0709F486C081159C4709F475C067
:10132000F70187819085009709F488C00E94C50362
:10133000D82FC92FF701D580C680C2948FE0C8226C
:101340008091CF028770F9F00D2DD114E9F0892F2B
:10135000807F803461F080E28D0F8830A0F0892F8B
:10136000807E803221F4D23070F0C11461F080911F
:10137000D10282FF08C082E00E946E028091CF02FB
:10138000877001E0811100E08C2F82958F7088308A
:1013900009F430C108F069C0823008F478C0825F77
:1013A0008F70823008F4ABC00115A9F08091CF0294
:1013B00080FD11C0F70115828695869586950E945D
:1013C000C301C7010E9467098091CF028695869567
:1013D00086950E94CE0160E0C7010E94D404CDB77B
:1013E000DEB7E8E00C94251C8B352CE7920721F141
:1013F0008C359C4709F094CF8091D102002482FF64
:101400000394802D0E9429088BCF0E9437098FEF0B
:1014100094E3ECE081509040E040E1F700C0000030
:101420000E942D066FEF7FEF80E090E00E94781C15
:101430000E94510981E0E6CF80E0E4CF8581008100
:101440001181811569F0C8010E94A204C82F682F7C
:10145000C8010E94DD01B8018C2F0E94B40266CF42
:10146000C8010E941302C82FF6CF893009F432C197
:101470008A5F8F70823008F097CFD23F09F03BC16E
:101480008C2F8F71D11034C10E94C301E0C01C2F7A
:101490001F70C03110F01295107FD114B9F01115E2
:1014A00069F080E28D0F883010F0D11109C0809171
:1014B000CC02812B8093CC020E9440088D2F40C02B
:1014C0008091D202812B8093D202F6CF8D2F0E9481
:1014D0000C09111509F468CF80E28D0F883010F0E7
:1014E000D11104C0812F0E94AC0206C010958091DA
:1014F000D20281238093D2020E94400855CF1C2F34
:101500001F70C07FC03211F01295107FD13040F0B3
:1015100009F450C0D11409F45CC0C114F9F0CECF65
:101520008091D10282FD16C0D11469F0111539F0F5
:101530008091CC02812B8093CC020E94400880E0F5
:101540000E94920831CF80E00E940C09111509F425
:101550002BCFC8CFD114A1F0C11004C0812F0E949D
:10156000260922CFF1E0CF121FCF8091CD02912F1B
:101570009823191709F418CF812B8093CD0214CF2B
:10158000C11012CF812F0E9430099091CD02812F7E
:10159000892329F0812F809589238093CD02809122
:1015A000CE02912F982309F4FFCE109518231093A3
:1015B000CE02FACED11429F026E0C21608F0F4CEFD
:1015C000CDCF35E0C31608F0EFCE812F0E94300951
:1015D000EBCEC114D1F3D93349F48FEF97EEE3E0AA
:1015E00081509040E040E1F700C000008D2F0E9444
:1015F0000C09DACE8C2F8370A9F5D11028C08D2F5D
:10160000829586958770880F880F4D2F4F70082E12
:1016100001C0440F0A94EAF72D2F2071D4FF06C0B1
:101620002FE001C0220F8A95EAF72095C695C6954E
:10163000C370C23091F0822F842BC33031F080917F
:101640004A03C13039F0242B82230E94BD010E943D
:10165000B705AACE842B822BF8CF242B80914A0386
:101660008227F3CFD11459F1C0FFF1CF8D2F82958E
:1016700086958770880F880F4D2F4F70082E01C0F8
:10168000440F0A94EAF72D2F2071D4FF06C02FE0F3
:1016900001C0220F8A95EAF72095C695C695C370BA
:1016A000C23099F0822F842BC33031F080914B03EC
:1016B000C13041F0242B82230E94C001C8CF823068
:1016C00030F2D4CF842B822BF7CF242B80914B0385
:1016D0008227F2CFCF70D11439F08C2F0E94C30132
:1016E0008D2F0E942609B3CF8D2F0E9430098C2F99
:1016F0000E94CE01ACCF70F4D03FC9F0D13F91F041
:10170000D11409F44CC0C11409F446C08D2F0E94B5
:1017100092089DCFD33FE9F0D43F91F79091D10249
:1017200092FD22C08C2F8F71D11411F3ADCED11444
:1017300069F0F5E0CF1608F08ACFCF7181E090E034
:101740009C0101C0220FCA95EAF7C0CF36E0C3164C
:10175000F2CF80E0D11409F4AFCFCF7181E001C0A6
:10176000880FCA95EAF7A8CFD11461F08C2F8F713A
:1017700092FF8ACE982F990F990F990F93609093AB
:10178000CF0282CE81E00E946E0282E0C81608F489
:101790005ECF0E946E025BCF8C2F8F7175CEC1140D
:1017A00079F0D93349F49FEFE7EEF3E09150E04050
:1017B000F040E1F700C000008D2F0E940C0947CFD8
:1017C0008C2F8F7195CF8091B702803170F480910A
:1017D000B602811551F0E0916802209167023091C4
:1017E000B2024091B1022E1301C00895BF0189E0F9
:1017F000E89FF0011124DF01A759BD4F14968C9189
:101800001497811561F111968C911197831327C05C
:101810008C91841324C015968C91159781111FC04B
:1018200012968D919D91A091B302B091B4028A1B42
:101830009B0B883C910598F48091B7028F70806172
:101840008093B702E159FD4F80818F708061808362
:1018500081EB92E00E9467090E9464020895FB01F7
:101860003196E770C0CFAFE0B0E0E9E3FCE00C9464
:10187000041C8C0186E0F801DE011A9601900D929D
:101880008A95E1F7F801F580C48081EB882E82E02B
:10189000982E7090B502711020C0C114D9F0F114C7
:1018A00009F449C1C8010E940F05811509F443C11B
:1018B00089E0F801D40101900D928A95E1F7F1E0F9
:1018C000CF1206C08091B1029091B2020E94FB0437
:1018D0000E94E30BFF24F3945DC0E080A280B380FC
:1018E000D090B6028091B3029091B4029501281B6A
:1018F000390BD11409F4E8C0283C310508F0B4C014
:10190000C11441F39091B202C1808091B70280313D
:1019100008F061C0C9121DC09091B1029E1119C09A
:101920004091B8025091B902278130854217530780
:1019300081F4F1104AC08F7080618093B70281EB0F
:1019400092E00E9467098091B702F8018683F12C2A
:1019500021C0F1103AC040E06C2D8E2D0E9446024D
:1019600040E06C2D8E2D0E944602F82E8111EFCFA3
:101970008A859B850E94FB04292F22952F70903425
:1019800070F49F702230A0F09115B1F0F8019681AB
:10199000903190F48F2D2F96EDE00C94201C2A5F4F
:1019A0002F70223068F0C8010E946709FD2CF2CF29
:1019B000911511F0811571F3805E883058F3F3CFE3
:1019C000803F40F3815F8330F9CF8091B70281601F
:1019D0008093B702BCCFC9121CC09091B1029E1176
:1019E00018C04091B8025091B90227813085421742
:1019F000530779F4F1100DC08683C8010E9467096E
:101A000089E0F801A1EBB2E001900D928A95E1F72F
:101A100061CFC8010E940F05811509F48CC0F11433
:101A200009F489C08091B7028032A8F02091B102F8
:101A30003091B20229833A83AB82BC827D821E82BE
:101A40008F838091B8029091B90288879987CE01DF
:101A500001960E94670989E0F801A1EBB2E00190CC
:101A60000D928A95E1F734CF8091B702803150F41E
:101A700081EB92E00E94670989E0F40111928A9556
:101A8000E9F765CFC11409F425CF2091B202918105
:101A90002913BFCF9091B1029E11BBCF4091B802E4
:101AA0005091B902278130854217530709F0B1CF11
:101AB000F110AFCF8683C8010E94670989E0F40165
:101AC00011928A95E9F706CF283C3105A8F6C11492
:101AD00009F400CFF11479F19091B2028181981349
:101AE00020C08091B1028E111CC02091B8023091AB
:101AF000B902878190852817390799F49091B70228
:101B000090FD7ECF903108F47BCF892F9683907F14
:101B1000903F09F472CF982F907F905F8F70892B40
:101B20006BCFC8010E940F05811195CF8091B7023C
:101B300081608093B702C8010E946709CBCEA2E101
:101B4000B0E0E5EAFDE00C940D1C0A871B872C87AA
:101B50003D874E875F87688B798B8A8BCE010A968B
:101B60000E94330C811128C02091670230916802D5
:101B700089E0FE013A96DE01119601900D928A9558
:101B8000E1F78E858115C1F0822F90E083958770F3
:101B900090E038171906D1F099E0929FD0011124F6
:101BA000A759BD4FFE01319601900D929A95E1F72C
:101BB000809367020E94640280916802909167029C
:101BC000891312C06296E4E00C94291C0E94370924
:101BD000109267021092680289E0E1EBF2E0DF0107
:101BE0001D928A95E9F7E8CFB9E08B9FC0011124D7
:101BF00087599D4F0E94330C811521F32091680273
:101C00002F5F3F4FC901877080936802D5CFEF9255
:101C1000FF920F931F93CF93DF9380914703E0913F
:101C2000E901CDE081112FC0CDB7DEB7E6E00C941D
:101C3000271CD1E0DE0FD093E901EE2EF12CCE9FD0
:101C4000F0011124E152FD4F84818115D9F0878183
:101C50009085892B09F5818592858F3F9807E1F062
:101C60000F9731F480914B0394E089270E94C001C3
:101C7000CE9DF001CF9DF00D1124E152FD4F148255
:101C80001092D202ED2F80914703E81790F2109244
:101C900047031092E901C8CF00811181228133816D
:101CA000448155816681778180850E949F0DE0CFB8
:101CB0004F925F927F928F929F92AF92BF92CF92FC
:101CC000DF92EF92FF920F931F93CF93DF93C09118
:101CD000DE0201E010E08091DD028C1314C00E944E
:101CE000070E0E945C05DF91CF911F910F91FF902D
:101CF000EF90DF90CF90BF90AF909F908F907F90AC
:101D00005F904F900895D0E0FE01EE0FFF1FED525F
:101D1000FD4F80819181A0E0B0E08031910540F4D9
:101D200027E0289FD001299FB00D1124A45DBE4F4C
:101D300014962C911497211152C0709047036FEDA7
:101D400072E040E050E0A12C471508F046C0FB01CE
:101D500043845484CD90DD90129799249A94892CD1
:101D6000B12C2B2D30E0F601EB0DF11DEB0DF11D2B
:101D7000E590F5904E145F0409F09401EF2819F0F6
:101D8000B3944901EECF2F3F320771F1F80101C042
:101D9000EE0F2A95EAF7AE2A980102C0220F331FF0
:101DA000BA94E2F721503109A2161306D9F412961B
:101DB0002D913D916DE0649FF001659FF00D112420
:101DC000E152FD4F2783308724E024831082118263
:101DD0008187928761E011966C930E946D05C3958F
:101DE000C37079CFFB0114824F5F5F4F635F7F4FFA
:101DF000ABCF109248031092490310929C0180913E
:101E0000DD028093DE020E945C050E94070E0895A9
:101E1000AEE1B0E0EEE0FFE00C94FF1B4B8B5C8B7F
:101E20006D8B7E8B8F8B592E988F91111092D202D1
:101E3000188A198A1A8A86E0FE017396DE011A96BC
:101E400001900D928A95E1F74F88411489F04E86F2
:101E50005F8661E0CE010A960E94D4045C01803561
:101E60002CE7920791F4511419F181E080939C01C1
:101E70004E865F860A851B852C853D85A201688973
:101E800079898A890E949F0DC2C081353CE79307FA
:101E900029F4511469F00E94F90EEACF82359C476B
:101EA00039F4511429F080919C018111F4CFDDCFD8
:101EB0005CE2E52E51E0F52E312C812C912C340181
:101EC0006394D7012D913D916FEF80E09FEFC82E75
:101ED000D12CF901E80FF11DE80FF11D4591559145
:101EE000A416B50611F0C62ED92E452B21F08F5F12
:101EF0006C2D9D2DECCF10E0BFEFCB16DC0409F468
:101F000045C0F701448110919C01411110E0D701B7
:101F100015962D909C911697511409F401C1111535
:101F200009F4FEC0211015C021E00C2C01C0220FC5
:101F30000A94EAF7922B16969C932091DB0230913B
:101F4000DC022233310528F422E32093DB021092D5
:101F5000DC02F30102C0EE0FFF1F8A95E2F7CF010A
:101F60000197D70116962C912817190679F48091BC
:101F7000480390914903009709F44DC00E941E0642
:101F8000C39708F448C081E0F7018483312ABFEF8A
:101F90008B1A9B0AE7E0EE0EF11CF0E18F1691041C
:101FA00009F08FCF511409F417C1311409F414C189
:101FB0000E94F00580934803909349038091470362
:101FC000883028F591E0980F9093470399E0FE013F
:101FD0003A96DE01119601900D929A95E1F74D82A5
:101FE0005E822DE0829FC001112481529D4F29E025
:101FF000FE013196DC0101900D922A95E1F72FEF59
:102000003FEFDC0119962D933D93AD92BD926E96F4
:10201000E2E10C941B1C9091DE028091DD02292FDD
:10202000A0E0B0E037E061E0981709F44FC0492F15
:1020300050E0998F1A8EFA01EE0FFF1FED52FD4FFF
:1020400040815181A0E0B0E04031510538F4349F27
:10205000D001359FB00D1124A45DBE4F4D915D910F
:1020600012974D8F5E8F212C70E000E0ED8DFE8D7C
:10207000E00FF11DE00FF11DC590D590C114D10402
:10208000E1F0F7010190F081E02DEB8FFC8F70E023
:1020900007C0E1E0C416D50609F0E0E02E2A7F5F14
:1020A000EB8DFC8DE70FF11DE70FF11D459155916B
:1020B0004115510571F70F5FD9CF211471F17017D8
:1020C000C0F4E1E0D7011496EC9314972093DE025C
:1020D000AE15BF0509F45ACF90E0FC01EE0FFF1FCB
:1020E000ED52FD4F80829182019683708093DD02D4
:1020F0004DCF109761F014966C931497AE15BF05F1
:1021000029F3921304C0A9014395242F2370498D0C
:102110005A8D4395942F937087CFA0E0B0E0F7CF0E
:10212000292F30E0211020C0B30102C0660F771FB5
:102130008A95E2F7CB0101978217930779F010E0B7
:10214000F30102C0EE0FFF1FCA94E2F76F01C094C3
:10215000D70116968C918C218C9318CF411581F361
:10216000C4010E946D05EBCFA9010C2C02C055954E
:1021700047950A94E2F7C901019782239323892B9B
:1021800041F540FF26C0D70112968D919D91892B74
:10219000D9F0FE01319687E0DF011D928A95E9F7BB
:1021A0000E94F0059C018B839C8384E08D83F70162
:1021B00092818381792F9887898709811A8144E0E8
:1021C0005E816F810E949F0DD70115961C92122D82
:1021D000B7CF142F1170B4CF9091DE028091DD0241
:1021E000981729F00E94580E311011CF41CE0E944D
:1021F000070E10924803109249030E945C05F4CF29
:10220000A6E0B0E0E6E0F1E10C940D1C0E94F005C0
:102210008C0180913B0290913C028017910779F0EC
:1022200019821A820E94F005BC0149815A8180E01E
:1022300090E00E94080F00933B0210933C02269608
:10224000E4E00C94291CAAE2B0E0E9E2F1E10C948C
:102250000E1C88ED91E0FC0101962091F100208395
:1022600021E0803E9207B9F78091D901893009F4C5
:1022700056C0C8F4823009F4B3C0833009F482C078
:10228000813071F18091E80083FFE7C08091D8012F
:102290009091D9019A3008F0E0C0E92FF0E0EA55BA
:1022A000F34E0C94361C8A3009F489C08B3051F7F8
:1022B0008091D801813231F78091DC019091DD016C
:1022C000892B01F78091E800877F8093E8000E94C6
:1022D000CD068091DA0180932B010E943709D2CF7D
:1022E0008091D801813A71F68091E800877F8093D0
:1022F000E8008091DC019091DD01892B61F060E0C4
:1023000080E090E070E00E9443068091E8008B77C7
:102310008093E800B7CF68E080EE91E0F3CF809142
:10232000D801813209F0AECF8091DC019091DD01BE
:10233000029708F0A7CF8091E800877F8093E8009C
:102340008091E80082FF19C02091F3008091F20093
:10235000922F029731F48091F100813011F0863094
:1023600021F48091F1008093E8018091E8008B775F
:102370008093E8000E94CD0685CF8091EC01811109
:10238000DFCF80CF8091D801813A09F07BCF809157
:10239000DC019091DD01892B09F074CF8091E80078
:1023A000877F8093E8008091E80080FFFCCF8091D8
:1023B0002B018093F1008091E8008E77D9CF809136
:1023C000D801813209F05ECF8091E800877F809349
:1023D000E8000E94CD068091DB018093D40152CFAA
:1023E0008091D801813A09F04DCF8091E800877F34
:1023F0008093E8008091E80080FFFCCF8091D401B9
:10240000D8CF803889F0823841F58091DC018F7017
:10241000873018F58093E9008091EB0085FB8827D1
:1024200080F91092E90006C08091EB01880F90912D
:10243000D501892B9091E800977F9093E8008093D5
:10244000F1001092F1008091E8008E7723C0811195
:1024500016C08091DA01813011F18091E80083FF8C
:102460000AC08091E800877F8093E8008091EB00AC
:1024700080628093EB00AA96E3E00C942A1C8230E1
:1024800061F78091DA01811581F01092E900809165
:10249000E800877F8093E8000E94CD06DECF93306E
:1024A00009F080E08093EB01F0CF8091DC018F7028
:1024B0002FEF280F263088F68093E9002091EB005B
:1024C00020FFE3CF933031F48091EB008062809362
:1024D000EB00DBCF9091EB0090619093EB0021E05B
:1024E00030E0A90101C0440F8A95EAF74093EA0061
:1024F0001092EA008091EB008860E9CF8111ADCFA6
:102500001091DA011F778091E3008078812B80930E
:10251000E3008091E800877F8093E8000E94CD0669
:102520008091E80080FFFCCF8091E3008068809379
:10253000E30083E0111101C082E08093EC018DCFB4
:102540008058823008F089CF2091DA013091DB0188
:102550002C3D53E0350791F583E08A838AE2898335
:102560004FB7F894DE01139620E03EE051E2E32FEE
:10257000F0E050935700849120FF03C082958F7044
:102580003F5F8F708A30C0F0895C8D931D922F5F02
:10259000243169F74FBF8091E800877F8093E8007E
:1025A0006AE270E0CE0101960E9443068091E80045
:1025B0008B778093E80051CF805DE7CF832F90E049
:1025C0008330910519F160F48130910509F46CC0F4
:1025D0008230910509F041CF8BE3EDE9F1E029C0AC
:1025E0002091DC013091DD018132910509F453C065
:1025F0008232910509F031CF2130310508F45CC0F9
:1026000009F02BCF8BE3EEE1F1E013C0822F90E0D5
:10261000213099F182309105B9F1009709F01DCF71
:10262000E8E1F2E0E4918E2FE8E1F2E0009709F4AE
:1026300014CF2091E800277F2093E8002091DE014D
:102640003091DF018217930708F49C0140E02115C7
:102650003105B1F5411134C08091E80082FDA6CF6B
:102660008091EC01811509F4A1CF853009F49ECF4A
:102670008091E80083FFF0CF99CFEAE0F2E0E491A7
:102680008E2FEAE0F2E0D2CFEAEEF1E0E4918E2F75
:10269000EAEEF1E0CBCF2130310550F009F0DDCE8C
:1026A00089E0E8ECF1E0C5CF82E1E8EDF1E0C1CFEF
:1026B00089E0EFEAF1E0BDCF84E4E9E5F1E0B9CFEC
:1026C0008091EC01811509F471CF853009F46ECF4A
:1026D0008091E80083FD6ACF8091E80082FDBCCF45
:1026E0008091E80080FFB3CF4091F3008091F20029
:1026F000942F2115310519F08830910550F041E0F3
:10270000089709F040E08091E8008E778093E80018
:102710009ECF44914093F1003196215031090196AA
:10272000E8CF803809F099CE8091E800877F8093C8
:10273000E8008091D6018093F10085CE81118DCE85
:102740001091DA01123008F088CE8091E800877F7E
:102750008093E8001093D6010E94CD06111581F0F8
:1027600084E08093EC0142E061EC81E00E949D06F0
:1027700042E261EC82E00E949D068091EC016DCE08
:102780008091E30087FDECCF81E0EBCFAEE0B0E0DD
:10279000ECECF3E10C940A1CFE01319688E0DF01B9
:1027A0001D928A95E9F78FE9E82E81E0F82E8F01D6
:1027B000ED871E87F70181917F018F3F09F43FC0AC
:1027C000F894E82FE295EF70F0E021A18F7041E0DE
:1027D00001C0440F8A95EAF7842F922F942B91A37E
:1027E00092A18095892382A3789400C0E3EAF1E066
:1027F00031E0D12C21912F3F79F0A22FA295AF701B
:10280000A05EB0E08C9190E02F7002C09595879506
:102810002A95E2F780FF82C080E0D82A330F89EA48
:1028200091E08E179F0731F7F70182918F3F11F0EA
:102830000E94440590EA9A95F1F7D801DC920F5F67
:102840001F4FB3EAEB16B1E0FB0609F0B3CF48E047
:1028500050E06D857E858DE292E00E948E1C00978F
:1028600049F028E0ED85FE85ADE2B2E001900D92E1
:102870002A95E1F700912C0210E00C5D1D4F892B89
:1028800009F44EC081E0809323020E94F0058093FA
:1028900021029093220280913502811509F497C09C
:1028A0007E01E9E0EE0EF11C84E0D7011D928A95CD
:1028B000E9F780911C028A3008F054C041E955E1E3
:1028C000B701C8010E949407811509F46EC04BE25C
:1028D00056E1B701C8010E949407811509F465C04B
:1028E0004BE355E1B701C8010E949407811509F433
:1028F0005CC010921C028091200290E044E050E005
:10290000B7018C5D9D4F0E948E1C21E020931F0219
:10291000892BE9F52E96E7E00C94261C832F7DCFBA
:1029200080912302811509F4B6CF80912102909104
:1029300022020E941E06059708F4ADCF44E050E045
:102940006DE272E0C8010E948E1C892B41F084E088
:10295000EDE2F2E0D80101900D928A95E1F7109234
:10296000230299CF80911D0290911E020E941E06A3
:10297000843F914008F0A2CF80911F02811551F24F
:1029800084E0F70111928A95E9F710921F02E09115
:102990002002F0E0EC5DFD4F89859A85AB85BC8512
:1029A00080839183A283B383B5CF80911C028F3F34
:1029B00039F40E94F00580931D0290931E02DCCF33
:1029C0008F5F80931C028A3008F495CFF2CFE0909D
:1029D0002002F12CA7014C5D5D4F7A01F801808146
:1029E0009181A281B3818093040290930502A09308
:1029F0000602B093070284E092E00E949E05809355
:102A000003028091080290910902A0910A02B091FC
:102A10000B02F70180839183A283B383E0900C02C1
:102A2000F0900D0200910E0210910F028091180299
:102A300090911902A0911A02B0911B02E816F906B2
:102A40000A071B0709F466CFE0921802F0921902F8
:102A500000931A0210931B020E94FC05E61AF70A63
:102A6000080B190BE0923702F092380200933902FA
:102A700010933A024FCFA4E0B0E0E1E4F5E10C940A
:102A80000E1C4091F7015091F8016091F90170918D
:102A9000FA012FB7F8948091FF0190910002A09164
:102AA0000102B09102022FBF841B950BA60BB70B3E
:102AB00011E084369105A105B10570F10E94080668
:102AC000DC01CB010296A11DB11D89839A83AB83E2
:102AD000BC8380912401909125018D5F9D4F2091B1
:102AE0002301422F50E0253008F044E0BE016F5F23
:102AF0007F4F0E949B1C83E090E00E947D1B182F5B
:102B0000811551F00E94FC056093F7017093F80164
:102B10008093F9019093FA01812F2496E3E00C94BD
:102B20002A1CA7E0B0E0E7E9F5E10C940E1C6E83E7
:102B30007F8380E090E00E947D1B182F811509F4AF
:102B400069C080910E01482F50E0811141E06091F1
:102B50000F01709110016D5F7D4FCE0105960E94AF
:102B60009B1C4091140250911502609116027091C5
:102B700017022FB7F8948091FF0190910002A09165
:102B80000102B09102022FBF841B950BA60BB70B5D
:102B900084369105A105B10538F484E092E00E94E5
:102BA0009E059D818917B1F181E090E00E947D1B17
:102BB0008115F1F180911601482F50E0853008F021
:102BC00044E060911701709118016D5F7D4FCE0157
:102BD00001960E949B1C84E092E00E949E059D81CC
:102BE000891326C00E94FC0560931402709315029D
:102BF000809316029093170289819A81AB81BC81E0
:102C00008093100290931102A0931202B0931302CA
:102C100081E00FC08091040290910502A09106020C
:102C2000B091070289839A83AB83BC831111E4CFEF
:102C300080E0409110025091110260911202709157
:102C40001302EE81FF814083518362837383279651
:102C5000E3E00C942A1CA2E0B0E0E1E3F6E10C947E
:102C60000D1C89839A8344E050E068E072E00E9482
:102C70008E1C0091FB011091FC012091FD0130910F
:102C8000FE01EFB7F8944091FF015091000260916E
:102C9000010270910202EFBF401B510B620B730BDC
:102CA000443651056105710510F4892B09F18091B5
:102CB0001C0190911D018D5F9D4F20911B01422FA2
:102CC00050E0253008F044E069817A810E949B1C25
:102CD00082E090E00E947D1B811559F00E94FC0566
:102CE0006093FB017093FC018093FD019093FE01C2
:102CF00081E02296E4E00C94291CCDB7DEB72A9738
:102D00000FB6F894DEBF0FBECDBF85B7806885BF14
:102D100085B7806885BF84B7877F84BF0FB6F89476
:102D2000A895809160008861809360001092600097
:102D30000FBE80E890E00FB6F89480936100909306
:102D400061000FBE82E495E08093AA019093AB01ED
:102D50000E9476070E941D078091E20084608093A4
:102D6000E20078948091EC01811599F08091E9005E
:102D70001091EC008F7010FB112717F9182B10928F
:102D8000E9008091E80083FD0E9423111F701093D9
:102D9000E90082E084BD93E095BD9AEF97BD8093F2
:102DA0006E0010923702109238021092390210927F
:102DB0003A0288EC90E02091E30027FD0EC0AFE3DB
:102DC000BCE91197F1F700C000000197A1F70E943C
:102DD00076071092EC0180E001C081E0809335021B
:102DE000809336028093000181110E948B1A80919A
:102DF00000018091000191E08927880F880F80935E
:102E00002C0294E0981B909320020FE911E093EAC2
:102E1000E92E91E0F92EF80181918F018F3F11F099
:102E20000E944405E016F106B1F703EA11E089EAD1
:102E3000E82E81E0F82ED8018D918D018F3F11F0A1
:102E40000E944405E016F106B1F788E0E4E2F2E002
:102E5000DF01282F1D922A95E9F7EDE2F2E0DF016C
:102E60001D928A95E9F780E090E00E94441C853E1F
:102E70009E4F09F45EC065EE7EEF80E090E00E9418
:102E8000781C60E082E090E00E945A1C81E0809310
:102E90004A0361E083E090E00E945A1C60E074E124
:102EA00084E090E00E94781C60E086E090E00E9460
:102EB0005A1C60E087E090E00E945A1C60E070E0DD
:102EC000AB0188E090E00E946C1C60E083E290E03F
:102ED0000E945A1C60E08CE090E00E945A1C60E066
:102EE0008DE090E00E945A1C19821A821B821C827B
:102EF0001D821E821F82188648E050E067E170E064
:102F0000CE0101960E944A1C60E070E0AB018FE1A7
:102F100090E00E946C1C60E070E0AB018FE090E0FC
:102F20000E946C1C60E070E0AB0183E190E00E94C5
:102F30006C1C82E090E00E943C1C8093ED0184E0D8
:102F400090E00E94441C8093D0029093D1020E9492
:102F5000C613EFEFF6E721E0E150F0402040E1F743
:102F600000C000000E94C613E091360281E0E8270D
:102F7000EE0FEE0FF0E0EC5DFD4F808181FF08C0A9
:102F80006FEF7FEF80E090E00E94781C0E942D069A
:102F900083E090E00E943C1C0E94BD0180913502BC
:102FA000811102C00E948E1A81E091E080935D023F
:102FB00090935E028091EC0102E110E4853009F407
:102FC00081C00E94C6130EEE11E0E4E2F2E0E98750
:102FD000FA87D8019D91808126EF31E02A173B07BF
:102FE00009F47AC031969817A9F3A0903502F12C14
:102FF000A985BA85ED90A987BA87F801B1908F01AC
:10300000BE1429F1BE24CC24C394D12C8B2D8C2149
:10301000B9F0A114A9F0D982FA820E94F0058B833D
:103020009C83F1E0FD8391E08E2D8C2109F490E0EA
:103030009E8349815A816B817C818D810E94080F1A
:10304000D394CC0C26E0D212E1CFF801E292F394B3
:1030500038E0F312CDCF0E94080642C08091EC0107
:10306000843019F11092EA0188E190E00FB6F894EB
:10307000A895809360000FBE1093600083B7817F96
:10308000846083BF83B7816083BF7894889583B75A
:103090008E7F83BF0FB6F894A895809160008861F9
:1030A00080936000109260000FBE0E94C613E4E29D
:1030B000F2E08081811150C03196ACE2B2E0AE17EF
:1030C000BF07B9F78091EC01853009F4C7CF0E94A2
:1030D00037090E94B70575CF981387CF0E9400115A
:1030E00080913502811519F180919C018115F9F0CB
:1030F00080914803909149030097C9F00E941E06F1
:103100002091DB023091DC022817390780F490917E
:10311000DE028091DD029817B1F00E94580E1092E5
:10312000DB021092DC0210924803109249030E94C5
:10313000B7059091F601891709F43CCF8093F60109
:103140000E94FC0537CF0E94070E10924803109290
:1031500049030E945C05EBCF8091EB01811509F4D6
:10316000B1CFB0E1B9BD09BD09B400FEFDCF80917A
:10317000D8008F7D8093D8008091E000826080939A
:10318000E0008091E00081FDFCCF0E9437099ACFDA
:103190001F921FB61F9211248F939F93AF93BF93DB
:1031A0008091EA01811113C08091FF01909100028A
:1031B000A0910102B09102024196A11DB11D809320
:1031C000FF0190930002A0930102B0930202BF910D
:1031D000AF919F918F911F901FBE1F90189578946B
:1031E0001F921FB61F9211248F939F93AF93BF938B
:1031F0008091FF0190910002A0910102B091020222
:103200000196A11DB11D8093FF0190930002A09330
:103210000102B0930202BF91AF919F918F911F90D5
:103220001FBE1F9018951F920F920FB60F92112478
:103230002F933F934F935F936F937F938F939F93BE
:10324000AF93BF93EF93FF938091E10082FF09C09A
:103250008091E20082FF05C08091E1008B7F809326
:10326000E1008091DA0080FF24C08091D80080FFC7
:1032700020C08091DA008E7F8093DA008091D9009F
:1032800080FF9BC080E189BD82E189BD09B400FE59
:10329000FDCF81E08093EC018091D701811109C0BD
:1032A0000E9476070E941D078091E200846080934F
:1032B000E2008091E10080FF17C08091E20080FF72
:1032C00013C08091E2008E7F8093E2008091E20043
:1032D00080618093E2008091D80080628093D80062
:1032E00019BC85E08093EC018091E10084FF29C046
:1032F0008091E20084FF25C080E189BD82E189BD23
:1033000009B400FEFDCF8091D8008F7D8093D80056
:103310008091E1008F7E8093E1008091E2008F7EBA
:103320008093E2008091E20081608093E2008091CE
:10333000D601811509F447C084E08093EC018091A7
:10334000EC018091E10083FF27C08091E20083FFC0
:1033500023C08091E100877F8093E10082E0809329
:10336000EC011092D6018091E1008E7F8093E10004
:103370008091E2008E7F8093E2008091E200806184
:103380008093E20042E060E080E00E949D06809130
:10339000F00088608093F000FF91EF91BF91AF91B2
:1033A0009F918F917F916F915F914F913F912F915D
:1033B0000F900FBE0F901F90189519BC1092EC0142
:1033C0001092D70176CF8091E30087FF02C083E09F
:1033D000B4CF81E0B2CF1F920F920FB60F9211249B
:1033E000EF92FF920F931F932F933F934F935F930F
:1033F0006F937F938F939F93AF93BF93CF93EF93ED
:10340000FF9309EE10E0F8018081C091EC008F700D
:10341000C0FBCC27C7F9C82B1082E0EF8081877FE3
:10342000808378940E942311F8011082E0EF80815C
:1034300088608083CF70E9EEC083FF91EF91CF91D8
:10344000BF91AF919F918F917F916F915F914F91BC
:103450003F912F911F910F91FF90EF900F900FBE12
:103460000F901F9018958EE14A9B02C08150E1F7A2
:103470004A9BFECF08955A9880E28A95F1F75A9AAE
:103480000895FC012BE02A95F1F728E080E090E018
:1034900031E040E14A95F1F7880F4A9B02C0816014
:1034A000932742E04A95F1F7000040E14A95F1F791
:1034B000215079F720E12A95F1F729B132E03A95C8
:1034C000F1F7000040E14A95F1F731E022FD932742
:1034D0002081920F90830895A1E0B0E0E2E7FAE145
:1034E0000C940B1C19828C017C01E60EF11C0E94CD
:1034F000331ACE0101960E94411AF80181938F017F
:10350000EE15FF05A1F781E09981911180E02196E8
:10351000E6E00C94271C529A5A9A089552985A9AA7
:10352000EA9AE9E6F0E080818F7C8083089561501B
:10353000770B91E001C0990F6A95EAF7692F90E047
:1035400021E0611108C0911591F05A9A80E28A95A4
:10355000F1F75A980895362F382339F05A9A92275E
:1035600030E23A95F1F76695ECCF5A98F9CF5A9830
:10357000EDCFA3E0B0E0EFEBFAE10C940D1C8A83F1
:103580009B830A811B81060F111DEA81FB818191BA
:10359000EA83FB8389830E943B1A68E089810E9449
:1035A000971AEA81FB81E017F10779F72396E4E0A7
:1035B0000C94291C1F920F920FB60F9211240F9397
:1035C0001F932F933F934F935F936F937F938F93AB
:1035D0009F93AF93BF93EF93FF93CF93DF930F929C
:1035E000CDB7DEB719820E94331ACE0101960E9430
:1035F000411A082F069506950695282F22952570C5
:10360000902F9570920F292F237096959695920F73
:10361000982797708981892B09F059C0053008F0E7
:1036200056C080E18A95F1F75A9A529A82E08A95BB
:10363000F1F700C05A9888E0089F80011124D80152
:10364000A55FBE4F1696ED91FD911897309791F0BA
:1036500060919D0170919E0114962D913D91260FD0
:10366000371F15978D919D91680F791F4C91139776
:103670008C910995F801E55FFE4F6381611551F06A
:1036800020919D0130919E0184819581820F931F2D
:103690000E94B91A0E943B1A80E18A95F1F75A9864
:1036A00052985A9A80E18A95F1F7F801E55FFE4F4A
:1036B0006081611551F020919D0130919E018181C1
:1036C0009281820F931F0E946C1A0E94331A0F90EE
:1036D000DF91CF91FF91EF91BF91AF919F918F912A
:1036E0007F916F915F914F913F912F911F910F911A
:1036F0000F900FBE0F901F901895A4E0B0E0E3E884
:10370000FBE10C940F1C89839A83853091050CF0A2
:103710006FC0F894529A5A9845E04A95F1F7000024
:10372000982F9695957089818570980F892F837051
:10373000292F26952695E981FA8193E0EE0FFF1F48
:103740009A95E1F7EB83FC83280FE22BF32BE983B7
:10375000FA830E943B1A00C068E089810E94971A90
:10376000F0E1FA95F1F752985A9A4A9B3AC087E0ED
:1037700090E04A9938C0EB81FC81E55FFE4F6381A0
:10378000611561F020919D0130919E0184819581A8
:10379000820F931F0E946C1A811539F10E94331A0F
:1037A00040E24A95F1F75A98529A50E15A95F1F74A
:1037B0008B819C81855F9E4F89839A83FC01608108
:1037C000611551F020919D0130919E01818192817E
:1037D000820F931F0E94B91A0E943B1A789481E0CD
:1037E00008C000C0C2CF019741F4529A5A9A789407
:1037F00080E02496E2E00C942B1C00C0BACF2F92FC
:103800003F924F925F926F927F928F929F92AF9270
:10381000BF92CF92DF92EF92FF920F931F93CF93BD
:10382000DF93CDB7DEB7CA1BDB0B0FB6F894DEBF54
:103830000FBECDBF09942A88398848885F846E847A
:103840007D848C849B84AA84B984C884DF80EE80C4
:10385000FD800C811B81AA81B981CE0FD11D0FB6CD
:10386000F894DEBF0FBECDBFED010895EE0FFF1F30
:103870000590F491E02D0994F999FECF92BD81BD98
:10388000F89A992780B50895A8E1B0E042E050E0A9
:103890000C94801CDC01A40FB51F4150504048F02F
:1038A000CB01840F951F2E910E945B1C415050400C
:1038B000D0F70895262FF999FECF92BD81BDF89AD1
:1038C000019700B4021639F01FBA20BD0FB6F89464
:1038D000FA9AF99A0FBE08950396272F0E945B1C4F
:1038E0000E945A1C252F0E945B1C242F0C945B1CE9
:1038F0000196272F0E945B1C0C945A1CDC01CB0103
:10390000FC01F999FECF06C0F2BDE1BDF89A3196EF
:1039100000B40D9241505040B8F70895FB01DC010E
:1039200004C08D910190801921F441505040C8F796
:10393000881B990B0895FB01DC0102C001900D92D8
:1039400041505040D8F70895F894FFCF0112271244
:103950002D1227122D127E12A0122D1291139E13DA
:10396000013E060E08220841064206000000010042
:103970000000000000000401000000040500000039
:1039800000000004090000000000000118012900E7
:103990000000001201A8520000000C01A252000019
:1039A000000601A152000000FE00AA52000000F62D
:1039B00000A352000000F0002B00000000EA002AE3
:1039C00000000000E2004C00000000DC00B85200E3
:1039D0000000D600B252000000D000B1520000003A
:1039E000C800BA52000000C000B352000000B60088
:1039F0003900000000AC0000000000000103029448
:0A3A00006697C6F4F5F6F7313300BF
:00000001FF
