:100000000FC300002AC3000028C300000C94352B46
:1000100024C3000022C3000020C300001EC3000050
:100020001CC300001AC300000C9472290C945A2AB5
:100030000C94272912C3000010C300000EC3000057
:100040000CC300000AC3000008C3000006C3000080
:1000500004C300000C944E2900C30000FEC200003F
:10006000FCC20000FAC20000F8C20000F6C20000A4
:10007000F4C20000F2C20000F0C20000EEC20000B4
:10008000ECC20000EAC20000E8C20000E6C20000C4
:10009000E4C20000E2C20000E0C20000DEC20000D4
:1000A000DCC20000DAC20000D8C20000050109026B
:1000B000A10185020901A1000509190129081500FE
:1000C0002501950875018102050109300931158165
:1000D000257F95027508810609381581257F9501D0
:1000E00075088106050C0A38021581257F95017572
:1000F000088106C0C005010906A10185060507198A
:10010000E029E71500250195087501810205071909
:100110000029EF1500250195F075018102050819E8
:10012000012905950575019102950175039101C09D
:100130000660FF0961A1010962150026FF009520F4
:10014000750881020963150026FF00952075089146
:1001500002C005010906A101050719E029E71500FC
:100160002501950875018102950175088101050732
:10017000190029FF150026FF009506750881000566
:1001800008190129051500250195057501910295AC
:100190000175039101C009025B00030100A0FA0987
:1001A00004000001030101000921110100012244A2
:1001B0000007058103080001090401000203000093
:1001C00000092111010001222200070582032000FD
:1001D00001070503032000010904020001030000D8
:1001E0000009211101000122840007058403200079
:1001F0000112010002000000085346010001000145
:100200000203011C037600690061006C003A00667D
:1002100000360034006300320062003300630000E7
:10022000000C0343006F0072006E006500000010B8
:100230000366006F006F007300740061006E0000C1
:10024000000403090400000000000000000000009A
:10025000000000000000000000000000000000009E
:100260000000000000000000007E0F00D4FFFFFF30
:10027000C70000007800000000000000002A2B28C2
:10028000000000000000000000000000000000006E
:1002900029000000002C1E3420212224342627258A
:1002A0002E362D3738271E1F2021222324252633C2
:1002B00033362E37381F0405060708090A0B0C0DC4
:1002C0000E0F101112131415161718191A1B1C1DD6
:1002D0002F3130232D350405060708090A0B0C0DB4
:1002E0000E0F101112131415161718191A1B1C1DB6
:1002F0002F3130354C2B0014001A00080015001760
:1003000000E00004001600070009000A00E1001DDB
:10031000001B00060019000500000000000000E3BB
:1003200000777C2C002A00130012000C0018001C1F
:1003300000340033000F000E000D000B00290038C0
:10034000003700360010001100000000000000E639
:1003500000787C28002B001E001F002000210022B6
:1003600000E00000000000000000000000E10000CC
:10037000000000000000000000000000000000E39A
:100380000001002C002A002700260025002400235D
:1003900000000000004F005200510050000000001B
:1003A000000000000000000000000000000000E667
:1003B00000010028002B001E021F02200221022241
:1003C00002E00000000000000000000000E100006A
:1003D000000000000000000000000000000000E33A
:1003E0000001002C002A00270226022502240223F5
:1003F000023500310030002F002E002D0035023173
:100400000230022F022E022D02000000000000E642
:100410000001002800007C00000000000000000037
:1004200000207823782578277800000000217824A0
:10043000782678287800000000000000000000E323
:100440000001002C0000000000000000000000007F
:10045000000000000000000000000000000000009C
:10046000000000000000000000000000000000E6A6
:100470000001002800FD377A585A000004E6D6B47F
:10048000460200210116000000742FE5A3E0042FAE
:1004900001425D003D8889C65436C3174FE4DCCB6A
:1004A000B3DF6320E7D71739D83D5F52C90BECB7EC
:1004B000E6D5195224B0736759B3E0B456C74788DC
:1004C000C96520CF4A3C940C015E29865C8E1FD200
:1004D000901470DD8177B2096EB5F6AEE987F3FD51
:1004E0006E8628D433CFB875786A02A926DEE8E68E
:1004F000250BF2F12FEB95EF757127C27F9195E2F5
:10050000635AB0D245B872C0B554D7004EDE62BA55
:100510002013945BD1FF5921584935658A11E5CAEA
:100520001A8401C66412A7BCC461E80A8B8F181430
:10053000972CD485C2CA11139D8194454D5141C158
:10054000135A07F3F59C8A2EB089D73F3EF2C32198
:1005500010C396AA6256BA70B31061455FB1119785
:100560001836BB16666F7B478FC44223D0767E3F1A
:10057000A7ECEA0CBF2774C309BD093C35A8EED827
:10058000AEC7E9FF0F2F64DF72C5CDF6701A817711
:10059000ECEF634989711EFAEC985A059B0A0F6BC0
:1005A000C0B382F93085B0A8A630E1DE91E0E10168
:1005B000A42FEECFFAB4CC09FA55E9DC3EB4782387
:1005C00043F5F745FEAA6A7F620EBDEBFB2CF315DF
:1005D000BF380D4959E00000005614AADD31875498
:1005E0005C0001DE02B0080000C0E5C082B1C46753
:1005F000FB020000000004595A504F52514A4D4B23
:100600004E2A4C2F30CFD0CDCEDBDCD9DA0D0E0BFD
:100610000F1A0508050905071811130408120C0024
:1006200011241FBECFEFDAE0DEBFCDBF11E0A0E0A6
:10063000B1E0E4E1FBE502C005900D92A835B107F9
:10064000D9F724E0A8E5B1E001C01D92AE38B207A9
:10065000E1F70E94F7220C94412DD2CC9C01FB01C2
:1006600091509F31B0F4832F817034FF0AC082957E
:10067000807F31FD806232FD806433FD80680995A2
:10068000089531FD826032FD846033FFF8CF8860C9
:10069000F6CF80E0F4CF0C94902C0895982F92958B
:1006A0009F7061F420E0982F892F8695869511F030
:1006B0002E5F982F892F8695820F089524E0F4CF1E
:1006C00080938A04089580938B04089521E001C0EB
:1006D000220F8A95EAF780918B04822BF4CF21E0D8
:1006E00001C0220F8A95EAF7822F809590918B04A2
:1006F0008923E9CF292F983090F5863080F590E056
:1007000036E0239F800D911D112451E081FD54E0BE
:1007100080FD550F82FD529523E0969587952A9589
:10072000E1F7FC01EE0FFF1FE80FF91FE853FD4F43
:1007300020E030E070E04191DF01CB01022E02C0E9
:10074000969587950A94E2F78695880B84278523EA
:1007500084278E932F5F3F4F2330310561F7089533
:10076000292F983070F5863060F590E036E0239FB1
:10077000800D911D1124682F677023E09695879551
:100780002A95E1F7FC01EE0FFF1FE80FF91FE85370
:10079000FD4F40E050E080E0219130E0062E02C0A5
:1007A000369527950A94E2F72170042E01C0220F96
:1007B0000A94EAF7822B4F5F5F4F4330510561F790
:1007C000089580E0089590918B0421E030E0F901D4
:1007D00001C0EE0F8A95EAF7D90101C0AA0F6A9508
:1007E000EAF7EA2B01C0220F4A95EAF7892F8E23F8
:1007F000E81303C0892F822B66CF2095822F89238F
:10080000FBCFE091760290917502E91302C080E07F
:1008100008959F0159E0E59FF0011124E958FD4F2B
:100820005181561306C05081581303C0558154138B
:1008300005C02F5F3F4FF901E770E7CF81E00895D2
:100840008091760220917502281301C008950196C7
:100850008770FACF9091D603809589238093D60331
:10086000282F277081F4891771F090918D0492FFE1
:100870000AC086958695869532DF1092D60310922F
:10088000D7031092D80308958095982F8091D303B1
:1008900089238093D30308958091D203811531F089
:1008A0001092D2031092D9031092DA030895803E79
:1008B0009105D1F1C8F48133910509F481C048F460
:1008C0008932910509F471C08A32910509F47FC01B
:1008D000089589339105E1F082389105C9F0853397
:1008E000910509F45DC00895843E9105D1F148F465
:1008F000823E910531F1833E910541F181EE90E018
:100900000895863E9105C1F1873E9105F1F1089564
:1009100020918C04237009F064C020918D0423FF82
:1009200014C089E290E0089520918C0420FD45C018
:1009300030918D0430FF09C024FD24C083EE90E087
:10094000089520918C0422FDF7CF089520918C0406
:1009500022FD44C030918D0430FD43C024FFF5CF0B
:1009600011C020918D0421FFF0CF80918C0484FD73
:1009700009C087EE90E0089520918C0423FFE5CF15
:1009800024FFF7CF80E090E0089520918C0423FDB0
:100990002BC030918D0431FFE1CF84EE90E00895BB
:1009A00020918C0425FFD1CFBCCF20918C0425FD54
:1009B0001EC020918D0423FFC8CF89E390E00895E5
:1009C00020918C0426FFC1CF8AE290E00895209107
:1009D0008C0426FFBACF81E390E0089582EE90E088
:1009E000089580EE90E0089586EE90E0089585E306
:1009F00090E0089590918C0492FF10C041E0282F60
:100A00002471243009F040E031E0282F287128308B
:100A100009F030E0431711F02CE0822793FF10C05B
:100A200041E0282F2471243109F040E031E0282FE3
:100A30002871283109F030E0431711F02CE08227AB
:100A400030918D0430FF10C051E0282F21712130EA
:100A500009F050E041E0282F2871283009F040E0EB
:100A6000541711F029E0822731FF10C041E0282FF0
:100A70002171213109F040E031E0282F287128311F
:100A800009F030E0431711F029E0822794FD877EBA
:100A900008950F931F93CF93DF9309DFEC01D235B5
:100AA00008F03DC0D03508F0AEC0C83ED105F0F426
:100AB000C03ED10560F4C53AD10578F4C430D10503
:100AC00030F481E0219709F080E0C82FD0E0CE011A
:100AD000DF91CF911F910F910895CE018D5C910907
:100AE000D0654397A0F3C0E0D0E0F1CFD03478F4E4
:100AF000D03208F09BC0CE0191509F31A0F78D2FCE
:100B000079DF082F8C2F90E0D2DE902B4FC08C2FF6
:100B100090E0CDDEDF70C82FD92BD06AD8CFC03897
:100B200082E5D807B8F5C03682E5D80708F051C08D
:100B3000C03482E5D807C8F4C03282E5D80708F08F
:100B400042C08C2F8695869520E2829FC001112499
:100B5000C37021E030E002C0220F331FCA95E2F7D4
:100B6000E901C82BD92BDD68B2CF8C2F86958695ED
:100B7000877020E2829FC0011124C37021E030E021
:100B800002C0220F331FCA95E2F7E901C82BD92B07
:100B9000DC689DCFC03C82E5D80750F48C2F8F7164
:100BA000C03AD24558F5982F84EF906AEC018FCF68
:100BB000CE01805C9245809708F095CFDC2FDF71E5
:100BC000C0EFD06A84CF8C2F8F71D82FC1EFD06A3D
:100BD0007ECF8C2F86958695877020E2829FC001FC
:100BE0001124C37021E030E002C0220F331FCA95E8
:100BF000E2F7E901C82BD92BDA6869CFFBDEC0E048
:100C0000D82FD06264CF8C2F8F71F4DE93E0CC0F9D
:100C1000DD1F9A95E1F7DF70282F84FF04C090E173
:100C2000899F90011124C22FD06951CF8D2F8F71D0
:100C3000E1DE082F8C2F90E03ADE902BEC01E1CF23
:100C400080E00895F894E82FE295EF70F0E041A17C
:100C50008F7021E001C0220F8A95EAF7922F9095BC
:100C6000942391A392A1822F892B82A37894089533
:100C700081152CE7920741F420910D0130910E016E
:100C8000232B11F480E090E00895EDE4F3E080E0A0
:100C900090E063EB71E246ED51E229E432E26683D3
:100CA0007783408751872287338786879787019686
:100CB00070968830910599F70895903218F4911143
:100CC00006C008959C013052303350F00895392FFA
:100CD00094FF02C03295307FFB012081232B2083BB
:100CE00090E00895462B22FF0FC0982F92959F7099
:100CF0008F70892B962F92959F706F70692B942F10
:100D000092959F704F70492B982F9623961308C089
:100D100040955FEF90E04823592381E0452B09F08F
:100D200080E0089510921B0410921C04EBEDF3E098
:100D30008581811102C014821682379684E0E331E6
:100D4000F807B1F70895DC0160911E0480911D043D
:100D5000962F891301C00895292F30E0F901EE0F75
:100D6000FF1FED5EFB4F408151814A175B0799F4ED
:100D700087E08A9FA0018B9F500D112445525C4F44
:100D800081E0FA0184839613E6CF2F5F3F4F2370F3
:100D900020931E0408952395922F9370DACFFC01BF
:100DA000AC014C5F5F4F8FEF61E39191892728E0A1
:100DB00030E0982F990F87FF09C0892F862721508F
:100DC0003040B9F7E417F50781F70895892FF7CF79
:100DD0000F931F93CF9301E0082E01C0000F0A94D8
:100DE000EAF7C091D1039C2F9023A9F49091D603E8
:100DF000969596959695891306C01092D6031092F3
:100E0000D7031092D80362DCC027C093D103CF91DF
:100E10001F910F91089563DCF7CF382F25EB320334
:100E2000C001112497FF04C080589109892F0895AB
:100E300080589F4FFBCF8091DC0280FD14C081FD64
:100E400014C082FD16C08091DB02811581F08E31C5
:100E500080F420E5829FC00111246EE170E00E94C1
:100E6000772C862F089584E1089588E2089588E01C
:100E7000089580E508958091DC0280FD17C081FD12
:100E800017C082FD19C08091DA02811599F088326D
:100E900098F428E0829FC001112468E270E00E946B
:100EA000772C6115710551F0862F089562E0FCCF13
:100EB00064E0FACF61E0F8CF68E0F6CF81E0089512
:100EC0009091380389029001112437FF03C0809369
:100ED000380308952F3731051CF4980F9093380389
:100EE0000895A0E0B0E0FC01EA0FFB1FE491E413D9
:100EF00008C031E02A2F2327820F911DFC01849125
:100F000008951196A61778F380E00895FA013097B6
:100F100009F00995089580913F02811571F0E091E3
:100F20006B02F0916C02309739F00190F081E02D66
:100F3000309711F00995089580E00895909131015E
:100F4000913021F490918C0497FD0CC0ECE5F1E018
:100F50009191891302C0DF011E9291E0E236F907F8
:100F6000B9F70895E82FE695E695E695803FC8F72E
:100F7000F0E0EE59FE4F9DEF81FD97EF80FF9595D4
:100F800082FD929582818923828308958091300128
:100F900008952FB7F8948091950190919601A091B2
:100FA0009701B09198012FBF0895CF93C091D303BB
:100FB0008091D503C82B8091D203811529F1E9DFF7
:100FC0002091D9033091DA03821B930B8838934127
:100FD00008F062DC8091D203C82B8091310181300E
:100FE00021F480918C0487FD12C086E02CE531E06D
:100FF00090E08150F90140812F5F3F4F41119F5F89
:101000008111F7CF911148DC8C2FCF9108958EE19B
:1010100024E631E0EDCF90918D0492FF0EC0982F21
:10102000990F990F990F962B9093D6034FDBB1DF51
:101030008093D7039093D803089548CB9091D2031F
:10104000292F282359F0809589238093D20390E09B
:1010500081119FDF8093D9039093DA03089599DF7C
:101060009C019091DF028091E002982B21F0209367
:10107000FF01309300029091E1028091E202982BEF
:1010800021F02093FD013093FE01E0916B02F0917D
:101090006C02309759F00680F781E02D309731F0DF
:1010A00082E08093DD028DED92E00995089561154F
:1010B00009F440C0E82FED5CE33148F4F0E0ED5B6B
:1010C000F24D0C948A2CB7DE81958093E002C7CF55
:1010D000B2DEFBCFB0DE81958093DF02F8CFABDECE
:1010E000FBCFC9DE8093E102F2CFC5DE8195FACF56
:1010F000C2DE81958093E202EACFBDDEFBCF815D47
:10110000990B21E001C0220F8A95EAF78091DE0257
:10111000822B8093DE02DBCF8091DC0281608093A2
:10112000DC02D5CF8091DC028260F9CF8091DC02B5
:101130008460F5CF4091DF028D3C59F48091E0024C
:1011400087FF0DC01092E002411559F41092DB02A6
:1011500008C08E3C81F48091E00218169CF3411582
:1011600081F08091E1029091E202892B09F0AFCFEA
:101170001092DA02ACCF8F3C41F447FFF0CF1092CF
:10118000DF028091E0028115E0CF803D19F4141652
:10119000B4F3E5CF9091E102893D29F41916FCF6EC
:1011A0001092E102DCCF8A3D19F497FFD8CFF8CF37
:1011B0009091E2028B3D29F497FFD1CF1092E20289
:1011C000CECF8C3D19F41916CCF3C9CF982F915D71
:1011D000983078F4815D990B21E001C0220F8A9547
:1011E000EAF7822F80959091DE0289238093DE02B8
:1011F000B6CF8D3D31F48091DC028E7F8093DC028E
:10120000AECF8E3D21F48091DC028D7FF7CF8F3DF4
:1012100009F0A5CF8091DC028B7FF0CF2FB7F89437
:10122000609195017091960180919701909198013C
:101230002FBF089580913F02811539F0EFDF462FCF
:10124000572FBC01CB01BA010895E8DFDC01CB01C7
:1012500040914102509142026091430270914402D8
:10126000480F591F6A1F7B1FEDCF87E797E78093D1
:1012700000089093010888E19AE00FB6F894A895C9
:10128000809360000FBE90936000FFCF0895FC0133
:1012900080918B0190918C018617970748F061151A
:1012A000710529F48091E8008E778093E800CB01E6
:1012B00040E0009741F4411106C08091E80082FFB0
:1012C00030C080E00895209104022115B1F125304D
:1012D000B1F12091E80023FD2EC02091E80022FD0D
:1012E000ECCF2091E80020FFE4CF4091F300209163
:1012F000F200342F009719F02830310558F041E002
:101300002830310509F040E02091E8002E77209345
:10131000E800CFCF41914093F10001972F5F3F4FFD
:10132000E9CF80910402811541F0853041F0809130
:10133000E80083FFC2CF81E0089582E0089583E052
:101340000895982F9093E900891771F07091EC003F
:101350002091ED005091F00021FD09C09F5F973072
:1013600089F78093E9000895762F242F50E030917B
:10137000EB003E7F3093EB003091ED003D7F3093EA
:10138000ED003091EB0031603093EB007093EC0096
:101390002093ED005093F0002091EE0027FDDECF6A
:1013A00008958091850187FF13C08091E80082FF36
:1013B00006C08091E8008B778093E80008958091C3
:1013C00004028111F2CF0895809104028115D9F3AE
:1013D0008091E80080FFF8CF8091E8008E77ECCF15
:1013E0002091E4003091E50095E6A9012091EC0000
:1013F000822F817020FF06C08091E80080FF06C028
:1014000080E008952091E80022FD1AC08091040236
:10141000811589F0853089F08091EB0085FD0FC042
:101420002091E4003091E50042175307F9F2915002
:10143000E1F684E0089582E0089583E0089581E074
:101440000895CF93DF93C8EDD0E088818F7E8883A5
:10145000E7EDF0E080818160808384E082BF81E0FD
:101460008093840188818E7F8883E2EE10821092BF
:10147000DA00A1EEB0E01C9288818F7788838881A2
:101480008068888388818F7D888319BC10920402CC
:10149000109283011092F30110928201A0EE8C91C0
:1014A0008B7F8C9388818160888342E060E080E05C
:1014B00048DFA1EEB0E08C918E7F8C93E2EEF0E0FD
:1014C000808181608083808188608083E0EE80817C
:1014D0008E7F8083888180618883DF91CF9108959A
:1014E000E8EDF0E080818E7F80831092E200109220
:1014F000DA001092E100A0EEB0E08C9181608C9354
:1015000080818F77808319BCA7ED8C918E7F8C931F
:1015100080818F7E8083109284010895A0E0B0E0E6
:10152000E4E9FAE00C94482C7C016B015A018091AB
:1015300026020AE010E08A3010F001E010E0C1E07D
:10154000D0E0B601C701F5010995811115C02196BA
:101550000C171D078CF0CC9F9001CD9F300D300DE6
:10156000112480E090E045E34A95F1F700000196F0
:1015700082179307C1F7E5CFCDB7DEB7EAE00C9449
:10158000642C0F931F93CF93DF93EB018A0190910B
:101590000402943059F58093E9008FEF9091E800B0
:1015A00095FD06C095ED9A95F1F700008150B1F7D1
:1015B0008091E80085FF1AC013DF811112C080916D
:1015C000E80085FD06C08091E8008E778093E800F2
:1015D000F3CF88818093F1000150104011F02196E3
:1015E000EECF8091E8008E778093E800DF91CF9175
:1015F0001F910F910895603229F440E250E0BC0140
:1016000082E0BFCF0895CF93DF93EC0148E050E034
:10161000BC0181E0B6DF88E0FE01ADE8B1E00190F9
:101620000D928A95E1F7DF91CF91089540E250E065
:10163000BC0184E0A6CF46E050E0BC0184E0A1CF2D
:1016400090918D0492FB222720F9281771F080FBDE
:1016500092F990938D0460918C0470918D0484E0D4
:1016600090E00E94262D82E0F5C808951F93CF9345
:10167000DF93122F8430E0F46830D0F44630C0F4A9
:10168000C42FD0E0CC0FDD1F2CE0629FC00DD11D18
:10169000112490E6899FC00DD11D1124632FCE0126
:1016A00089960E940C2D612FCE018A960E940C2DE6
:1016B000DF91CF911F91089580913101813061F5C3
:1016C00080918C0487FF28C070DC8093630140E226
:1016D00050E06BE472E082E691E00E94C32C892B1B
:1016E000D1F080E2E2E6F1E0ABE4B2E001900D92ED
:1016F0008A95E1F7E0916B02F0916C02309759F016
:101700000480F581E02D309731F086E0809362010E
:1017100082E691E00995089548DC80935A0148E0FB
:1017200050E06DE672E08AE591E00E94C32C892BBF
:1017300091F388E0EAE5F1E0ADE6B2E001900D92C8
:101740008A95E1F7E0916B02F0916C02309719F302
:101750000280F381E02D3097F1F28AE591E0DACF53
:10176000CF93C82F811509F460C08450813A08F0E6
:101770005EC080913101813041F1ECE5F1E082E61B
:1017800091E02081C217C1F131968E179F07C9F7EA
:10179000809131018130A1F1ACE5B1E0EFEF80E063
:1017A0009C91C91709F440C01196EF3F19F49111AB
:1017B00001C0E82F8F5F863099F7EF3FA9F1FE2F28
:1017C000FF0FFF0BE65AFE4F2EC080918C0487FF5F
:1017D000D4CFEC2FE695E695E695F0E0EE59FE4F76
:1017E000828190E04C2F477021E001C0220F4A9582
:1017F000EAF78223892B21F08C2FA0DB5DDFC8CF95
:1018000080918C0487FFC8CFEC2FE695E695E6958E
:10181000F0E0EE59FE4FC77081E001C0880FCA9515
:10182000EAF7C281C82BC28347DFCF9108958C2F7E
:10183000805E883060F4C77081E001C0880FCA956F
:10184000EAF7C091D303C82BC093D303EDCF8C2FFD
:101850008D5C833150F761E08C2F29DCE6CF811558
:10186000D1F0982F9450913A10F468DB25CF982F3F
:10187000905E983050F4982F81E091FD84E090FDC7
:10188000880F92FD829500D8F1CF982F9D5C9331FF
:1018900010F460E00CCC08951F93CF93DF93182FC2
:1018A000EB015EDF209731F4812FD9DFDF91CF91FB
:1018B0001F9108958FE99FE00197F1F700C00000A4
:1018C0002197F0CF811531F09091D303982B90930D
:1018D000D303F2CE0895811519F00E944404ECCE92
:1018E0000895811531F09091D503982B9093D503ED
:1018F000E3CE0895811539F080959091D503892321
:101900008093D503D9CE08951092D30380913101ED
:101910008130D1F480918C0487FF16C0E4E6F1E0B9
:101920008EE111928A95E9F71092D503C5DEEDEDAF
:10193000F2E086E011928A95E9F71092DB021092AC
:10194000DA021092DC028BCBECE5F1E086E0E9CF25
:10195000DBDF8FEF94E32CE0815090402040E1F7F3
:1019600000C0000088E19AE00FB6F894A895809333
:1019700060000FBE90936000FFCFAAE2B0E0E3ECFE
:10198000FCE00C944F2C85E891E0FC01019620913D
:10199000F100208321E08D389207B9F7809186010C
:1019A000893009F457C0C8F4823009F4B3C08330D9
:1019B00009F483C0813081F18091E80083FFE7C0A2
:1019C00080918501909186019A3008F0E0C0E92F5E
:1019D000F0E0EA5AF24D0C948A2C8A3009F48AC05D
:1019E0008B3051F780918501813231F780918901E7
:1019F00090918A01892B01F78091E800877F80937D
:101A0000E800CFDC81E090918701911101C080E076
:101A10008093310179DFD0CF80918501813A61F6E1
:101A20008091E800877F8093E80080918901909100
:101A30008A01892B59F060E080E090E070E027DCBB
:101A40008091E8008B778093E800B6CF68E08DE85E
:101A500091E0F4CF80918501813209F0ADCF809182
:101A6000890190918A018D7F892B09F0A5CF809102
:101A7000E800877F8093E8008091E80082FF18C02B
:101A80002091F3008091F200922F029731F480911F
:101A9000F100813011F0863021F48091F1008093C3
:101AA00030018091E8008B778093E8007ADC84CF66
:101AB000809104028111E0CF7FCF80918501813A2E
:101AC00009F07ACF8091890190918A01892B09F0E0
:101AD00073CF8091E800877F8093E8008091E800D1
:101AE00080FFFCCF809131018093F1008091E8006C
:101AF0008E77DACF80918501813209F05DCF8091B8
:101B0000E800877F8093E8004CDC80918801809317
:101B10002F0152CF80918501813A09F04DCF8091FC
:101B2000E800877F8093E8008091E80080FFFCCF89
:101B300080912F01D9CF803889F0823841F580918A
:101B400089018F70873018F58093E9008091EB0050
:101B500085FB882780F91092E90006C08091F30187
:101B6000880F90918201892B9091E800977F909344
:101B7000E8008093F1001092F1008091E8008E77E8
:101B800023C0811116C080918701813009F18091B5
:101B9000E80083FF0AC08091E800877F8093E80017
:101BA0008091EB0080628093EB00AA96E3E00C94B6
:101BB0006B2C823061F780918701811579F010924A
:101BC000E9008091E800877F8093E800EADBDFCFBF
:101BD000933009F080E08093F301F1CF8091890187
:101BE0008F70282F2150263090F68093E9002091A5
:101BF000EB0020FFE4CF933031F48091EB00806262
:101C00008093EB00DCCF9091EB0090619093EB0020
:101C100021E001C0220F8A95EAF72093EA00109292
:101C2000EA008091EB008860EBCF8111B0CF80910A
:101C300087018F77182F8091E3008078812B809324
:101C4000E3008091E800877F8093E800AADB809121
:101C5000E80080FFFCCF8091E30080688093E30080
:101C600083E0111101C082E08093040290CF80587C
:101C7000823008F08CCF80918701909188018C3D53
:101C800023E0920789F583E08A838AE289834FB74C
:101C9000F894DE01139620E03EE051E2E32FF0E0FD
:101CA00050935700849120FF03C082958F703F5F4F
:101CB0008F708A30B8F0895C8D931D922F5F24312C
:101CC00069F74FBF8091E800877F8093E8006AE260
:101CD00070E0CE010196DBDA8091E8008B7780938B
:101CE000E80055CF805DE8CF292F30E02330310563
:101CF00009F44EC078F52130310509F486C08BE532
:101D000090E0E6E9F1E02230310509F040CF209182
:101D1000E800277F2093E80020918B0130918C010F
:101D20008217930708F49C0140E02115310509F062
:101D300071C041116FC08091E80082FDCDCF8091CC
:101D40000402811549F2853039F28091E80083FF61
:101D5000F2CFC2CF8091890190918A012132310561
:101D600009F444C02232310509F011CF83309105C6
:101D700008F00DCFFC01EE0FFF1FE05CFE4F01905D
:101D8000F081E02D835C9E4FDC018C9190E010C0CF
:101D9000282F30E0823011F12330310568F4232BF5
:101DA000A9F4E1E4F2E0E4918E2F90E0E1E4F2E0C6
:101DB000009709F4ECCEABCF09F0E9CEE3E0F2E016
:101DC000E4918E2F90E0E3E0F2E0F2CFEFE2F2E078
:101DD000E4918E2F90E0EFE2F2E0EACFE1E2F2E070
:101DE000E4918E2F90E0E1E2F2E0E2CF83309105C2
:101DF00008F0CDCE880F991FFC01EA5BFE4F0190E1
:101E0000F081E02D89E090E082CF82E190E0E1EF87
:101E1000F1E07DCF80910402811509F45DCF85301A
:101E200009F45ACF8091E80083FD56CF8091E800F5
:101E300082FD81CF8091E80080FF77CF4091F30051
:101E40008091F200942F2115310519F08830910509
:101E500050F041E0089709F040E08091E8008E776B
:101E60008093E80062CF44914093F1003196215075
:101E700031090196E8CF803809F089CE8091E800D9
:101E8000877F8093E800809183018093F10075CE75
:101E900081117DCE80918701182F823008F077CE96
:101EA0008091E800877F8093E8001093830179DABE
:101EB0001115D9F084E08093040242E061EC81E0E6
:101EC00040DA42E261EC84E03CDA42E261EC82E03A
:101ED00038DA42E260EC83E034DA80910402843044
:101EE00051F482E08093320152CE8091E30087FD6D
:101EF000E1CF81E0E0CF81E0F5CFCF93DF93EC013C
:101F00004A855B856E857F8501D89B819095809100
:101F1000D50389238093D5038C810E944404CCDBB4
:101F200086E019928A95E9F7DF91CF910895CF93D2
:101F3000DF93EC018D8181FD16C082608D838091DD
:101F4000D5039B81892B8093D5038091D3039C81FA
:101F5000892B8093D303B0DB488559856E857F85B7
:101F6000CE010E9486071092CD031092CE038D8180
:101F700080FD02C0CE01C1DFDF91CF910895ACE0BA
:101F8000B0E0E5ECFFE00C94472CFE013196DF0158
:101F900088E01D928A95E9F78EE4C82E81E0D82E5C
:101FA0007F01AE2E9F2C08E511E0F60181916F01B3
:101FB0008F3F09F43DC0F894E82FE295EF70F0E010
:101FC00021A18F7041E001C0440F8A95EAF7922F5A
:101FD000942B91A392A1842F8095892382A3789436
:101FE00000C0E2E5F1E031E0B12C21912F3F79F022
:101FF000A22FA295AF70A05EB0E08C9190E02F7000
:1020000002C0959587952A95E2F780FF7FC080E012
:10201000B82A330F0E171F0741F7F60182918F3F41
:1020200011F00E94220680EA8A95F1F7F701B0824A
:102030008FEFE81AF80A82E5C81681E0D80609F0A1
:10204000B4CF48E050E06A2D792D87E392E00E94FA
:10205000C32C009749F028E0EA2DF92DA7E3B2E060
:1020600001900D922A95E1F70091360210E0025D91
:102070001D4F892B09F44CC081E080932D020E94F2
:10208000C90780932B0290932C0280913F02811507
:1020900009F499C07E0189E0E80EF11CF70184E0A3
:1020A00011928A95E9F7809126028A3008F054C08F
:1020B0004BE252E1B701C80131DA811509F471C070
:1020C0004FEC52E1B701C80129DA811509F469C062
:1020D0004EEC51E1B701C80121DA811509F461C064
:1020E0001092260280912A0290E044E050E0B7016D
:1020F000825D9D4F0E94C32C21E020932902892BF1
:1021000009F041C02C96EBE00C94632C832F80CF18
:1021100080912D02811509F4B8CFE0902B02F09048
:102120002C020E94C9078E199F09059708F4ADCFAC
:1021300044E050E067E372E0C8010E94C32C892BA1
:1021400041F084E0E7E3F2E0D80101900D928A9536
:10215000E1F710922D0299CFC0902702D09028026B
:102160000E94C9078C199D09843F914008F0A0CFB7
:1021700080912902811531F2F70184E011928A954C
:10218000E9F710922902E0912A02F0E0E25DFD4FAA
:1021900089859A85AB85BC8580839183A283B3832F
:1021A000B1CF809126028F3F39F40E94C9078093F6
:1021B000270290932802DCCF8F5F809326028A301B
:1021C00008F490CFF2CFE0902A02F12CC701825D93
:1021D0009D4F7C01F80180819181A281B381809320
:1021E0000E0290930F02A0931002B09311028EE0A2
:1021F00092E00E94CF0680930D028091120290918E
:102200001302A0911402B0911502F701808391830B
:10221000A283B383C0901602D0901702E0901802F8
:10222000F09019028091220290912302A091240241
:10223000B0912502C816D906EA06FB0609F462CF5A
:10224000C0922202D0922302E0922402F092250250
:102250000E940E09C61AD70AE80AF90AC09241027A
:10226000D0924202E0924302F09244024BCFA0E0AF
:10227000B0E0EDE3F1E10C94492CEC019881913050
:1022800000F109F044C08981813051F48A8123969C
:1022900060E570E0893311F060E070E0FDDAEECFC8
:1022A000823021F48A8123965BDAE8CF833021F4EF
:1022B0008A812396D4DAE2CF843041F022968111CC
:1022C000DDCFCDB7DEB7E9E00C94652C8A8123968B
:1022D00020E030E09AE0482F4053550B4A3051053A
:1022E00060F02115310559F3EFE9FFE03197F1F77F
:1022F00000C0000021503109F4CF929FB001939F9C
:10230000700D11249A01260F371F8991E4CF219671
:10231000E92FF0E0EB58FD4F8491B82E292F269538
:102320002695269530E0F901EB59FD4FE490977022
:10233000F12C092E02C0F594E7940A94E2F7F90112
:10234000EB5AFD4FC490D12C092E02C0D594C794EE
:102350000A94E2F72B5B3D4FF901049110E002C0B3
:10236000159507959A95E2F7E0FE02C081EEF8D93F
:10237000C0FE02C086EEF4D960E070E08B2D8CDAEE
:10238000C0FE02C086EE6BDAE0FE02C081EE67DAC4
:1023900000FF74CF60E070E08CE280CFCF92DF92DC
:1023A000EF92FF921F93CF93DF9300D000D0CDB771
:1023B000DEB7C0900502D0900602E0900702F090D0
:1023C00008020E940E09DC01CB018C199D09AE099F
:1023D000BF0911E084369105A105B10578F10E948D
:1023E0001A09DC01CB010296A11DB11D89839A83D4
:1023F000AB83BC838091280190912901835F9D4F1D
:1024000020912701422F50E0253008F044E09E0142
:102410002F5F3F4FB9010E94D02C83E090E00E94D3
:10242000D22B182F811551F00E940E0960930502DE
:10243000709306028093070290930802812F0F90F9
:102440000F900F900F90DF91CF911F91FF90EF9021
:10245000DF90CF900895AF92BF92CF92DF92EF922C
:10246000FF921F93CF93DF9300D000D00F92CDB790
:10247000DEB75B0180E090E00E94D22B182F81151F
:1024800009F462C080911201482F50E0811141E0AF
:102490006091130170911401635F7D4FCE01059629
:1024A0000E94D02CC0901E02D0901F02E09020020B
:1024B000F09021020E940E09DC01CB018C199D09CC
:1024C000AE09BF0984369105A105B10538F48EE047
:1024D00092E00E94CF069D818917B1F181E090E0E2
:1024E0000E94D22B8115F1F180911A01482F50E002
:1024F000853008F044E060911B0170911C01635F1E
:102500007D4FCE0101960E94D02C8EE092E00E9479
:10251000CF069D81891326C00E940E0960931E027A
:1025200070931F02809320029093210289819A81E7
:10253000AB81BC8180931A0290931B02A0931C0272
:10254000B0931D0281E00FC080910E0290910F02A6
:10255000A0911002B091110289839A83AB83BC834E
:102560001111E4CF80E040911A0250911B0260915A
:102570001C0270911D02F5014083518362837383B5
:102580000F900F900F900F900F90DF91CF911F91B0
:10259000FF90EF90DF90CF90BF90AF900895A0E0B4
:1025A000B0E0E5EDF2E10C944A2CEC0144E050E09F
:1025B00062E172E00E94C32C8C01C0900902D090AD
:1025C0000A02E0900B02F0900C020E940E09DC015E
:1025D000CB018C199D09AE09BF0984369105A1056F
:1025E000B10518F4C801892B01F180912001909167
:1025F0002101835F9D4F20911F01422F50E0253024
:1026000008F044E0BE010E94D02C82E090E00E94DD
:10261000D22B811559F00E940E0960930902709324
:102620000A0280930B0290930C0281E0CDB7DEB7D3
:10263000E8E00C94662C0F931F93CF93DF938430C4
:1026400008F56830F8F44630E8F4C42FD0E0CC0F39
:10265000DD1F9CE0699FC00DD11D112490E6899F6C
:10266000C00DD11D1124CE0189960E94F02C082F97
:10267000CE018A960E94F02C902FDF91CF911F916E
:102680000F91089580E090E0F8CF462F2091470207
:1026900030914802232B89F4703F39F4603F69F48C
:1026A00080914502909146020895783030F466306A
:1026B00020F4843010F4672FBECF80E090E00895BE
:1026C000CF92DF92FF920F931F93CF93DF936C0112
:1026D00000918B0480918A04082BC3E0D0E010E0C5
:1026E000C8010C2E02C0959587950A94E2F780FDEB
:1026F0000CC02197A8F7F12C8F2DDF91CF911F915E
:102700000F91FF90DF90CF900895FC2EB6018C2F93
:10271000BCDF0E944905019761F3EECF0F931F9331
:10272000CF93FC01278130852115310591F48581F6
:1027300000811181811591F0611581F0C801C0DF20
:10274000C82F682FC8010E947A03B8018C2F9DDF23
:102750009C01C901CF911F910F910895C8010E945A
:10276000B003C82FF2CFCF93DF93EC01A9DFBE01F6
:102770008CDF0E944905DF91CF910895FC0184818F
:10278000811509F1878190850097A1F00E94490584
:10279000282F92959F709630B9F080F4925F9F70C9
:1027A000923030F4203FD1F058F481E0283E58F0C8
:1027B00080E0089580819181D6DFEACF9A5FEFCFE4
:1027C00081E0243FA9F7089591E0813F09F090E06E
:1027D00081E0283E08F080E0892B089581E008958B
:1027E000673821E072078105910528F4CB018758ED
:1027F0009D4F0C94F02C80E0089585E290E00E94BB
:10280000F02C803D69F486E290E00E94F02C8D303F
:1028100039F487E290E00E94F02C91E0843B09F0CB
:1028200090E0892F81700895AAE0B0E0EAE1F4E138
:102830000C94452CC0900D01D0900E0181E0809346
:102840000D0110920E01812C912CE12C5401F12CE0
:1028500015C0F80125913591472D6F2D8E2D0E94C1
:10286000360B0E5F1F4F7394872D863091F786E0ED
:10287000A80EB11CF3948F2D883039F08501000F1C
:10288000111F0B501D4F712CE4CFE39480E3880E91
:10289000911C8E2D8430D1F619821A821B821C82E3
:1028A0001D821E821F82188684EB89871A8609EA98
:1028B00011E07E018FEFE81AF80A4AE050E0B80113
:1028C000C7010E942A2D065F1F4F093F81E01807AC
:1028D000A1F7F7018AE011928A95E9F74AE050E002
:1028E000B801C7010E942A2D065F1F4F093482E0FC
:1028F0001807A1F7F70186E011928A95E9F746E0FB
:1029000050E0B801C7010E942A2D0A5F1F4F093706
:1029100082E01807A1F7C0920D01D0920E012A960D
:10292000EDE00C94612CAAE0B0E0E9E9F4E10C944C
:102930004A2CEAE9F1E080E511928A95E9F7EBED9E
:10294000F3E088E311928A95E9F78AE9C82E81E0DD
:10295000D82E9BEDE92E93E0F92E09EF11E0F70157
:10296000C082D1824AE050E0B801CE0101960E94B7
:10297000E02C88E09E012F5F3F4FF901D6010190C6
:102980000D928A95E1F789859A85F7018283938371
:102990008AE0C80ED11C87E0E80EF11C065F1F4FCD
:1029A000093482E01807D9F62A96E8E00C94662CE0
:1029B000A6E0B0E0EEEDF4E10C944C2C0DEE12E04C
:1029C00089E4E82E82E0F82E46E050E0B701CE011F
:1029D00001960E94E02CF80188E011928A95E9F7AF
:1029E000B8016C5F7F4F89819A810E945D06F80172
:1029F00080839183B8016B5F7F4F8B819C810E94A4
:102A00005D06F801828393838D8186838E8187831F
:102A100086E0E80EF11C085F1F4F89E7E81682E0A8
:102A2000F80691F62696E6E00C94682C9B01883017
:102A300070F49AE0899FB001112467557E4F4AE0F7
:102A400050E0C9010E94E02C80E090E008958FEFF3
:102A50009FEF0895AAE0B0E0E0E3F5E10C94502C7C
:102A6000392F375569F49E012F5F3F4FB901DEDFE3
:102A7000892B31F489859A852A96E2E00C946C2C96
:102A800084EB90E0F9CFEF92FF920F931F93CF93D7
:102A9000DF938091C502803108F044C08091C40268
:102AA000811509F43FC080917602909175029817C4
:102AB000C9F17C0199E0899FE0011124FE01E958E8
:102AC000FD4F8481811599F191818091C002981305
:102AD0002EC090818091BF02981329C085818111F9
:102AE00026C0028113818091C1029091C202081B0D
:102AF000190B60E08FEB92E011DEACDF08171907CD
:102B0000B0F48091C5028F7080618093C502C35874
:102B1000DD4F88818F70806188838FEB92E07DD557
:102B20000E942004CDB7DEB7E6E00C94682CC70104
:102B300083958770BACFAFE0B0E0E1EAF5E10C949D
:102B4000432C8C0186E0F801DE011A9601900D926B
:102B50008A95E1F7F801F580E4808FEB882E82E01A
:102B6000982E8091C302811116C0E11489F0F114EE
:102B700009F4BDC0C80102DE811509F4B8C089E0BE
:102B8000F801AFEBB2E001900D928A95E1F77BDF9F
:102B9000FF24F39467C0A280B380D090C4028091D8
:102BA000C1029091C2023501681A790AD11409F460
:102BB000F4C08081582E8181C82E60E08FEB92E0B6
:102BC000ADDD48DF6816790608F094C0E11401F322
:102BD0008091C002F8019181E090C5022E2D203134
:102BE00008F060C098131EC09091BF0280819813B6
:102BF00019C02091C6023091C7028781908528179D
:102C0000390781F4F11048C08E2D8F708061809358
:102C1000C5028FEB92E001D58091C502F801868351
:102C2000F12C20C0F11038C040E06C2D852D0E94A1
:102C3000010440E06C2D852D0E940104F82E8111C5
:102C4000EFCF8A859B858FDD292F22952F709034B9
:102C500070F49F70223098F09115A9F0F8019681D8
:102C6000903188F48F2D2F96EFE00C945F2C2A5F23
:102C70002F70223060F0C801D0D4FD2CF3CF911515
:102C800011F0811579F3805E883060F3F4CF803FD6
:102C900048F3815F8330F9CF8091C50281608093D2
:102CA000C502BECF98131CC09091BF0280819813BB
:102CB00017C02091C6023091C702878190852817DE
:102CC000390771F4F1100CC0E682C801A6D489E07E
:102CD000F801AFEBB2E001900D928A95E1F758CF81
:102CE000C8014CDD811519F08E2DF1103AC0C801D4
:102CF00094D44ECFD090C5028D2D803148F48FEB07
:102D000092E08BD4F40189E011928A95E9F788CF9B
:102D1000E11409F43DCF9091C002F801818198132C
:102D200019C09091BF028081981314C02091C602EF
:102D30003091C702878190852817390759F4F1101F
:102D400009C0D682C80169D4F40189E011928A953C
:102D5000E9F71ECFC80112DD811549F2F11439F2ED
:102D60008D2D803208F40BCF8091BF029091C0026C
:102D700089839A83AB82BC828091C3028D831E8239
:102D80008091C5028F838091C6029091C702888787
:102D90009987CE01019641D4F2CE60E08FEB92E0AC
:102DA000BDDC58DE6816790608F0ACCFE11409F4F2
:102DB000EFCEF11409F49BCF9091C002F80181810C
:102DC00098132DC09091BF028081981328C0209144
:102DD000C6023091C7028781908528173907F9F418
:102DE0008091C1029091C202A81AB90A84EBA81678
:102DF000B10408F06CCF9091C50290FD68CF90317E
:102E000008F465CF892F9683907F903F09F45DCFBA
:102E1000982F907F905F8F70892B868356CFC80143
:102E2000ADDC8111ACCE8091C50281608093C5027A
:102E30005ECFA2E1B0E0EFE1F7E10C944E2C0A87FF
:102E40001B872C873D874E875F87688B798B8A8BA2
:102E5000CE010A9670DE81112EC02091750230914C
:102E6000760289E0AE01465F5F4FFA014950510991
:102E7000DA0101900D928A95E1F78E858115D9F0DE
:102E8000822F90E08395877090E0AC01341715068F
:102E9000E1F099E0929FD0011124A958BD4F9E0105
:102EA0002F5F3F4FF90101900D929A95E1F7409302
:102EB00075020E9420048091760290917502891318
:102EC00011C06296E4E00C946A2C0E94840C10926B
:102ED000750210927602EFEBF2E089E011928A958A
:102EE000E9F7E9CF29E0829FC001112489589D4F5D
:102EF00022DE811531F3809176029091770201965E
:102F0000877080937602D7CFEF92FF920F931F9333
:102F1000CF93DF9380918704E0919901CDE08111F7
:102F200030C0CDB7DEB7E6E00C94682CDE2FDF5F53
:102F3000D0939901EE2EF12CCE9FF0011124E15E89
:102F4000FB4F84818115E1F087819085892B21F4E5
:102F500081859285019651F400811181228133810E
:102F60004481558166817781808563DFCE9DF00144
:102F7000CF9DF00D1124E15EFB4F14821092D5031A
:102F8000ED2F80918704E81788F210928704109241
:102F90009901C7CFA0E0B0E0E0EDF7E10C94422C3E
:102FA000C0911E0497E0992E01E010E080911D046D
:102FB0008C1308C0A9DF0E949206CDB7DEB7E0E10E
:102FC0000C945E2CD0E0FE01EE0FFF1FED5EFB4F78
:102FD00080819181989ED001999EB00D1124A552B7
:102FE000BC4F2D01FD01248121115BC0709087042D
:102FF000EFE1F4E060E070E0812C671508F04FC06D
:10300000A384B484D201CD90DD902FEF3FEF612CEB
:10301000462D50E07601E60CF11CE60CF11CD701C0
:10302000ED90FD90E114F10439F0AE14BF0409F005
:10303000A90163949A01ECCF2F3F3207B1F1D80177
:1030400001C0AA0F2A95EAF78A2A9801062C02C025
:10305000220F331F0A94E2F7A90141505109841647
:10306000150611F52DE0269FF001279FF00D112484
:10307000E15EFB4F989ED001999EB00D1124A552A0
:10308000BC4F12962D913D912783308724E02483F5
:10309000108211828187928721E011962C930E94E1
:1030A000A306C395C37082CF14826F5F7F4F3D9696
:1030B000A4CF109288041092890410923301809159
:1030C0001D0480931E040E9492061ECFADE1B0E065
:1030D000ECE6F8E10C94402C4B8B5C8B6D8B7E8B7B
:1030E0008F8B792E988F91111092D503188A198A97
:1030F0001A8A86E0FE017396DE011A9601900D92FF
:103100008A95E1F76F8880918D0482FF1FC00E942D
:10311000C9072091D7033091D803821B930B8838BD
:10312000934138F08091D60382FD03C082E00E9473
:103130002A040E94C9072091D9033091DA03821B27
:10314000930B8838934110F00E944C046114C9F02D
:103150006E867F8661E0CE010A96E0DA61E0CE01FC
:103160000A96DCDA61E0CE010A96D8DA5C0180E5E5
:10317000A8168CE7B80689F4711421F181E08093D8
:1031800033016E867F860A851B852C853D85A301CC
:10319000688979898A894DDECAC081E5A8168CE7DD
:1031A000B80621F4711471F084DFEBCF82E5A81624
:1031B0008CE7B80639F4711429F08091330181113C
:1031C000F3CFDCCF4BEDE42E43E0F42E198E812CAF
:1031D000912C14012394F70160817181DD24DA942C
:1031E000CD2C80E0282F30E0FB01E80FF11DE80F27
:1031F000F11D408151814115510539F0A416B506E4
:1032000009F096018F5F6901EDCF10E09FEFC916BD
:10321000DC0409F445C0F7014481109133014111E8
:1032200010E0F70145809681711409F401C1111570
:1032300009F4FEC0411014C021E00C2C01C0220F83
:103240000A94EAF7922B968320911B0430911C0478
:103250002233310528F422E320931B0410921C042E
:10326000910102C0220F331F8A95E2F7C90101972D
:10327000F70126812817190699F4C0908804D09088
:103280008904C114D10409F456C00E94C9078C19DD
:103290009D09C39708F44FC081E0F701848311E0D2
:1032A000898D812B898F8FEF881A980A87E0E80E25
:1032B000F11C88E08816910409F08DCF711409F48F
:1032C0000DC1898D811509F409C10E94C907809338
:1032D00088049093890480918704883040F5982F62
:1032E0009F5F9093870499E0FE013A969E012F5FBD
:1032F0003F4FD90101900D929A95E1F76D827E8240
:103300002DE0829FC0011124815E9B4F29E0AE0118
:103310004F5F5F4FFA01DC0101900D922A95E1F7B2
:103320002FEF3FEFFC0121873287A386B4866D968D
:10333000E2E10C945C2C20911E0480911D04422F2C
:10334000E0E0F0E097E051E0281709F446C0422E93
:10335000512CF201EE0FFF1FED5EFB4FC080D180BC
:103360009C9DF0019D9DF00D1124E552FC4F608164
:1033700071816C8F7D8FB0E030E0A0E0EC8DFD8D31
:10338000EA0FF11DEA0FF11D608171816115710570
:10339000E1F0F7010190F081E02DEA8FFB8F30E042
:1033A00007C001E06E177F0709F000E0B02B3F5F18
:1033B000EA8DFB8DE30FF11DE30FF11D0190F0810C
:1033C000E02D309771F7AF5FD9CFB11571F13A1792
:1033D000B8F4F70191E09483F70140931E04EE15D1
:1033E000FF0509F45DCF90E0FC01EE0FFF1FED5EDD
:1033F000FB4F808291820196837080931D0450CF91
:103400009C9DF0019D9DF00D1124E552FC4F5483CD
:10341000EE15FF0509F3241304C09A012395422FEA
:1034200043709201239523708FCFE0E0F0E0F9CF55
:10343000292F41101FC0B10102C0660F771F8A9566
:10344000E2F7CB0101978217930771F010E0C101F9
:1034500002C0880F991FCA94E2F76C01C094F7016B
:1034600086818C2186831CCF411589F3C4010E947B
:10347000A306ECCFA9010C2C02C0559547950A94E0
:10348000E2F7C901019782239323892B21F540FF9D
:1034900022C0F70182819381892BC9F0FE01319608
:1034A00087E011928A95E9F70E94C9079C018B83F6
:1034B0009C8384E08D83F70192818381792F9887A3
:1034C000898709811A8144E05E816F81B2DCF7014E
:1034D0001582142DBCCF142F1170B9CF90911E04FA
:1034E00080911D04981731F055DD898D813009F4E4
:1034F0001ECF47CE09DD10928804109289040E94E5
:103500009206F3CFA6E0B0E0E8E8FAE10C944E2C86
:103510000E94C9078C018091490290914A0280174C
:10352000910771F019821A820E94C907BC01498172
:103530005A8180E090E0CADD0093490210934A026C
:103540002696E4E00C946A2CA6E0B0E0EAEAFAE100
:103550000C944E2C8C01809345021093460210323D
:10356000B0F4C801805E9109089728F061E77CE01B
:103570000115110511F462E67CE0C8010E942E03DA
:10358000802F0E94B00B2696E4E00C946A2C80EF0A
:1035900089838A830E94C9078160BC0149815A815D
:1035A00081E091E093DDEFCFA6E0B0E0EAEDFAE153
:1035B0000C944E2C8C0180934502109346021032DD
:1035C000B0F4802F0E942F0CC801805E91090897EB
:1035D00028F06AE77CE00115110511F46BE67CE048
:1035E000C8010E942E032696E4E00C946A2C80EF1A
:1035F00089838A830E94C9078160BC0149815A81FD
:1036000081E090E063DDEFCFCF93DF93EC019CDFAF
:10361000CE01CADFDF91CF910895A7E0B0E0E3E1EA
:10362000FBE10C94402C7C01FC018481811509F4A0
:103630005DC161E0C70172D88C01F70185818115F8
:1036400031F1E091CD03F091CE03309701F10E17E7
:103650001F07E9F08E2F887F90E0892B09F049C081
:10366000F0E0E295F295F07FFE27E07FFE27E35B36
:10367000FC4F85818460858300831183CF010E9484
:10368000970F1092D50361E0C70148D88C01809153
:103690004203811135C0F7018581811509F4DDC030
:1036A000103508F0C5C0103208F024C1011587E0BC
:1036B000180731F108F5C801805E9109089700F1FB
:1036C0008091D5039091D303892B9091D203892BBC
:1036D00099E0F701AEE2B3E001900D929A95E1F71F
:1036E00000933503109336031092380380932D0313
:1036F00007C0E0E0F0E0BDCF01158FE0180701F74B
:10370000F70185818111DEC1173508F475C01835C0
:1037100008F020C6680189EAD80E63E473E08C2DB6
:1037200085D9892B39F5C60182959295907F982786
:10373000807F9827FC01E35BFC4F2281213009F058
:1037400093C22091430330914403232B99F020919D
:10375000450330914603232B69F0209147033091B4
:1037600048034091490350914A03242B352B232BC6
:1037700009F484C2A02E88EFA822B12CA114B104B0
:1037800009F0A5C0E02FF0E0E295F295F07FFE276A
:10379000E07FFE27CF01835B9C4F6C01D70115961C
:1037A0008C91EE5AFC4F908180FB90F990838115AB
:1037B00009F480C20E94C9078093CF039093D0037D
:1037C000F60182818F5F82838091D5039091D3032C
:1037D000892B83838091D2038483468157816685B8
:1037E0007785C6010E948607F601858181FF580111
:1037F000A092CD03B092CE03C801805E924580971F
:1038000008F07FC2F701858181117BC20F7181E0D1
:1038100090E002C0880F991F0A95E2F78C01682F8B
:1038200083E090E00E940C2D802F0E9460034FC027
:10383000003E92E5190750F4003682E5180708F0BB
:103840005FCFC80192558034910539CF9801275731
:103850003C472530310508F033CF09379CE719077D
:1038600009F04BC02091350330913603232B79F1B9
:103870008115A1F081E00E94600780912D030E94D4
:10388000710C89E0EEE2F3E0A4EEB2E001900D925B
:103890008A95E1F7809138038093E30286E0F7018F
:1038A000A4EEB2E001900D928A95E1F78091E302D7
:1038B0008093420384EE92E0B0DE10924203F7015F
:1038C0008581811104C080912D030E947A0C809122
:1038D000D603877059F0F7018581811539F0809101
:1038E0008D0482FF03C082E00E942A042796E2E151
:1038F0000C945C2C86818031E2CE0A379CE7190754
:1039000009F0FECE811509F4B2C0C0903503D09005
:10391000360310912D031983CE010196BC01C60117
:103920000E945D062C0189818E836DEE662E62E019
:10393000762E71E0A72EB12C8FEF8D83F3010781D6
:1039400003FF4DC020803180828093804214530455
:10395000A9F484818F83202F4681682F8E810E9455
:103960007206811559F08F810E944B039D81981733
:103970002CF4F30125815401B22A8D834814590493
:10398000C1F401FF16C0F30185818F83202F46818A
:10399000682F8E810E947206811559F08F810E94D6
:1039A0004B039D8198172CF4F30124815101B22A15
:1039B0008D8300FF14C08D818F3F89F481E0A816AC
:1039C000B10469F4202FF301468160E08E810E94EA
:1039D0007206811521F0F30185815401B82A88E02F
:1039E000680E711C8DE293E08615970509F0A6CF4D
:1039F00081E0A816B10489F5812F82958F70812B03
:103A00008F7091E0103108F490E090FD8061082FF4
:103A100080E2D816E0F4D1104EC09C2C802F8D701F
:103A20004C2D811509F44AC06AE085E196E00E94B8
:103A30007107A82E811109C0492D64E189EF95E035
:103A40000E947107A82E811531F0B02E06C0C60164
:103A50009052903388F1A12CB12CE9E3F3E087E098
:103A600011928A95E9F7A0924003B09241038091A8
:103A7000400390914103892B09F429CFF7018581F7
:103A8000811539F08FEF0E94600780913803809391
:103A9000370386E0F701A9E3B3E001900D928A9520
:103AA000E1F7809137038093420389E393E0B5DD2A
:103AB000109242030CCF0D29D12CAFCF68E08DE0DE
:103AC00096E0B5CF980137572038310508F0E1C0AE
:103AD000003108F0FCCE66E871E080E090E00E94E2
:103AE000F0138111F4CEA12CB12C450101113CC081
:103AF0008E010F5F1F4FF80184E011928A95E9F75C
:103B0000B401C5010E94F0138983811509F4DFCE49
:103B1000240135019FEF491A590A690A790A81304F
:103B2000F9F4B201C3010E94F013D82E8A838115E3
:103B300009F4CDCEB401C5016E5F7F4F8F4F9F4F0B
:103B40002D2D2150233050F523E0820E911CA11C15
:103B5000B11C240135010E94F0138B838115D9F02B
:103B6000C8010E94371117C087E8881681E09806BF
:103B7000A104B10409F4ABCEB401C5010E94F01355
:103B80009FEF891A990AA90AB90A8111EDCF01504C
:103B9000ADCF2B013C0142015301ADCF2D2D25505E
:103BA000233070F52401350123E0420E511C611CC5
:103BB000711C0E94F0138B83811569F384E0880ED9
:103BC000911CA11CB11CB201C3010E94F0138C8393
:103BD000811103C024013501DECF8B819C818130AE
:103BE0002FEF920710F0982F80E02D2D263021F036
:103BF000273021F009DDEECFA7DCECCFD5DCEACF12
:103C00002D2D243031F60E94F013D82E811509F4A1
:103C10005ECEB401C5016D5F7F4F8F4F9F4F0E94F5
:103C2000F013811509F453CE94E0890E911CA11C68
:103C3000B11C24013501282F2150330B4FEF429F37
:103C4000C001439F900D11242D2D2150330B820F65
:103C5000931F009709F49FCF0197EFE9FFE0319799
:103C6000F1F700C00000F5CF223009F083CD20919C
:103C7000470330914803232B09F47CCDFC01EE5A15
:103C8000FC4F20812E7F2083835B9C4F0E94970FE7
:103C900071CD312F375509F46DCD07379CE71907E2
:103CA00029F108379CE7190709F0A6CD811539F1EC
:103CB00082E01DC0F6014485558566857785C6017D
:103CC0000E948607F601858181FF96CDC6010E947C
:103CD0007D0F8091CD039091CE030817190709F04D
:103CE0008BCD1092CD031092CE0386CD81E00E9441
:103CF000660343E062E081E00E94E303E8CD82E0F6
:103D00002FC39091D10380918B04282F20953FEFF2
:103D100050E0292335232115310519F0982390937C
:103D2000D1030B379CE7190751F4F70195819115E1
:103D300009F4CDCD0E944E030E94E806C8CD0034A0
:103D400082E5180708F09DC0003282E5180708F0E8
:103D50009EC0F7016581103508F074C0103408F07A
:103D6000AAC0F70185818115B1F00A358CE71807E3
:103D700009F4DFC008F0B6C001308CE7180709F479
:103D8000D6C003308CE7180709F4CBC001158CE7C7
:103D9000180709F4B9C0F70187819085009709F4E5
:103DA000CCC00E944905082FA92EF701B580C68016
:103DB000C2948FE0C8228091D603877001F1DB2C7A
:103DC000B114F1F0892F807F803461F0802F805E04
:103DD0008830A8F0892F807E803221F4023078F07C
:103DE000C11469F080918D0482FF09C082E00E94B5
:103DF0002A048091D6038770DD24D3948111D12CBD
:103E00008A2D82958F70883009F49DC108F0C7C053
:103E1000843008F0A9C01A2D1F70823008F4D0C079
:103E20008A2D807F803211F01295107F013008F4C6
:103E3000FEC009F464C1B11409F46FC1C11409F4DE
:103E400014C1D4C0C8019055923008F08ACFC8017F
:103E500025E0969587952A95E1F78F702091D103FB
:103E600041E0082E01C0440F0A94EAF72423232BD3
:103E700009F477CF611160CF1092D3030E945C0BDD
:103E800026CDC801805C9245809708F06ACF802FCC
:103E90008F712091D10341E0082E01C0440F0A9494
:103EA000EAF72423232B09F45CCFF70195819115C0
:103EB00009F40DCD41CF8681803108F052CF6111D8
:103EC00050CF212F2F7081E090E002C0880F991F02
:103ED0002A95E2F72091D10382239323892B09F4B9
:103EE00040CFF5CC0B358CE7180729F10C358CE762
:103EF000180709F050CF80918D04002482FF0394AD
:103F0000802D0E94200B47CF0E94840C8FEF94E3FA
:103F10002CE0815090402040E1F700C000000E945A
:103F200035096FEF7FEF80E090E00E94262D0E9420
:103F3000A80C81E0E6CF80E0E4CF8581008111818B
:103F4000811569F0C8010E946013D82E682FC8013E
:103F50000E947A03B8018D2D0E94451322CFC8011B
:103F60000E94B003D82EF6CF853009F4E7C0D114F3
:103F700009F418C18091D60380FD14C1F7011582A0
:103F80008695869586950E946603C70146DB8091DB
:103F9000D6038695869586950E946F0303C1893066
:103FA00009F44CC18A5F8F70823008F7023F09F034
:103FB00057C18A2D8F71B11050C10E946603F0C0A5
:103FC0008A2D803110F01295107FB114B9F01115BF
:103FD00069F0802F805E883010F0011109C0809157
:103FE000D303812B8093D3030E945C0B802F2FC0BF
:103FF0008091D503812B8093D503F6CF802F0E942B
:104000002F0C111509F4B3CF802F805E883010F08B
:10401000011104C0812F0E94440406C010958091B4
:10402000D50381238093D5030E945C0BA0CF8091A0
:104030008D0482FD16C0B11469F0111539F080911C
:10404000D303812B8093D3030E945C0B80E00E94FA
:10405000B00B8DCF80E00E942F0C111509F487CF93
:10406000D9CFB11479F1C11004C0812F0E94620C24
:104070007ECF8C2D813091F48091D203082F812343
:10408000181709F474CF0E94C9078093D90390933D
:10409000DA03802F812B8093D20369CF853009F01A
:1040A00066CF812F0E94620C812F0E941E08809192
:1040B000D403912F9823191709F459CF812B80939A
:1040C000D40355CFC11011C0812F0E946B0C812FDA
:1040D0000E941E088091D403912F982309F447CFA2
:1040E000109518231093D40342CF8C2D813009F002
:1040F0003ECF8091D303812309F439CFE5CF8C2DB6
:10410000B11421F0863008F032CFAFCF853008F0FF
:104110002ECF812F0E946B0C2ACFC114D1F309330B
:1041200049F48FEF97EE23E0815090402040E1F773
:1041300000C00000802F0E942F0C19CF6B2D802F04
:104140000E94570814CF8A2D8370E1F5B11028C062
:10415000802F829586958770880F880F402F4F702B
:10416000082E01C0440F0A94EAF7202F207104FFA3
:1041700006C02FE001C0220F8A95EAF720958A2D0C
:10418000869586958370982F8230A1F08330B9F0A0
:1041900080918A04913059F0242B82230E9460037D
:1041A0000E948B0760E0C7010E948E139FCB842B77
:1041B000822BF4CF242B80918A048227EFCF822F89
:1041C000842BECCFB11459F1A0FEEACF802F829559
:1041D00086958770880F880F402F4F70082E01C07A
:1041E000440F0A94EAF7202F207104FF06C02FE045
:1041F00001C0220F8A95EAF720958A2D869586952B
:104200008370982F823091F08330A9F080918B04D5
:10421000913049F0242B82230E946303C1CF823066
:1042200008F4BECFD3CF842B822BF6CF242B8091E2
:104230008B048227F1CF822F842BEECF8A2D8F70B3
:10424000182FB11431F00E946603802F0E94620C77
:10425000A7CF802F0E946B0C812F0E946F03A0CFED
:1042600070F4003FC9F0013F91F0B11409F461C04E
:10427000C11409F45BC0802F0E94B00B91CF033FA3
:10428000F9F0043F91F780918D0482FD26C08A2DBC
:104290008F71B11411F391CE8C2DB11479F085305A
:1042A00008F07ECF8A2D8F71282F81E001C0880F02
:1042B0002A95EAF790918B048927AECF8630F0CF0C
:1042C00080E0B11409F4A8CF8A2D8F71982F81E076
:1042D00001C0880F9A95EAF79FCFB114C1F0809181
:1042E000D6038770843049F41092D6031092D70316
:1042F0001092D8038A2D8F71B0CF8C2D63E085305A
:1043000008F04ECF8A2D8F710E940B0849CF8C2D5B
:10431000853040F01092D6031092D7031092D80344
:1043200064E0F0CF81E00E942A043ACF8A2D8F7199
:1043300044CEC114F9F2093349F48FEF97EE23E02C
:10434000815090402040E1F700C00000802F0E9483
:104350002F0C26CF07379CE7190709F0A2CC81E084
:104360000E946F03C6CC0F931F93CF93DF938C01F2
:10437000862F63E473E00E941615892B91F4C09197
:104380004303D0914403209761F0F8018281833088
:1043900039F4CE0139D9CE0137D9CE0135D901C092
:1043A000E0F7DF91CF911F910F9108950F931F9325
:1043B000CF93DF938C01C62F63E473E08C2F0E94B0
:1043C0001615892B09F058C0EC2FF0E0D801129691
:1043D0008C911297E651FE4F8130A9F415968C917D
:1043E00082FD4FC080FF4DC082E0808380914503F5
:1043F000909146030097C1F4809143039091440348
:104400000097D1F111C08230A9F5D80115968C9191
:1044100082FD26C080FD0AC083E08083809147032F
:10442000909148030097F1F08FD826C084E08083F4
:104430008091490390914A030097B1F7809143031B
:1044400090914403009701F1DFD88091450390914A
:104450004603009749F78091430390914403E4CFCA
:1044600085E080838091430390914403009721F07D
:10447000CBD8F1CF86E08083DF91CF911F910F9150
:10448000089581E08083B8CF8091450390914603E1
:10449000B7CF0F931F93CF93DF938C01C62F63E4A5
:1044A00073E08C2F0E941615892B71F4D0E0C65151
:1044B000DE4F8881F801128218828330E9F048F4D7
:1044C000813059F0823081F0DF91CF911F910F91AF
:1044D00008958430B1F08530B9F78091430390910D
:1044E0004403009789F306C08091450390914603E9
:1044F000009799F359D8E8CF8091470390914803EA
:10450000F7CF8091490390914A03009799F7209142
:104510004303309144038091450390914603211554
:104520003105F9F2009731F7C901E4CFA0E1B0E01D
:10453000ECE9F2E20C94422CFE013196DF0180E1BD
:104540001D928A95E9F709E110E099E7A92E92E01A
:10455000B92E612C712C230153944A189E2E8F2E54
:104560006201730181E148165104610471041CF079
:1045700080E1C82ED12CA601B501892D982D0E946D
:10458000FD2CAC0CBD1C0D2C000C00084C185D085B
:10459000600870080150104019F76096E0E10C9433
:1045A0005E2C6FEF85E290E00E940C2D6FEF86E2AB
:1045B00090E00E940C2D6FEF87E290E00E940C2D9E
:1045C00060E088E290E00E940C2D0E941414AEDF9F
:1045D00060ED85E290E00E940C2D6DE086E290E0B7
:1045E0000E940C2D64EB87E290E00C940C2DCDB76B
:1045F000DEB7AA970FB6F894DEBF0FBECDBF85B762
:10460000806885BF85B7806885BF84B7877F84BF92
:104610000FB6F894A895809160008861809360003F
:10462000109260000FBE80E890E00FB6F89480937F
:104630006100909361000FBE81E08093320180E2BF
:1046400096E080935801909359010E9445060E947C
:1046500093140E94D8140E94700A0E94210A80912B
:10466000E20084608093E2007894809104028115D6
:1046700099F08091E9001091EC008F7010FB1127E8
:1046800017F9182B1092E9008091E80083FD0E9431
:10469000BD0C1F701093E90082E084BD93E095BDCE
:1046A0009AEF97BD80936E001092410210924202E1
:1046B00010924302109244020E94FD13811101C026
:1046C00070DF8091D80080618093D8008AE18A955C
:1046D000F1F700C08091D900182F117080FD04C03F
:1046E0000E94700A1092040210933F02109340023D
:1046F00010930001111175D7809100018091000184
:1047000091E08927880F880F8093360294E0981BE8
:1047100090932A020EE411E0F80181918F018F3FFE
:1047200011F00E94220681E002351807A9F772E510
:10473000E72E71E0F72E08E511E0F70181917F0186
:104740008F3F11F00E9422060E151F05B1F7EEE211
:10475000F2E088E011928A95E9F7E7E3F2E088E079
:1047600011928A95E9F780E090E00E94F82C833E50
:104770009E4F21F40E94FD13811128C063EE7EEF4D
:1047800080E090E00E94262D60E082E090E00E94B0
:104790000C2D81E080938A0461E083E090E00E9428
:1047A0000C2D60E074E184E090E00E94262DF9DE9B
:1047B00060E070E0AB018FE090E00E941E2D60E0B1
:1047C00070E0AB0183E190E00E941E2D82E090E05A
:1047D0000E94F02C8093F40184E090E00E94F82C79
:1047E00080938C0490938D040E94BF0F8FEF96E707
:1047F00021E0815090402040E1F700C000000E947D
:10480000BF0FE091400281E0E827EE0FEE0FF0E0ED
:10481000E25DFD4F808181FF08C06FEF7FEF80E098
:1048200090E00E94262D0E94350983E090E00E94CE
:10483000F02C0E94600380913F02811101C0D4D608
:1048400081E091E080936B0290936C020DEF11E098
:104850005E018FEFA81AB80A80910402853049F4EE
:1048600080910402853009F451C00E94840C0E949A
:104870008B070E94BF0F55EFE52E51E0F52E6EE23B
:10488000C62E62E0D62EF601D7019D9180810A17CF
:104890001B0709F471C031969817B9F340903F0295
:1048A000912CF60181906F01F70181917F018815AC
:1048B00031F18825582E66246394712C862D85212C
:1048C000B9F04114A9F079829A820E94C9078B83BA
:1048D0009C8381E08D8391E0862D882109F490E00E
:1048E0009E8349815A816B817C818D810E946618EB
:1048F0007394660C872D863009F7F70182929394A2
:10490000892D883071F60E941A093AC080910402FC
:10491000843021F11092F20188E190E020E40FB69A
:10492000F894A895809360000FBE2093600083B731
:10493000817F846083BF83B7816083BF78948895CB
:1049400083B78E7F83BF0FB6F894A89580916000DF
:10495000886180936000109260000FBE0E94BF0FBC
:10496000EEE2F2E08081811155C4319686E392E057
:104970008E179F07B9F774CF981390CF0E94821AB1
:1049800080913F02811509F453C0E090CD03F0906F
:10499000CE03E114F10429F1C090CF03D090D003ED
:1049A0000E94C9078C199D096C01C7010E942A1534
:1049B0008C159D05B0F48091CD03282F287F30E021
:1049C000232B09F046C190E082959295907F98271D
:1049D000807F9827835B9C4FFC01258122FF0E94EA
:1049E000970F80913301811519F1E0908804F090C0
:1049F0008904E114F104E1F00E94C9078E199F09AE
:104A000020911B0430911C042817390788F49091D9
:104A10001E0480911D04981709F41EC10E94CA1734
:104A200010921B0410921C041092880410928904A6
:104A300086E0EDEDF2E0D50101900D928A95E1F767
:104A40007090DE029090DF02F090E0028090E10230
:104A5000E090E2021092DF021092E0021092E10276
:104A60001092E2028F2D892909F441C0C090FF0104
:104A7000D09000020E94C9078C199D099C01909159
:104A8000DB02911509F4C1C32531310580F19F3F47
:104A900019F09F5F9093DB02911459F00E941B075D
:104AA00091E019140CF09FEF899F802D11248093C1
:104AB000DF02F11459F00E941B0791E01F140CF063
:104AC0009FEF899F802D11248093E0028091DF0267
:104AD000811569F0D090E002D11449F00E940D07D1
:104AE0008093DF028D2D0E940D078093E002882DB8
:104AF0008E2909F441C0C090FD01D090FE010E94B2
:104B0000C9078C199D099C019091DA02911509F44D
:104B100077C32135310580F19F3F19F09F5F909356
:104B2000DA02811459F00E943B0791E018140CF04E
:104B30009FEF899F802D11248093E102E11459F0A9
:104B40000E943B0791E01E140CF09FEF899F802D7F
:104B500011248093E2028091E102811569F0D090E6
:104B6000E202D11449F00E940D078093E1028D2DDD
:104B70000E940D078093E2028091DE02871119C026
:104B80008091DF02811511F0891113C02091E0029C
:104B9000211511F02F110DC09091E202911511F025
:104BA0009E1107C03091E102311103C0822B892B85
:104BB00011F00E942F0886E0F501ADEDB2E0019002
:104BC0000D928A95E1F70E948B0790910102891757
:104BD00021F0809301020E940E098091040284302A
:104BE00009F03ACE83E08093E9008091E80082FFEB
:104BF00033CE8091E80090E085FF09C00E94F00963
:104C000030E2C32ED12C75018115D1F191E0809154
:104C1000E8008B778093E800911509F41DCEE090B1
:104C20004702F0904802E981E114F104B9F1EE3F46
:104C300009F05EC08A81833020F08550833008F00F
:104C400057C0EA81EE3008F053C0F0E0E05AF24D70
:104C500061C680E090E0C0CE0E9484171092880464
:104C6000109289040E949206E3CE8091F100F70130
:104C7000808381E0C81AD10849F28FEFE81AF80A58
:104C80008091E80085FDF1CF8091E8008B778093DB
:104C9000E8000E94F009811599F3B8CFE43148F497
:104CA000E11549F0E150E33130F4F0E0E259F24D22
:104CB00031C6EE3F31F28FEF89831AC01A8289E044
:104CC0008B8316C08A81823061F0833011F181308C
:104CD00091F70E940E0933D66B837C838D839E836C
:104CE00007C088E290E07CD61B821C821D828E83E6
:104CF000E0916B02F0916C02309709F4ADCD028423
:104D0000F385E02D309709F4A7CD60E2C501099540
:104D1000A3CD80910D0190910E01892B49F388E07C
:104D2000EEE2F2E0DE01139601900D928A95E1F732
:104D3000DFCF8A81823009F0BECF6B817C818D818B
:104D40009E81FDD588E290E067D6D2CF4C816B8101
:104D50008A810E941B139C013827232732272D8329
:104D60003E83C6CF2D813E813227232732274C81B7
:104D70006B818A810E94360BBBCF0E941414B8CF7E
:104D800080E18A83B5CF81E08A8387E899CF8C81DF
:104D90008D3108F0ADCF4A805B80542445245424E3
:104DA000612C712C65017501E80EF11CCE14DF0435
:104DB00009F49ECF87E8481681E058066104710423
:104DC00078F4C20187589D4F0BD6F60184838FEF8C
:104DD000C81AD80A8FEF481A580A680A780AE6CF24
:104DE00080E0F3CF80910D0190910E01892B09F4A1
:104DF0007FCF3C80832D8D3108F07ACFCA80DB8055
:104E0000DC24CD24DC24E12CF12C450127013201E6
:104E1000431451046104710408F06ACF87E8C8168E
:104E200081E0D806E104F10430F4F4016481C601A4
:104E300087589D4FF1D58FEF481A580A680A780AAB
:104E40008FEFC81AD80AE80AF80A8FEF881A980A6A
:104E5000DFCF6CDB4DCF84E094CF3C80832D8D3150
:104E600008F046CFCA80DB80DC24CD24DC24E12C92
:104E7000F12C270132014E0185E0880E911C43146C
:104E800051046104710408F033CF80E8C81681E052
:104E9000D806E104F10488F4C6018996A1D5F4018D
:104EA00081934F018FEF481A580A680A780A8FEFEA
:104EB000C81AD80AE80AF80AE2CF80E0F0CF3C80AE
:104EC000832D8D3108F014CF8A819B819827892703
:104ED00098276C01E12CF12C8038914008F008CF24
:104EE000D70180E891E08C199D09AE09BF09450101
:104EF0002701320183159105A105B10508F4F8CE0B
:104F0000431451046104710408F0F2CE80E8C8161D
:104F100081E0D806E104F10428F4F4016481C601BB
:104F200089967AD58FEF481A580A680A780A8FEF5F
:104F3000C81AD80AE80AF80A8FEF881A980AE0CF48
:104F400088E0E4E3F1E0DE01919601900D928A950C
:104F5000E1F7FE0132968FE111928A95E9F786E03A
:104F6000898388E0FE01B196DE011596DDCE84E8E6
:104F7000898381E08A831B821C82BACE8B819C81CB
:104F8000A92FAA0FAA0BBA2F25E0880F991FAA1FD5
:104F9000BB1F2A95D1F7803E2FEF9207A207B207D9
:104FA00008F0A6CE843821E09207A105B10508F0EB
:104FB0009FCEAC01BD01405E5F4F6F4F7F4F4538C4
:104FC00021E052076105710510F044E851E0481BEB
:104FD000590BBC016B587B4FC501CCD489CE4EE137
:104FE00050E06FEF70E0CE010396E3D480910D01A5
:104FF0008983EA827DCE81E0809347021092480245
:1050000082E380930202109203020E94C90770CECD
:1050100080910D018983EA828091020251CE40E2A3
:1050200050E06FEF70E0C501C4D462CEEB81E9308F
:1050300008F05ECEF0E0EF57F24D6CC4FE013396FF
:105040008DE111928A95E9F788E089838A838C83C0
:1050500082E088A34DCE8C819AE0D92E7E0191E228
:10506000E90EF11CF7019D2D11929A95E9F7B70110
:105070000E9416158983F701DE01129601900D92A8
:10508000DA94E1F735CEFC808AE0FE013596DE0148
:10509000919601900D928A95E1F789A19AA10E94BB
:1050A000380689A39AA38BA19CA10E9438068BA3E2
:1050B0009CA38DA19EA10E9438068DA39EA38FA1C3
:1050C00098A50E9438068FA398A78F2D883080F46A
:1050D0008AE0F89EB001112467557E4F4AE050E007
:1050E000CE018196B7D480E089830E94450600CE28
:1050F0008FEFFACF6C81CE018196FC012AE01192EC
:105100002A95E9F7683088F42AE0269FB001112437
:1051100067507E4F4AE050E053D480E089838AE0B4
:10512000FE01B196DE011296FFCD8FEFF7CFFC8026
:105130008AE0FE013596DE01919601900D928A95E6
:10514000E1F789A59AA50E94380689A79AA78F2D0D
:10515000883080F48AE0F89EB001112467507E4FB9
:105160004AE050E0CE01819675D480E089830E94A8
:105170009314BECD8FEFFACF6C81CE018196FC01E6
:1051800026E011922A95E9F7683068F426E0269F18
:10519000B0011124675B7D4F46E050E011D480E000
:1051A000898386E0BDCF8FEFFBCFFC8086E0FE01D8
:1051B0003596DE01919601900D928A95E1F789A1CD
:1051C0009AA10E94380689A39AA38BA19CA10E9450
:1051D00038068BA39CA38F2D883080F486E0F89E40
:1051E000B0011124675B7D4F46E050E0CE0181960F
:1051F00031D480E089830E94D8147ACD8FEFFACF22
:105200002B30310508F08ACCB7CC2B30310508F0B3
:1052100040CC6DCC8091F301811509F421CB80E164
:1052200089BD82E189BD09B400FEFDCF8091D8001F
:105230008F7D8093D8008091E00082608093E000B1
:105240008091E00081FDFCCF0E94840C09CB1F926D
:105250001FB61F9211248F939F93AF93BF9380919A
:10526000F201811113C08091950190919601A09156
:105270009701B09198014196A11DB11D80939501B0
:1052800090939601A0939701B0939801BF91AF912D
:105290009F918F911F901FBE1F90189578941F9219
:1052A0001FB61F9211248F939F93AF93BF9380914A
:1052B000950190919601A0919701B0919801019666
:1052C000A11DB11D8093950190939601A093970124
:1052D000B0939801BF91AF919F918F911F901FBE86
:1052E0001F9018951F920F920FB60F9211242F93B3
:1052F0003F934F935F936F937F938F939F93AF935E
:10530000BF93EF93FF938091E10082FF09C08091EA
:10531000E20082FF05C08091E1008B7F8093E10075
:105320008091DA0080FF24C08091D80080FF20C0E7
:105330008091DA008E7F8093DA008091D90080FF1F
:10534000A9C080E189BD82E189BD09B400FEFDCF1D
:1053500081E08093040280918401811109C00E9440
:10536000700A0E94210A8091E20084608093E2002A
:105370008091E10080FF1AC08091E20080FF16C09A
:105380008091E2008E7F8093E2008091E200806154
:105390008093E2008091D80080628093D80019BC8D
:1053A00085E08093040283E0809332018091E100E4
:1053B00084FF2FC08091E20084FF2BC080E189BD73
:1053C00082E189BD09B400FEFDCF8091D8008F7DB8
:1053D0008093D8008091E1008F7E8093E1008091DE
:1053E000E2008F7E8093E2008091E20081608093F2
:1053F000E20080918301811509F452C084E080931A
:10540000040280910402843009F052C082E080934B
:1054100032018091E10083FF2CC08091E20083FF84
:1054200028C08091E100877F8093E10082E0809333
:105430000402109283018091E1008E7F8093E1004D
:105440008091E2008E7F8093E2008091E200806193
:105450008093E20042E060E080E00E94A109809138
:10546000F00088608093F00081E0809332018093A7
:105470003101FF91EF91BF91AF919F918F917F91FA
:105480006F915F914F913F912F910F900FBE0F90B1
:105490001F90189519BC109204021092840168CFD5
:1054A0008091E30087FF02C083E0A9CF81E0A7CF0E
:1054B00081E0ADCF1F920F920FB60F9211241F9370
:1054C0002F933F934F935F936F937F938F939F930C
:1054D000AF93BF93CF93DF93EF93FF93E9EEF0E0A9
:1054E00080811091EC008F7010FB112717F9182B99
:1054F0001082C0EFD0E08881877F888378940E94F3
:10550000BD0CE9EEF0E010828881886088831F700E
:105510001083FF91EF91DF91CF91BF91AF919F9158
:105520008F917F916F915F914F913F912F911F913B
:105530000F900FBE0F901F9018958EE14A9B02C0EE
:105540008150E1F74A9BFECF08955A9880E28A95F0
:10555000F1F75A9A0895FC018BE08A95F1F728E05B
:1055600080E090E031E040E14A95F1F7880F4A9BF6
:1055700002C08160932742E04A95F1F7000040E1C4
:105580004A95F1F7215079F720E12A95F1F729B1F1
:1055900032E03A95F1F7000030E13A95F1F731E069
:1055A00022FD93272081920F90830895A1E0B0E01F
:1055B000EBEDFAE271C119828C017C01E60EF11C5F
:1055C000BCDFCE010196C7DFF80181938F01EE1594
:1055D000FF05B1F781E09981911180E02196E6E025
:1055E00077C1529A5A9A089552985A9AEA9AE9E6D5
:1055F000F0E080818F7C808308956150770B91E08B
:1056000001C0990F6A95EAF7692F90E021E06111D6
:1056100008C0911591F05A9A80E28A95F1F75A984C
:105620000895362F382339F05A9A922730E23A9566
:10563000F1F76695ECCF5A98F9CF5A98EDCFFF92D3
:105640000F931F93CF93DF93EC018C01060F111D75
:105650008991F82E7ADF68E08F2DCFDFC017D10750
:10566000B9F7CDB7DEB7E5E034C11F920F920FB6A0
:105670000F9211240F931F932F933F934F935F9398
:105680006F937F938F939F93AF93BF93EF93FF930A
:10569000CF93DF930F92CDB7DEB719824EDFCE01E5
:1056A000019659DF082F069506950695282F229515
:1056B0002570902F9570920F292F237096959695AF
:1056C000920F982797708981892B09F055C0053072
:1056D00008F052C080E18A95F1F75A9A529A82E016
:1056E0008A95F1F700C05A9888E0089F800111243C
:1056F000D801A15FBE4F1696ED91FD911897309796
:1057000091F060914C0170914D0114962D913D9155
:10571000260F371F15978D919D91680F791F4C911A
:1057200013978C910995F801E15FFE4F6381611534
:1057300049F020914C0130914D0184819581820F77
:10574000931F7DDF02DF80E18A95F1F75A98529826
:105750005A9A80E18A95F1F7F801E15FFE4F608186
:10576000611549F020914C0130914D018181928168
:10577000820F931F1BDFE1DE0F90DF91CF91FF912E
:10578000EF91BF91AF919F918F917F916F915F91B9
:105790004F913F912F911F910F910F900FBE0F903E
:1057A0001F9018950F931F93CF93DF93EC010597EC
:1057B0000CF05EC0F894529A5A9885E08A95F1F7F9
:1057C00000009C2F969595708C2F8570980F892FCF
:1057D000837096959695292F93E0CC0FDD1F9A95AF
:1057E000E1F7280F822F8C2B082FAFDE00C068E076
:1057F000802F03DF80E18A95F1F752985A9A4A9BED
:1058000030C087E090E04A992EC0FE01E15FFE4F74
:105810006381611559F020914C0130914D018481D3
:105820009581820F931FC2DE8115F9F086DE80E23A
:105830008A95F1F75A98529A80E18A95F1F7C15FFB
:10584000DE4F6881611549F020914C0130914D0186
:1058500089819A81820F931FF2DE77DE789481E04E
:1058600008C000C0CCCF019749F4529A5A9A789454
:1058700080E0DF91CF911F910F91089500C0C3CFB9
:105880002F923F924F925F926F927F928F929F9250
:10589000AF92BF92CF92DF92EF92FF920F931F933E
:1058A000CF93DF93CDB7DEB7CA1BDB0B0FB6F894EF
:1058B000DEBF0FBECDBF09942A88398848885F842F
:1058C0006E847D848C849B84AA84B984C884DF80A0
:1058D000EE80FD800C811B81AA81B981CE0FD11D84
:1058E0000FB6F894DEBF0FBECDBFED01089597FB54
:1058F000072E16F4009406D077FD08D027D007FCB9
:1059000005D03EF4909581959F4F089570956195CF
:105910007F4F0895EE0FFF1F0590F491E02D09943D
:10592000082E8A7A8695081A802D83730826069495
:105930000694800D082E0294800D8F7008956927BB
:10594000962769277827872778270895AA1BBB1BE6
:1059500051E107C0AA1FBB1FA617B70710F0A61B6F
:10596000B70B881F991F5A95A9F780959095BC0190
:10597000CD010895FB01DC0102C005900D9241505C
:105980005040D8F70895FB01DC0104C08D910190CF
:10599000801921F441505040C8F7881B990B089595
:1059A000FB01DC0102C001900D9241505040D8F73C
:1059B0000895DC0101C06D9341505040E0F7089517
:1059C000DC01CB01FC01F999FECF06C0F2BDE1BDBF
:1059D000F89A319600B40D9241505040B8F70895AE
:1059E000F999FECF92BD81BDF89A992780B50895A7
:1059F000A8E1B0E042E050E0E5CFDC01A40FB51F24
:105A00004150504040F0CB01840F951F2E9105D09E
:105A100041505040D8F70895262FF999FECF92BDF6
:105A200081BDF89A019700B4021639F01FBA20BD63
:105A30000FB6F894FA9AF99A0FBE08950396272F95
:105A4000ECDFEADF252FE9DF242FE7CF0196272FB0
:105A5000E4DFE2CFDC01CB0102C02D9105D0415043
:105A60005040D8F70895262FF999FECF1FBA92BD5E
:105A700081BD20BD0FB6F894FA9AF99A0FBE01962F
:105A80000895F894FFCF630868086A086F087F08D4
:105A90007F087F087F087F087F087F087F087108DC
:105AA000750878087D088C08920896089B0DC10D32
:105AB000C70DC10DC70D150E370EC70D3B0F480F93
:105AC000A027B727BE2778267826EF27FB270828A8
:105AD00078260F2878267826782616285E266226CD
