:100000000C9402020C941F020C941F020C94BA1D53
:100010000C941F020C941F020C941F020C941F02DC
:100020000C941F020C941F020C94F31B0C94CB1C19
:100030000C94A81B0C941F020C941F020C941F021A
:100040000C941F020C941F020C941F020C941F02AC
:100050000C941F020C94CF1B0C941F020C941F02D3
:100060000C941F020C941F020C941F020C941F028C
:100070000C941F020C941F020C941F020C941F027C
:100080000C941F020C941F020C941F020C941F026C
:100090000C941F020C941F020C941F020C941F025C
:1000A0000C941F020C941F020C941F0207000900FD
:1000B0000D000E00000018000C00120000001B00D4
:1000C0000600190000001B000600000005010906DB
:1000D000A1018506050719E029E715002501950806
:1000E000750181020507190029EF1500250195F01A
:1000F000750181020508190129059505750191020F
:10010000950175039101C005010906A101050719B3
:10011000E029E71500250195087501810295017513
:100120000881010507190029FF150026FF00950623
:100130007508810005081901290515002501950597
:1001400075019102950175039101C009023B0002FE
:100150000100A0FA090400000103010100092111B6
:100160000100012244000705810308000109040180
:10017000000103000000092111010001223B0007DA
:10018000058203200001120100020000000853460E
:1001900001000100010200011E0343006F00720014
:1001A0006E00650020004B006500790062006F0062
:1001B00061007200640000000C03430052004B0019
:1001C0004200440000000403090400000000000095
:1001D000000000000000000000000000000000001F
:1001E00000000000000000000000000000007E0F82
:1001F00000D4FFFFFFC700000078000000000000EF
:1002000000002A2B28000000000000000000000071
:10021000000000000029000000002C1E34202122D4
:1002200024342627252E362D3738271E1F2021223D
:10023000232425263333362E37381F0405060708B6
:10024000090A0B0C0D0E0F101112131415161718A6
:10025000191A1B1C1D2F3130232D350405060708E4
:10026000090A0B0C0D0E0F10111213141516171886
:10027000191A1B1C1D2F3130354C000014001A00B8
:100280000800150017000000040016000700090010
:100290000A0000001D221B21062819240500000069
:1002A000000000000000225228000000130012008D
:1002B0000C0018001C00000000570F000E000D007D
:1002C0000B000000382237213628102411000000CE
:1002D00000000000000021522C0000001E021F023E
:1002E00020022102220200002F002F0234023002DD
:1002F000300000003502350034000100010000002C
:10030000000000000000010001000000270226029A
:1003100025022402230200002A002D022D002E00B7
:100320002E02000031023100010001000100000036
:100330000000000000000100010000001E001F007E
:1003400020002100220000002B000100010001001C
:1003500080000000460001007C007D00810000005C
:10036000000000000000010001000000270026003E
:10037000250024002300000001004F00520051001E
:10038000500000004C0001000100010001000000CD
:10039000000000000000010001000000290014001E
:1003A0001A000800150000002B00040016000700CA
:1003B00009000000E1001D001B00060019000000FC
:1003C00000000000E00028002C00000001000100F7
:1003D0000100010001000000010001000100010016
:1003E0000100000001000100010001000100000007
:1003F000000000000000010001003A77710A003A95
:10040000770A000011241FBECFEFDAE0DEBFCDBFB8
:1004100011E0A0E0B1E0E0E2FFE302C005900D9240
:10042000AA36B107D9F723E0AAE6B1E001C01D92D0
:10043000A031B207E1F70E9440190C94841F0C947C
:1004400000009C01FB0191509F31B0F4832F81701B
:1004500034FF0AC08295807F31FD806232FD806466
:1004600033FD80680995089531FD826032FD846016
:1004700033FFF8CF8860F6CF80E0F4CF80930E038F
:10048000089580930F03089521E001C0220F8A95FB
:10049000EAF780910F03822B0E944102089521E028
:1004A00030E0A90101C0440F8A95EAF7842F8095B6
:1004B00090910F0389230E9441020895292F9830BB
:1004C00090F5863080F590E036E0239F800D911DF9
:1004D000112451E081FD54E080FD550F82FD5295BD
:1004E00023E0969587952A95E1F7FC01EE0FFF1F13
:1004F000E80FF91FE658FD4F20E030E070E0419131
:10050000DF01CB01022E02C0969587950A94E2F78F
:100510008695880B8427852384278E932F5F3F4FF2
:100520002330310561F70895292F983070F5863012
:1005300060F590E036E0239F800D911D1124682F17
:10054000677023E0969587952A95E1F7FC01EE0FF9
:10055000FF1FE80FF91FE658FD4F40E050E080E034
:10056000219130E0062E02C0369527950A94E2F7D5
:100570002170042E01C0220F0A94EAF7822B4F5FEC
:100580005F4F4330510561F7089580E00895E09191
:10059000280290912702E91302C080E008959F018C
:1005A00059E0E59FF0011124E75DFD4F518156139D
:1005B00006C05081581303C05581541304C0F9017B
:1005C0003196E770E8CF81E008958091280220916C
:1005D0002702281301C0089501968770FACF9091E1
:1005E00093028095892380939302282F277069F4C2
:1005F000891759F09091950292FF07C086958695CC
:1006000086950E944F021092930208958091900265
:1006100090919602892B909191029115C9F0892BA6
:1006200090912F01911521F09091940297FD11C0A6
:1006300096E02EE631E040E09150F90150812F5FC5
:100640003F4F51114F5F9111F7CF4111109291021D
:1006500008959EE126E731E0EECF982F90958091A6
:1006600090028923809390020895972F7830B8F4F0
:100670006630A8F48430B0F470E026E0929F600DFC
:10068000711D1124FB0190E3899FE00DF11D1124E0
:10069000EE0FFF1FE658FD4F85919591089580E07C
:1006A00090E0089581E0FCCF803E9105D1F1C8F43F
:1006B0008133910509F481C048F48932910509F428
:1006C00071C08A32910509F47FC00895893391057C
:1006D000E1F082389105C9F08533910509F45DC0D8
:1006E0000895843E9105D1F148F4823E910531F19F
:1006F000833E910541F181EE90E00895863E91059B
:10070000C1F1873E9105F1F1089520919402237083
:1007100009F064C02091950223FF14C089E290E0A3
:1007200008952091940220FD45C03091950230FF3C
:1007300009C024FD24C083EE90E008952091940226
:1007400022FDF7CF08952091940222FD44C03091FC
:10075000950230FD43C024FFF5CF11C020919502D2
:1007600021FFF0CF8091940284FD09C087EE90E0D4
:1007700008952091940223FFE5CF24FFF7CF80E076
:1007800090E008952091940223FD2BC030919502B2
:1007900031FFE1CF84EE90E008952091940225FF8F
:1007A000D1CFBCCF2091940225FD1EC0209195028F
:1007B00023FFC8CF89E390E008952091940226FF9B
:1007C000C1CF8AE290E008952091940226FFBACF2B
:1007D00081E390E0089582EE90E0089580EE90E04D
:1007E000089586EE90E0089585E390E00895909155
:1007F000940292FF10C041E0282F2471243009F0A8
:1008000040E031E0282F2871283009F030E043170C
:1008100011F02CE0822793FF10C041E0282F2471B3
:10082000243109F040E031E0282F2871283109F007
:1008300030E0431711F02CE082273091950230FF11
:1008400010C051E0282F2171213009F050E041E023
:10085000282F2871283009F040E0541711F029E0C2
:10086000822731FF10C041E0282F2171213109F08A
:1008700040E031E0282F2871283109F030E043179B
:1008800011F029E0822794FD877E08950F931F932E
:10089000CF93DF930E945403EC01923508F03FC0E0
:1008A000903508F0AFC0883E9105E0F4803E910598
:1008B00058F4853A910570F4049730F481E021975B
:1008C00009F080E0C82FD0E0CE01DF91CF911F91D9
:1008D0000F9108958D5C9109D0654397A8F3C0E00E
:1008E000D0E0F2CFD03490F4D03208F0A0C0CE01E6
:1008F00091509F31A0F78D2F0E94F703082F8C2F66
:1009000090E00E945403EC01D02BDECF8C2F90E0BE
:100910000E945403DF70C82FD92BD06AD5CF8038FE
:1009200042E59407C8F5803652E5950708F04FC0B8
:10093000C03482E5D807D0F48C2FC03292E5D907B5
:1009400008F040C08695869520E2829FC001112460
:10095000C37021E030E0A90102C0440F551FCA95C1
:10096000E2F7EA01C82BD92BDD68AECF8C2F869534
:100970008695877050E2859FC0011124C37021E0E5
:1009800030E0A90102C0440F551FCA95E2F7EA0101
:10099000C82BD92BDC6898CF803C52E5950740F4F2
:1009A0008F71C03AD24540F5D82FC4EFD06A8CCFB2
:1009B000805C9245809708F092CFDC2FDF71C0EF0A
:1009C000D06A82CF8F71D82FC1EFD06A7DCF869544
:1009D0008695877020E2829FC0011124C37021E0B8
:1009E00030E0A90102C0440F551FCA95E2F7EA01A1
:1009F000C82BD92BDA6868CF0E94F703C0E0D82F44
:100A0000D06262CF8F710E94F70393E0CC0FDD1F9D
:100A10009A95E1F7DF70282F30E084FF04C050E1A1
:100A2000859F90011124C22FD32BD0694DCF8D2FDC
:100A30008F710E94F703082F8C2F90E00E945403BF
:100A4000EC01D02BDDCFA4E0B0E0E9E2F5E00C94BE
:100A5000EC1E89839A8300910F0380910E03082B6B
:100A600087E08B831C8210E0C8010B8002C0959543
:100A700087950A94E2F780FD0DC08B819C810197D8
:100A80008B839C83019681F7F12C8F2D2496E5E0D2
:100A90000C94081FFB8069817A818F2D0E94350399
:100AA0000E944604019749F3F0CF0F931F93CF9311
:100AB000FC012781308521153105A1F48581008154
:100AC00011818115A1F0611591F0C8010E942305E3
:100AD000C82F682FC8010E945E02B8018C2F0E94A7
:100AE00035039C01C901CF911F910F910895C80151
:100AF0000E949402C82FF1CFA2E0B0E0E2E8F5E056
:100B00000C94EF1E89839A830E94230569817A8160
:100B10000E9435030E9446042296E2E00C940B1FCB
:100B2000FC018481811511F1878190850097A1F0E6
:100B30000E944604282F92959F709630C1F088F449
:100B4000925F9F70923030F4203FD9F060F481E0E2
:100B5000283E60F080E00895808191810E947C05AC
:100B6000E9CF9A5FEECF81E0243FA1F7089591E0AD
:100B7000813F09F090E081E0283E08F080E0892B79
:100B8000089581E0089580E00895F894E82FE295B3
:100B9000EF70F0E041A18F7021E030E0B90101C0B9
:100BA000660F8A95EAF7862F962F9095942391A346
:100BB00092A1892B82A37894089510929F0210929B
:100BC000A002E0E4F1E08581811102C01482168266
:100BD000379681E0EC35F807B1F70895AC018091C4
:100BE000A2026091A102982F691301C00895292FD4
:100BF00030E0F901EE0FFF1FE956FD4F0190F08143
:100C0000E02DE417F507B9F4E0E0F0E044305105D9
:100C100040F467E0649FF001659FF00D1124E05CF3
:100C2000FE4F41E044839813E1CF2F5F3F4F237085
:100C30002093A20208952395922F9370D5CFFC01A3
:100C4000AC014C5F5F4F8FEF61E39191892728E002
:100C500030E0982F990F87FF09C0892F86272150F0
:100C60003040B9F7E417F50781F70895892FF7CFDA
:100C7000FA01309709F0099508958091F5018115E1
:100C800061F0E0911D02F0911E02309729F0019071
:100C9000F081E02D0995089580E0089590912F014D
:100CA000911521F09091940297FD0CC0EEE6F1E0D1
:100CB0009191891302C0DF011E9291E0E437F90798
:100CC000B9F70895E82FE695E695E695803FC8F7D1
:100CD000F0E0EC58FE4F9DEF81FD97EF80FF95957A
:100CE00082FD929582818923828308952FB7F8949B
:100CF0008091BF019091C001A091C101B091C2014A
:100D00002FBF08952FB7F8946091BF017091C00173
:100D10008091C1019091C2012FBF08958091F5018A
:100D2000811519F00E94820608950E948206209182
:100D3000F7013091F8014091F9015091FA01620FE9
:100D4000731F841F951F08959C014FB7F8948091DD
:100D5000BF019091C001A091C101B091C2014FBFEC
:100D6000821B930B089587E797E780930008909381
:100D7000010888E19AE00FB6F894A8958093600086
:100D80000FBE90936000FFCF8091A8010895089551
:100D90000895FC0180919E0190919F01861797070D
:100DA00048F06115710529F48091E8008E778093F1
:100DB000E800CB0140E0009741F4411106C080916A
:100DC000E80082FF30C080E008952091AC01211539
:100DD000B1F12530B1F12091E80023FD2EC0209122
:100DE000E80022FDECCF2091E80020FFE4CF409105
:100DF000F3002091F200342F009719F028303105CC
:100E000058F041E02830310509F040E02091E80039
:100E10002E772093E800CFCF41914093F1000197C6
:100E20002F5F3F4FE9CF8091AC01811541F08530B4
:100E300041F08091E80083FFC2CF81E0089582E015
:100E4000089583E00895982F9093E900891771F031
:100E50007091EC002091ED005091F00021FD09C04F
:100E60009F5F973089F78093E9000895762F242FAC
:100E700050E03091EB003E7F3093EB003091ED007D
:100E80003D7F3093ED003091EB0031603093EB000B
:100E90007093EC002093ED005093F0002091EE0051
:100EA00027FDDECF08958091980187FF13C08091C0
:100EB000E80082FF06C08091E8008B778093E8000D
:100EC00008958091AC018111F2CF08958091AC0119
:100ED0008115D9F38091E80080FFF8CF8091E80078
:100EE0008E77ECCF2091E4003091E50095E6A901E2
:100EF0002091EC00822F817020FF06C08091E800D5
:100F000080FF06C080E008952091E80022FD1AC00D
:100F10008091AC01811589F0853089F08091EB00DA
:100F200085FD0FC02091E4003091E5004217530782
:100F3000F9F29150E1F684E0089582E0089583E0AB
:100F4000089581E00895A0E0B0E0E9EAF7E00C94AC
:100F5000E91EC8EDD0E088818F7E8883E7EDF0E060
:100F600080818160808384E082BF81E080939701EB
:100F700088818E7F888302EE10E0E2EE108210926C
:100F8000DA006801CA94E1EE108288818F77888345
:100F900088818068888388818F7D888319BC1092BE
:100FA000AC01109296011092AB011092950176015E
:100FB000EA94E0EE80818B7F8083888181608883E2
:100FC00042E060E080E00E942307F60180818E7F8E
:100FD0008083E2EE8081816080838081886080836D
:100FE000E0EE80818E7F8083888180618883CDB7A9
:100FF000DEB7E8E00C94051FE8EDF0E080818E7F1D
:1010000080831092E2001092DA001092E100A0EECC
:10101000B0E08C9181608C9380818F77808319BC44
:10102000A7ED8C918E7F8C9380818F7E8083109230
:1010300097010895A8E0B0E0E0E2F8E00C94ED1E1E
:1010400089839A836B837C834D835E838091DC01EB
:101050000AE010E08A3010F001E010E021E02F8378
:1010600018866B817C8189819A81ED81FE81099549
:1010700081111BC02F8138852F5F3F4F2F83388709
:101080000217130794F0C901889F9001899F300DC2
:10109000300D112480E090E045E34A95F1F700001F
:1010A000019682179307C1F7DCCF2896E4E00C94F1
:1010B000091F0F931F93CF93DF93EB018A01909148
:1010C000AC01943061F58093E9008FEF9091E800D6
:1010D00095FD06C095ED9A95F1F700008150B1F7A6
:1010E0008091E80085FF1BC00E947207811112C029
:1010F0008091E80085FD06C08091E8008E7780939E
:10110000E800F2CF88818093F1000150104011F087
:101110002196EECF8091E8008E778093E800DF91F2
:10112000CF911F910F910895CF93DF93EC0148E089
:1011300050E0BC0181E00E94590888E0FE01A0EA6D
:10114000B1E001900D928A95E1F7DF91CF9108957A
:1011500040E250E0BC0182E00E945908089590915D
:10116000950292FB222720F9281779F080FB92F94B
:1011700090939502609194027091950284E090E0C2
:101180000E94581F82E00E94EF02089580912F0173
:10119000811559F18091940287FF27C00E940603B0
:1011A0008093750140E250E06DEF71E084E791E0DB
:1011B0000E946E1F892BC1F080E2E4E7F1E0ADEF01
:1011C000B1E001900D928A95E1F7E0911D02F09156
:1011D0001E02309749F086E0809374010480F58107
:1011E000E02D84E791E0099508950E94060380931D
:1011F0006C0148E050E06FE172E08CE691E00E9403
:101200006E1F892B89F388E0ECE6F1E0AFE1B2E0F4
:1012100001900D928A95E1F7E0911D02F0911E0276
:10122000309711F30280F381E02D8CE691E0DBCF63
:10123000811539F090919002982B909390020E9422
:10124000C6080895811539F090919602982B9093D5
:1012500096020E94C6080895811521F00E942D0370
:101260000E94C6080895811541F0809590919602DC
:101270008923809396020E94C6080895CF93C82FB1
:10128000811509F463C08CEF8C0F813A08F060C0BF
:1012900080912F01811127C0EEE6F1E08081C8170F
:1012A000C9F1319681E0E437F807C1F780912F0149
:1012B000811136C0AEE6B1E0EFEF80E09C91C91736
:1012C00009F442C01196EF3F19F4911101C0E82FC3
:1012D0008F5F863099F7EF3FB9F1FE2FFF0FFF0BBD
:1012E000E459FE4F30C08091940287FFD5CFEC2F98
:1012F000E695E695E695F0E0EC58FE4F828190E0A9
:101300004C2F477021E001C0220F4A95EAF7822353
:10131000892B31F08C2F0E944E060E94C608C6CF42
:101320008091940287FFC6CFEC2FE695E695E6956F
:10133000F0E0EC58FE4FC77081E001C0880FCA95FD
:10134000EAF7C281C82BC2830E94C608CF910895D4
:1013500080E28C0F8830D0F7C77081E001C0880F21
:10136000CA95EAF7C0919002C82BC0939002ECCFC7
:10137000CF93DF93EC01805E9109089720F062E241
:1013800079E0209711F468E179E0CE010E94210212
:101390008C2F0E943E09DF91CF910895CF93DF9368
:1013A000EC018A81823041F4FB01828193810E94A9
:1013B000B8098D8182608D83DF91CF910895FB0103
:1013C000808191810E94B8090895811541F09CEFB8
:1013D000980F913A28F40E944E060E94C60808957C
:1013E00090E2980F9830D8F7982F81E091FD84E033
:1013F00090FD880F92FD82950E942D03EECFCF9332
:10140000DF93EC010E94E509CE01805E9109089707
:1014100020F063E379E0209711F46CE279E0CE01EB
:101420000E942102DF91CF910895FC0182818130D9
:1014300031F4FB01808191810E94FF09089582307F
:10144000E9F7FB0182819381F7CFA3E0B0E0EBE203
:10145000FAE00C94EF1E89836A837B830E943E0925
:101460008A819B81892B39F489810E94E509239621
:10147000E2E00C940B1F8FE99FE00197F1F700C0A9
:1014800000008A819B8101978A839B83E9CFA3E037
:10149000B0E0EDE4FAE00C94E91E8C01F8019491BF
:1014A000913008F4B9C009F063C098012F5F3F4F35
:1014B0002A833B83F9018491813099F42F5F3F4F58
:1014C0002A833B83F901849160E570E0893311F050
:1014D00060E070E00E94250A0A811B810F5F1F4FA8
:1014E000DDCF823051F498012E5F3F4F2A833B833A
:1014F000F90184910E943E09EFCF833051F49801A5
:101500002E5F3F4F2A833B83F90184910E94E509B6
:10151000E3CF843009F798012E5F3F4F2A833B8346
:10152000F901849120E030E04AE08053990B8A3041
:10153000910560F02115310579F28FE99FE001975F
:10154000F1F700C0000021503109F4CF6A817B819E
:101550006F5F7F4F6A837B83429FB001439F700D13
:1015600011249C01260F371FEA81FB818491DDCF76
:10157000E92FF0E0E650FE4F24912983292F26958C
:101580002695269530E0F901E651FE4FE4909770DC
:10159000F12C092E02C0F594E7940A94E2F7F901C0
:1015A000E652FE4FC490D12C092E02C0D594C794A8
:1015B0000A94E2F7F901E653FE4F3491632F70E08D
:1015C00002C0759567959A95E2F76A837B83E0FE82
:1015D00003C081EE0E943E09C0FE03C086EE0E9459
:1015E0003E0960E070E089810E94250AC0FE03C0C8
:1015F00086EE0E94E509E0FE03C081EE0E94E50947
:101600008A819B8180FF05C060E070E08CE20E94CF
:10161000250A0A831B8360CF2396E8E00C94051FFC
:101620001092900280912F01811581F08091940297
:1016300087FF0CC0E6E7F1E08EE1DF011D928A959D
:10164000E9F7109296020E94C6080895EEE6F1E0CE
:1016500086E0F3CF0E94100B2FEF84E39CE0215033
:1016600080409040E1F700C0000088E19AE00FB6AA
:10167000F894A895809360000FBE90936000FFCF10
:10168000AAE2B0E0E6E4FBE00C94EE1E88E991E00B
:10169000FC0101962091F100208321E0803A92071D
:1016A000B9F780919901893009F456C0C8F48230A5
:1016B00009F4B3C0833009F482C0813071F18091A4
:1016C000E80083FFE7C080919801909199019A30DA
:1016D00008F0E0C0E92FF0E0EA57F04E0C94161F36
:1016E0008A3009F489C08B3051F78091980181329A
:1016F00031F780919C0190919D01892B01F7809198
:10170000E800877F8093E8000E94530780919A0148
:1017100080932F010E94100BD2CF80919801813AC3
:1017200071F68091E800877F8093E80080919C01AA
:1017300090919D01892B61F060E080E090E070E085
:101740000E94C9068091E8008B778093E800B7CFAC
:1017500068E080EA91E0F3CF80919801813209F04E
:10176000AECF80919C0190919D01029708F0A7CF88
:101770008091E800877F8093E8008091E80082FFF5
:1017800019C02091F3008091F200922F029731F45A
:101790008091F100813011F0863021F48091F100C8
:1017A0008093A8018091E8008B778093E8000E94E5
:1017B000530785CF8091AC018111DFCF80CF80911D
:1017C0009801813A09F07BCF80919C0190919D0115
:1017D000892B09F074CF8091E800877F8093E8001F
:1017E0008091E80080FFFCCF80912F018093F10071
:1017F0008091E8008E77D9CF80919801813209F0ED
:101800005ECF8091E800877F8093E8000E945307B5
:1018100080919B018093940152CF80919801813AED
:1018200009F04DCF8091E800877F8093E800809198
:10183000E80080FFFCCF80919401D8CF803889F0F8
:10184000823841F580919C018F70873018F5809324
:10185000E9008091EB0085FB882780F91092E90070
:1018600006C08091AB01880F90919501892B9091D2
:10187000E800977F9093E8008093F1001092F100C8
:101880008091E8008E7723C0811116C080919A0163
:10189000813011F18091E80083FF0AC08091E80057
:1018A000877F8093E8008091EB0080628093EB005B
:1018B000AA96E3E00C940A1F823061F780919A01A6
:1018C000811581F01092E9008091E800877F809374
:1018D000E8000E945307DECF933009F080E0809348
:1018E000AB01F0CF80919C018F702FEF280F263035
:1018F00088F68093E9002091EB0020FFE3CF93303E
:1019000031F48091EB0080628093EB00DBCF90910B
:10191000EB0090619093EB0021E030E0A90101C061
:10192000440F8A95EAF74093EA001092EA0080910A
:10193000EB008860E9CF8111ADCF10919A011F773C
:101940008091E3008078812B8093E3008091E80010
:10195000877F8093E8000E9453078091E80080FF12
:10196000FCCF8091E30080688093E30083E0111155
:1019700001C082E08093AC018DCF8058823008F0A6
:1019800089CF20919A0130919B012C3D53E035077E
:1019900091F583E08A838AE289834FB7F894DE0168
:1019A000139620E03EE051E2E32FF0E05093570021
:1019B000849120FF03C082958F703F5F8F708A30C3
:1019C000C0F0895C8D931D922F5F243169F74FBF62
:1019D0008091E800877F8093E8006AE270E0CE01A2
:1019E00001960E94C9068091E8008B778093E800F9
:1019F00051CF805DE7CF832F90E08330910519F1BF
:101A000060F48130910509F46CC08230910509F0D1
:101A100041CF8BE3EBE4F1E029C020919C013091B0
:101A20009D018132910509F453C08232910509F07C
:101A300031CF2130310508F45CC009F02BCF8BE3A6
:101A4000ECECF0E013C0822F90E0213099F182306D
:101A50009105B9F1009709F01DCFE6ECF1E0E491B2
:101A60008E2FE6ECF1E0009709F414CF2091E80006
:101A7000277F2093E80020919E0130919F018217DB
:101A8000930708F49C0140E021153105B1F541119F
:101A900034C08091E80082FDA6CF8091AC01811511
:101AA00009F4A1CF853009F49ECF8091E80083FF2F
:101AB000F0CF99CFE8EBF1E0E4918E2FE8EBF1E085
:101AC000D2CFE8E9F1E0E4918E2FE8E9F1E0CBCF65
:101AD0002130310550F009F0DDCE89E0E6E7F1E094
:101AE000C5CF82E1E6E8F1E0C1CF89E0EDE5F1E0C4
:101AF000BDCF84E4E7E0F1E0B9CF8091AC0181157E
:101B000009F471CF853009F46ECF8091E80083FD30
:101B10006ACF8091E80082FDBCCF8091E80080FF11
:101B2000B3CF4091F3008091F200942F211531053D
:101B300019F08830910550F041E0089709F040E035
:101B40008091E8008E778093E8009ECF4491409387
:101B5000F1003196215031090196E8CF803809F023
:101B600099CE8091E800877F8093E800809196016C
:101B70008093F10085CE81118DCE10919A011230A3
:101B800008F088CE8091E800877F8093E80010936A
:101B900096010E945307111581F084E08093AC01F7
:101BA00042E061EC81E00E94230742E261EC82E0C6
:101BB0000E9423078091AC016DCE8091E30087FDE8
:101BC000ECCF81E0EBCFCF93DF93EC014A855B85CF
:101BD0006E857F850E9438069B8190958091960244
:101BE0008923809396028C810E942D030E94C6084F
:101BF00086E0FE0111928A95E9F7DF91CF91089571
:101C0000CF93DF93EC018D8181FD17C082608D83BE
:101C1000809196029B81892B8093960280919002FD
:101C20009C81892B809390020E94C6084885598523
:101C30006E857F85CE010E94380610928C0210922C
:101C40008D028D8180FD03C0CE010E94E30DDF91E6
:101C5000CF910895A0E0B0E0E0E3FEE00C94E91E2F
:101C60007C01FC018481811509F403C161E0C70195
:101C70000E945505EC01F70185818115F1F08091F5
:101C80008C0290918D020097C1F0C817D907A9F076
:101C9000E0E3F1E0811511F0E0E0F0E0858184609F
:101CA0008583C083D183CF010E94000E10929602DB
:101CB00061E0C7010E945505EC019D2F9755D9F5AC
:101CC0000C2F10E0C111D1C0F70185819091350131
:101CD00080FB90F990933501811509F4A5C00E940D
:101CE000760680938E0290938F02809132018F5FEF
:101CF000809332018091960290919002892B80937B
:101D000033018091910280933401409136015091CA
:101D1000370160913E0170913F0180E391E00E94A4
:101D200038068091350181FD02C000E017E500937F
:101D30008C0210938D02F70185818115A9F0CA35B7
:101D4000FCE7DF0709F4C0C008F098C0C1303CE7E9
:101D5000D30709F4B7C0C3308CE7D80709F4ACC087
:101D6000C115DC4709F49BC0F70187819085009776
:101D700009F4BAC00E944604D82FC92FF701D580B4
:101D8000C680C2948FE0C822809193028770F9F0D8
:101D90000D2DD114E9F0892F807F803461F080E22D
:101DA0008D0F8830A0F0892F807E803221F4D230D0
:101DB00070F0C11461F08091950282FF08C082E04A
:101DC0000E94EF0280919302877001E0811100E090
:101DD0008C2F82958F70883009F462C108F09BC007
:101DE000823008F4AAC0825F8F70823008F4DDC0B0
:101DF0000115A9F08091930280FD11C0F7011582B1
:101E00008695869586950E944402C7010E942A0EF7
:101E1000809193028695869586950E944F0260E098
:101E2000C7010E94550525C040913C0150913D01DC
:101E300060913E0170913F0180E391E00E9438067D
:101E40008091350181FF77CF80E391E00E94E30D1F
:101E500080918C0290918D028115974509F06BCF8E
:101E600010928C0210928D0266CF8091930287703F
:101E700079F5CDB7DEB7E8E00C94051FCB35ECE77C
:101E8000DE0721F180919502002482FF0394802DCA
:101E9000CC35DC4709F068CF0E94AF0865CF0E94BF
:101EA000100B2FEF34E38CE0215030408040E1F7FD
:101EB00000C000000E94B3066FEF7FEF80E090E06B
:101EC0000E94581F0E942A0B81E0E6CF80E0E4CFF9
:101ED000F7018581811569F28091950282FFC9CF52
:101EE00082E00E94EF02C5CF8581008111818115BA
:101EF00069F0C8010E942305C82F682FC8010E94FD
:101F00005E02B8018C2F0E94350334CFC8010E94B5
:101F10009402C82FF6CF893009F432C18A5F8F70DE
:101F2000823008F065CFD23F09F03BC18C2F8F7112
:101F3000D11034C10E944402E0C01C2F1F70C03178
:101F400010F01295107FD114B9F0111569F080E2EC
:101F50008D0F883010F0D11109C080919002812B33
:101F6000809390020E94C6088D2F40C080919602F7
:101F7000812B80939602F6CF8D2F0E94E5091115D3
:101F800009F436CF80E28D0F883010F0D11104C0F3
:101F9000812F0E942D0306C0109580919602812307
:101FA000809396020E94C60823CF1C2F1F70C07F0B
:101FB000C03211F01295107FD13040F009F450C0BA
:101FC000D11409F45CC0C114F9F0CECF8091950210
:101FD00082FD16C0D11469F0111539F0809190027C
:101FE000812B809390020E94C60880E00E943E09E7
:101FF000FFCE80E00E94E509111509F4F9CEC8CFA3
:10200000D114A1F0C11004C0812F0E941809F0CE94
:10201000F1E0CF12EDCE80919102912F9823191704
:1020200009F4E6CE812B80939102E2CEC110E0CE7E
:10203000812F0E942C0990919102812F892329F0F0
:10204000812F809589238093910280919202912F14
:10205000982309F4CDCE1095182310939202C8CE80
:10206000D11429F026E0C21608F0C2CECDCF35E05B
:10207000C31608F0BDCE812F0E942C09B9CEC11421
:10208000D1F3D93349F48FEF97EEE3E081509040DC
:10209000E040E1F700C000008D2F0E94E509A8CEC6
:1020A0008C2F8370A9F5D11028C08D2F829586952D
:1020B0008770880F880F4D2F4F70082E01C0440F76
:1020C0000A94EAF72D2F2071D4FF06C02FE001C03B
:1020D000220F8A95EAF72095C695C695C370C2303F
:1020E00091F0822F842BC33031F080910E03C130E8
:1020F00039F0242B82230E943E020E943D0678CEB6
:10210000842B822BF8CF242B80910E038227F3CFD0
:10211000D11459F1C0FFF1CF8D2F8295869587702C
:10212000880F880F4D2F4F70082E01C0440F0A945E
:10213000EAF72D2F2071D4FF06C02FE001C0220F37
:102140008A95EAF72095C695C695C370C23099F076
:10215000822F842BC33031F080910F03C13041F0C6
:10216000242B82230E944102C8CF823030F2D4CF88
:10217000842B822BF7CF242B80910F038227F2CF61
:10218000CF70D11439F08C2F0E9444028D2F0E9401
:102190001809B3CF8D2F0E942C098C2F0E944F025B
:1021A000ACCF70F4D03FC9F0D13F91F0D11409F415
:1021B0004CC0C11409F446C08D2F0E943E099DCF2A
:1021C000D33FE9F0D43F91F79091950292FD22C060
:1021D0008C2F8F71D11411F3ADCED11469F0F5E0CD
:1021E000CF1608F08ACFCF7181E090E09C0101C04A
:1021F000220FCA95EAF7C0CF36E0C316F2CF80E0CF
:10220000D11409F4AFCFCF7181E001C0880FCA9516
:10221000EAF7A8CFD11461F08C2F8F7192FF8ACE8C
:10222000982F990F990F990F93609093930282CEF4
:1022300081E00E94EF0282E0C81608F45ECF0E949F
:10224000EF025BCF8C2F8F7175CEC11479F0D9332B
:1022500049F49FEFE7EEF3E09150E040F040E1F702
:1022600000C000008D2F0E94E50947CF8C2F8F7191
:1022700095CF80917702803170F48091760281153C
:1022800051F0E09128022091270230917202409192
:1022900071022E1301C00895BF0189E0E89FF0018B
:1022A0001124DF01A75DBD4F14968C911497811501
:1022B00061F111968C911197831327C08C9184132F
:1022C00024C015968C91159781111FC012968D917F
:1022D0009D91A0917302B09174028A1B9B0B883C64
:1022E000910598F4809177028F70806180937702D6
:1022F000E15DFD4F80818F708061808381E792E096
:102300000E942A0E0E94E5020895FB013196E770B3
:10231000C0CFAFE0B0E0EFE8F1E10C94E41E8C0137
:1023200086E0F801DE011A9601900D928A95E1F798
:10233000F801F580C48081E7882E82E0982E7090A5
:102340007502711020C0C114D9F0F11409F449C10B
:10235000C8010E949005811509F443C189E0F80184
:10236000D40101900D928A95E1F7F1E0CF1206C0F9
:1023700080917102909172020E947C050E94391135
:10238000FF24F3945DC0E080A280B380D0907602F9
:1023900080917302909174029501281B390BD1141E
:1023A00009F4E8C0283C310508F0B4C0C11441F379
:1023B00090917202C18080917702803108F061C0F3
:1023C000C9121DC0909171029E1119C040917802EE
:1023D00050917902278130854217530781F4F1101B
:1023E0004AC08F7080618093770281E792E00E94FB
:1023F0002A0E80917702F8018683F12C21C0F1101A
:102400003AC040E06C2D8E2D0E94C70240E06C2D3A
:102410008E2D0E94C702F82E8111EFCF8A859B85F1
:102420000E947C05292F22952F70903470F49F70A4
:102430002230A0F09115B1F0F8019681903190F41E
:102440008F2D2F96EDE00C94001F2A5F2F70223005
:1024500068F0C8010E942A0EFD2CF2CF911511F0F0
:10246000811571F3805E883058F3F3CF803F40F3DD
:10247000815F8330F9CF809177028160809377020A
:10248000BCCFC9121CC0909171029E1118C040911E
:10249000780250917902278130854217530779F4E9
:1024A000F1100DC08683C8010E942A0E89E0F80150
:1024B000A1E7B2E001900D928A95E1F761CFC801E2
:1024C0000E949005811509F48CC0F11409F489C0AB
:1024D000809177028032A8F02091710230917202CF
:1024E00029833A83AB82BC827D821E828F83809156
:1024F00078029091790288879987CE0101960E948F
:102500002A0E89E0F801A1E7B2E001900D928A95C8
:10251000E1F734CF80917702803150F481E792E087
:102520000E942A0E89E0F40111928A95E9F765CF9D
:10253000C11409F425CF2091720291812913BFCFD4
:10254000909171029E11BBCF409178025091790217
:10255000278130854217530709F0B1CFF110AFCF73
:102560008683C8010E942A0E89E0F40111928A959F
:10257000E9F706CF283C3105A8F6C11409F400CFCD
:10258000F11479F1909172028181981320C08091A9
:1025900071028E111CC020917802309179028781DE
:1025A00090852817390799F49091770290FD7ECF96
:1025B000903108F47BCF892F9683907F903F09F468
:1025C00072CF982F907F905F8F70892B6BCFC8014F
:1025D0000E949005811195CF809177028160809350
:1025E0007702C8010E942A0ECBCEA2E1B0E0EBEF49
:1025F000F2E10C94ED1E0A871B872C873D874E87DE
:102600005F87688B798B8A8BCE010A960E9489112D
:10261000811128C0209127023091280289E0FE0113
:102620003A96DE01119601900D928A95E1F78E851A
:102630008115C1F0822F90E08395877090E0381764
:102640001906D1F099E0929FD0011124A75DBD4FEA
:10265000FE01319601900D929A95E1F78093270241
:102660000E94E5028091280290912702891312C0EE
:102670006296E4E00C94091F0E94100B109227024E
:102680001092280289E0E1E7F2E0DF011D928A95CD
:10269000E9F7E8CFB9E08B9FC0011124875D9D4F1A
:1026A0000E948911811521F3209128022F5F3F4F4D
:1026B000C901877080932802D5CFEF92FF920F93C4
:1026C0001F93CF93DF9380910B03811561F0E0910D
:1026D000A9018DE0F82E80910B03E81748F01092C5
:1026E0000B031092A901CDB7DEB7E6E00C94071FEB
:1026F000EE24E394EE0EE092A901CE2FD0E0FE9EF0
:10270000F0011124ED55FD4F84818115F9F0878189
:102710009085892B39F5818592858F3F980711F136
:1027200081309105A9F082309105A9F0892B21F41F
:102730008FEF93E00E94470AFC9EF001FD9EF00D92
:102740001124ED55FD4F148210929602EE2DC3CF49
:102750008AEF93E0EFCF80910F0398E089270E94E2
:102760004102EACF00811181228133814481558168
:102770006681778180850E94F512DECF4F925F924D
:102780007F928F929F92AF92BF92CF92DF92EF9201
:10279000FF920F931F93CF93DF93C091A20201E0AA
:1027A00010E08091A1028C1314C00E945D130E945E
:1027B000DD05DF91CF911F910F91FF90EF90DF909A
:1027C000CF90BF90AF909F908F907F905F904F90F1
:1027D0000895D0E0FE01EE0FFF1FE956FD4F808106
:1027E0009181A0E0B0E08430910540F427E0289F7B
:1027F000D001299FB00D1124A05CBE4F14962C91DE
:102800001497211152C070900B0363EA72E040E00C
:1028100050E0A12C471508F046C0FB0143845484C6
:10282000CD90DD90129799249A94892CB12C2B2D60
:1028300030E0F601EB0DF11DEB0DF11DE590F5908B
:102840004E145F0409F09401EF2819F0B394490184
:10285000EECF2F3F320771F1F80101C0EE0F2A953C
:10286000EAF7AE2A980102C0220F331FBA94E2F7AA
:1028700021503109A2161306D9F412962D913D91DB
:102880006DE0649FF001659FF00D1124ED55FD4F43
:102890002783308724E024831082118281879287E6
:1028A00061E011966C930E94EE05C395C37079CFD9
:1028B000FB0114824F5F5F4F635F7F4FABCF10927E
:1028C0000C0310920D0310925C018091A102809381
:1028D000A2020E94DD050E945D130895AEE1B0E002
:1028E000E4E7F4E10C94DF1E4B8B5C8B6D8B7E8BED
:1028F0008F8B592E988F911110929602188A198AEF
:102900001A8A86E0FE017396DE011A9601900D92F6
:102910008A95E1F74F88411489F04E865F8661E021
:10292000CE010A960E9455055C0180352CE792077E
:1029300091F4511419F181E080935C014E865F8619
:102940000A851B852C853D85A201688979898A893C
:102950000E94F512C2C081353CE7930729F4511457
:1029600069F00E945F14EACF82359C4739F4511414
:1029700029F080915C018111F4CFDDCF50E4E52E88
:1029800051E0F52E312C812C912C34016394D70128
:102990002D913D916FEF80E09FEFC82ED12CF90172
:1029A000E80FF11DE80FF11D45915591A416B506EC
:1029B00011F0C62ED92E452B21F08F5F6C2D9D2D49
:1029C000ECCF10E0BFEFCB16DC0409F445C0F701F3
:1029D000448110915C01411110E0D70115962D90B2
:1029E0009C911697511409F401C1111509F4FEC008
:1029F000211015C021E00C2C01C0220F0A94EAF727
:102A0000922B16969C9320919F023091A002223324
:102A1000310528F422E320939F021092A002F301D3
:102A200002C0EE0FFF1F8A95E2F7CF010197D70191
:102A300016962C912817190679F480910C03909121
:102A40000D03009709F44DC00E94A406C39708F433
:102A500048C081E0F7018483312ABFEF8B1A9B0ABB
:102A6000E7E0EE0EF11CF4E08F16910409F08FCF31
:102A7000511409F417C1311409F414C10E947606E7
:102A800080930C0390930D0380910B03883028F5FD
:102A900091E0980F90930B0399E0FE013A96DE01C6
:102AA000119601900D929A95E1F74D825E822DE08C
:102AB000829FC00111248D559D4F29E0FE01319662
:102AC000DC0101900D922A95E1F72FEF3FEFDC0139
:102AD00019962D933D93AD92BD926E96E2E10C94C2
:102AE000FB1E9091A2028091A102292FA0E0B0E0EC
:102AF00037E061E0981709F44FC0492F50E0998FF3
:102B00001A8EFA01EE0FFF1FE956FD4F40815181E9
:102B1000A0E0B0E04430510538F4349FD001359F37
:102B2000B00D1124A05CBE4F4D915D9112974D8F59
:102B30005E8F212C70E000E0ED8DFE8DE00FF11D29
:102B4000E00FF11DC590D590C114D104E1F0F7015B
:102B50000190F081E02DEB8FFC8F70E007C0E1E089
:102B6000C416D50609F0E0E02E2A7F5FEB8DFC8DC0
:102B7000E70FF11DE70FF11D4591559141155105E5
:102B800071F70F5FD9CF211471F17017C0F4E1E034
:102B9000D7011496EC9314972093A202AE15BF05AB
:102BA00009F45ACF90E0FC01EE0FFF1FE956FD4FEC
:102BB00080829182019683708093A1024DCF1097FD
:102BC00061F014966C931497AE15BF0529F3921318
:102BD00004C0A9014395242F2370498D5A8D439534
:102BE000942F937087CFA0E0B0E0F7CF292F30E08B
:102BF000211020C0B30102C0660F771F8A95E2F74B
:102C0000CB0101978217930779F010E0F30102C01E
:102C1000EE0FFF1FCA94E2F76F01C094D70116961A
:102C20008C918C218C9318CF411581F3C4010E94A3
:102C3000EE05EBCFA9010C2C02C0559547950A94DF
:102C4000E2F7C901019782239323892B41F540FFC5
:102C500026C0D70112968D919D91892BD9F0FE0146
:102C6000319687E0DF011D928A95E9F70E9476068A
:102C70009C018B839C8384E08D83F7019281838107
:102C8000792F9887898709811A8144E05E816F8155
:102C90000E94F512D70115961C92122DB7CF142F52
:102CA0001170B4CF9091A2028091A102981729F0DF
:102CB0000E94BE13311011CF41CE0E945D131092BD
:102CC0000C0310920D030E94DD05F4CFA6E0B0E0E6
:102CD000ECE6F6E10C94ED1E0E9476068C018091E4
:102CE000FB019091FC018017910779F019821A82FB
:102CF0000E947606BC0149815A8180E090E00E94E2
:102D00006E140093FB011093FC012696E4E00C94F2
:102D1000091FAEE0B0E0EFE8F6E10C94EA1EFE0118
:102D2000319688E0DF011D928A95E9F78FE5E82E5C
:102D300081E0F82E8F01ED871E87F70181917F01D9
:102D40008F3F09F43FC0F894E82FE295EF70F0E070
:102D500021A18F7041E001C0440F8A95EAF7842FCA
:102D6000922F942B91A392A18095892382A378948A
:102D700000C0E3E6F1E031E0D12C21912F3F79F062
:102D8000A22FA295AF70A05EB0E08C9190E02F7062
:102D900002C0959587952A95E2F780FF82C080E072
:102DA000D82A330F89E691E08E179F0731F7F70194
:102DB00082918F3F11F00E94C50590EA9A95F1F734
:102DC000D801DC920F5F1F4FB3E6EB16B1E0FB06B4
:102DD00009F0B3CF48E050E06D857E858DEE91E03F
:102DE0000E946E1F009749F028E0ED85FE85ADEE4C
:102DF000B1E001900D922A95E1F70091EC0110E00D
:102E00000C511E4F892B09F44EC081E08093E301E1
:102E10000E9476068093E1019093E2018091F50192
:102E2000811509F497C07E01E9E0EE0EF11C84E003
:102E3000D7011D928A95E9F78091DC018A3008F06C
:102E400054C044E558E1B701C8010E941A08811531
:102E500009F46EC04EEE58E1B701C8010E941A088D
:102E6000811509F465C04EEF57E1B701C8010E9412
:102E70001A08811509F45CC01092DC018091E00110
:102E800090E044E050E0B7018C519E4F0E946E1FCD
:102E900021E02093DF01892BE9F52E96E7E00C94E1
:102EA000061F832F7DCF8091E301811509F4B6CFF2
:102EB0008091E1019091E2010E94A406059708F437
:102EC000ADCF44E050E06DEE71E0C8010E946E1F8E
:102ED000892B41F084E0EDEEF1E0D80101900D92F4
:102EE0008A95E1F71092E30199CF8091DD019091ED
:102EF000DE010E94A406843F914008F0A2CF809199
:102F0000DF01811551F284E0F70111928A95E9F70A
:102F10001092DF01E091E001F0E0EC51FE4F898575
:102F20009A85AB85BC8580839183A283B383B5CF1B
:102F30008091DC018F3F39F40E9476068093DD0199
:102F40009093DE01DCCF8F5F8093DC018A3008F440
:102F500095CFF2CFE090E001F12CA7014C515E4FEC
:102F60007A01F80180819181A281B3818093C401AB
:102F70009093C501A093C601B093C70184EC91E082
:102F80000E941F068093C3018091C8019091C901DE
:102F9000A091CA01B091CB01F70180839183A283F4
:102FA000B383E090CC01F090CD010091CE0110915F
:102FB000CF018091D8019091D901A091DA01B0910F
:102FC000DB01E816F9060A071B0709F466CFE09251
:102FD000D801F092D9010093DA011093DB010E942D
:102FE0008206E61AF70A080B190BE092F701F09235
:102FF000F8010093F9011093FA014FCFA4E0B0E07B
:10300000E4E0F8E10C94EE1E4091B7015091B80154
:103010006091B9017091BA012FB7F8948091BF0106
:103020009091C001A091C101B091C2012FBF841B3A
:10303000950BA60BB70B11E084369105A105B105E0
:1030400070F10E948E06DC01CB010296A11DB11D1C
:1030500089839A83AB83BC83809128019091290155
:103060008D539E4F20912701422F50E0253008F0CC
:1030700044E0BE016F5F7F4F0E947B1F83E090E0C2
:103080000E945D1E182F811551F00E9482066093E8
:10309000B7017093B8018093B9019093BA01812F61
:1030A0002496E3E00C940A1FA7E0B0E0EAE5F8E11B
:1030B0000C94EE1E6E837F8380E090E00E945D1E84
:1030C000182F811509F469C080911201482F50E032
:1030D000811141E060911301709114016D537E4F95
:1030E000CE0105960E947B1F4091D4015091D501DD
:1030F0006091D6017091D7012FB7F8948091BF01EC
:103100009091C001A091C101B091C2012FBF841B59
:10311000950BA60BB70B84369105A105B10538F4C4
:1031200084EC91E00E941F069D818917B1F181E036
:1031300090E00E945D1E8115F1F180911A01482FE7
:1031400050E0853008F044E060911B0170911C0153
:103150006D537E4FCE0101960E947B1F84EC91E05F
:103160000E941F069D81891326C00E9482066093DB
:10317000D4017093D5018093D6019093D7018981B2
:103180009A81AB81BC818093D0019093D101A093AF
:10319000D201B093D30181E00FC08091C40190911E
:1031A000C501A091C601B091C70189839A83AB8301
:1031B000BC831111E4CF80E04091D0015091D10146
:1031C0006091D2017091D301EE81FF8140835183E0
:1031D000628373832796E3E00C940A1FA2E0B0E0B9
:1031E000E4EFF8E10C94ED1E89839A8344E050E00B
:1031F00068EC71E00E946E1F0091BB011091BC0150
:103200002091BD013091BE01EFB7F8944091BF010C
:103210005091C0016091C1017091C201EFBF401B8C
:10322000510B620B730B443651056105710510F4A7
:10323000892B09F180912001909121018D539E4F9E
:1032400020911F01422F50E0253008F044E06981B1
:103250007A810E947B1F82E090E00E945D1E8115B2
:1032600059F00E9482066093BB017093BC01809369
:10327000BD019093BE0181E02296E4E00C94091F09
:10328000CDB7DEB72A970FB6F894DEBF0FBECDBF1D
:1032900085B7806885BF85B7806885BF84B7877F1D
:1032A00084BF0FB6F894A8958091600088618093E0
:1032B0006000109260000FBE80E890E00FB6F894B6
:1032C00080936100909361000FBE83EC95E0809342
:1032D0006A0190936B010E94FC070E94A3078091F2
:1032E000E20084608093E20078948091AC018115C3
:1032F00099F08091E9001091EC008F7010FB11277C
:1033000017F9182B1092E9008091E80083FD0E94C4
:10331000400B1F701093E90082E084BD93E095BDDF
:103320009AEF97BD80936E001092F7011092F8010A
:103330001092F9011092FA0188EC90E02091E300DC
:1033400027FD0EC0AFE3BCE91197F1F700C0000004
:103350000197A1F70E94FC071092AC0180E001C028
:1033600081E08093F5018093F6018093040181113F
:103370000E946B1D809104018091040191E08927D6
:10338000880F880F8093EC0194E0981B9093E001E4
:103390000FE511E093E6E92E91E0F92EF801819115
:1033A0008F018F3F11F00E94C505E016F106B1F7BD
:1033B00003E611E089E6E82E81E0F82ED8018D9130
:1033C0008D018F3F11F00E94C505E016F106B1F79F
:1033D00088E0E4EEF1E0DF01282F1D922A95E9F75D
:1033E000EDEEF1E0DF011D928A95E9F780E090E0D3
:1033F0000E94241F853E9E4F09F45EC065EE7EEF5D
:1034000080E090E00E94581F60E082E090E00E941F
:103410003A1F81E080930E0361E083E090E00E9418
:103420003A1F60E074E184E090E00E94581F60E081
:1034300086E090E00E943A1F60E087E090E00E9402
:103440003A1F60E070E0AB0188E090E00E944C1F02
:1034500060E083E290E00E943A1F60E08CE090E040
:103460000E943A1F60E08DE090E00E943A1F1982AE
:103470001A821B821C821D821E821F82188648E0CF
:1034800050E067E170E0CE0101960E942A1F60E0E3
:1034900070E0AB018FE190E00E944C1F60E070E0B3
:1034A000AB018FE090E00E944C1F60E070E0AB0148
:1034B00083E190E00E944C1F82E090E00E941C1F7C
:1034C0008093AD0184E090E00E94241F80939402D9
:1034D000909395020E948916EFEFF6E721E0E15004
:1034E000F0402040E1F700C000000E948916E09102
:1034F000F60181E0E827EE0FEE0FF0E0EC51FE4F11
:10350000808181FF08C06FEF7FEF80E090E00E9434
:10351000581F0E94B30683E090E00E941C1F0E9487
:103520003E028091F501811102C00E946E1D85E06E
:1035300091E080931D0290931E028091AC0102E104
:1035400010E4853009F481C00E9489160EEA11E06A
:10355000E4EEF1E0E987FA87D8019D91808126EBBE
:1035600031E02A173B0709F47AC031969817A9F37E
:10357000A090F501F12CA985BA85ED90A987BA87AD
:10358000F801B1908F01BE1429F1BE24CC24C3945C
:10359000D12C8C2D8B21B9F0A114A9F0D982FA82FB
:1035A0000E9476068B839C83F1E0FD8391E08C2D55
:1035B0008E2109F490E09E8349815A816B817C8140
:1035C0008D810E946E14D394CC0C26E0D212E1CFF0
:1035D000F801E292F39438E0F312CDCF0E948E0608
:1035E00042C08091AC01843019F11092AA0188E1A7
:1035F00090E00FB6F894A895809360000FBE1093EA
:10360000600083B7817F846083BF83B7816083BF9D
:103610007894889583B78E7F83BF0FB6F894A8956A
:1036200080916000886180936000109260000FBEFE
:103630000E948916E4EEF1E0808181116DC031961F
:10364000ACEEB1E0AE17BF07B9F78091AC018530A1
:1036500009F4C7CF0E94100B0E943D0675CF981346
:1036600087CF0E9466168091F501811509F43FC04D
:1036700000918C0210918D0201151105A9F0809125
:103680008E0290918F020E94A406893C910560F001
:1036900080E391E0011511F080E090E0DC011596E7
:1036A0002C9122FF0E94000E80915C018115F9F09F
:1036B00080910C0390910D030097C9F00E94A4061D
:1036C00020919F023091A0022817390780F4909131
:1036D000A2028091A1029817B1F00E94BE1310922D
:1036E0009F021092A00210920C0310920D030E94F0
:1036F0003D069091B601891709F41FCF8093B6015A
:103700000E9482061ACF0E945D1310920C03109241
:103710000D030E94DD05EBCF8091AB01811509F40B
:1037200094CFB0E1B9BD09BD09B400FEFDCF8091D1
:10373000D8008F7D8093D8008091E00082608093D4
:10374000E0008091E00081FDFCCF0E94100B7DCF56
:103750001F921FB61F9211248F939F93AF93BF9315
:103760008091AA01811113C08091BF019091C00185
:10377000A091C101B091C2014196A11DB11D8093DC
:10378000BF019093C001A093C101B093C201BF914A
:10379000AF919F918F911F901FBE1F9018957894A5
:1037A0001F921FB61F9211248F939F93AF93BF93C5
:1037B0008091BF019091C001A091C101B091C2015F
:1037C0000196A11DB11D8093BF019093C001A093EC
:1037D000C101B093C201BF91AF919F918F911F9092
:1037E0001FBE1F9018951F920F920FB60F921124B3
:1037F0002F933F934F935F936F937F938F939F93F9
:10380000AF93BF93EF93FF938091E10082FF09C0D4
:103810008091E20082FF05C08091E1008B7F809360
:10382000E1008091DA0080FF24C08091D80080FF01
:1038300020C08091DA008E7F8093DA008091D900D9
:1038400080FF9BC080E189BD82E189BD09B400FE93
:10385000FDCF81E08093AC0180919701811109C077
:103860000E94FC070E94A3078091E200846080937D
:10387000E2008091E10080FF17C08091E20080FFAC
:1038800013C08091E2008E7F8093E2008091E2007D
:1038900080618093E2008091D80080628093D8009C
:1038A00019BC85E08093AC018091E10084FF29C0C0
:1038B0008091E20084FF25C080E189BD82E189BD5D
:1038C00009B400FEFDCF8091D8008F7D8093D80091
:1038D0008091E1008F7E8093E1008091E2008F7EF5
:1038E0008093E2008091E20081608093E200809109
:1038F0009601811509F447C084E08093AC01809162
:10390000AC018091E10083FF27C08091E20083FF3A
:1039100023C08091E100877F8093E10082E0809363
:10392000AC01109296018091E1008E7F8093E100BE
:103930008091E2008E7F8093E2008091E2008061BE
:103940008093E20042E060E080E00E9423078091E3
:10395000F00088608093F000FF91EF91BF91AF91EC
:103960009F918F917F916F915F914F913F912F9197
:103970000F900FBE0F901F90189519BC1092AC01BC
:103980001092970176CF8091E30087FF02C083E019
:10399000B4CF81E0B2CF1F920F920FB60F921124D5
:1039A000EF92FF920F931F932F933F934F935F9349
:1039B0006F937F938F939F93AF93BF93CF93EF9327
:1039C000FF9309EE10E0F8018081C091EC008F7048
:1039D000C0FBCC27C7F9C82B1082E0EF8081877F1E
:1039E000808378940E94400BF8011082E0EF808180
:1039F00088608083CF70E9EEC083FF91EF91CF9113
:103A0000BF91AF919F918F917F916F915F914F91F6
:103A10003F912F911F910F91FF90EF900F900FBE4C
:103A20000F901F9018958EE14A9B02C08150E1F7DC
:103A30004A9BFECF08955A9880E28A95F1F75A9AE8
:103A40000895FC012BE02A95F1F728E080E090E052
:103A500031E040E14A95F1F7880F4A9B02C081604E
:103A6000932742E04A95F1F7000040E14A95F1F7CB
:103A7000215079F720E12A95F1F729B132E03A9502
:103A8000F1F7000040E14A95F1F731E022FD93277C
:103A90002081920F90830895A1E0B0E0E2E5FDE17E
:103AA0000C94EB1E19828C017C01E60EF11C0E9425
:103AB000131DCE0101960E94211DF80181938F01F3
:103AC000EE15FF05A1F781E09981911180E0219623
:103AD000E6E00C94071F529A5A9A089552985A9AFF
:103AE000EA9AE9E6F0E080818F7C80830895615056
:103AF000770B91E001C0990F6A95EAF7692F90E082
:103B000021E0611108C0911591F05A9A80E28A95DE
:103B1000F1F75A980895362F382339F05A9A922798
:103B200030E23A95F1F76695ECCF5A98F9CF5A986A
:103B3000EDCFA3E0B0E0EFE9FDE10C94ED1E8A8348
:103B40009B830A811B81060F111DEA81FB818191F4
:103B5000EA83FB8389830E941B1D68E089810E94A0
:103B6000771DEA81FB81E017F10779F72396E4E0FE
:103B70000C94091F1F920F920FB60F9211240F93EE
:103B80001F932F933F934F935F936F937F938F93E5
:103B90009F93AF93BF93EF93FF93CF93DF930F92D6
:103BA000CDB7DEB719820E94131DCE0101960E9487
:103BB000211D082F069506950695282F229525701C
:103BC000902F9570920F292F237096959695920FAE
:103BD000982797708981892B09F059C0053008F022
:103BE00056C080E18A95F1F75A9A529A82E08A95F6
:103BF000F1F700C05A9888E0089F80011124D8018D
:103C0000A15FBE4F1696ED91FD911897309791F0F8
:103C100060915D0170915E0114962D913D91260F8A
:103C2000371F15978D919D91680F791F4C911397B0
:103C30008C910995F801E15FFE4F6381611551F0A8
:103C400020915D0130915E0184819581820F931FE7
:103C50000E94991D0E941B1D80E18A95F1F75A98D8
:103C600052985A9A80E18A95F1F7F801E15FFE4F88
:103C70006081611551F020915D0130915E0181817B
:103C80009281820F931F0E944C1D0E94131D0F9062
:103C9000DF91CF91FF91EF91BF91AF919F918F9164
:103CA0007F916F915F914F913F912F911F910F9154
:103CB0000F900FBE0F901F901895A4E0B0E0E3E6C0
:103CC000FEE10C94EF1E89839A83853091050CF0F8
:103CD0006FC0F894529A5A9845E04A95F1F700005F
:103CE000982F9695957089818570980F892F83708C
:103CF000292F26952695E981FA8193E0EE0FFF1F83
:103D00009A95E1F7EB83FC83280FE22BF32BE983F1
:103D1000FA830E941B1D00C068E089810E94771D04
:103D2000F0E1FA95F1F752985A9A4A9B3AC087E027
:103D300090E04A9938C0EB81FC81E15FFE4F6381DE
:103D4000611561F020915D0130915E018481958162
:103D5000820F931F0E944C1D811539F10E94131D83
:103D600040E24A95F1F75A98529A50E15A95F1F784
:103D70008B819C81815F9E4F89839A83FC01608146
:103D8000611551F020915D0130915E018181928138
:103D9000820F931F0E94991D0E941B1D789481E041
:103DA00008C000C0C2CF019741F4529A5A9A789441
:103DB00080E02496E2E00C940B1F00C0BACF2F9253
:103DC0003F924F925F926F927F928F929F92AF92AB
:103DD000BF92CF92DF92EF92FF920F931F93CF93F8
:103DE000DF93CDB7DEB7CA1BDB0B0FB6F894DEBF8F
:103DF0000FBECDBF09942A88398848885F846E84B5
:103E00007D848C849B84AA84B984C884DF80EE80FE
:103E1000FD800C811B81AA81B981CE0FD11D0FB607
:103E2000F894DEBF0FBECDBFED010895EE0FFF1F6A
:103E30000590F491E02D0994F999FECF92BD81BDD2
:103E4000F89A992780B50895A8E1B0E042E050E0E3
:103E50000C94601FDC01A40FB51F4150504048F086
:103E6000CB01840F951F2E910E943B1F4150504063
:103E7000D0F70895262FF999FECF92BD81BDF89A0B
:103E8000019700B4021639F01FBA20BD0FB6F8949E
:103E9000FA9AF99A0FBE08950396272F0E943B1FA6
:103EA0000E943A1F252F0E943B1F242F0C943B1F7A
:103EB0000196272F0E943B1F0C943A1FDC01CB0177
:103EC000FC01F999FECF06C0F2BDE1BDF89A31962A
:103ED00000B40D9241505040B8F70895FB01DC0149
:103EE00004C08D910190801921F441505040C8F7D1
:103EF000881B990B0895FB01DC0102C001900D9213
:103F000041505040D8F70895F894FFCF1E0C440C50
:103F10004A0C440C4A0C9B0CBD0C4A0CAE0DBB0D5C
:103F20003300290001C4069408A808C706C8060083
:103F30000000010000000000000004010000000477
:103F4000050000000000000409000000000000015E
:103F5000000000000000CE09DF09150A0000000182
:103F6000C6000000000000BE000000000000B60017
:103F70000000000000AC00390000000001C3019403
:0A3F80006697C6F4F5F6F73133003A
:00000001FF
