:100000000C9424020C9441020C9441020C94DC1DCB
:100010000C9441020C9441020C9441020C94410254
:100020000C9441020C9441020C94151C0C94ED1C90
:100030000C94CA1B0C9441020C9441020C94410292
:100040000C9441020C9441020C9441020C94410224
:100050000C9441020C94F11B0C9441020C9441024B
:100060000C9441020C9441020C9441020C94410204
:100070000C9441020C9441020C9441020C944102F4
:100080000C9441020C9441020C9441020C944102E4
:100090000C9441020C9441020C9441020C944102D4
:1000A0000C9441020C9441020C9441020700090097
:1000B0000D000E00000018000C00120000001000DF
:1000C0000E000F0000000D000E000F0000000D00DC
:1000D0000F0000000D000E0000000E000F000000D9
:1000E0001B000600190000001B000600000016009F
:1000F00007001900000016000700090000001600A4
:1001000009000000070009000000160007000000B9
:1001100005010906A1018506050719E029E7150073
:1001200025019508750181020507190029EF1500C1
:10013000250195F07501810205081901290595052C
:1001400075019102950175039101C005010906A190
:1001500001050719E029E7150025019508750181BA
:10016000029501750881010507190029FF15002670
:10017000FF0095067508810005081901290515007D
:100180002501950575019102950175039101C0093D
:10019000023B00020100A0FA090400000103010172
:1001A0000009211101000122440007058103080014
:1001B00001090401000103000000092111010001EF
:1001C000223B00070582032000011201000200000B
:1001D0000008534601000100010200011E03430014
:1001E0006F0072006E00650020004B006500790012
:1001F00062006F0061007200640000000C034300A5
:1002000052004B00420044000000040309040000B7
:1002100000000000000000000000000000000000DE
:1002200000000000000000000000000000000000CE
:1002300000007E0F00D4FFFFFFC700000078000021
:100240000000000000002A2B280000000000000031
:1002500000000000000000000029000000002C1E2B
:100260003420212224342627252E362D3738271EE8
:100270001F202122232425263333362E37381F040E
:1002800005060708090A0B0C0D0E0F1011121314A6
:1002900015161718191A1B1C1D2F3130232D350464
:1002A00005060708090A0B0C0D0E0F101112131486
:1002B00015161718191A1B1C1D2F3130354C00004C
:1002C00014001A00080015001700000004001600B2
:1002D000070009000A0000001D001B0006001900AD
:1002E000050000000000000000002252282200004B
:1002F000130012000C0018001C00000000570F0033
:100300000E000D000B000000380037003600100012
:100310001100000000000000000021522C0000002D
:100320001E021F0220022102220200002F002F02C3
:100330003402300230000000350235003400010084
:1003400001000000000000000000010001000000AA
:100350002702260225022402230200002A002D0281
:100360002D002E002E02000031023100010001009C
:10037000010000000000000000000100010000007A
:100380001E001F0020002100220000002B000100A1
:100390000100010080000000460001007C007D009B
:1003A00081000000000000000000010001000000CA
:1003B00027002600250024002300000001004F0034
:1003C00052005100500000004C00010001000100EB
:1003D000010000000000000000000100010000001A
:1003E000290014001A000800150000002B0004006A
:1003F0001600070009000000E1001D001B000600B8
:100400001900000000000000E00028002C0000009F
:1004100001000100010001000100000001000100D5
:1004200001000100010000000100010001000100C5
:1004300001000000000000000000010001003A7708
:10044000710A003A770A000011241FBECFEFDAE0EC
:10045000DEBFCDBF11E0A0E0B1E0E4E6FFE302C003
:1004600005900D92A03BB107D9F723E0A0EBB1E0D6
:1004700001C01D92A635B207E1F70E9462190C94E3
:10048000A61F0C9400009C01FB0191509F31B0F419
:10049000832F817034FF0AC08295807F31FD806296
:1004A00032FD806433FD80680995089531FD8260D6
:1004B00032FD846033FFF8CF8860F6CF80E0F4CF60
:1004C00080935403089580935503089521E001C05B
:1004D000220F8A95EAF780915503822B0E946302CE
:1004E000089521E030E0A90101C0440F8A95EAF7A0
:1004F000842F80959091550389230E94630208956B
:10050000292F983090F5863080F590E036E0239FD3
:10051000800D911D112451E081FD54E080FD550FA7
:1005200082FD529523E0969587952A95E1F7FC0187
:10053000EE0FFF1FE80FF91FE054FD4F20E030E001
:1005400070E04191DF01CB01022E02C096958795A4
:100550000A94E2F78695880B8427852384278E9357
:100560002F5F3F4F2330310561F70895292F9830D1
:1005700070F5863060F590E036E0239F800D911D88
:100580001124682F677023E0969587952A95E1F7E7
:10059000FC01EE0FFF1FE80FF91FE054FD4F40E094
:1005A00050E080E0219130E0062E02C0369527957C
:1005B0000A94E2F72170042E01C0220F0A94EAF790
:1005C000822B4F5F5F4F4330510561F7089580E004
:1005D0000895E0916E0290916D02E91302C080E0EF
:1005E00008959F0159E0E59FF0011124E159FD4F65
:1005F0005181561306C05081581303C055815413BE
:1006000004C0F9013196E770E8CF81E00895809148
:100610006E0220916D02281301C008950196877023
:10062000FACF9091D902809589238093D902282FFF
:10063000277069F4891759F09091DB0292FF07C087
:100640008695869586950E9471021092D90208952A
:100650008091D6029091DC02892B9091D70291155E
:10066000C9F0892B90912F01911521F09091DA0218
:1006700097FD11C096E024EB31E040E09150F90184
:1006800050812F5F3F4F51114F5F9111F7CF4111B3
:100690001092D70208959EE12CEB31E0EECF982F17
:1006A00090958091D60289238093D6020895972F42
:1006B0007830B8F46630A8F48430B0F470E026E006
:1006C000929F600D711D1124FB0190E3899FE00D45
:1006D000F11D1124EE0FFF1FE254FD4F85919591FE
:1006E000089580E090E0089581E0FCCF803E910580
:1006F000D1F1C8F48133910509F481C048F48932FD
:10070000910509F471C08A32910509F47FC00895FA
:1007100089339105E1F082389105C9F0853391055F
:1007200009F45DC00895843E9105D1F148F4823EFC
:10073000910531F1833E910541F181EE90E00895FC
:10074000863E9105C1F1873E9105F1F10895209112
:10075000DA02237009F064C02091DB0223FF14C089
:1007600089E290E008952091DA0220FD45C03091A1
:10077000DB0230FF09C024FD24C083EE90E0089521
:100780002091DA0222FDF7CF08952091DA0222FDAE
:1007900044C03091DB0230FD43C024FFF5CF11C0CF
:1007A0002091DB0221FFF0CF8091DA0284FD09C0A5
:1007B00087EE90E008952091DA0223FFE5CF24FF31
:1007C000F7CF80E090E008952091DA0223FD2BC05E
:1007D0003091DB0231FFE1CF84EE90E0089520916B
:1007E000DA0225FFD1CFBCCF2091DA0225FD1EC051
:1007F0002091DB0223FFC8CF89E390E00895209188
:10080000DA0226FFC1CF8AE290E008952091DA0251
:1008100026FFBACF81E390E0089582EE90E008953C
:1008200080EE90E0089586EE90E0089585E390E0F4
:1008300008959091DA0292FF10C041E0282F2471B0
:10084000243009F040E031E0282F2871283009F0E9
:1008500030E0431711F02CE0822793FF10C041E0F5
:10086000282F2471243109F040E031E0282F28712D
:10087000283109F030E0431711F02CE08227309145
:10088000DB0230FF10C051E0282F2171213009F028
:1008900050E041E0282F2871283009F040E054173B
:1008A00011F029E0822731FF10C041E0282F21718B
:1008B000213109F040E031E0282F2871283109F07A
:1008C00030E0431711F029E0822794FD877E0895D8
:1008D0000F931F93CF93DF930E947603EC01923521
:1008E00008F03FC0903508F0AFC0883E9105E0F4B5
:1008F000803E910558F4853A910570F4049730F4E0
:1009000081E0219709F080E0C82FD0E0CE01DF918F
:10091000CF911F910F9108958D5C9109D0654397F8
:10092000A8F3C0E0D0E0F2CFD03490F4D03208F099
:10093000A0C0CE0191509F31A0F78D2F0E941904C5
:10094000082F8C2F90E00E947603EC01D02BDECF95
:100950008C2F90E00E947603DF70C82FD92BD06ACD
:10096000D5CF803842E59407C8F5803652E5950723
:1009700008F04FC0C03482E5D807D0F48C2FC032C5
:1009800092E5D90708F040C08695869520E2829FBF
:10099000C0011124C37021E030E0A90102C0440F5E
:1009A000551FCA95E2F7EA01C82BD92BDD68AECFF7
:1009B0008C2F86958695877050E2859FC001112403
:1009C000C37021E030E0A90102C0440F551FCA9551
:1009D000E2F7EA01C82BD92BDC6898CF803C52E5BE
:1009E000950740F48F71C03AD24540F5D82FC4EF37
:1009F000D06A8CCF805C9245809708F092CFDC2F34
:100A0000DF71C0EFD06A82CF8F71D82FC1EFD06A6B
:100A10007DCF86958695877020E2829FC001112444
:100A2000C37021E030E0A90102C0440F551FCA95F0
:100A3000E2F7EA01C82BD92BDA6868CF0E941904C3
:100A4000C0E0D82FD06262CF8F710E94190493E06A
:100A5000CC0FDD1F9A95E1F7DF70282F30E084FF7F
:100A600004C050E1859F90011124C22FD32BD0697F
:100A70004DCF8D2F8F710E941904082F8C2F90E07D
:100A80000E947603EC01D02BDDCFA4E0B0E0EBE4D4
:100A9000F5E00C940E1F89839A8300915503809191
:100AA0005403082B87E08B831C8210E0C8010B8065
:100AB00002C0959587950A94E2F780FD0DC08B8161
:100AC0009C8101978B839C83019681F7F12C8F2D5C
:100AD0002496E5E00C942A1FFB8069817A818F2D92
:100AE0000E9457030E946804019749F3F0CF0F93C7
:100AF0001F93CF93FC012781308521153105A1F487
:100B00008581008111818115A1F0611591F0C801E5
:100B10000E944505C82F682FC8010E948002B801B5
:100B20008C2F0E9457039C01C901CF911F910F91F7
:100B30000895C8010E94B602C82FF1CFA2E0B0E02C
:100B4000E4EAF5E00C94111F89839A830E9445051D
:100B500069817A810E9457030E9468042296E2E02C
:100B60000C942D1FFC018481811511F187819085E2
:100B70000097A1F00E946804282F92959F709630EC
:100B8000C1F088F4925F9F70923030F4203FD9F02A
:100B900060F481E0283E60F080E0089580819181DA
:100BA0000E949E05E9CF9A5FEECF81E0243FA1F736
:100BB000089591E0813F09F090E081E0283E08F03F
:100BC00080E0892B089581E0089580E00895F894ED
:100BD000E82FE295EF70F0E041A18F7021E030E066
:100BE000B90101C0660F8A95EAF7862F962F909576
:100BF000942391A392A1892B82A3789408951092B3
:100C0000E5021092E602E0E4F1E08581811102C084
:100C100014821682379681E0E23AF807B1F7089518
:100C2000AC018091E8026091E702982F691301C03E
:100C30000895292F30E0F901EE0FFF1FE352FD4F19
:100C40000190F081E02DE417F507B9F4E0E0F0E061
:100C50004E30510540F467E0649FF001659FF00D50
:100C60001124E05CFE4F41E044839813E1CF2F5FF5
:100C70003F4F23702093E80208952395922F93709D
:100C8000D5CFFC01AC014C5F5F4F8FEF61E39191D9
:100C9000892728E030E0982F990F87FF09C0892F16
:100CA000862721503040B9F7E417F50781F70895FA
:100CB000892FF7CFFA01309709F0099508958091AF
:100CC0003B02811561F0E0916302F091640230977C
:100CD00029F00190F081E02D0995089580E00895B4
:100CE00090912F01911521F09091DA0297FD0CC09F
:100CF000E4EBF1E09191891302C0DF011E9291E0D3
:100D0000EA3BF907B9F70895E82FE695E695E695E9
:100D1000803FC8F7F0E0E654FE4F9DEF81FD97EF6E
:100D200080FF959582FD9295828189238283089523
:100D30002FB7F8948091050290910602A0910702C6
:100D4000B09108022FBF08952FB7F8946091050263
:100D50007091060280910702909108022FBF0895BA
:100D600080913B02811519F00E94A40608950E940B
:100D7000A40620913D0230913E0240913F025091E5
:100D80004002620F731F841F951F08959C014FB787
:100D9000F8948091050290910602A0910702B0910B
:100DA00008024FBF821B930B089587E797E7809354
:100DB00000089093010888E19AE00FB6F894A8958E
:100DC000809360000FBE90936000FFCF8091EE0192
:100DD000089508950895FC018091E4019091E50142
:100DE0008617970748F06115710529F48091E8008E
:100DF0008E778093E800CB0140E0009741F44111E9
:100E000006C08091E80082FF30C080E00895209104
:100E1000F2012115B1F12530B1F12091E80023FD57
:100E20002EC02091E80022FDECCF2091E80020FFA9
:100E3000E4CF4091F3002091F200342F009719F095
:100E40002830310558F041E02830310509F040E004
:100E50002091E8002E772093E800CFCF4191409376
:100E6000F10001972F5F3F4FE9CF8091F20181158B
:100E700041F0853041F08091E80083FFC2CF81E0EE
:100E8000089582E0089583E00895982F9093E900F3
:100E9000891771F07091EC002091ED005091F000F5
:100EA00021FD09C09F5F973089F78093E90008957D
:100EB000762F242F50E03091EB003E7F3093EB00F3
:100EC0003091ED003D7F3093ED003091EB003160CB
:100ED0003093EB007093EC002093ED005093F00002
:100EE0002091EE0027FDDECF08958091DE0187FF7F
:100EF00013C08091E80082FF06C08091E8008B77E4
:100F00008093E80008958091F2018111F2CF089555
:100F10008091F2018115D9F38091E80080FFF8CF2C
:100F20008091E8008E77ECCF2091E4003091E500CD
:100F300095E6A9012091EC00822F817020FF06C068
:100F40008091E80080FF06C080E008952091E800CD
:100F500022FD1AC08091F201811589F0853089F057
:100F60008091EB0085FD0FC02091E4003091E500F9
:100F700042175307F9F29150E1F684E0089582E0B8
:100F8000089583E0089581E00895A0E0B0E0EBECDF
:100F9000F7E00C940B1FC8EDD0E088818F7E88832A
:100FA000E7EDF0E080818160808384E082BF81E0B2
:100FB0008093DD0188818E7F888302EE10E0E2EE6F
:100FC00010821092DA006801CA94E1EE10828881E2
:100FD0008F77888388818068888388818F7D8883E4
:100FE00019BC1092F2011092DC011092F1011092E2
:100FF000DB017601EA94E0EE80818B7F808388813B
:101000008160888342E060E080E00E944507F6014D
:1010100080818E7F8083E2EE808181608083808109
:1010200088608083E0EE80818E7F8083888180610C
:101030008883CDB7DEB7E8E00C94271FE8EDF0E039
:1010400080818E7F80831092E2001092DA001092ED
:10105000E100A0EEB0E08C9181608C9380818F776D
:10106000808319BCA7ED8C918E7F8C9380818F7EBD
:1010700080831092DD010895A8E0B0E0E2E4F8E09A
:101080000C940F1F89839A836B837C834D835E83CB
:10109000809122020AE010E08A3010F001E010E0B6
:1010A00021E02F8318866B817C8189819A81ED8173
:1010B000FE81099581111BC02F8138852F5F3F4F1D
:1010C0002F8338870217130794F0C901889F900176
:1010D000899F300D300D112480E090E045E34A9562
:1010E000F1F70000019682179307C1F7DCCF28962D
:1010F000E4E00C942B1F0F931F93CF93DF93EB012E
:101100008A019091F201943061F58093E9008FEFAC
:101110009091E80095FD06C095ED9A95F1F70000D5
:101120008150B1F78091E80085FF1BC00E949407B1
:10113000811112C08091E80085FD06C08091E80011
:101140008E778093E800F2CF88818093F100015080
:10115000104011F02196EECF8091E8008E778093B9
:10116000E800DF91CF911F910F910895CF93DF9306
:10117000EC0148E050E0BC0181E00E947B0888E07F
:10118000FE01A6EEB1E001900D928A95E1F7DF91A4
:10119000CF91089540E250E0BC0182E00E947B08BC
:1011A00008959091DB0292FB222720F9281779F00D
:1011B00080FB92F99093DB026091DA027091DB027E
:1011C00084E090E00E947A1F82E00E94110308955B
:1011D00080912F01811559F18091DA0287FF27C094
:1011E0000E9428038093BB0140E250E063E472E078
:1011F0008AEB91E00E94901F892BC1F080E2EAEB1C
:10120000F1E0A3E4B2E001900D928A95E1F7E0915C
:101210006302F0916402309749F086E08093BA014E
:101220000480F581E02D8AEB91E0099508950E94F4
:1012300028038093B20148E050E065E672E082EB5B
:1012400091E00E94901F892B89F388E0E2EBF1E0A6
:10125000A5E6B2E001900D928A95E1F7E091630274
:10126000F0916402309711F30280F381E02D82EB5C
:1012700091E0DBCF811539F09091D602982B9093B5
:10128000D6020E94E8080895811539F09091DC0299
:10129000982B9093DC020E94E8080895811521F0B4
:1012A0000E944F030E94E8080895811541F080953F
:1012B0009091DC0289238093DC020E94E808089563
:1012C000CF93C82F811509F463C08CEF8C0F813A3E
:1012D00008F060C080912F01811127C0E4EBF1E09C
:1012E0008081C817C9F1319681E0EA3BF807C1F760
:1012F00080912F01811136C0A4EBB1E0EFEF80E0C7
:101300009C91C91709F442C01196EF3F19F491114D
:1013100001C0E82F8F5F863099F7EF3FB9F1FE2FBC
:10132000FF0FFF0BEE54FE4F30C08091DA0287FFB3
:10133000D5CFEC2FE695E695E695F0E0E654FE4F26
:10134000828190E04C2F477021E001C0220F4A9526
:10135000EAF78223892B31F08C2F0E9470060E94BD
:10136000E808C6CF8091DA0287FFC6CFEC2FE6955A
:10137000E695E695F0E0E654FE4FC77081E001C0C7
:10138000880FCA95EAF7C281C82BC2830E94E80879
:10139000CF91089580E28C0F8830D0F7C77081E03C
:1013A00001C0880FCA95EAF7C091D602C82BC09336
:1013B000D602ECCFCF93DF93EC01805E91090897C2
:1013C00020F064E479E0209711F46AE379E0CE013B
:1013D0000E9443028C2F0E946009DF91CF910895F3
:1013E000CF93DF93EC018A81823041F4FB0182814B
:1013F00093810E94DA098D8182608D83DF91CF9184
:101400000895FB01808191810E94DA090895811578
:1014100041F09CEF980F913A28F40E9470060E94C8
:10142000E808089590E2980F9830D8F7982F81E057
:1014300091FD84E090FD880F92FD82950E944F03FC
:10144000EECFCF93DF93EC010E94070ACE01805EBE
:101450009109089720F065E579E0209711F46EE492
:1014600079E0CE010E944302DF91CF910895FC0103
:101470008281813031F4FB01808191810E94210AB7
:1014800008958230E9F7FB0182819381F7CFA3E0D1
:10149000B0E0EDE4FAE00C94111F89836A837B834A
:1014A0000E9460098A819B81892B39F489810E947D
:1014B000070A2396E2E00C942D1F8FE99FE0019725
:1014C000F1F700C000008A819B8101978A839B838A
:1014D000E9CFA3E0B0E0EFE6FAE00C940B1F8C013B
:1014E000F8019491913008F4B9C009F063C09801F3
:1014F0002F5F3F4F2A833B83F9018491813099F418
:101500002F5F3F4F2A833B83F901849160E570E0B0
:10151000893311F060E070E00E94470A0A811B8164
:101520000F5F1F4FDDCF823051F498012E5F3F4F88
:101530002A833B83F90184910E946009EFCF8330B5
:1015400051F498012E5F3F4F2A833B83F901849128
:101550000E94070AE3CF843009F798012E5F3F4FBE
:101560002A833B83F901849120E030E04AE08053F4
:10157000990B8A30910560F02115310579F28FE9D8
:101580009FE00197F1F700C0000021503109F4CF2E
:101590006A817B816F5F7F4F6A837B83429FB0014B
:1015A000439F700D11249C01260F371FEA81FB8198
:1015B0008491DDCFE92FF0E0E25CFD4F2491298397
:1015C000292F26952695269530E0F901E25DFD4FFD
:1015D000E4909770F12C092E02C0F594E7940A94D8
:1015E000E2F7F901E25EFD4FC490D12C092E02C052
:1015F000D594C7940A94E2F7F901E25FFD4F349164
:10160000632F70E002C0759567959A95E2F76A833B
:101610007B83E0FE03C081EE0E946009C0FE03C030
:1016200086EE0E94600960E070E089810E94470AAE
:10163000C0FE03C086EE0E94070AE0FE03C081EEF2
:101640000E94070A8A819B8180FF05C060E070E0EC
:101650008CE20E94470A0A831B8360CF2396E8E04E
:101660000C94271F1092D60280912F01811581F0D2
:101670008091DA0287FF0CC0ECEBF1E08EE1DF0134
:101680001D928A95E9F71092DC020E94E8080895FD
:10169000E4EBF1E086E0F3CF0E94320B2FEF84E31E
:1016A0009CE0215080409040E1F700C0000088E1BC
:1016B0009AE00FB6F894A895809360000FBE9093BF
:1016C0006000FFCFAAE2B0E0E8E6FBE00C94101F58
:1016D0008EED91E0FC0101962091F100208321E044
:1016E000863E9207B9F78091DF01893009F456C030
:1016F000C8F4823009F4B3C0833009F482C0813069
:1017000071F18091E80083FFE7C08091DE01909144
:10171000DF019A3008F0E0C0E92FF0E0E855F04E24
:101720000C94381F8A3009F489C08B3051F78091AE
:10173000DE01813231F78091E2019091E301892B42
:1017400001F78091E800877F8093E8000E94750789
:101750008091E00180932F010E94320BD2CF8091C3
:10176000DE01813A71F68091E800877F8093E8007E
:101770008091E2019091E301892B61F060E080E0CB
:1017800090E070E00E94EB068091E8008B778093F8
:10179000E800B7CF68E086EE91E0F3CF8091DE01FC
:1017A000813209F0AECF8091E2019091E30102977E
:1017B00008F0A7CF8091E800877F8093E8008091B0
:1017C000E80082FF19C02091F3008091F200922F6F
:1017D000029731F48091F100813011F0863021F4CC
:1017E0008091F1008093EE018091E8008B778093E7
:1017F000E8000E94750785CF8091F2018111DFCF4B
:1018000080CF8091DE01813A09F07BCF8091E201A7
:101810009091E301892B09F074CF8091E800877FD4
:101820008093E8008091E80080FFFCCF80912F0139
:101830008093F1008091E8008E77D9CF8091DE010E
:10184000813209F05ECF8091E800877F8093E800C5
:101850000E9475078091E1018093DA0152CF809157
:10186000DE01813A09F04DCF8091E800877F8093B7
:10187000E8008091E80080FFFCCF8091DA01D8CFAA
:10188000803889F0823841F58091E2018F7087308D
:1018900018F58093E9008091EB0085FB882780F99B
:1018A0001092E90006C08091F101880F9091DB0150
:1018B000892B9091E800977F9093E8008093F10046
:1018C0001092F1008091E8008E7723C0811116C03C
:1018D0008091E001813011F18091E80083FF0AC01E
:1018E0008091E800877F8093E8008091EB00806220
:1018F0008093EB00AA96E3E00C942C1F823061F7F2
:101900008091E001811581F01092E9008091E8005A
:10191000877F8093E8000E947507DECF933009F03F
:1019200080E08093F101F0CF8091E2018F702FEF82
:10193000280F263088F68093E9002091EB0020FFE5
:10194000E3CF933031F48091EB0080628093EB0021
:10195000DBCF9091EB0090619093EB0021E030E0C1
:10196000A90101C0440F8A95EAF74093EA0010925A
:10197000EA008091EB008860E9CF8111ADCF109132
:10198000E0011F778091E3008078812B8093E30052
:101990008091E800877F8093E8000E94750780911E
:1019A000E80080FFFCCF8091E30080688093E30033
:1019B00083E0111101C082E08093F2018DCF805845
:1019C000823008F089CF2091E0013091E1012C3D77
:1019D00053E0350791F583E08A838AE289834FB724
:1019E000F894DE01139620E03EE051E2E32FF0E0B0
:1019F00050935700849120FF03C082958F703F5F02
:101A00008F708A30C0F0895C8D931D922F5F2431D6
:101A100069F74FBF8091E800877F8093E8006AE212
:101A200070E0CE0101960E94EB068091E8008B7772
:101A30008093E80051CF805DE7CF832F90E0833023
:101A4000910519F160F48130910509F46CC0823080
:101A5000910509F041CF8BE3EFE8F1E029C0209137
:101A6000E2013091E3018132910509F453C08232E1
:101A7000910509F031CF2130310508F45CC009F03F
:101A80002BCF8BE3E0E1F1E013C0822F90E0213017
:101A900099F182309105B9F1009709F01DCFEAE084
:101AA000F2E0E4918E2FEAE0F2E0009709F414CF1F
:101AB0002091E800277F2093E8002091E4013091F5
:101AC000E5018217930708F49C0140E021153105D8
:101AD000B1F5411134C08091E80082FDA6CF80911C
:101AE000F201811509F4A1CF853009F49ECF8091D0
:101AF000E80083FFF0CF99CFECEFF1E0E4918E2F77
:101B0000ECEFF1E0D2CFECEDF1E0E4918E2FECEDD3
:101B1000F1E0CBCF2130310550F009F0DDCE89E086
:101B2000EAEBF1E0C5CF82E1EAECF1E0C1CF89E078
:101B3000E1EAF1E0BDCF84E4EBE4F1E0B9CF8091DC
:101B4000F201811509F471CF853009F46ECF8091CF
:101B5000E80083FD6ACF8091E80082FDBCCF8091D0
:101B6000E80080FFB3CF4091F3008091F200942F02
:101B70002115310519F08830910550F041E00897A2
:101B800009F040E08091E8008E778093E8009ECFD6
:101B900044914093F1003196215031090196E8CFEC
:101BA000803809F099CE8091E800877F8093E80023
:101BB0008091DC018093F10085CE81118DCE109152
:101BC000E001123008F088CE8091E800877F809392
:101BD000E8001093DC010E947507111581F084E084
:101BE0008093F20142E061EC81E00E94450742E20D
:101BF00061EC82E00E9445078091F2016DCE8091F8
:101C0000E30087FDECCF81E0EBCFCF93DF93EC01D6
:101C10004A855B856E857F850E945A069B819095DB
:101C20008091DC0289238093DC028C810E944F0327
:101C30000E94E80886E0FE0111928A95E9F7DF919B
:101C4000CF910895CF93DF93EC018D8181FD17C073
:101C500082608D838091DC029B81892B8093DC02E2
:101C60008091D6029C81892B8093D6020E94E8083D
:101C7000488559856E857F85CE010E945A0610924F
:101C8000D2021092D3028D8180FD03C0CE010E944A
:101C9000050EDF91CF910895A0E0B0E0E2E5FEE00F
:101CA0000C940B1F7C01FC018481811509F403C194
:101CB00061E0C7010E947705EC01F701858181157C
:101CC000F1F08091D2029091D3020097C1F0C81731
:101CD000D907A9F0E0E3F1E0811511F0E0E0F0E0D0
:101CE000858184608583C083D183CF010E94220EC9
:101CF0001092DC0261E0C7010E947705EC019D2F84
:101D00009755D9F50C2F10E0C111D1C0F70185818D
:101D10009091350180FB90F990933501811509F47C
:101D2000A5C00E9498068093D4029093D50280911A
:101D300032018F5F809332018091DC029091D60254
:101D4000892B809333018091D70280933401409195
:101D500036015091370160913E0170913F0180E35F
:101D600091E00E945A068091350181FD02C000E099
:101D700017E50093D2021093D302F70185818115F4
:101D8000A9F0CA35FCE7DF0709F4C0C008F098C025
:101D9000C1303CE7D30709F4B7C0C3308CE7D8079C
:101DA00009F4ACC0C115DC4709F49BC0F701878179
:101DB0009085009709F4BAC00E946804D82FC92FF3
:101DC000F701D580C680C2948FE0C8228091D902E5
:101DD0008770F9F00D2DD114E9F0892F807F8034C0
:101DE00061F080E28D0F8830A0F0892F807E8032F4
:101DF00021F4D23070F0C11461F08091DB0282FFD7
:101E000008C082E00E9411038091D902877001E02E
:101E1000811100E08C2F82958F70883009F462C1A7
:101E200008F09BC0823008F4AAC0825F8F708230B5
:101E300008F4DDC00115A9F08091D90280FD11C020
:101E4000F70115828695869586950E946602C701E0
:101E50000E944C0E8091D9028695869586950E94A7
:101E6000710260E0C7010E94770525C040913C01E6
:101E700050913D0160913E0170913F0180E391E0FE
:101E80000E945A068091350181FF77CF80E391E06F
:101E90000E94050E8091D2029091D3028115974540
:101EA00009F06BCF1092D2021092D30266CF8091CC
:101EB000D902877079F5CDB7DEB7E8E00C94271F1B
:101EC000CB35ECE7DE0721F18091DB02002482FFB5
:101ED0000394802DCC35DC4709F068CF0E94D108EF
:101EE00065CF0E94320B2FEF34E38CE0215030405D
:101EF0008040E1F700C000000E94D5066FEF7FEF41
:101F000080E090E00E947A1F0E944C0B81E0E6CFB7
:101F100080E0E4CFF7018581811569F28091DB02D1
:101F200082FFC9CF82E00E941103C5CF8581008165
:101F30001181811569F0C8010E944505C82F682FDD
:101F4000C8010E948002B8018C2F0E94570334CF31
:101F5000C8010E94B602C82FF6CF893009F432C1F9
:101F60008A5F8F70823008F065CFD23F09F03BC1A5
:101F70008C2F8F71D11034C10E946602E0C01C2FDB
:101F80001F70C03110F01295107FD114B9F01115E7
:101F900069F080E28D0F883010F0D11109C0809176
:101FA000D602812B8093D6020E94E8088D2F40C074
:101FB0008091DC02812B8093DC02F6CF8D2F0E9472
:101FC000070A111509F436CF80E28D0F883010F022
:101FD000D11104C0812F0E944F0306C0109580913B
:101FE000DC0281238093DC020E94E80823CF1C2FAF
:101FF0001F70C07FC03211F01295107FD13040F0B9
:1020000009F450C0D11409F45CC0C114F9F0CECF6A
:102010008091DB0282FD16C0D11469F0111539F0F0
:102020008091D602812B8093D6020E94E80880E03E
:102030000E946009FFCE80E00E94070A111509F492
:10204000F9CEC8CFD114A1F0C11004C0812F0E94D5
:102050003A09F0CEF1E0CF12EDCE8091D702912F68
:102060009823191709F4E6CE812B8093D702E2CE8C
:10207000C110E0CE812F0E944E099091D702812F8E
:10208000892329F0812F809589238093D70280911D
:10209000D802912F982309F4CDCE109518231093D0
:1020A000D802C8CED11429F026E0C21608F0C2CE5C
:1020B000CDCF35E0C31608F0BDCE812F0E944E096A
:1020C000B9CEC114D1F3D93349F48FEF97EEE3E0E1
:1020D00081509040E040E1F700C000008D2F0E9449
:1020E000070AA8CE8C2F8370A9F5D11028C08D2F98
:1020F000829586958770880F880F4D2F4F70082E18
:1021000001C0440F0A94EAF72D2F2071D4FF06C0B6
:102110002FE001C0220F8A95EAF72095C695C69553
:10212000C370C23091F0822F842BC33031F0809184
:102130005403C13039F0242B82230E9460020E9494
:102140005F0678CE842B822BF8CF242B809154030A
:102150008227F3CFD11459F1C0FFF1CF8D2F829593
:1021600086958770880F880F4D2F4F70082E01C0FD
:10217000440F0A94EAF72D2F2071D4FF06C02FE0F8
:1021800001C0220F8A95EAF72095C695C695C370BF
:10219000C23099F0822F842BC33031F080915503E7
:1021A000C13041F0242B82230E946302C8CF8230C9
:1021B00030F2D4CF842B822BF7CF242B8091550380
:1021C0008227F2CFCF70D11439F08C2F0E94660293
:1021D0008D2F0E943A09B3CF8D2F0E944E098C2F6C
:1021E0000E947102ACCF70F4D03FC9F0D13F91F0A2
:1021F000D11409F44CC0C11409F446C08D2F0E94BB
:1022000060099DCFD33FE9F0D43F91F79091DB0275
:1022100092FD22C08C2F8F71D11411F3ADCED11449
:1022200069F0F5E0CF1608F08ACFCF7181E090E039
:102230009C0101C0220FCA95EAF7C0CF36E0C31651
:10224000F2CF80E0D11409F4AFCFCF7181E001C0AB
:10225000880FCA95EAF7A8CFD11461F08C2F8F713F
:1022600092FF8ACE982F990F990F990F93609093B0
:10227000D90282CE81E00E94110382E0C81608F4E0
:102280005ECF0E9411035BCF8C2F8F7175CEC1146E
:1022900079F0D93349F49FEFE7EEF3E09150E04055
:1022A000F040E1F700C000008D2F0E94070A47CFE1
:1022B0008C2F8F7195CF8091BD02803170F4809109
:1022C000BC02811551F0E0916E0220916D023091B7
:1022D000B8024091B7022E1301C00895BF0189E0F2
:1022E000E89FF0011124DF01A159BD4F14968C9194
:1022F0001497811561F111968C911197831327C062
:102300008C91841324C015968C91159781111FC050
:1023100012968D919D91A091B902B091BA028A1B3B
:102320009B0B883C910598F48091BD028F70806171
:102330008093BD02EB58FD4F80818F708061808358
:1023400087EB92E00E944C0E0E9407030895FB0168
:102350003196E770C0CFAFE0B0E0E1EBF1E10C9473
:10236000061F8C0186E0F801DE011A9601900D929D
:102370008A95E1F7F801F580C48087EB882E82E02A
:10238000982E7090BB02711020C0C114D9F0F114C6
:1023900009F449C1C8010E94B205811509F443C17D
:1023A00089E0F801D40101900D928A95E1F7F1E0FE
:1023B000CF1206C08091B7029091B8020E949E058C
:1023C0000E945B11FF24F3945DC0E080A280B38083
:1023D000D090BC028091B9029091BA029501281B5D
:1023E000390BD11409F4E8C0283C310508F0B4C019
:1023F000C11441F39091B802C1808091BD02803137
:1024000008F061C0C9121DC09091B7029E1119C099
:102410004091BE025091BF02278130854217530779
:1024200081F4F1104AC08F7080618093BD0287EB08
:1024300092E00E944C0E8091BD02F8018683F12C3F
:1024400021C0F1103AC040E06C2D8E2D0E94E902AF
:1024500040E06C2D8E2D0E94E902F82E8111EFCF05
:102460008A859B850E949E05292F22952F70903486
:1024700070F49F702230A0F09115B1F0F8019681B0
:10248000903190F48F2D2F96EDE00C94221F2A5F4F
:102490002F70223068F0C8010E944C0EFD2CF2CF44
:1024A000911511F0811571F3805E883058F3F3CFE8
:1024B000803F40F3815F8330F9CF8091BD0281601E
:1024C0008093BD02BCCFC9121CC09091B7029E116F
:1024D00018C04091BE025091BF022781308542173B
:1024E000530779F4F1100DC08683C8010E944C0E89
:1024F00089E0F801A7EBB2E001900D928A95E1F72F
:1025000061CFC8010E94B205811509F48CC0F11495
:1025100009F489C08091BD028032A8F02091B702F1
:102520003091B80229833A83AB82BC827D821E82BD
:102530008F838091BE029091BF0288879987CE01D8
:1025400001960E944C0E89E0F801A7EBB2E00190E1
:102550000D928A95E1F734CF8091BD02803150F41D
:1025600087EB92E00E944C0E89E0F40111928A956B
:10257000E9F765CFC11409F425CF2091B802918104
:102580002913BFCF9091B7029E11BBCF4091BE02DD
:102590005091BF02278130854217530709F0B1CF10
:1025A000F110AFCF8683C8010E944C0E89E0F40180
:1025B00011928A95E9F706CF283C3105A8F6C11497
:1025C00009F400CFF11479F19091B8028181981348
:1025D00020C08091B7028E111CC02091BE023091A4
:1025E000BF02878190852817390799F49091BD0221
:1025F00090FD7ECF903108F47BCF892F9683907F1A
:10260000903F09F472CF982F907F905F8F70892B45
:102610006BCFC8010E94B205811195CF8091BD0298
:1026200081608093BD02C8010E944C0ECBCEA2E116
:10263000B0E0EDE1F3E10C940F1F0A871B872C87B4
:102640003D874E875F87688B798B8A8BCE010A9690
:102650000E94AB11811128C020916D0230916E0251
:1026600089E0FE013A96DE01119601900D928A955D
:10267000E1F78E858115C1F0822F90E083958770F8
:1026800090E038171906D1F099E0929FD0011124FB
:10269000A159BD4FFE01319601900D929A95E1F737
:1026A00080936D020E94070380916E0290916D02EB
:1026B000891312C06296E4E00C942B1F0E94320B27
:1026C00010926D0210926E0289E0E7EBF2E0DF01FA
:1026D0001D928A95E9F7E8CFB9E08B9FC0011124DC
:1026E00081599D4F0E94AB11811521F320916E02FB
:1026F0002F5F3F4FC901877080936E02D5CFEF9255
:10270000FF920F931F93CF93DF9380915103811515
:1027100061F0E091EF018DE0F82E80915103E81710
:1027200048F0109251031092EF01CDB7DEB7E6E00A
:102730000C94291FEE24E394EE0EE092EF01CE2FCD
:10274000D0E0FE9EF0011124E751FD4F84818115F8
:10275000F9F087819085892B39F5818592858F3FA6
:10276000980711F186309105A9F08C309105A9F0F8
:10277000059721F483E494E00E94690AFC9EF0012D
:10278000FD9EF00D1124E751FD4F14821092DC02E2
:10279000EE2DC3CF8EE394E0EFCF8091550398E008
:1027A00089270E946302EACF00811181228133814F
:1027B000448155816681778180850E941713DECF21
:1027C0004F925F927F928F929F92AF92BF92CF92E1
:1027D000DF92EF92FF920F931F93CF93DF93C091FD
:1027E000E80201E010E08091E7028C1314C00E941F
:1027F0007F130E94FF05DF91CF911F910F91FF90F2
:10280000EF90DF90CF90BF90AF909F908F907F9090
:102810005F904F900895D0E0FE01EE0FFF1FE3524E
:10282000FD4F80819181A0E0B0E08E30910540F4B1
:1028300027E0289FD001299FB00D1124A05CBE4F36
:1028400014962C911497211152C07090510369EE87
:1028500072E040E050E0A12C471508F046C0FB01B3
:1028600043845484CD90DD90129799249A94892CB6
:10287000B12C2B2D30E0F601EB0DF11DEB0DF11D10
:10288000E590F5904E145F0409F09401EF2819F0DB
:10289000B3944901EECF2F3F320771F1F80101C027
:1028A000EE0F2A95EAF7AE2A980102C0220F331FD5
:1028B000BA94E2F721503109A2161306D9F4129600
:1028C0002D913D916DE0649FF001659FF00D112405
:1028D000E751FD4F2783308724E024831082118243
:1028E0008187928761E011966C930E941006C395D0
:1028F000C37079CFFB0114824F5F5F4F635F7F4FDF
:10290000ABCF10925203109253031092A201809108
:10291000E7028093E8020E94FF050E947F1308955A
:10292000AEE1B0E0E6E9F4E10C94011F4B8B5C8B67
:102930006D8B7E8B8F8B592E988F91111092DC02AC
:10294000188A198A1A8A86E0FE017396DE011A96A1
:1029500001900D928A95E1F74F88411489F04E86D7
:102960005F8661E0CE010A960E9477055C018035A2
:102970002CE7920791F4511419F181E08093A201A0
:102980004E865F860A851B852C853D85A201688958
:1029900079898A890E941713C2C081353CE7930761
:1029A00029F4511469F00E948114EACF82359C47C2
:1029B00039F4511429F08091A2018111F4CFDDCFB7
:1029C00050E4E52E51E0F52E312C812C912C340170
:1029D0006394D7012D913D916FEF80E09FEFC82E5A
:1029E000D12CF901E80FF11DE80FF11D459155912A
:1029F000A416B50611F0C62ED92E452B21F08F5FF7
:102A00006C2D9D2DECCF10E0BFEFCB16DC0409F44C
:102A100045C0F70144811091A201411110E0D70196
:102A200015962D909C911697511409F401C111151A
:102A300009F4FEC0211015C021E00C2C01C0220FAA
:102A40000A94EAF7922B16969C932091E502309116
:102A5000E6022233310528F422E32093E5021092A6
:102A6000E602F30102C0EE0FFF1F8A95E2F7CF01E5
:102A70000197D70116962C912817190679F48091A1
:102A8000520390915303009709F44DC00E94C6066B
:102A9000C39708F448C081E0F7018483312ABFEF6F
:102AA0008B1A9B0AE7E0EE0EF11CFEE08F169104F4
:102AB00009F08FCF511409F417C1311409F414C16E
:102AC0000E94980680935203909353038091510380
:102AD000883028F591E0980F9093510399E0FE011A
:102AE0003A96DE01119601900D929A95E1F74D828A
:102AF0005E822DE0829FC001112487519D4F29E005
:102B0000FE013196DC0101900D922A95E1F72FEF3D
:102B10003FEFDC0119962D933D93AD92BD926E96D9
:102B2000E2E10C941D1F9091E8028091E702292FA9
:102B3000A0E0B0E037E061E0981709F44FC0492FFA
:102B400050E0998F1A8EFA01EE0FFF1FE352FD4FEE
:102B500040815181A0E0B0E04E30510538F4349FFF
:102B6000D001359FB00D1124A05CBE4F4D915D91F9
:102B700012974D8F5E8F212C70E000E0ED8DFE8D61
:102B8000E00FF11DE00FF11DC590D590C114D104E7
:102B9000E1F0F7010190F081E02DEB8FFC8F70E008
:102BA00007C0E1E0C416D50609F0E0E02E2A7F5FF9
:102BB000EB8DFC8DE70FF11DE70FF11D4591559150
:102BC0004115510571F70F5FD9CF211471F17017BD
:102BD000C0F4E1E0D7011496EC9314972093E80237
:102BE000AE15BF0509F45ACF90E0FC01EE0FFF1FB0
:102BF000E352FD4F80829182019683708093E702B9
:102C00004DCF109761F014966C931497AE15BF05D5
:102C100029F3921304C0A9014395242F2370498DF1
:102C20005A8D4395942F937087CFA0E0B0E0F7CFF3
:102C3000292F30E0211020C0B30102C0660F771F9A
:102C40008A95E2F7CB0101978217930779F010E09C
:102C5000F30102C0EE0FFF1FCA94E2F76F01C094A8
:102C6000D70116968C918C218C9318CF411581F346
:102C7000C4010E941006EBCFA9010C2C02C055958F
:102C800047950A94E2F7C901019782239323892B80
:102C900041F540FF26C0D70112968D919D91892B59
:102CA000D9F0FE01319687E0DF011D928A95E9F7A0
:102CB0000E9498069C018B839C8384E08D83F7019E
:102CC00092818381792F9887898709811A8144E0CD
:102CD0005E816F810E941713D70115961C92122DE9
:102CE000B7CF142F1170B4CF9091E8028091E70212
:102CF000981729F00E94E013311011CF41CE0E94A5
:102D00007F1310925203109253030E94FF05F4CFD9
:102D1000A6E0B0E0EEE8F6E10C940F1F0E949806E2
:102D20008C0180914102909142028017910779F0C5
:102D300019821A820E949806BC0149815A8180E05A
:102D400090E00E9490140093410210934202269654
:102D5000E4E00C942B1FAEE0B0E0E1EBF6E10C9464
:102D60000C1FFE01319688E0DF011D928A95E9F77C
:102D700085EAE82E81E0F82E8F01ED871E87F701A6
:102D800081917F018F3F09F43FC0F894E82FE295CD
:102D9000EF70F0E021A18F7041E001C0440F8A95EF
:102DA000EAF7842F922F942B91A392A180958923E7
:102DB00082A3789400C0E9EAF1E031E0D12C2191BE
:102DC0002F3F79F0A22FA295AF70A05EB0E08C915A
:102DD00090E02F7002C0959587952A95E2F780FFC5
:102DE00082C080E0D82A330F8FEA91E08E179F07C8
:102DF00031F7F70182918F3F11F00E94E70590EAC9
:102E00009A95F1F7D801DC920F5F1F4FB9EAEB16E4
:102E1000B1E0FB0609F0B3CF48E050E06D857E8558
:102E200083E392E00E94901F009749F028E0ED852F
:102E3000FE85A3E3B2E001900D922A95E1F700919F
:102E4000320210E0065D1D4F892B09F44EC081E06F
:102E5000809329020E94980680932702909328026B
:102E600080913B02811509F497C07E01E9E0EE0EE6
:102E7000F11C84E0D7011D928A95E9F78091220226
:102E80008A3008F054C046E758E1B701C8010E94F3
:102E90003C08811509F46EC040E159E1B701C80151
:102EA0000E943C08811509F465C040E258E1B70171
:102EB000C8010E943C08811509F45CC010922202EE
:102EC0008091260290E044E050E0B701865D9D4F7E
:102ED0000E94901F21E020932502892BE9F52E9670
:102EE000E7E00C94281F832F7DCF80912902811564
:102EF00009F4B6CF80912702909128020E94C6065D
:102F0000059708F4ADCF44E050E063E372E0C801F8
:102F10000E94901F892B41F084E0E3E3F2E0D801A6
:102F200001900D928A95E1F71092290299CF809134
:102F30002302909124020E94C606843F914008F02B
:102F4000A2CF80912502811551F284E0F701119200
:102F50008A95E9F710922502E0912602F0E0E65DFD
:102F6000FD4F89859A85AB85BC8580839183A2833B
:102F7000B383B5CF809122028F3F39F40E94980627
:102F80008093230290932402DCCF8F5F80932202F0
:102F90008A3008F495CFF2CFE0902602F12CA701F9
:102FA000465D5D4F7A01F80180819181A281B381F4
:102FB00080930A0290930B02A0930C02B0930D022F
:102FC0008AE092E00E9441068093090280910E02FD
:102FD00090910F02A0911002B0911102F70180832D
:102FE0009183A283B383E0901202F09013020091C8
:102FF00014021091150280911E0290911F02A0915F
:103000002002B0912102E816F9060A071B0709F40D
:1030100066CFE0921E02F0921F02009320021093EE
:1030200021020E94A406E61AF70A080B190BE09287
:103030003D02F0923E0200933F02109340024FCFB8
:10304000A4E0B0E0E6E2F8E10C94101F4091FD012D
:103050005091FE016091FF01709100022FB7F8942A
:103060008091050290910602A0910702B09108029A
:103070002FBF841B950BA60BB70B11E0843691056F
:10308000A105B10570F10E94B006DC01CB010296EA
:10309000A11DB11D89839A83AB83BC8380912801D4
:1030A00090912901875F9D4F20912701422F50E089
:1030B000253008F044E0BE016F5F7F4F0E949D1FE6
:1030C00083E090E00E947F1E182F811551F00E942E
:1030D000A4066093FD017093FE018093FF0190931D
:1030E0000002812F2496E3E00C942C1FA7E0B0E0AF
:1030F000ECE7F8E10C94101F6E837F8380E090E092
:103100000E947F1E182F811509F469C08091120159
:10311000482F50E0811141E060911301709114013A
:10312000675F7D4FCE0105960E949D1F40911A0258
:1031300050911B0260911C0270911D022FB7F894F0
:103140008091050290910602A0910702B0910802B9
:103150002FBF841B950BA60BB70B84369105A105D9
:10316000B10538F48AE092E00E9441069D818917FA
:10317000B1F181E090E00E947F1E8115F1F1809114
:103180001A01482F50E0853008F044E060911B019F
:1031900070911C01675F7D4FCE0101960E949D1FBB
:1031A0008AE092E00E9441069D81891326C00E9418
:1031B000A40660931A0270931B0280931C029093E2
:1031C0001D0289819A81AB81BC8180931602909304
:1031D0001702A0931802B093190281E00FC08091EA
:1031E0000A0290910B02A0910C02B0910D0289830A
:1031F0009A83AB83BC831111E4CF80E04091160227
:10320000509117026091180270911902EE81FF81AE
:1032100040835183628373832796E3E00C942C1FD1
:10322000A2E0B0E0E6E1F9E10C940F1F89839A83F4
:1032300044E050E06EE072E00E94901F00910102B5
:10324000109102022091030230910402EFB7F8942A
:1032500040910502509106026091070270910802A8
:10326000EFBF401B510B620B730B443651056105D8
:10327000710510F4892B09F18091200190912101B1
:10328000875F9D4F20911F01422F50E0253008F0AD
:1032900044E069817A810E949D1F82E090E00E9453
:1032A0007F1E811559F00E94A4066093010270935D
:1032B0000202809303029093040281E02296E4E0EC
:1032C0000C942B1FCDB7DEB72A970FB6F894DEBF4C
:1032D0000FBECDBF85B7806885BF85B7806885BFC5
:1032E00084B7877F84BF0FB6F894A895809160005B
:1032F000886180936000109260000FBE80E890E0CB
:103300000FB6F89480936100909361000FBE85EE34
:1033100095E08093B0019093B1010E941E080E9435
:10332000C5078091E20084608093E20078948091E8
:10333000F201811599F08091E9001091EC008F70F5
:1033400010FB112717F9182B1092E9008091E80063
:1033500083FD0E94620B1F701093E90082E084BD20
:1033600093E095BD9AEF97BD80936E0010923D0259
:1033700010923E0210923F021092400288EC90E0C0
:103380002091E30027FD0EC0AFE3BCE91197F1F7F0
:1033900000C000000197A1F70E941E081092F201E0
:1033A00080E001C081E080933B0280933C028093E7
:1033B000040181110E948D1D8091040180910401FE
:1033C00091E08927880F880F8093320294E0981B40
:1033D0009093260205EA11E099EAE92E91E0F92E90
:1033E000F80181918F018F3F11F00E94E705E016EF
:1033F000F106B1F709EA11E08FEAE82E81E0F82E34
:10340000D8018D918D018F3F11F00E94E705E016E4
:10341000F106B1F788E0EAE2F2E0DF01282F1D9221
:103420002A95E9F7E3E3F2E0DF011D928A95E9F7D7
:1034300080E090E00E94461F853E9E4F09F45EC0EA
:1034400065EE7EEF80E090E00E947A1F60E082E00F
:1034500090E00E945C1F81E08093540361E083E070
:1034600090E00E945C1F60E074E184E090E00E94C4
:103470007A1F60E086E090E00E945C1F60E087E0D9
:1034800090E00E945C1F60E070E0AB0188E090E09B
:103490000E946E1F60E083E290E00E945C1F60E08B
:1034A0008CE090E00E945C1F60E08DE090E00E9464
:1034B0005C1F19821A821B821C821D821E821F823F
:1034C000188648E050E067E170E0CE0101960E9466
:1034D0004C1F60E070E0AB018FE190E00E946E1F36
:1034E00060E070E0AB018FE090E00E946E1F60E052
:1034F00070E0AB0183E190E00E946E1F82E090E0FB
:103500000E943E1F8093F30184E090E00E94461FDA
:103510008093DA029093DB020E94AB16EFEFF6E79E
:1035200021E0E150F0402040E1F700C000000E949F
:10353000AB16E0913C0281E0E827EE0FEE0FF0E0E1
:10354000E65DFD4F808181FF08C06FEF7FEF80E077
:1035500090E00E947A1F0E94D50683E090E00E94CE
:103560003E1F0E94600280913B02811102C00E94B6
:10357000901D85E091E080936302909364028091B6
:10358000F20102E110E4853009F481C00E94AB161B
:1035900004EF11E0EAE2F2E0E987FA87D8019D91B1
:1035A00080812CEF31E02A173B0709F47AC031966D
:1035B0009817A9F3A0903B02F12CA985BA85ED904C
:1035C000A987BA87F801B1908F01BE1429F1BE24F2
:1035D000CC24C394D12C8C2D8B21B9F0A114A9F04B
:1035E000D982FA820E9498068B839C83F1E0FD8346
:1035F00091E08C2D8E2109F490E09E8349815A81BF
:103600006B817C818D810E949014D394CC0C26E038
:10361000D212E1CFF801E292F39438E0F312CDCF69
:103620000E94B00642C08091F201843019F11092DC
:10363000F00188E190E00FB6F894A89580936000BF
:103640000FBE1093600083B7817F846083BF83B710
:10365000816083BF7894889583B78E7F83BF0FB6D0
:10366000F894A89580916000886180936000109222
:1036700060000FBE0E94AB16EAE2F2E08081811189
:103680006DC03196A2E3B2E0AE17BF07B9F78091E3
:10369000F201853009F4C7CF0E94320B0E945F0609
:1036A00075CF981387CF0E94881680913B028115B1
:1036B00009F43FC00091D2021091D3020115110507
:1036C000A9F08091D4029091D5020E94C606893C4F
:1036D000910560F080E391E0011511F080E090E049
:1036E000DC0115962C9122FF0E94220E8091A201EE
:1036F0008115F9F080915203909153030097C9F01E
:103700000E94C6062091E5023091E602281739078B
:1037100080F49091E8028091E7029817B1F00E943E
:10372000E0131092E5021092E602109252031092FA
:1037300053030E945F069091FC01891709F41FCF83
:103740008093FC010E94A4061ACF0E947F1310925E
:103750005203109253030E94FF05EBCF8091F101B9
:10376000811509F494CFB0E1B9BD09BD09B400FEDB
:10377000FDCF8091D8008F7D8093D8008091E000AC
:1037800082608093E0008091E00081FDFCCF0E9488
:10379000320B7DCF1F921FB61F9211248F939F93E0
:1037A000AF93BF938091F001811113C08091050206
:1037B00090910602A0910702B09108024196A11DC6
:1037C000B11D8093050290930602A0930702B09367
:1037D0000802BF91AF919F918F911F901FBE1F90C4
:1037E000189578941F921FB61F9211248F939F9360
:1037F000AF93BF938091050290910602A0910702BA
:10380000B09108020196A11DB11D8093050290930D
:103810000602A0930702B0930802BF91AF919F9157
:103820008F911F901FBE1F9018951F920F920FB679
:103830000F9211242F933F934F935F936F937F9336
:103840008F939F93AF93BF93EF93FF938091E1008A
:1038500082FF09C08091E20082FF05C08091E100F3
:103860008B7F8093E1008091DA0080FF24C08091FB
:10387000D80080FF20C08091DA008E7F8093DA002C
:103880008091D90080FF9BC080E189BD82E189BD24
:1038900009B400FEFDCF81E08093F2018091DD014B
:1038A000811109C00E941E080E94C5078091E20094
:1038B00084608093E2008091E10080FF17C08091D6
:1038C000E20080FF13C08091E2008E7F8093E200CF
:1038D0008091E20080618093E2008091D800806254
:1038E0008093D80019BC85E08093F2018091E100BB
:1038F00084FF29C08091E20084FF25C080E189BD5A
:1039000082E189BD09B400FEFDCF8091D8008F7D92
:103910008093D8008091E1008F7E8093E1008091B8
:10392000E2008F7E8093E2008091E20081608093CC
:10393000E2008091DC01811509F447C084E08093A6
:10394000F2018091F2018091E10083FF27C0809114
:10395000E20083FF23C08091E100877F8093E10034
:1039600082E08093F2011092DC018091E1008E7F71
:103970008093E1008091E2008E7F8093E20080914D
:10398000E20080618093E20042E060E080E00E941B
:1039900045078091F00088608093F000FF91EF91DF
:1039A000BF91AF919F918F917F916F915F914F9157
:1039B0003F912F910F900FBE0F901F90189519BC3B
:1039C0001092F2011092DD0176CF8091E30087FF23
:1039D00002C083E0B4CF81E0B2CF1F920F920FB646
:1039E0000F921124EF92FF920F931F932F933F9307
:1039F0004F935F936F937F938F939F93AF93BF93F7
:103A0000CF93EF93FF9309EE10E0F8018081C0910E
:103A1000EC008F70C0FBCC27C7F9C82B1082E0EFF9
:103A20008081877F808378940E94620BF8011082E6
:103A3000E0EF808188608083CF70E9EEC083FF91E2
:103A4000EF91CF91BF91AF919F918F917F916F91A6
:103A50005F914F913F912F911F910F91FF90EF90A8
:103A60000F900FBE0F901F9018958EE14A9B02C0D9
:103A70008150E1F74A9BFECF08955A9880E28A95DB
:103A8000F1F75A9A0895FC012BE02A95F1F728E006
:103A900080E090E031E040E14A95F1F7880F4A9BE1
:103AA00002C08160932742E04A95F1F7000040E1AF
:103AB0004A95F1F7215079F720E12A95F1F729B1DC
:103AC00032E03A95F1F7000040E14A95F1F731E034
:103AD00022FD93272081920F90830895A1E0B0E00A
:103AE000E4E7FDE10C940D1F19828C017C01E60EC8
:103AF000F11C0E94351DCE0101960E94431DF80164
:103B000081938F01EE15FF05A1F781E09981911155
:103B100080E02196E6E00C94291F529A5A9A089563
:103B200052985A9AEA9AE9E6F0E080818F7C808385
:103B300008956150770B91E001C0990F6A95EAF7FB
:103B4000692F90E021E0611108C0911591F05A9A17
:103B500080E28A95F1F75A980895362F382339F084
:103B60005A9A922730E23A95F1F76695ECCF5A9837
:103B7000F9CF5A98EDCFA3E0B0E0E1ECFDE10C9471
:103B80000F1F8A839B830A811B81060F111DEA8107
:103B9000FB818191EA83FB8389830E943D1D68E05C
:103BA00089810E94991DEA81FB81E017F10779F76D
:103BB0002396E4E00C942B1F1F920F920FB60F92E6
:103BC00011240F931F932F933F934F935F936F9302
:103BD0007F938F939F93AF93BF93EF93FF93CF9375
:103BE000DF930F92CDB7DEB719820E94351DCE014B
:103BF00001960E94431D082F069506950695282FCD
:103C000022952570902F9570920F292F23709695ED
:103C10009695920F982797708981892B09F059C042
:103C2000053008F056C080E18A95F1F75A9A529A09
:103C300082E08A95F1F700C05A9888E0089F8001D9
:103C40001124D801A15FBE4F1696ED91FD911897F2
:103C5000309791F06091A3017091A40114962D9179
:103C60003D91260F371F15978D919D91680F791FF4
:103C70004C9113978C910995F801E15FFE4F638198
:103C8000611551F02091A3013091A40184819581A7
:103C9000820F931F0E94BB1D0E943D1D80E18A95EB
:103CA000F1F75A9852985A9A80E18A95F1F7F801FB
:103CB000E15FFE4F6081611551F02091A3013091C9
:103CC000A40181819281820F931F0E946E1D0E9428
:103CD000351D0F90DF91CF91FF91EF91BF91AF9183
:103CE0009F918F917F916F915F914F913F912F9114
:103CF0001F910F910F900FBE0F901F901895A4E089
:103D0000B0E0E5E8FEE10C94111F89839A838530C9
:103D100091050CF06FC0F894529A5A9845E04A9574
:103D2000F1F70000982F9695957089818570980F0E
:103D3000892F8370292F26952695E981FA8193E0B2
:103D4000EE0FFF1F9A95E1F7EB83FC83280FE22B20
:103D5000F32BE983FA830E943D1D00C068E089814E
:103D60000E94991DF0E1FA95F1F752985A9A4A9BF0
:103D70003AC087E090E04A9938C0EB81FC81E15F6E
:103D8000FE4F6381611561F02091A3013091A40180
:103D900084819581820F931F0E946E1D811539F1D8
:103DA0000E94351D40E24A95F1F75A98529A50E127
:103DB0005A95F1F78B819C81815F9E4F89839A830D
:103DC000FC016081611551F02091A3013091A401A3
:103DD00081819281820F931F0E94BB1D0E943D1D15
:103DE000789481E008C000C0C2CF019741F4529A94
:103DF0005A9A789480E02496E2E00C942D1F00C03B
:103E0000BACF2F923F924F925F926F927F928F9292
:103E10009F92AF92BF92CF92DF92EF92FF920F9359
:103E20001F93CF93DF93CDB7DEB7CA1BDB0B0FB663
:103E3000F894DEBF0FBECDBF09942A883988488820
:103E40005F846E847D848C849B84AA84B984C884B6
:103E5000DF80EE80FD800C811B81AA81B981CE0FAD
:103E6000D11D0FB6F894DEBF0FBECDBFED01089592
:103E7000EE0FFF1F0590F491E02D0994F999FECF04
:103E800092BD81BDF89A992780B50895A8E1B0E068
:103E900042E050E00C94821FDC01A40FB51F41509A
:103EA000504048F0CB01840F951F2E910E945D1F5A
:103EB00041505040D0F70895262FF999FECF92BD7A
:103EC00081BDF89A019700B4021639F01FBA20BDDF
:103ED0000FB6F894FA9AF99A0FBE08950396272F11
:103EE0000E945D1F0E945C1F252F0E945D1F242FD2
:103EF0000C945D1F0196272F0E945D1F0C945C1F80
:103F0000DC01CB01FC01F999FECF06C0F2BDE1BD99
:103F1000F89A319600B40D9241505040B8F7089588
:103F2000FB01DC0104C08D910190801921F4415006
:103F30005040C8F7881B990B0895FB01DC0102C0B3
:103F400001900D9241505040D8F70895F894FFCF5A
:103F5000400C660C6C0C660C6C0CBD0CDF0C6C0C15
:043F6000D00DDD0D96
:103F64003300290001E606B608CA08E906EA060095
:103F74000000010000000000000004010000000433
:103F8400050000000000000409000000000000011A
:103F9400000000000000F009010A370A00000001D7
:103FA4000A01A8520000000401A252000000FE0011
:103FB400A152000000F600AA52000000EE00A35235
:103FC400000000E8000000000000E0000000000025
:103FD40000DA00B852000000D400B252000000CE53
:103FE40000B152000000C600BA52000000BE00B387
:103FF40052000000B6000000000000AC00390000D0
:104004000000010902946697C6F4F5F6F73133000F
:00000001FF
