:100000000C94E4010C9401020C9401020C94D51E92
:100010000C9401020C9401020C9401020C94010254
:100020000C9401020C9401020C940E1D0C94E61D1C
:100030000C94C31C0C9401020C9401020C94010258
:100040000C9401020C9401020C9401020C94010224
:100050000C9401020C94EA1C0C9401020C94010211
:100060000C9401020C9401020C9401020C94010204
:100070000C9401020C9401020C9401020C940102F4
:100080000C9401020C9401020C9401020C940102E4
:100090000C9401020C9401020C9401020C940102D4
:1000A0000C9401020C9401020C9401020B000E004E
:1000B0000F0000000D000E000F0000000D000F00EB
:1000C00000000D000E0000000E000F0000001600E2
:1000D00007000A00000016000700090000001600D3
:1000E00009000000070009000000160007000000DA
:1000F00018000C001200000010003600370000004D
:1001000005010902A10185020901A10005091901E2
:10011000290815002501950875018102050109309E
:1001200009311581257F95027508810609381581E9
:10013000257F950175088106050C0A380215812571
:100140007F950175088106C0C005010906A10185DA
:1001500006050719E029E7150025019508750181B5
:10016000020507190029EF1500250195F075018199
:10017000020508190129059505750191029501757A
:10018000039101C005010906A101050719E029E74E
:1001900015002501950875018102950175088101F9
:1001A0000507190029FF150026FF0095067508812F
:1001B000000508190129051500250195057501910E
:1001C00002950175039101C009023B00020100A0E4
:1001D000FA090400000103010100092111010001D5
:1001E00022440007058103080001090401000103FE
:1001F000000000092111010001228400070582038B
:100200002000011201000200000008534601000115
:1002100000010200011E0343006F0072006E0065C2
:100220000020004B006500790062006F00610072E1
:1002300000640000000C03430052004B00420044E5
:1002400000000004030904000014001A000800154F
:10025000001700000004001600070009000A000053
:10026000001D001B00060019000500000000000032
:10027000000000225228000000130012000C001899
:10028000001C00000000570F000E000D000B0000C6
:100290000038003700360010001100000000000098
:1002A00000000021522C0000002900240025002617
:1002B0000027000000010021002200230080000030
:1002C0000001001E001F002000810000000000004F
:1002D0000000000100010000002B000100010001EE
:1002E00000010000002A004F0052005100500000A1
:1002F000004C0001000100010001000000000000AE
:1003000000000001000100000001000100010001E7
:100310000001000000230224022502260227020019
:10032000001E021F02200221022202000000000023
:10033000000000010001000000010030022F023027
:10034000002F00000031002D002E00340035000089
:100350000031022D022E023402350200000000009E
:10036000000000010001000000290014001A00082C
:100370000015000000E1000400160007000900005D
:1003800000E0001D001B0006001900000000000036
:1003900000000028002C0000000100010001000105
:1003A0000001000000010001000100010001000047
:1003B0000001000100010001000100000000000038
:1003C000000000010001000011241FBECFEFDAE0A1
:1003D000DEBFCDBF11E0A0E0B1E0ECECF1E402C083
:1003E00005900D92A23AB107D9F723E0A2EAB1E055
:1003F00001C01D92A535B207E1F70E9483190C9444
:10040000C7200C9400009C01FB0191509F31B0F477
:10041000832F817034FF0AC08295807F31FD806216
:1004200032FD806433FD80680995089531FD826056
:1004300032FD846033FFF8CF8860F6CF80E0F4CFE0
:1004400080935303089580935403089521E001C0DD
:10045000220F8A95EAF780915403822B0E9423028F
:10046000089521E030E0A90101C0440F8A95EAF720
:10047000842F80959091540389230E94230208952C
:10048000292F983090F5863080F590E036E0239F54
:10049000800D911D112451E081FD54E080FD550F28
:1004A00082FD529523E0969587952A95E1F7FC0108
:1004B000EE0FFF1FE80FF91FEA54FD4F20E030E078
:1004C00070E04191DF01CB01022E02C09695879525
:1004D0000A94E2F78695880B8427852384278E93D8
:1004E0002F5F3F4F2330310561F70895292F983052
:1004F00070F5863060F590E036E0239F800D911D09
:100500001124682F677023E0969587952A95E1F767
:10051000FC01EE0FFF1FE80FF91FEA54FD4F40E00A
:1005200050E080E0219130E0062E02C036952795FC
:100530000A94E2F72170042E01C0220F0A94EAF710
:10054000822B4F5F5F4F4330510561F7089580E084
:100550000895E091640290916302E91302C080E083
:1005600008959F0159E0E59FF0011124EB59FD4FDB
:100570005181561306C05081581303C0558154133E
:1005800004C0F9013196E770E8CF81E008958091C9
:10059000640220916302281301C0089501968770B8
:1005A000FACF9091D802809589238093D802282F82
:1005B000277069F4891759F09091DA0292FF07C009
:1005C0008695869586950E9431021092D8020895EC
:1005D0008091D5029091DB02892B9091D6029115E2
:1005E000C9F0892B90912F01911521F09091D9029A
:1005F00097FD11C096E026EA31E040E09150F90104
:1006000050812F5F3F4F51114F5F9111F7CF411133
:100610001092D60208959EE12EEA31E0EECF982F97
:1006200090958091D50289238093D5020895972FC4
:100630007830B8F46630A8F48430B0F470E026E086
:10064000929F600D711D1124FB0190E3899FE00DC5
:10065000F11D1124EE0FFF1FE95BFD4F8591959170
:10066000089580E090E0089581E0FCCF803E910500
:10067000D1F1C8F48133910509F481C048F489327D
:10068000910509F471C08A32910509F47FC008957B
:1006900089339105E1F082389105C9F085339105E0
:1006A00009F45DC00895843E9105D1F148F4823E7D
:1006B000910531F1833E910541F181EE90E008957D
:1006C000863E9105C1F1873E9105F1F10895209193
:1006D000D902237009F064C02091DA0223FF14C00C
:1006E00089E290E008952091D90220FD45C0309123
:1006F000DA0230FF09C024FD24C083EE90E00895A3
:100700002091D90222FDF7CF08952091D90222FD30
:1007100044C03091DA0230FD43C024FFF5CF11C050
:100720002091DA0221FFF0CF8091D90284FD09C027
:1007300087EE90E008952091D90223FFE5CF24FFB2
:10074000F7CF80E090E008952091D90223FD2BC0DF
:100750003091DA0231FFE1CF84EE90E008952091EC
:10076000D90225FFD1CFBCCF2091D90225FD1EC0D3
:100770002091DA0223FFC8CF89E390E00895209109
:10078000D90226FFC1CF8AE290E008952091D902D4
:1007900026FFBACF81E390E0089582EE90E00895BD
:1007A00080EE90E0089586EE90E0089585E390E075
:1007B00008959091D90292FF10C041E0282F247132
:1007C000243009F040E031E0282F2871283009F06A
:1007D00030E0431711F02CE0822793FF10C041E076
:1007E000282F2471243109F040E031E0282F2871AE
:1007F000283109F030E0431711F02CE082273091C6
:10080000DA0230FF10C051E0282F2171213009F0A9
:1008100050E041E0282F2871283009F040E05417BB
:1008200011F029E0822731FF10C041E0282F21710B
:10083000213109F040E031E0282F2871283109F0FA
:1008400030E0431711F029E0822794FD877E089558
:100850000F931F93CF93DF930E943603EC019235E1
:1008600008F03FC0903508F0AFC0883E9105E0F435
:10087000803E910558F4853A910570F4049730F460
:1008800081E0219709F080E0C82FD0E0CE01DF9110
:10089000CF911F910F9108958D5C9109D065439779
:1008A000A8F3C0E0D0E0F2CFD03490F4D03208F01A
:1008B000A0C0CE0191509F31A0F78D2F0E94D90387
:1008C000082F8C2F90E00E943603EC01D02BDECF56
:1008D0008C2F90E00E943603DF70C82FD92BD06A8E
:1008E000D5CF803842E59407C8F5803652E59507A4
:1008F00008F04FC0C03482E5D807D0F48C2FC03246
:1009000092E5D90708F040C08695869520E2829F3F
:10091000C0011124C37021E030E0A90102C0440FDE
:10092000551FCA95E2F7EA01C82BD92BDD68AECF77
:100930008C2F86958695877050E2859FC001112483
:10094000C37021E030E0A90102C0440F551FCA95D1
:10095000E2F7EA01C82BD92BDC6898CF803C52E53E
:10096000950740F48F71C03AD24540F5D82FC4EFB7
:10097000D06A8CCF805C9245809708F092CFDC2FB4
:10098000DF71C0EFD06A82CF8F71D82FC1EFD06AEC
:100990007DCF86958695877020E2829FC0011124C5
:1009A000C37021E030E0A90102C0440F551FCA9571
:1009B000E2F7EA01C82BD92BDA6868CF0E94D90385
:1009C000C0E0D82FD06262CF8F710E94D90393E02C
:1009D000CC0FDD1F9A95E1F7DF70282F30E084FF00
:1009E00004C050E1859F90011124C22FD32BD06900
:1009F0004DCF8D2F8F710E94D903082F8C2F90E03F
:100A00000E943603EC01D02BDDCFA4E0B0E0EBE098
:100A1000F5E00C94072089839A8300915403809118
:100A20005303082B87E08B831C8210E0C8010B80E6
:100A300002C0959587950A94E2F780FD0DC08B81E1
:100A40009C8101978B839C83019681F7F12C8F2DDC
:100A50002496E5E00C942320FB8069817A818F2D18
:100A60000E9417030E942804019749F3F0CF0F93C7
:100A70001F93CF93FC012781308521153105A1F407
:100A80008581008111818115A1F0611591F0C80166
:100A90000E940505C82F682FC8010E944002B801B6
:100AA0008C2F0E9417039C01C901CF911F910F91B8
:100AB0000895C8010E947602C82FF1CFA2E0B0E0ED
:100AC000E4E6F5E00C940A2089839A830E940505E8
:100AD00069817A810E9417030E9428042296E2E02D
:100AE0000C942620FC018481811511F18781908569
:100AF0000097A1F00E942804282F92959F709630AD
:100B0000C1F088F4925F9F70923030F4203FD9F0AA
:100B100060F481E0283E60F080E00895808191815A
:100B20000E945E05E9CF9A5FEECF81E0243FA1F7F6
:100B3000089591E0813F09F090E081E0283E08F0BF
:100B400080E0892B089581E0089580E00895F8946D
:100B5000E82FE295EF70F0E041A18F7021E030E0E6
:100B6000B90101C0660F8A95EAF7862F962F9095F6
:100B7000942391A392A1892B82A378940895109233
:100B8000E4021092E502E0E4F1E08581811102C007
:100B900014821682379681E0E439F807B1F7089598
:100BA000AC018091E7026091E602982F691301C0C1
:100BB0000895292F30E0F901EE0FFF1FE452FD4F99
:100BC0000190F081E02DE417F507B9F4E0E0F0E0E2
:100BD0004C30510540F467E0649FF001659FF00DD3
:100BE0001124E05CFE4F41E044839813E1CF2F5F76
:100BF0003F4F23702093E70208952395922F93701F
:100C0000D5CFFC01AC014C5F5F4F8FEF61E3919159
:100C1000892728E030E0982F990F87FF09C0892F96
:100C2000862721503040B9F7E417F50781F708957A
:100C3000892FF7CF282F35EB2303C001112497FF0D
:100C400004C080589109892F089580589F4FFBCF89
:100C50008091CA0280FD14C081FD14C082FD16C0BF
:100C60008091C902811581F08E3180F420E5829F48
:100C7000C00111246EE170E00E943120862F08959A
:100C800084E1089588E2089588E0089580E5089554
:100C90008091CA0280FD17C081FD17C082FD19C076
:100CA0008091C802811599F0883298F428E0829FDB
:100CB000C001112468E270E00E94312061157105C5
:100CC00051F0862F089562E0FCCF64E0FACF61E036
:100CD000F8CF68E0F6CF81E00895FA01309709F087
:100CE0000995089580913102811561F0E0915902D2
:100CF000F0915A02309729F00190F081E02D09958A
:100D0000089580E0089590912F01911521F0909120
:100D1000D90297FD0CC0E6EAF1E09191891302C077
:100D2000DF011E9291E0EC3AF907B9F70895E82F38
:100D3000E695E695E695803FC8F7F0E0E455FE4F6E
:100D40009DEF81FD97EF80FF959582FD92958281C1
:100D50008923828308952FB7F8948091FB019091A5
:100D6000FC01A091FD01B091FE012FBF08950E94EA
:100D7000AB069C019091CD028091CE02982B21F080
:100D80002093F0013093F1019091CF028091D00235
:100D9000982B21F02093EE013093EF01E09159025E
:100DA000F0915A02309749F082E08093CB0206809E
:100DB000F781E02D8BEC92E009950895611509F417
:100DC0004AC0E3E3E80FE33150F4F0E0E753FF4DAE
:100DD0000C9445200E94280681958093CE020E94A3
:100DE000B70608950E942806F8CF0E94280681952C
:100DF0008093CD02F4CF0E942806FACF0E944806C5
:100E00008093CF02ECCF0E9448068195F9CF0E94D3
:100E1000480681958093D002E2CF0E944806FACF1F
:100E2000815D990B21E001C0220F8A95EAF780913C
:100E3000CC02822B8093CC02D2CF8091CA028160F7
:100E40008093CA02CCCF8091CA028260F9CF809190
:100E5000CA028460F5CF4091CD028D3C59F4809157
:100E6000CE0287FF0DC01092CE02411559F41092A8
:100E7000C90208C08E3C81F48091CE0218169CF302
:100E8000411581F08091CF029091D002892B09F019
:100E9000A6CF1092C802A3CF8F3C41F447FFF0CFFA
:100EA0001092CD028091CE028115E0CF803D19F4E1
:100EB0001416B4F3E5CF9091CF02893D29F41916A9
:100EC000FCF61092CF02DCCF8A3D19F497FFD8CF01
:100ED000F8CF9091D0028B3D29F497FFD1CF10929B
:100EE000D002CECF8C3D19F41916CCF3C9CF9FE2B6
:100EF000980F983088F4815D990B21E030E0B901BA
:100F000001C0660F8A95EAF7862F80959091CC02F2
:100F100089238093CC02B4CF8D3D31F48091CA02F5
:100F20008E7F8093CA02ACCF8E3D21F48091CA029D
:100F30008D7FF7CF8F3D09F0A3CF8091CA028B7FC1
:100F4000F0CF2FB7F8946091FB017091FC01809174
:100F5000FD019091FE012FBF08958091310281150E
:100F600019F00E94A10708950E94A1072091330261
:100F7000309134024091350250913602620F731F56
:100F8000841F951F08959C014FB7F8948091FB0131
:100F90009091FC01A091FD01B091FE014FBF821B19
:100FA000930B089587E797E78093000890930108D3
:100FB00088E19AE00FB6F894A895809360000FBE80
:100FC00090936000FFCF8091E00108950895FC01A7
:100FD0008091D6019091D7018617970748F0611547
:100FE000710529F48091E8008E778093E800CB01A9
:100FF00040E0009741F4411106C08091E80082FF73
:1010000030C080E008952091E4012115B1F1253030
:10101000B1F12091E80023FD2EC02091E80022FDCF
:10102000ECCF2091E80020FFE4CF4091F300209125
:10103000F200342F009719F02830310558F041E0C4
:101040002830310509F040E02091E8002E77209308
:10105000E800CFCF41914093F10001972F5F3F4FC0
:10106000E9CF8091E401811541F0853041F0809114
:10107000E80083FFC2CF81E0089582E0089583E015
:101080000895982F9093E900891771F07091EC0002
:101090002091ED005091F00021FD09C09F5F973035
:1010A00089F78093E9000895762F242F50E030913E
:1010B000EB003E7F3093EB003091ED003D7F3093AD
:1010C000ED003091EB0031603093EB007093EC0059
:1010D0002093ED005093F0002091EE0027FDDECF2D
:1010E00008958091D00187FF13C08091E80082FFAE
:1010F00006C08091E8008B778093E8000895809186
:10110000E4018111F2CF08958091E4018115D9F3B2
:101110008091E80080FFF8CF8091E8008E77ECCFD7
:101120002091E4003091E50095E6A9012091EC00C2
:10113000822F817020FF06C08091E80080FF06C0EA
:1011400080E008952091E80022FD1AC08091E4011A
:10115000811589F0853089F08091EB0085FD0FC005
:101160002091E4003091E50042175307F9F29150C5
:10117000E1F684E0089582E0089583E0089581E037
:101180000895A0E0B0E0E7ECF8E00C940420C8ED8E
:10119000D0E088818F7E8883E7EDF0E080818160F8
:1011A000808384E082BF81E08093CF0188818E7F3D
:1011B000888302EE10E0E2EE10821092DA006801FD
:1011C000CA94E1EE108288818F7788838881806855
:1011D000888388818F7D888319BC1092E4011092E6
:1011E000CE011092E3011092CD017601EA94E0EE77
:1011F00080818B7F808388818160888342E060E08A
:1012000080E00E944108F60180818E7F8083E2EEBB
:10121000808181608083808188608083E0EE80812E
:101220008E7F8083888180618883CDB7DEB7E8E0D8
:101230000C942020E8EDF0E080818E7F8083109276
:10124000E2001092DA001092E100A0EEB0E08C9182
:1012500081608C9380818F77808319BCA7ED8C91FE
:101260008E7F8C9380818F7E80831092CF01089532
:10127000A8E0B0E0EEE3F9E00C94082089839A83BB
:101280006B837C834D835E83809118020AE010E0BB
:101290008A3010F001E010E021E02F8318866B8186
:1012A0007C8189819A81ED81FE81099581111BC024
:1012B0002F8138852F5F3F4F2F8338870217130701
:1012C00094F0C901889F9001899F300D300D112441
:1012D00080E090E045E34A95F1F70000019682171F
:1012E0009307C1F7DCCF2896E4E00C9424200F93F9
:1012F0001F93CF93DF93EB018A019091E401943027
:1013000061F58093E9008FEF9091E80095FD06C0AC
:1013100095ED9A95F1F700008150B1F78091E800C2
:1013200085FF1BC00E949008811112C08091E800C7
:1013300085FD06C08091E8008E778093E800F2CFAB
:1013400088818093F1000150104011F02196EECF7A
:101350008091E8008E778093E800DF91CF911F9114
:101360000F910895CF93DF93EC0148E050E0BC016A
:1013700081E00E94770988E0FE01A8EDB1E00190CC
:101380000D928A95E1F7DF91CF91089540E250E008
:10139000BC0182E00E947709089546E050E0BC015C
:1013A00082E00E94770908959091DA0292FB222749
:1013B00020F9281779F080FB92F99093DA02609176
:1013C000D9027091DA0284E090E00E949B2082E0D2
:1013D0000E94D102089580912F01811559F18091C9
:1013E000D90287FF27C00E94E8028093AD0140E246
:1013F00050E069E372E08CEA91E00E94B120892B11
:10140000C1F080E2ECEAF1E0A9E3B2E001900D92D4
:101410008A95E1F7E0915902F0915A02309749F02C
:1014200086E08093AC010480F581E02D8CEA91E0A8
:10143000099508950E94E8028093A40148E050E0D5
:101440006BE572E084EA91E00E94B120892B89F378
:1014500088E0E4EAF1E0ABE5B2E001900D928A9514
:10146000E1F7E0915902F0915A02309711F30280AE
:10147000F381E02D84EA91E0DBCF811539F0909182
:10148000D502982B9093D5020E94EB0908958115FF
:1014900039F09091DB02982B9093DB020E94EB09CC
:1014A0000895811521F00E940F030E94EB09089511
:1014B000811541F080959091DB0289238093DB02B6
:1014C0000E94EB090895CF93C82F811509F463C0DA
:1014D0008CEF8C0F813A08F060C080912F01811150
:1014E00027C0E6EAF1E08081C817C9F1319681E0B2
:1014F000EC3AF807C1F780912F01811136C0A6EAB6
:10150000B1E0EFEF80E09C91C91709F442C0119659
:10151000EF3F19F4911101C0E82F8F5F863099F7E2
:10152000EF3FB9F1FE2FFF0FFF0BEC55FE4F30C020
:101530008091D90287FFD5CFEC2FE695E695E69509
:10154000F0E0E455FE4F828190E04C2F477021E09F
:1015500001C0220F4A95EAF78223892B31F08C2FA4
:101560000E9483060E94EB09C6CF8091D90287FFB3
:10157000C6CFEC2FE695E695E695F0E0E455FE4FF4
:10158000C77081E001C0880FCA95EAF7C281C82BF5
:10159000C2830E94EB09CF91089580E28C0F8830BE
:1015A00060F4C77081E001C0880FCA95EAF7C09166
:1015B000D502C82BC093D502ECCF83E38C0F8331C7
:1015C00050F761E08C2F0E94DE06E5CFCF93DF93CA
:1015D000EC01805E9109089720F067E47AE020979B
:1015E00011F46DE37AE0CE010E9403028C2F0E9479
:1015F000630ADF91CF910895CF93DF93EC018A8145
:10160000823041F4FB01828193810E94E60A8D8140
:1016100082608D83DF91CF910895FB01808191815C
:101620000E94E60A08958115F9F09CEF980F913A0F
:1016300028F40E9483060E94EB09089590E2980F17
:10164000983058F4982F81E091FD84E090FD880F48
:1016500092FD82950E940F03EECF93E3980F933192
:1016600018F460E00E94DE060895CF93DF93EC014A
:101670000E94130BCE01805E9109089720F068E567
:101680007AE0209711F461E57AE0CE010E9403022E
:10169000DF91CF910895FC018281813031F4FB010B
:1016A000808191810E94350B08958230E9F7FB011A
:1016B00082819381F7CF1092D50280912F018115FD
:1016C000F9F08091D90287FF1BC0EEEAF1E08EE1CC
:1016D000DF011D928A95E9F71092DB020E94EB0967
:1016E00086E0EBECF2E0DF011D928A95E9F71092BB
:1016F000C9021092C8021092CA020E94B706089549
:10170000E6EAF1E086E0E4CF0E945B0B2FEF84E392
:101710009CE0215080409040E1F700C0000088E14B
:101720009AE00FB6F894A895809360000FBE90934E
:101730006000FFCFAAE2B0E0E0EAFBE00C940920F1
:1017400080ED91E0FC0101962091F100208321E0E1
:10175000883D9207B9F78091D101893009F456C0CC
:10176000C8F4823009F4B3C0833009F482C08130F8
:1017700071F18091E80083FFE7C08091D0019091E2
:10178000D1019A3008F0E0C0E92FF0E0E452FF4DBB
:101790000C9445208A3009F489C08B3051F7809130
:1017A000D001813231F78091D4019091D501892BFC
:1017B00001F78091E800877F8093E8000E9471081C
:1017C0008091D20180932F010E945B0BD2CF809138
:1017D000D001813A71F68091E800877F8093E8001C
:1017E0008091D4019091D501892B61F060E080E077
:1017F00090E070E00E94E7078091E8008B7780938B
:10180000E800B7CF68E088ED91E0F3CF8091D00198
:10181000813209F0AECF8091D4019091D501029729
:1018200008F0A7CF8091E800877F8093E80080913F
:10183000E80082FF19C02091F3008091F200922FFE
:10184000029731F48091F100813011F0863021F45B
:101850008091F1008093E0018091E8008B77809384
:10186000E8000E94710885CF8091E4018111DFCFEB
:1018700080CF8091D001813A09F07BCF8091D40153
:101880009091D501892B09F074CF8091E800877F72
:101890008093E8008091E80080FFFCCF80912F01C9
:1018A0008093F1008091E8008E77D9CF8091D001AC
:1018B000813209F05ECF8091E800877F8093E80055
:1018C0000E9471088091D3018093CC0152CF809106
:1018D000D001813A09F04DCF8091E800877F809355
:1018E000E8008091E80080FFFCCF8091CC01D8CF48
:1018F000803889F0823841F58091D4018F7087302B
:1019000018F58093E9008091EB0085FB882780F92A
:101910001092E90006C08091E301880F9091CD01FB
:10192000892B9091E800977F9093E8008093F100D5
:101930001092F1008091E8008E7723C0811116C0CB
:101940008091D201813011F18091E80083FF0AC0BB
:101950008091E800877F8093E8008091EB008062AF
:101960008093EB00AA96E3E00C942520823061F787
:101970008091D201811581F01092E9008091E800F8
:10198000877F8093E8000E947108DECF933009F0D2
:1019900080E08093E301F0CF8091D4018F702FEF2E
:1019A000280F263088F68093E9002091EB0020FF75
:1019B000E3CF933031F48091EB0080628093EB00B1
:1019C000DBCF9091EB0090619093EB0021E030E051
:1019D000A90101C0440F8A95EAF74093EA001092EA
:1019E000EA008091EB008860E9CF8111ADCF1091C2
:1019F000D2011F778091E3008078812B8093E300F0
:101A00008091E800877F8093E8000E9471088091B0
:101A1000E80080FFFCCF8091E30080688093E300C2
:101A200083E0111101C082E08093E4018DCF8058E2
:101A3000823008F089CF2091D2013091D3012C3D22
:101A400053E0350791F583E08A838AE289834FB7B3
:101A5000F894DE01139620E03EE051E2E32FF0E03F
:101A600050935700849120FF03C082958F703F5F91
:101A70008F708A30C0F0895C8D931D922F5F243166
:101A800069F74FBF8091E800877F8093E8006AE2A2
:101A900070E0CE0101960E94E7078091E8008B7705
:101AA0008093E80051CF805DE7CF832F90E08330B3
:101AB000910519F160F48130910509F46CC0823010
:101AC000910509F041CF8BE3E8ECF1E029C02091CA
:101AD000D4013091D5018132910509F453C082328D
:101AE000910509F031CF2130310508F45CC009F0CF
:101AF0002BCF84E8E0E0F1E013C0822F90E02130AA
:101B000099F182309105B9F1009709F01DCFE3E416
:101B1000F2E0E4918E2FE3E4F2E0009709F414CFB1
:101B20002091E800277F2093E8002091D601309192
:101B3000D7018217930708F49C0140E02115310575
:101B4000B1F5411134C08091E80082FDA6CF8091AB
:101B5000E401811509F4A1CF853009F49ECF80916D
:101B6000E80083FFF0CF99CFE5E3F2E0E4918E2F18
:101B7000E5E3F2E0D2CFE5E1F2E0E4918E2FE5E19A
:101B8000F2E0CBCF2130310550F009F0DDCE89E015
:101B9000E3EFF1E0C5CF82E1E3E0F2E0C1CF89E01D
:101BA000EAEDF1E0BDCF84E4E4E8F1E0B9CF809163
:101BB000E401811509F471CF853009F46ECF80916D
:101BC000E80083FD6ACF8091E80082FDBCCF809160
:101BD000E80080FFB3CF4091F3008091F200942F92
:101BE0002115310519F08830910550F041E0089732
:101BF00009F040E08091E8008E778093E8009ECF66
:101C000044914093F1003196215031090196E8CF7B
:101C1000803809F099CE8091E800877F8093E800B2
:101C20008091CE018093F10085CE81118DCE1091EF
:101C3000D201123008F088CE8091E800877F80932F
:101C4000E8001093CE010E947108111581F084E024
:101C50008093E40142E061EC81E00E94410842E2AD
:101C600061EC82E00E9441088091E4016DCE809198
:101C7000E30087FDECCF81E0EBCFCF93DF93EC0166
:101C80004A855B856E857F850E946D069B81909558
:101C90008091DB0289238093DB028C810E940F03F9
:101CA0000E94EB0986E0FE0111928A95E9F7DF9127
:101CB000CF910895CF93DF93EC018D8181FD17C003
:101CC00082608D838091DB029B81892B8093DB0274
:101CD0008091D5029C81892B8093D5020E94EB09CB
:101CE000488559856E857F85CE010E946D061092CC
:101CF000D1021092D2028D8180FD03C0CE010E94DC
:101D00003D0EDF91CF910895A0E0B0E0EAE8FEE05B
:101D10000C9404207C01FC018481811509F4F8C035
:101D200061E0C7010E943705EC01F701858181154B
:101D3000F1F08091D1029091D2020097C1F0C817C2
:101D4000D907A9F0E0E3F1E0811511F0E0E0F0E05F
:101D5000858184608583C083D183CF010E945A0E20
:101D60001092DB0261E0C7010E943705EC019D2F54
:101D70009755D9F50C2F10E0C111C6C0F701858128
:101D80009091350180FB90F990933501811509F40C
:101D90009AC00E94AB068093D3029093D4028091A4
:101DA00032018F5F809332018091DB029091D502E6
:101DB000892B809333018091D60280933401409126
:101DC00036015091370160913E0170913F0180E3EF
:101DD00091E00E946D068091350181FD02C000E016
:101DE00017E50093D1021093D202F7018581811586
:101DF000A9F0CA35FCE7DF0709F4B5C008F08DC0CB
:101E0000C1303CE7D30709F4ACC0C3308CE7D80736
:101E100009F4A1C0C115DC4709F490C0F70187811E
:101E20009085009709F4AFC00E942804D82FC92FCD
:101E3000F701C580068102950F708091D8028770E6
:101E400001F1DC2CC114F1F0892F807F803461F026
:101E500080E28D0F8830A8F0892F807E803221F4B7
:101E6000D23078F0011569F08091DA0282FF09C062
:101E700082E00E94D1028091D8028770DD24D39441
:101E80008111D12C8C2F82958F70883009F464C118
:101E900008F0AFC0843008F08DC01C2F1F70823056
:101EA00008F4B8C0C07FC03211F01295107FD13055
:101EB00008F4E6C009F42DC1C11409F437C10115B5
:101EC00009F4FCC0BCC040913C0150913D016091BF
:101ED0003E0170913F0180E391E00E946D06809188
:101EE000350181FF82CF80E391E00E943D0E809119
:101EF000D1029091D2028115974509F076CF1092C8
:101F0000D1021092D20271CF8091D802877079F5F8
:101F1000CDB7DEB7E8E00C942020CB35ECE7DE0748
:101F200021F18091DA02002482FF0394802DCC35C8
:101F3000DC4709F073CF0E94D40970CF0E945B0B7D
:101F40002FEF34E38CE0215030408040E1F700C0B7
:101F500000000E94D2076FEF7FEF80E090E00E94C8
:101F60009B200E94840B81E0E6CF80E0E4CFF70164
:101F70008581811569F28091DA0282FFC9CF82E002
:101F80000E94D102C5CF858100811181811569F040
:101F9000C8010E940505C82F682FC8010E94400291
:101FA000B8018C2F0E9417033FCFC8010E94760210
:101FB000C82FF6CF853009F4CAC0D114A9F080919A
:101FC000D80280FD11C0F701158286958695869509
:101FD0000E942602C7010E94840E8091D802869535
:101FE000869586950E94310260E0C7010E94370500
:101FF0008FCF893009F420C18A5F8F708230E8F674
:10200000D23F09F02AC18C2F8F71C11023C10E94C9
:102010002602CFC0C03110F01295107FC114B9F064
:10202000111569F080E28D0F883010F0D11109C0D0
:102030008091D502812B8093D5020E94EB098D2FD0
:102040002FC08091DB02812B8093DB02F6CF8D2F96
:102050000E94130B111509F4B0CF80E28D0F883068
:1020600010F0D11104C0812F0E940F0306C01095FB
:102070008091DB0281238093DB020E94EB099DCFDC
:102080008091DA0282FD16C0C11469F0111539F091
:102090008091D502812B8093D5020E94EB0980E0CC
:1020A0000E94630A8ACF80E00E94130B111509F485
:1020B00084CFD9CFC11499F0013020F4812F0E9430
:1020C0003D0A7BCF09F079CF8091D602912F9823DA
:1020D000191709F472CF812B8093D6026ECF0111AC
:1020E0006CCF812F0E94510A9091D602812F8923B3
:1020F00029F0812F809589238093D6028091D70281
:10210000912F982309F459CF109518231093D702D3
:1021100054CFC11421F0063008F04FCFCFCF053097
:1021200008F04BCF812F0E94510A47CF0115D1F300
:10213000D93349F4FFEF27EE33E0F150204030402F
:10214000E1F700C000008D2F0E94130B36CF6C2DDD
:102150008D2F0E94DE0631CF8C2F8370A9F5C11020
:1021600028C08D2F829586958770880F880F4D2FF8
:102170004F70082E01C0440F0A94EAF72D2F2071EA
:10218000D4FF06C02FE001C0220F8A95EAF7209500
:10219000C695C695C370C23091F0822F842BC33090
:1021A00031F080915303C13039F0242B82230E94F7
:1021B00020020E94720601CF842B822BF8CF242BA1
:1021C000809153038227F3CFC11459F1C0FFF1CF9F
:1021D0008D2F829586958770880F880F4D2F4F70B1
:1021E000082E01C0440F0A94EAF72D2F2071D4FF66
:1021F00006C02FE001C0220F8A95EAF72095C69508
:10220000C695C370C23099F0822F842BC33031F051
:1022100080915403C13041F0242B82230E94230279
:10222000C8CF823030F2D4CF842B822BF7CF242B2F
:10223000809154038227F2CFCF70C11439F08C2FD4
:102240000E9426028D2F0E943D0AB3CF8D2F0E943F
:10225000510A8C2F0E943102ACCF70F4D03FC9F0EC
:10226000D13F91F0C11409F44DC0011509F447C0E4
:102270008D2F0E94630A9DCFD33FF1F0D43F91F799
:102280009091DA0292FD23C08C2F8F71C11411F34B
:10229000BECEC11479F0053008F08BCFCF7181E04C
:1022A00090E0FC0101C0EE0FCA95EAF7809154035B
:1022B0008E27B4CF0630F0CF80E0C11409F4AECF42
:1022C000CF7181E001C0880FCA95EAF7A7CFC1148A
:1022D00061F08C2F8F7192FF9ACE982F990F990FE2
:1022E000990F93609093D80292CE81E00E94D10220
:1022F000023008F45ECF82E00E94D1025ACF8C2FC8
:102300008F7185CE011579F0D93349F4FFEF27EEAF
:1023100033E0F15020403040E1F700C000008D2F45
:102320000E94130B46CF8C2F8F7194CF8091B302F4
:10233000803170F48091B202811551F0E091640215
:10234000209163023091AE024091AD022E1301C084
:102350000895BF0189E0E89FF0011124DF01AB5926
:10236000BD4F14968C911497811561F111968C9143
:102370001197831327C08C91841324C015968C91D8
:10238000159781111FC012968D919D91A091AF025A
:10239000B091B0028A1B9B0B883C910598F4809108
:1023A000B3028F7080618093B302E559FD4F808145
:1023B0008F70806180838DEA92E00E94840E0E947B
:1023C000C7020895FB013196E770C0CFAFE0B0E0DF
:1023D000ECEEF1E10C94FF1F8C0186E0F801DE01C8
:1023E0001A9601900D928A95E1F7F801F580C48064
:1023F0008DEA882E82E0982E7090B102711020C074
:10240000C114D9F0F11409F449C1C8010E94720540
:10241000811509F443C189E0F801D40101900D92BE
:102420008A95E1F7F1E0CF1206C08091AD0290915C
:10243000AE020E945E050E949611FF24F3945DC0D7
:10244000E080A280B380D090B2028091AF029091E0
:10245000B0029501281B390BD11409F4E8C0283CBF
:10246000310508F0B4C0C11441F39091AE02C180AF
:102470008091B302803108F061C0C9121DC09091F3
:10248000AD029E1119C04091B4025091B50227814E
:1024900030854217530781F4F1104AC08F70806174
:1024A0008093B3028DEA92E00E94840E8091B30281
:1024B000F8018683F12C21C0F1103AC040E06C2D68
:1024C0008E2D0E94A90240E06C2D8E2D0E94A90243
:1024D000F82E8111EFCF8A859B850E945E05292FFA
:1024E00022952F70903470F49F702230A0F09115D7
:1024F000B1F0F8019681903190F48F2D2F96EDE098
:102500000C941B202A5F2F70223068F0C8010E94B3
:10251000840EFD2CF2CF911511F0811571F3805EC0
:10252000883058F3F3CF803F40F3815F8330F9CF99
:102530008091B30281608093B302BCCFC9121CC0EA
:102540009091AD029E1118C04091B4025091B50215
:10255000278130854217530779F4F1100DC0868327
:10256000C8010E94840E89E0F801ADEAB2E0019052
:102570000D928A95E1F761CFC8010E94720581151D
:1025800009F48CC0F11409F489C08091B30280323F
:10259000A8F02091AD023091AE0229833A83AB823C
:1025A000BC827D821E828F838091B4029091B5029D
:1025B00088879987CE0101960E94840E89E0F801F0
:1025C000ADEAB2E001900D928A95E1F734CF8091A7
:1025D000B302803150F48DEA92E00E94840E89E0CB
:1025E000F40111928A95E9F765CFC11409F425CF5A
:1025F0002091AE0291812913BFCF9091AD029E111F
:10260000BBCF4091B4025091B5022781308542176B
:10261000530709F0B1CFF110AFCF8683C8010E94F4
:10262000840E89E0F40111928A95E9F706CF283CDF
:102630003105A8F6C11409F400CFF11479F1909195
:10264000AE028181981320C08091AD028E111CC012
:102650002091B4023091B5028781908528173907FF
:1026600099F49091B30290FD7ECF903108F47BCF26
:10267000892F9683907F903F09F472CF982F907F97
:10268000905F8F70892B6BCFC8010E9472058111FA
:1026900095CF8091B30281608093B302C8010E94FC
:1026A000840ECBCEA2E1B0E0E8E5F3E10C94082083
:1026B0000A871B872C873D874E875F87688B798BBE
:1026C0008A8BCE010A960E94E611811128C02091C2
:1026D00063023091640289E0FE013A96DE011196B0
:1026E00001900D928A95E1F78E858115C1F0822FB8
:1026F00090E08395877090E038171906D1F099E043
:10270000929FD0011124AB59BD4FFE01319601902B
:102710000D929A95E1F7809363020E94C70280911F
:10272000640290916302891312C06296E4E00C94F3
:1027300024200E945B0B109263021092640289E0D5
:10274000EDEAF2E0DF011D928A95E9F7E8CFB9E002
:102750008B9FC00111248B599D4F0E94E61181155A
:1027600021F3209164022F5F3F4FC901877080934E
:102770006402D5CFEF92FF920F931F93CF93DF9315
:1027800080915003E091E101CDE0811131C0CDB7DE
:10279000DEB7E6E00C942220D1E0DE0FD093E10119
:1027A000EE2EF12CCE9FF0011124E851FD4F8481D3
:1027B0008115E9F087819085892B21F481859285A7
:1027C000019659F400811181228133814481558120
:1027D0006681778180850E945213CE9DF001CF9D46
:1027E000F00D1124E851FD4F14821092DB02ED2F01
:1027F00080915003E81780F2109250031092E1018B
:10280000C6CF4F925F927F928F929F92AF92BF926C
:10281000CF92DF92EF92FF920F931F93CF93DF93AC
:10282000C091E70201E010E08091E6028C1314C031
:102830000E94BA130E94BF05DF91CF911F910F91A3
:10284000FF90EF90DF90CF90BF90AF909F908F90D0
:102850007F905F904F900895D0E0FE01EE0FFF1F34
:10286000E452FD4F80819181A0E0B0E08C30910571
:1028700040F427E0289FD001299FB00D1124A05CCF
:10288000BE4F14962C911497211152C07090500392
:1028900068EE72E040E050E0A12C471508F046C019
:1028A000FB0143845484CD90DD90129799249A942F
:1028B000892CB12C2B2D30E0F601EB0DF11DEB0D29
:1028C000F11DE590F5904E145F0409F09401EF2896
:1028D00019F0B3944901EECF2F3F320771F1F8019F
:1028E00001C0EE0F2A95EAF7AE2A980102C0220F26
:1028F000331FBA94E2F721503109A2161306D9F416
:1029000012962D913D916DE0649FF001659FF00D51
:102910001124E851FD4F2783308724E0248310825F
:1029200011828187928761E011966C930E94D00595
:10293000C395C37079CFFB0114824F5F5F4F635F14
:102940007F4FABCF1092510310925203109294011B
:102950008091E6028093E7020E94BF050E94BA13AD
:102960000895AEE1B0E0E7EBF4E10C94FA1F4B8B75
:102970005C8B6D8B7E8B8F8B592E988F9111109263
:10298000DB02188A198A1A8A86E0FE017396DE0134
:102990001A9601900D928A95E1F74F88411489F0BB
:1029A0004E865F8661E0CE010A960E9437055C0183
:1029B00080352CE7920791F4511419F181E080934E
:1029C00094014E865F860A851B852C853D85A20174
:1029D000688979898A890E945213C2C081353CE78F
:1029E000930729F4511469F00E94A214EACF8235AA
:1029F0009C4739F4511429F0809194018111F4CF4E
:102A0000DDCF50E4E52E51E0F52E312C812C912CB8
:102A100034016394D7012D913D916FEF80E09FEFDA
:102A2000C82ED12CF901E80FF11DE80FF11D4591D9
:102A30005591A416B50611F0C62ED92E452B21F0BE
:102A40008F5F6C2D9D2DECCF10E0BFEFCB16DC041B
:102A500009F445C0F701448110919401411110E03F
:102A6000D70115962D909C911697511409F401C128
:102A7000111509F4FEC0211015C021E00C2C01C075
:102A8000220F0A94EAF7922B16969C932091E40267
:102A90003091E5022233310528F422E32093E40249
:102AA0001092E502F30102C0EE0FFF1F8A95E2F7D4
:102AB000CF010197D70116962C912817190679F4A2
:102AC0008091510390915203009709F44DC00E94E8
:102AD000C307C39708F448C081E0F7018483312A13
:102AE000BFEF8B1A9B0AE7E0EE0EF11CFCE08F169D
:102AF000910409F08FCF511409F417C1311409F46E
:102B000014C10E94AB0680935103909352038091AD
:102B10005003883028F591E0980F9093500399E086
:102B2000FE013A96DE01119601900D929A95E1F719
:102B30004D825E822DE0829FC001112488519D4FFD
:102B400029E0FE013196DC0101900D922A95E1F712
:102B50002FEF3FEFDC0119962D933D93AD92BD927F
:102B60006E96E2E10C9416209091E7028091E602C5
:102B7000292FA0E0B0E037E061E0981709F44FC0DA
:102B8000492F50E0998F1A8EFA01EE0FFF1FE45281
:102B9000FD4F40815181A0E0B0E04C30510538F448
:102BA000349FD001359FB00D1124A05CBE4F4D91D4
:102BB0005D9112974D8F5E8F212C70E000E0ED8DBE
:102BC000FE8DE00FF11DE00FF11DC590D590C114F1
:102BD000D104E1F0F7010190F081E02DEB8FFC8F43
:102BE00070E007C0E1E0C416D50609F0E0E02E2A47
:102BF0007F5FEB8DFC8DE70FF11DE70FF11D459118
:102C000055914115510571F70F5FD9CF211471F11D
:102C10007017C0F4E1E0D7011496EC931497209359
:102C2000E702AE15BF0509F45ACF90E0FC01EE0FA4
:102C3000FF1FE452FD4F8082918201968370809342
:102C4000E6024DCF109761F014966C931497AE1571
:102C5000BF0529F3921304C0A9014395242F2370C3
:102C6000498D5A8D4395942F937087CFA0E0B0E0A3
:102C7000F7CF292F30E0211020C0B30102C0660F2A
:102C8000771F8A95E2F7CB0101978217930779F0B6
:102C900010E0F30102C0EE0FFF1FCA94E2F76F01CC
:102CA000C094D70116968C918C218C9318CF411526
:102CB00081F3C4010E94D005EBCFA9010C2C02C006
:102CC000559547950A94E2F7C9010197822393230A
:102CD000892B41F540FF26C0D70112968D919D9119
:102CE000892BD9F0FE01319687E0DF011D928A958C
:102CF000E9F70E94AB069C018B839C8384E08D8363
:102D0000F70192818381792F9887898709811A81B8
:102D100044E05E816F810E945213D70115961C9288
:102D2000122DB7CF142F1170B4CF9091E70280917C
:102D3000E602981729F00E940114311011CF41CEFC
:102D40000E94BA1310925103109252030E94BF05C1
:102D5000F4CFA6E0B0E0EFEAF6E10C9408200E9480
:102D6000AB068C0180913702909138028017910751
:102D700079F019821A820E94AB06BC0149815A81FE
:102D800080E090E00E94B114009337021093380263
:102D90002696E4E00C942420AEE0B0E0E2EDF6E10B
:102DA0000C940520FE01319688E0DF011D928A9582
:102DB000E9F787E9E82E81E0F82E8F01ED871E877D
:102DC000F70181917F018F3F09F43FC0F894E82F0C
:102DD000E295EF70F0E021A18F7041E001C0440F57
:102DE0008A95EAF7842F922F942B91A392A1809534
:102DF000892382A3789400C0EBE9F1E031E0D12C83
:102E000021912F3F79F0A22FA295AF70A05EB0E084
:102E10008C9190E02F7002C0959587952A95E2F7E6
:102E200080FF82C080E0D82A330F81EA91E08E17BC
:102E30009F0731F7F70182918F3F11F00E94A7059C
:102E400090EA9A95F1F7D801DC920F5F1F4FBBE92A
:102E5000EB16B1E0FB0609F0B3CF48E050E06D851A
:102E60007E8589E292E00E94B120009749F028E037
:102E7000ED85FE85A9E2B2E001900D922A95E1F779
:102E80000091280210E0005E1D4F892B09F44EC00E
:102E900081E080931F020E94AB0680931D029093F5
:102EA0001E0280913102811509F497C07E01E9E08C
:102EB000EE0EF11C84E0D7011D928A95E9F780910E
:102EC00018028A3008F054C047E958E1B701C80138
:102ED0000E943809811509F46EC041E359E1B70138
:102EE000C8010E943809811509F465C041E458E120
:102EF000B701C8010E943809811509F45CC010921D
:102F0000180280911C0290E044E050E0B701805E1E
:102F10009D4F0E94B12021E020931B02892BE9F5EF
:102F20002E96E7E00C942120832F7DCF80911F0205
:102F3000811509F4B6CF80911D0290911E020E9466
:102F4000C307059708F4ADCF44E050E069E272E0B2
:102F5000C8010E94B120892B41F084E0E9E2F2E04F
:102F6000D80101900D928A95E1F710921F0299CF36
:102F70008091190290911A020E94C307843F9140E8
:102F800008F0A2CF80911B02811551F284E0F70175
:102F900011928A95E9F710921B02E0911C02F0E071
:102FA000E05EFD4F89859A85AB85BC8580839183E2
:102FB000A283B383B5CF809118028F3F39F40E946A
:102FC000AB068093190290931A02DCCF8F5F809337
:102FD00018028A3008F495CFF2CFE0901C02F12C51
:102FE000A701405E5D4F7A01F80180819181A28145
:102FF000B3818093000290930102A0930202B093E8
:10300000030280E092E00E9401068093FF0180911C
:10301000040290910502A0910602B0910702F70107
:1030200080839183A283B383E0900802F090090229
:1030300000910A0210910B028091140290911502E6
:10304000A0911602B0911702E816F9060A071B07AD
:1030500009F466CFE0921402F09215020093160272
:10306000109317020E94A107E61AF70A080B190B22
:10307000E0923302F092340200933502109336024C
:103080004FCFA4E0B0E0E7E4F8E10C9409204091D0
:10309000F3015091F4016091F5017091F6012FB7A1
:1030A000F8948091FB019091FC01A091FD01B091F9
:1030B000FE012FBF841B950BA60BB70B11E08436C6
:1030C0009105A105B10570F10E94AD07DC01CB01AE
:1030D0000296A11DB11D89839A83AB83BC83809125
:1030E00028019091290181509E4F20912701422F64
:1030F00050E0253008F044E0BE016F5F7F4F0E9432
:10310000BE2083E090E00E94781F182F811551F0B7
:103110000E94A1076093F3017093F4018093F5017D
:103120009093F601812F2496E3E00C942520A7E0EC
:10313000B0E0EDE9F8E10C9409206E837F8380E034
:1031400090E00E94781F182F811509F469C08091C2
:103150001201482F50E0811141E0609113017091FC
:10316000140161507E4FCE0105960E94BE20409111
:1031700010025091110260911202709113022FB748
:10318000F8948091FB019091FC01A091FD01B09118
:10319000FE012FBF841B950BA60BB70B8436910540
:1031A000A105B10538F480E092E00E9401069D81FE
:1031B0008917B1F181E090E00E94781F8115F1F14B
:1031C00080911A01482F50E0853008F044E060916A
:1031D0001B0170911C0161507E4FCE0101960E942F
:1031E000BE2080E092E00E9401069D81891326C0E6
:1031F0000E94A10760931002709311028093120243
:103200009093130289819A81AB81BC8180930C02D7
:1032100090930D02A0930E02B0930F0281E00FC0B5
:103220008091000290910102A0910202B0910302EC
:1032300089839A83AB83BC831111E4CF80E04091F2
:103240000C0250910D0260910E0270910F02EE81FE
:10325000FF8140835183628373832796E3E00C945C
:103260002520A2E0B0E0E7E3F9E10C94082089838F
:103270009A8344E050E064E072E00E94B120009143
:10328000F7011091F8012091F9013091FA01EFB79F
:10329000F8944091FB015091FC016091FD01709107
:1032A000FE01EFBF401B510B620B730B44365105FF
:1032B0006105710510F4892B09F18091200190912D
:1032C000210181509E4F20911F01422F50E0253057
:1032D00008F044E069817A810E94BE2082E090E09B
:1032E0000E94781F811559F00E94A1076093F70191
:1032F0007093F8018093F9019093FA0181E022968E
:10330000E4E00C942420CDB7DEB72C970FB6F894E8
:10331000DEBF0FBECDBF85B7806885BF85B780682B
:1033200085BF84B7877F84BF0FB6F894A895809136
:103330006000886180936000109260000FBE80E89A
:1033400090E00FB6F89480936100909361000FBEF7
:1033500085EA95E08093A2019093A3010E941A0947
:103360000E94C1088091E20084608093E20078941A
:103370008091E401811599F08091E9001091EC00B1
:103380008F7010FB112717F9182B1092E90080910C
:10339000E80083FD0E949A0B1F701093E90082E001
:1033A00084BD93E095BD9AEF97BD80936E00109217
:1033B000330210923402109235021092360288ECD9
:1033C00090E02091E30027FD0EC0AFE3BCE9119728
:1033D000F1F700C000000197A1F70E941A091092AE
:1033E000E40180E001C081E08093310280933202E9
:1033F0008093040181110E94861E809104018091B6
:10340000040191E08927880F880F8093280294E0B7
:10341000981B90931C0207E911E02BE9E22E21E0B2
:10342000F22EF80181918F018F3F11F00E94A705C4
:10343000E016F106B1F70BE911E091EAE92E91E00F
:10344000F92ED8018D918D018F3F11F00E94A705B3
:10345000E016F106B1F788E0E0E2F2E0DF01282FA4
:103460001D922A95E9F7E9E2F2E0DF011D928A95C3
:10347000E9F780E090E00E946720853E9E4F09F4C6
:103480005EC065EE7EEF80E090E00E949B2060E0F1
:1034900082E090E00E947D2081E08093530361E010
:1034A00083E090E00E947D2060E074E184E090E0A1
:1034B0000E949B2060E086E090E00E947D2060E01A
:1034C00087E090E00E947D2060E070E0AB0188E042
:1034D00090E00E948F2060E083E290E00E947D20D7
:1034E00060E08CE090E00E947D2060E08DE090E064
:1034F0000E947D2019821A821B821C821D821E82DC
:103500001F82188648E050E067E170E0CE01019626
:103510000E946D2060E070E0AB018FE190E00E94BE
:103520008F2060E070E0AB018FE090E00E948F2080
:1035300060E070E0AB0183E190E00E948F2082E0C8
:1035400090E00E945F208093E50184E090E00E947B
:1035500067208093D9029093DA020E94CC16EFEF95
:10356000F6E721E0E150F0402040E1F700C0000024
:103570000E94CC16E091320281E0E827EE0FEE0FB8
:10358000F0E0E05EFD4F808181FF08C06FEF7FEFCC
:1035900080E090E00E949B200E94D20783E090E0B0
:1035A0000E945F200E94200280913102811102C09E
:1035B0000E94891E85E091E08093590290935A02FF
:1035C000CE0101968B879C878091E401853069F458
:1035D00000E110E482E1F82E8091E401853009F4E5
:1035E00051C00E945B0B0E9472060E94CC1606EE30
:1035F00011E0E0E2F2E0E987FA87D8019D9180814D
:103600002EEE31E02A173B0709F471C03196981766
:10361000A9F3A0903102F12CA985BA85ED90A98774
:10362000BA87F801B1908F01BE1429F1BE24CC24D1
:10363000C394D12C8B2D8C21B9F0A114A9F0D9827F
:10364000FA820E94AB068B839C83F1E0FD8391E0BC
:103650008E2D8C2109F490E09E8349815A816B81E3
:103660007C818D810E94B114D394CC0C26E0D212BF
:10367000E1CFF801E292F39438E0F312CDCF0E944B
:10368000AD0739C08091E401843019F11092E20154
:1036900088E190E00FB6F894A895809360000FBE83
:1036A0001093600083B7817F846083BF83B781609C
:1036B00083BF7894889583B78E7F83BF0FB6F894C5
:1036C000A8958091600088618093600010926000EE
:1036D0000FBE0E94CC16E0E2F2E08081811138C179
:1036E0003196A8E2B2E0AE17BF07B9F775CF9813CD
:1036F00090CF0E94A91680913102811509F440C033
:103700000091D1021091D20201151105A9F080910A
:10371000D3029091D4020E94C307893C910560F0C6
:1037200080E391E0011511F080E090E0DC01159656
:103730002C9122FF0E945A0E80919401811501F173
:1037400080915103909152030097D1F00E94C307DA
:103750002091E4023091E5022817390788F490910E
:10376000E7028091E602981709F4DFC00E94011475
:103770001092E4021092E50210925103109252034B
:1037800086E0EBECF2E0AB85BC8501900D928A956A
:10379000E1F7D090CC02F090CD021091CE02E090F3
:1037A000CF020091D0021092CD021092CE02109260
:1037B000CF021092D002812F8F2909F43FC080914F
:1037C000F0019091F1010E94C3079C019091C90200
:1037D000911509F4B8C02531310580F19F3F19F0EA
:1037E0009F5F9093C902F11459F00E94280691E05E
:1037F0001F140CF09FEF899F802D11248093CD0220
:10380000111559F00E94280691E011160CF09FEF57
:10381000899F802D11248093CE028091CD02811545
:1038200069F0C090CE02C11449F00E941A0680933C
:10383000CD028C2D0E941A068093CE02802F8E29F5
:1038400009F43FC08091EE019091EF010E94C307FF
:103850009C019091C802911509F470C02135310581
:1038600080F19F3F19F09F5F9093C802E11459F0D7
:103870000E94480691E01E140CF09FEF899F802D56
:1038800011248093CF02011559F00E94480691E05F
:1038900010160CF09FEF899F802D11248093D00289
:1038A0008091CF02811569F0E090D002E11449F0D7
:1038B0000E941A068093CF028E2D0E941A068093D2
:1038C000D0028091CC02D81219C08091CD0281150E
:1038D00011F08F1113C02091CE02211511F0121397
:1038E0000DC09091D002911511F0091307C03091CD
:1038F000CF02311103C0822B892B11F00E94B70631
:1039000086E0EB85FC85ABECB2E001900D928A95E8
:10391000E1F70E9472069091F201891709F454CEE2
:103920008093F2010E94A1074FCE0E94BA13109219
:103930005103109252030E94BF0522CF2B30310554
:1039400008F091CFBECF2B30310508F049CF76CFAC
:103950008091E301811509F43FCE09BDF9BC09B49A
:1039600000FEFDCF8091D8008F7D8093D80080919C
:10397000E00082608093E0008091E00081FDFCCF58
:103980000E945B0B29CE1F921FB61F9211248F93AA
:103990009F93AF93BF938091E201811113C08091F7
:1039A000FB019091FC01A091FD01B091FE014196B7
:1039B000A11DB11D8093FB019093FC01A093FD011B
:1039C000B093FE01BF91AF919F918F911F901FBE49
:1039D0001F90189578941F921FB61F9211248F93F1
:1039E0009F93AF93BF938091FB019091FC01A091B5
:1039F000FD01B091FE010196A11DB11D8093FB0157
:103A00009093FC01A093FD01B093FE01BF91AF9193
:103A10009F918F911F901FBE1F9018951F920F921C
:103A20000FB60F9211242F933F934F935F936F9391
:103A30007F938F939F93AF93BF93EF93FF93809167
:103A4000E10082FF09C08091E20082FF05C0809101
:103A5000E1008B7F8093E1008091DA0080FF24C039
:103A60008091D80080FF20C08091DA008E7F809303
:103A7000DA008091D90080FF9BC080E189BD82E19E
:103A800089BD09B400FEFDCF81E08093E4018091FF
:103A9000CF01811109C00E941A090E94C1088091BA
:103AA000E20084608093E2008091E10080FF17C013
:103AB0008091E20080FF13C08091E2008E7F8093AE
:103AC000E2008091E20080618093E2008091D80062
:103AD00080628093D80019BC85E08093E4018091D6
:103AE000E10084FF29C08091E20084FF25C080E1CD
:103AF00089BD82E189BD09B400FEFDCF8091D80067
:103B00008F7D8093D8008091E1008F7E8093E100CB
:103B10008091E2008F7E8093E2008091E2008160DC
:103B20008093E2008091CE01811509F447C084E0C2
:103B30008093E4018091E4018091E10083FF27C03C
:103B40008091E20083FF23C08091E100877F809312
:103B5000E10082E08093E4011092CE018091E100C7
:103B60008E7F8093E1008091E2008E7F8093E2005F
:103B70008091E20080618093E20042E060E080E0BA
:103B80000E9441088091F00088608093F000FF91CE
:103B9000EF91BF91AF919F918F917F916F915F91C5
:103BA0004F913F912F910F900FBE0F901F9018953E
:103BB00019BC1092E4011092CF0176CF8091E300FE
:103BC00087FF02C083E0B4CF81E0B2CF1F920F9293
:103BD0000FB60F921124EF92FF920F931F932F9322
:103BE0003F934F935F936F937F938F939F93AF9385
:103BF000BF93CF93EF93FF9309EE10E0F80180811C
:103C0000C091EC008F70C0FBCC27C7F9C82B108285
:103C1000E0EF8081877F808378940E949A0BF8017F
:103C20001082E0EF808188608083CF70E9EEC083EE
:103C3000FF91EF91CF91BF91AF919F918F917F9124
:103C40006F915F914F913F912F911F910F91FF9035
:103C5000EF900F900FBE0F901F9018958EE14A9B2A
:103C600002C08150E1F74A9BFECF08955A9880E246
:103C70008A95F1F75A9A0895FC012BE02A95F1F7FD
:103C800028E080E090E031E040E14A95F1F7880FCC
:103C90004A9B02C08160932742E04A95F1F70000F9
:103CA00040E14A95F1F7215079F720E12A95F1F7A3
:103CB00029B132E03A95F1F7000040E14A95F1F779
:103CC00031E022FD93272081920F90830895A1E097
:103CD000B0E0EDE6FEE10C94062019828C017C0137
:103CE000E60EF11C0E942E1ECE0101960E943C1E83
:103CF000F80181938F01EE15FF05A1F781E099810D
:103D0000911180E02196E6E00C942220529A5A9A72
:103D1000089552985A9AEA9AE9E6F0E080818F7CF9
:103D2000808308956150770B91E001C0990F6A95E7
:103D3000EAF7692F90E021E0611108C0911591F038
:103D40005A9A80E28A95F1F75A980895362F3823C7
:103D500039F05A9A922730E23A95F1F76695ECCF0E
:103D60005A98F9CF5A98EDCFA3E0B0E0EAEBFEE124
:103D70000C9408208A839B830A811B81060F111DE6
:103D8000EA81FB818191EA83FB8389830E94361E4D
:103D900068E089810E94921EEA81FB81E017F107A9
:103DA00079F72396E4E00C9424201F920F920FB62B
:103DB0000F9211240F931F932F933F934F935F9371
:103DC0006F937F938F939F93AF93BF93EF93FF93E3
:103DD000CF93DF930F92CDB7DEB719820E942E1ECC
:103DE000CE0101960E943C1E082F06950695069569
:103DF000282F22952570902F9570920F292F2370D0
:103E000096959695920F982797708981892B09F03E
:103E100059C0053008F056C080E18A95F1F75A9AEA
:103E2000529A82E08A95F1F700C05A9888E0089F7C
:103E300080011124D801A15FBE4F1696ED91FD912E
:103E40001897309791F060919501709196011496B2
:103E50002D913D91260F371F15978D919D91680FDC
:103E6000791F4C9113978C910995F801E15FFE4FF2
:103E70006381611551F02091950130919601848103
:103E80009581820F931F0E94B41E0E94361E80E10E
:103E90008A95F1F75A9852985A9A80E18A95F1F7E3
:103EA000F801E15FFE4F6081611551F020919501AD
:103EB0003091960181819281820F931F0E94671E2B
:103EC0000E942E1E0F90DF91CF91FF91EF91BF9135
:103ED000AF919F918F917F916F915F914F913F91A2
:103EE0002F911F910F910F900FBE0F901F9018955B
:103EF000A4E0B0E0EEE7FFE10C940A2089839A8306
:103F0000853091050CF06FC0F894529A5A9845E0AC
:103F10004A95F1F70000982F9695957089818570E4
:103F2000980F892F8370292F26952695E981FA818C
:103F300093E0EE0FFF1F9A95E1F7EB83FC83280FC8
:103F4000E22BF32BE983FA830E94361E00C068E05F
:103F500089810E94921EF0E1FA95F1F752985A9ADF
:103F60004A9B3AC087E090E04A9938C0EB81FC81D7
:103F7000E15FFE4F6381611561F020919501309101
:103F8000960184819581820F931F0E94671E81157F
:103F900039F10E942E1E40E24A95F1F75A98529A42
:103FA00050E15A95F1F78B819C81815F9E4F898307
:103FB0009A83FC016081611551F020919501309147
:103FC000960181819281820F931F0E94B41E0E94EC
:103FD000361E789481E008C000C0C2CF019741F43A
:103FE000529A5A9A789480E02496E2E00C94262023
:103FF00000C0BACF2F923F924F925F926F927F9202
:104000008F929F92AF92BF92CF92DF92EF92FF92E8
:104010000F931F93CF93DF93CDB7DEB7CA1BDB0B94
:104020000FB6F894DEBF0FBECDBF09942A88398839
:1040300048885F846E847D848C849B84AA84B98440
:10404000C884DF80EE80FD800C811B81AA81B9814C
:10405000CE0FD11D0FB6F894DEBF0FBECDBFED0160
:10406000089597FB072E16F4009407D077FD09D02A
:104070000E944B2007FC05D03EF4909581959F4F00
:104080000895709561957F4F0895EE0FFF1F05907D
:10409000F491E02D0994AA1BBB1B51E107C0AA1F94
:1040A000BB1FA617B70710F0A61BB70B881F991FD9
:1040B0005A95A9F780959095BC01CD010895F9997D
:1040C000FECF92BD81BDF89A992780B50895A8E1E9
:1040D000B0E042E050E00C94A320DC01A40FB51F37
:1040E0004150504048F0CB01840F951F2E910E9403
:1040F0007E2041505040D0F70895262FF999FECFE9
:1041000092BD81BDF89A019700B4021639F01FBA2A
:1041100020BD0FB6F894FA9AF99A0FBE0895039647
:10412000272F0E947E200E947D20252F0E947E2026
:10413000242F0C947E200196272F0E947E200C9421
:104140007D20DC01CB01FC01F999FECF06C0F2BD58
:10415000E1BDF89A319600B40D9241505040B8F745
:104160000895FB01DC0104C08D910190801921F4B8
:1041700041505040C8F7881B990B0895FB01DC01A2
:1041800002C001900D9241505040D8F70895F89424
:10419000FFCFEA06F206F506FB0610071007100728
:1041A00010071007100710071007FE060307070780
:1041B0000D071D0723072707780C9E0CA40C9E0CE7
:0C41C000A40CF50C170DA40C080E150E35
:1041CC003300290001E307B209C609CD09E607004F
:1041DC0000000100000000000000040100000004C9
:1041EC0005000000000000040900000000000001B0
:1041FC00000000000000FC0A0D0B4B0B000000013E
:10420C00F8000052000000F0000352000000EA0029
:10421C00A852000000E400A252000000DE00A152EF
:10422C00000000D600AA52000000CE00A3520000ED
:10423C0000C800B852000000C200B252000000BC1E
:10424C0000B152000000B400BA52000000AC00B340
:10425C005200000001FF01946697C6F4F5F6F731A1
:02426C0033001D
:00000001FF
