:100000000C94C2010C94DF010C94DF010C947E1D52
:100010000C94DF010C94DF010C94DF010C94DF01E0
:100020000C94DF010C94DF010C94B71B0C948F1C13
:100030000C946C1B0C94DF010C94DF010C94DF0119
:100040000C94DF010C94DF010C94DF010C94DF01B0
:100050000C94DF010C94931B0C94DF010C94DF01D2
:100060000C94DF010C94DF010C94DF010C94DF0190
:100070000C94DF010C94DF010C94DF010C94DF0180
:100080000C94DF010C94DF010C94DF010C94DF0170
:100090000C94DF010C94DF010C94DF010C94DF0160
:1000A0000C94DF010C94DF010C94DF010D000E00B5
:1000B0000F000000100036003700000005010902A3
:1000C000A10185020901A1000509190129081500EE
:1000D0002501950875018102050109300931158155
:1000E000257F95027508810609381581257F9501C0
:1000F00075088106050C0A38021581257F95017562
:10010000088106C0C005010906A101850605071979
:10011000E029E715002501950875018102050719F9
:100120000029EF1500250195F075018102050819D8
:10013000012905950575019102950175039101C08D
:1001400005010906A101050719E029E715002501A8
:10015000950875018102950175088101050719004F
:1001600029FF150026FF009506750881000508196E
:100170000129051500250195057501910295017567
:10018000039101C009023B00020100A0FA0904002A
:1001900000010301010009211101000122440007AF
:1001A00005810308000109040100010300000009A2
:1001B00021110100012284000705820320000112A1
:1001C0000100020000000853460100010001020086
:1001D000011E0343006F0072006E00650020004B9B
:1001E000006500790062006F006100720064000029
:1001F000000C03430052004B004200440000000486
:10020000030904290014001A000800150017002B28
:100210000004001600070009000A00E1001D001B91
:1002200000060019000500000000000000E000E3E7
:100230000028002A00130012000C0018001C0034D3
:100240000000570F000E000D000B00310038003782
:1002500000360010001100000000000000225221B2
:10026000522C001E001F002000210022002300014C
:1002700000010001002F003000800001000100019A
:1002800000010001008100000000000000010001E9
:100290000001002E002D0027002600250024003537
:1002A0000001004F005200510050004C00010001BD
:1002B00000010001004600000000000000010001F4
:1002C0000001003A003B003C003D003E003F0001C1
:1002D0000001000100010001000100010001000116
:1002E0000001000100010000000000000001000109
:1002F000000100450044004300420041004000016D
:10030000000100D000CD00CE00CF000100010001AF
:1003100000D200D100010000000000000001000137
:100320000001000100290014001A00080015000156
:1003300000E10004001600070009000100E0001DB4
:10034000001B000600190000000000000028002229
:10035000522C000100010001000100010001000118
:100360000001000100010001000100010001000185
:100370000001000100010000000000000001000178
:100380000001000011241FBECFEFDAE0DEBFCDBFB9
:1003900011E0A0E0B1E0EEE1FFE302C005900D92B4
:1003A000AA35B107D9F723E0AAE5B1E001C01D9253
:1003B000AA30B207E1F70E942C180C94701F0C941D
:1003C00000009C01FB0191509F31B0F4832F81709C
:1003D00034FF0AC08295807F31FD806232FD8064E7
:1003E00033FD80680995089531FD826032FD846097
:1003F00033FFF8CF8860F6CF80E0F4CF8093080316
:10040000089580930903089521E001C0220F8A9581
:10041000EAF780910903822B0E940102089521E0EE
:1004200030E0A90101C0440F8A95EAF7842F809536
:100430009091090389230E9401020895292F983081
:1004400090F5863080F590E036E0239F800D911D79
:10045000112451E081FD54E080FD550F82FD52953D
:1004600023E0969587952A95E1F7FC01EE0FFF1F93
:10047000E80FF91FE259FD4F20E030E070E04191B4
:10048000DF01CB01022E02C0969587950A94E2F710
:100490008695880B8427852384278E932F5F3F4F73
:1004A0002330310561F70895292F983070F5863093
:1004B00060F590E036E0239F800D911D1124682F98
:1004C000677023E0969587952A95E1F7FC01EE0F7A
:1004D000FF1FE80FF91FE259FD4F40E050E080E0B8
:1004E000219130E0062E02C0369527950A94E2F756
:1004F0002170042E01C0220F0A94EAF7822B4F5F6D
:100500005F4F4330510561F7089580E00895E09111
:100510001C0290911B02E91302C080E008959F0124
:1005200059E0E59FF0011124E35EFD4F5181561320
:1005300006C05081581303C05581541304C0F901FB
:100540003196E770E8CF81E0089580911C022091F8
:100550001B02281301C0089501968770FACF972FC8
:100560007830B8F46630A8F48430B0F470E026E057
:10057000929F600D711D1124FB0190E3899FE00D96
:10058000F11D1124EE0FFF1FED5FFD4F8591959139
:10059000089580E090E0089581E0FCCF803E9105D1
:1005A000D1F1C8F48133910509F481C048F489324E
:1005B000910509F471C08A32910509F47FC008954C
:1005C00089339105E1F082389105C9F085339105B1
:1005D00009F45DC00895843E9105D1F148F4823E4E
:1005E000910531F1833E910541F181EE90E008954E
:1005F000863E9105C1F1873E9105F1F10895209164
:100600008002237009F064C02091810223FF14C08E
:1006100089E290E008952091800220FD45C030914C
:10062000810230FF09C024FD24C083EE90E00895CC
:100630002091800222FDF7CF08952091800222FDB3
:1006400044C03091810230FD43C024FFF5CF11C07A
:100650002091810221FFF0CF8091800284FD09C0AA
:1006600087EE90E008952091800223FFE5CF24FFDC
:10067000F7CF80E090E008952091800223FD2BC009
:100680003091810231FFE1CF84EE90E00895209116
:10069000800225FFD1CFBCCF2091800225FD1EC056
:1006A0002091810223FFC8CF89E390E00895209133
:1006B000800226FFC1CF8AE290E008952091800257
:1006C00026FFBACF81E390E0089582EE90E008958E
:1006D00080EE90E0089586EE90E0089585E390E046
:1006E00008959091800292FF10C041E0282F24715C
:1006F000243009F040E031E0282F2871283009F03B
:1007000030E0431711F02CE0822793FF10C041E046
:10071000282F2471243109F040E031E0282F28717E
:10072000283109F030E0431711F02CE08227309196
:10073000810230FF10C051E0282F2171213009F0D3
:1007400050E041E0282F2871283009F040E054178C
:1007500011F029E0822731FF10C041E0282F2171DC
:10076000213109F040E031E0282F2871283109F0CB
:1007700030E0431711F029E0822794FD877E089529
:100780000F931F93CF93DF930E94CE02EC0192351B
:1007900008F03FC0903508F0ADC0883E9105E0F408
:1007A000803E910558F4853A910570F4049730F431
:1007B00081E0219709F080E0C82FD0E0CE01DF91E1
:1007C000CF911F910F9108958D5C9109D06543974A
:1007D000A8F3C0E0D0E0F2CFD03490F4D03208F0EB
:1007E0009EC0CE0191509F31A0F78D2F0E947103C2
:1007F000082F8C2F90E00E94CE02EC01D02BDECF90
:100800008C2F90E00E94CE02DF70C82FD92BD06AC7
:10081000D5CF803842E59407C8F5803652E5950774
:1008200008F053C0C03482E5D807D0F48C2FC03212
:1008300092E5D90708F044C08695869520E2829F0C
:10084000C0011124C37021E030E0A90102C0440FAF
:10085000551FCA95E2F7EA01C82BD92BDD68AECF48
:100860008C2F86958695877050E2859FC001112454
:10087000C37021E030E0A90102C0440F551FCA95A2
:10088000E2F7EA01C82BD92BDC6898CF803C52E50F
:10089000950760F4C03A82E5D80708F49ACF8C2F08
:1008A0008F710E947103C0E0D82F88CF805C924581
:1008B000809708F08ECFDC2FDF71C0EFD06A7ECF3B
:1008C0008F71D82FC1EFD06A79CF869586958770C2
:1008D00020E2829FC0011124C37021E030E0A90111
:1008E00002C0440F551FCA95E2F7EA01C82BD92B65
:1008F000DA6864CF8F710E94710393E0CC0FDD1F23
:100900009A95E1F7DF70282F30E084FF04C050E1B2
:10091000859F90011124C22FD32BD0694FCF8D2FEB
:100920008F710E947103082F8C2F90E00E94CE02DD
:10093000EC01D02BD06242CFA4E0B0E0E2EAF4E0D8
:100940000C94B01E89839A83009109038091080357
:10095000082B87E08B831C8210E0C8010B8002C04B
:10096000959587950A94E2F780FD0DC08B819C8157
:1009700001978B839C83019681F7F12C8F2D249610
:10098000E5E00C94CC1EFB8069817A818F2D0E945A
:10099000AF020E94C003019749F3F0CF0F931F935A
:1009A000CF93FC012781308521153105A1F4858184
:1009B000008111818115A1F0611591F0C8010E949B
:1009C0009C04C82F682FC8010E941E02B8018C2FFA
:1009D0000E94AF029C01C901CF911F910F91089510
:1009E000C8010E945402C82FF1CFA2E0B0E0EBEFA3
:1009F000F4E00C94B31E89839A830E949C0469815D
:100A00007A810E94AF020E94C0032296E2E00C9419
:100A1000CF1EFC018481811511F18781908500979B
:100A2000A1F00E94C003282F92959F709630C1F0CC
:100A300088F4925F9F70923030F4203FD9F060F4D8
:100A400081E0283E60F080E00895808191810E94DD
:100A5000F504E9CF9A5FEECF81E0243FA1F7089536
:100A600091E0813F09F090E081E0283E08F080E0CD
:100A7000892B089581E0089580E00895F894E82F87
:100A8000E295EF70F0E041A18F7021E030E0B90114
:100A900001C0660F8A95EAF7862F962F90959423CA
:100AA00091A392A1892B82A3789408951092990220
:100AB00010929A0280914401811104C01092430166
:100AC0001092450180914B01811104C010924A019E
:100AD00010924C010895AC0180919C0260919B02A0
:100AE000982F691301C00895292F30E0F901EE0F06
:100AF000FF1FEF56FD4F0190F081E02DE417F50741
:100B0000B9F4E0E0F0E04230510540F467E0649F62
:100B1000F001659FF00D1124E15CFE4F41E044833C
:100B20009813E1CF2F5F3F4F237020939C020895CD
:100B30002395922F9370D5CFFC01AC014C5F5F4F92
:100B40008FEF61E39191892728E030E0982F990F8A
:100B500087FF09C0892F862721503040B9F7E41755
:100B6000F50781F70895892FF7CF282F35EB230359
:100B7000C001112497FF04C080589109892F08955E
:100B800080589F4FFBCF8091840280FD14C081FD6F
:100B900014C082FD16C080918302811581F08E31D0
:100BA00080F420E5829FC00111246EE170E00E9474
:100BB000DA1E862F089584E1089588E2089588E07A
:100BC000089580E508958091840280FD17C081FD1D
:100BD00017C082FD19C080918202811599F0883278
:100BE00098F428E0829FC001112468E270E00E941E
:100BF000DA1E6115710551F0862F089562E0FCCF71
:100C000064E0FACF61E0F8CF68E0F6CF81E00895C4
:100C1000FA01309709F0099508958091E90181154D
:100C200061F0E0911102F0911202309729F00190E9
:100C3000F081E02D0995089580E0089590912F01AD
:100C4000911521F09091800297FD0CC0EEE5F1E046
:100C50009191891302C0DF011E9291E0E436F907F9
:100C6000B9F70895E82FE695E695E695803FC8F731
:100C7000F0E0EC59FE4F9DEF81FD97EF80FF9595D9
:100C800082FD929582818923828308952FB7F894FB
:100C90008091B3019091B401A091B501B091B601DA
:100CA0002FBF08950E9446069C0190918702809173
:100CB0008802982B21F02093A8013093A9019091EC
:100CC000890280918A02982B21F02093A60130930B
:100CD000A701E0911102F0911202309749F082E0F1
:100CE000809385020680F781E02D85E892E00995E2
:100CF0000895611509F44AC0E3E3E80FE33150F4C5
:100D0000F0E0EE58F04E0C94EE1E0E94C305819563
:100D1000809388020E94520608950E94C305F8CF6E
:100D20000E94C305819580938702F4CF0E94C3057A
:100D3000FACF0E94E30580938902ECCF0E94E3057D
:100D40008195F9CF0E94E305819580938A02E2CFD5
:100D50000E94E305FACF815D990B21E001C0220FCB
:100D60008A95EAF780918602822B80938602D2CF01
:100D700080918402816080938402CCCF8091840230
:100D80008260F9CF809184028460F5CF4091870220
:100D90008D3C59F48091880287FF0DC01092880223
:100DA000411559F41092830208C08E3C81F4809161
:100DB000880218169CF3411581F080918902909168
:100DC0008A02892B09F0A6CF10928202A3CF8F3C12
:100DD00041F447FFF0CF109287028091880281157D
:100DE000E0CF803D19F41416B4F3E5CF9091890259
:100DF000893D29F41916FCF610928902DCCF8A3D50
:100E000019F497FFD8CFF8CF90918A028B3D29F43F
:100E100097FFD1CF10928A02CECF8C3D19F41916CC
:100E2000CCF3C9CF9FE2980F983088F4815D990B7D
:100E300021E030E0B90101C0660F8A95EAF7862FFC
:100E4000809590918602892380938602B4CF8D3D50
:100E500031F4809184028E7F80938402ACCF8E3DEA
:100E600021F4809184028D7FF7CF8F3D09F0A3CFCD
:100E7000809184028B7FF0CF2FB7F8946091B301FB
:100E80007091B4018091B5019091B6012FBF089582
:100E90008091E901811519F00E943C0708950E9494
:100EA0003C072091EB013091EC014091ED01509114
:100EB000EE01620F731F841F951F08959C014FB7A9
:100EC000F8948091B3019091B401A091B501B091D3
:100ED000B6014FBF821B930B089587E797E7809376
:100EE00000089093010888E19AE00FB6F894A8955D
:100EF000809360000FBE90936000FFCF80919801B7
:100F000008950895FC0180918E0190918F018617BC
:100F1000970748F06115710529F48091E8008E77F4
:100F20008093E800CB0140E0009741F4411106C0F6
:100F30008091E80082FF30C080E0089520919C01FC
:100F40002115B1F12530B1F12091E80023FD2EC02B
:100F50002091E80022FDECCF2091E80020FFE4CFB3
:100F60004091F3002091F200342F009719F02830BF
:100F7000310558F041E02830310509F040E020917A
:100F8000E8002E772093E800CFCF41914093F10005
:100F900001972F5F3F4FE9CF80919C01811541F070
:100FA000853041F08091E80083FFC2CF81E0089551
:100FB00082E0089583E00895982F9093E9008917BF
:100FC00071F07091EC002091ED005091F00021FD46
:100FD00009C09F5F973089F78093E9000895762FC5
:100FE000242F50E03091EB003E7F3093EB003091A6
:100FF000ED003D7F3093ED003091EB003160309398
:10100000EB007093EC002093ED005093F0002091E2
:10101000EE0027FDDECF08958091880187FF13C081
:101020008091E80082FF06C08091E8008B77809372
:10103000E800089580919C018111F2CF089580917C
:101040009C018115D9F38091E80080FFF8CF809151
:10105000E8008E77ECCF2091E4003091E50095E632
:10106000A9012091EC00822F817020FF06C08091A1
:10107000E80080FF06C080E008952091E80022FD8E
:101080001AC080919C01811589F0853089F080918A
:10109000EB0085FD0FC02091E4003091E500421780
:1010A0005307F9F29150E1F684E0089582E0089543
:1010B00083E0089581E00895A0E0B0E0E2E6F8E082
:1010C0000C94AD1EC8EDD0E088818F7E8883E7ED5B
:1010D000F0E080818160808384E082BF81E0809342
:1010E000870188818E7F888302EE10E0E2EE108215
:1010F0001092DA006801CA94E1EE108288818F773D
:10110000888388818068888388818F7D888319BCE3
:1011100010929C011092860110929B011092850101
:101120007601EA94E0EE80818B7F80838881816004
:10113000888342E060E080E00E94DC07F601808165
:101140008E7F8083E2EE80818160808380818860F1
:101150008083E0EE80818E7F8083888180618883B8
:10116000CDB7DEB7E8E00C94C91EE8EDF0E0808171
:101170008E7F80831092E2001092DA001092E100DC
:10118000A0EEB0E08C9181608C9380818F7780831A
:1011900019BCA7ED8C918E7F8C9380818F7E80838C
:1011A000109287010895A8E0B0E0E9EDF8E00C9412
:1011B000B11E89839A836B837C834D835E83809188
:1011C000D0010AE010E08A3010F001E010E021E0E8
:1011D0002F8318866B817C8189819A81ED81FE81C4
:1011E000099581111BC02F8138852F5F3F4F2F83B9
:1011F00038870217130794F0C901889F9001899FCF
:10120000300D300D112480E090E045E34A95F1F770
:101210000000019682179307C1F7DCCF2896E4E01F
:101220000C94CD1E0F931F93CF93DF93EB018A0194
:1012300090919C01943061F58093E9008FEF90913B
:10124000E80095FD06C095ED9A95F1F700008150F4
:10125000B1F78091E80085FF1BC00E942B08811127
:1012600012C08091E80085FD06C08091E8008E776D
:101270008093E800F2CF88818093F1000150104004
:1012800011F02196EECF8091E8008E778093E800F0
:10129000DF91CF911F910F910895CF93DF93EC01D0
:1012A00048E050E0BC0181E00E94120988E0FE01A4
:1012B000A0E9B1E001900D928A95E1F7DF91CF911D
:1012C000089540E250E0BC0182E00E9412090895B6
:1012D00046E050E0BC0182E00E941209089580912E
:1012E000900290918F02892B90912F01911549F1D5
:1012F0009091800297FF25C08093650140E250E005
:1013000061EF71E084E691E00E945A1F892BC1F0E1
:1013100080E2E4E6F1E0A1EFB1E001900D928A9560
:10132000E1F7E0911102F0911202309749F086E066
:10133000809364010480F581E02D84E691E00995B5
:10134000089580935C0148E050E063E172E08CE531
:1013500091E00E945A1F892B99F388E0ECE5F1E0B7
:10136000A3E1B2E001900D928A95E1F7E0911102BC
:10137000F0911202309721F30280F381E02D8CE589
:1013800091E0DDCF811539F090918F02982B9093E9
:101390008F020E946F090895811539F09091900293
:1013A000982B909390020E946F090895811541F047
:1013B000809590918F02892380938F020E946F09FC
:1013C0000895811541F08095909190028923809332
:1013D00090020E946F090895CF93C82F811509F4D8
:1013E00063C08CEF8C0F813A08F060C080912F01B0
:1013F000811127C0EEE5F1E08081C817C9F131966F
:1014000081E0E436F807C1F780912F01811136C0E1
:10141000AEE5B1E0EFEF80E09C91C91709F442C05E
:101420001196EF3F19F4911101C0E82F8F5F8630BC
:1014300099F7EF3FB9F1FE2FFF0FFF0BE45AFE4F74
:1014400030C08091800287FFD5CFEC2FE695E695DE
:10145000E695F0E0EC59FE4F828190E04C2F47700A
:1014600021E001C0220F4A95EAF78223892B31F04F
:101470008C2F0E941E060E946F09C6CF80918002A9
:1014800087FFC6CFEC2FE695E695E695F0E0EC59A0
:10149000FE4FC77081E001C0880FCA95EAF7C2818C
:1014A000C82BC2830E946F09CF91089580E28C0FF0
:1014B000883060F4C77081E001C0880FCA95EAF7F0
:1014C000C0918F02C82BC0938F02ECCF83E38C0FA7
:1014D000833150F761E08C2F0E947906E5CFCF93DE
:1014E000DF93EC01805E9109089720F06CEC79E0C5
:1014F000209711F462EC79E0CE010E94E1018C2F7B
:101500000E94EC09DF91CF910895CF93DF93EC0116
:101510008A81823041F4FB01828193810E946F0AAB
:101520008C8182608C83DF91CF910895FB01808153
:1015300091810E946F0A0895811509F19CEF980F1F
:10154000913A28F40E941E060E946F09089590E2C5
:10155000980F983068F49DEF81FD97EF80FF959587
:1015600082FD929580918F02892380938F02ECCF28
:1015700093E3980F933118F460E00E947906089580
:10158000CF93DF93EC010E949C0ACE01805E91090B
:10159000089720F061EE79E0209711F466ED79E08C
:1015A000CE010E94E101DF91CF910895FC0182817B
:1015B000813031F4FB01808191810E94C00A08953D
:1015C0008230E9F7FB0182819381F7CF10928F027D
:1015D00080912F018115F9F08091800287FF1BC057
:1015E000E6E6F1E08EE1DF011D928A95E9F71092BF
:1015F00090020E946F0986E0E5E8F2E0DF011D92AB
:101600008A95E9F710928302109282021092840266
:101610000E9452060895EEE5F1E086E0E4CF0E94D4
:10162000E60A2FEF84E39CE0215080409040E1F7F0
:1016300000C0000088E19AE00FB6F894A895809366
:1016400060000FBE90936000FFCFAAE2B0E0EBE233
:10165000FBE00C94B21E88E891E0FC010196209119
:10166000F100208321E080399207B9F78091890148
:10167000893009F456C0C8F4823009F4B3C083300D
:1016800009F482C0813071F18091E80083FFE7C0E6
:1016900080918801909189019A3008F0E0C0E92F8B
:1016A000F0E0EB57F04E0C94EE1E8A3009F489C03E
:1016B0008B3051F780918801813231F780918C0114
:1016C00090918D01892B01F78091E800877F8093AD
:1016D000E8000E940C0880918A0180932F010E94EB
:1016E000E60AD2CF80918801813A71F68091E800B4
:1016F000877F8093E80080918C0190918D01892BE8
:1017000061F060E080E090E070E00E9482078091EC
:10171000E8008B778093E800B7CF68E080E991E03C
:10172000F3CF80918801813209F0AECF80918C0196
:1017300090918D01029708F0A7CF8091E800877FF4
:101740008093E8008091E80082FF19C02091F300A7
:101750008091F200922F029731F48091F100813054
:1017600011F0863021F48091F100809398018091EE
:10177000E8008B778093E8000E940C0885CF809169
:101780009C018111DFCF80CF80918801813A09F0DF
:101790007BCF80918C0190918D01892B09F074CFC2
:1017A0008091E800877F8093E8008091E80080FFC7
:1017B000FCCF80912F018093F1008091E8008E771B
:1017C000D9CF80918801813209F05ECF8091E80005
:1017D000877F8093E8000E940C0880918B018093A2
:1017E000840152CF80918801813A09F04DCF8091D8
:1017F000E800877F8093E8008091E80080FFFCCFBD
:1018000080918401D8CF803889F0823841F5809169
:101810008C018F70873018F58093E9008091EB0080
:1018200085FB882780F91092E90006C080919B0112
:10183000880F90918501892B9091E800977F909374
:10184000E8008093F1001092F1008091E8008E771B
:1018500023C0811116C080918A01813011F18091DD
:10186000E80083FF0AC08091E800877F8093E8004A
:101870008091EB0080628093EB00AA96E3E00C94E9
:10188000CE1E823061F780918A01811581F010921D
:10189000E9008091E800877F8093E8000E940C08AF
:1018A000DECF933009F080E080939B01F0CF8091F0
:1018B0008C018F702FEF280F263088F68093E90077
:1018C0002091EB0020FFE3CF933031F48091EB00C7
:1018D00080628093EB00DBCF9091EB00906190935E
:1018E000EB0021E030E0A90101C0440F8A95EAF73E
:1018F0004093EA001092EA008091EB008860E9CF03
:101900008111ADCF10918A011F778091E30080781B
:10191000812B8093E3008091E800877F8093E8002B
:101920000E940C088091E80080FFFCCF8091E300CA
:1019300080688093E30083E0111101C082E080930E
:101940009C018DCF8058823008F089CF20918A0188
:1019500030918B012C3D53E0350791F583E08A836C
:101960008AE289834FB7F894DE01139620E03EE0C7
:1019700051E2E32FF0E050935700849120FF03C021
:1019800082958F703F5F8F708A30C0F0895C8D9335
:101990001D922F5F243169F74FBF8091E800877F48
:1019A0008093E8006AE270E0CE0101960E9482070F
:1019B0008091E8008B778093E80051CF805DE7CF7E
:1019C000832F90E08330910519F160F48130910507
:1019D00009F46CC08230910509F041CF8BE3E4E853
:1019E000F1E029C020918C0130918D018132910567
:1019F00009F453C08232910509F031CF213031050D
:101A000008F45CC009F02BCF84E8ECEBF0E013C0E5
:101A1000822F90E0213099F182309105B9F1009741
:101A200009F01DCFEFEFF1E0E4918E2FEFEFF1E041
:101A3000009709F414CF2091E800277F2093E80055
:101A400020918E0130918F018217930708F49C0139
:101A500040E021153105B1F5411134C08091E80015
:101A600082FDA6CF80919C01811509F4A1CF85301C
:101A700009F49ECF8091E80083FFF0CF99CFE1EF8A
:101A8000F1E0E4918E2FE1EFF1E0D2CFE1EDF1E072
:101A9000E4918E2FE1EDF1E0CBCF2130310550F014
:101AA00009F0DDCE89E0EFEAF1E0C5CF82E1EFEBAE
:101AB000F1E0C1CF89E0E6E9F1E0BDCF84E4E0E404
:101AC000F1E0B9CF80919C01811509F471CF853087
:101AD00009F46ECF8091E80083FD6ACF8091E80021
:101AE00082FDBCCF8091E80080FFB3CF4091F3002E
:101AF0008091F200942F2115310519F0883091055D
:101B000050F041E0089709F040E08091E8008E77BE
:101B10008093E8009ECF44914093F100319621508C
:101B200031090196E8CF803809F099CE8091E8001C
:101B3000877F8093E800809186018093F10085CEB5
:101B400081118DCE10918A01123008F088CE8091DB
:101B5000E800877F8093E800109386010E940C08BC
:101B6000111581F084E080939C0142E061EC81E0FA
:101B70000E94DC0742E261EC82E00E94DC07809177
:101B80009C016DCE8091E30087FDECCF81E0EBCF2F
:101B9000CF93DF93EC0149855A856D857E850E9440
:101BA00008069B81909580919002892380939002F2
:101BB0000E946F0985E0FE0111928A95E9F7DF9195
:101BC000CF910895CF93DF93EC018C8181FD11C0FB
:101BD00082608C83809190029B81892B80939002FC
:101BE0000E946F094F8158856D857E85CE010E94C8
:101BF000080610928B0210928C028C8180FD03C02B
:101C0000CE010E94C80DDF91CF910895EF92FF920F
:101C10000F931F93CF93DF938C01FC018481811577
:101C200009F4F2C061E0C8010E94CE04EC01F801A1
:101C300085818115F1F080918B0290918C02009743
:101C4000C1F0C817D907A9F0E0E3F1E0811511F060
:101C5000E0E0F0E0848184608483C083D183CF019D
:101C60000E94E20D1092900261E0C8010E94CE0431
:101C7000EC019D2F9755C1F5EC2EF12CC111C4C07C
:101C8000F80185819091340180FB90F990933401A3
:101C9000811509F446C00E94460680938D029093F8
:101CA0008E02809132018F5F809332018091900289
:101CB00090918F02892B809333014091350150918F
:101CC000360160913D0170913E0180E391E00E94F8
:101CD00008068091340181FD03C0E12C87E5F82ED0
:101CE000E0928B02F0928C02F8019581911509F433
:101CF00040C0C130FCE7DF07D1F1C3302CE7D20789
:101D000081F1C115DC47A9F50E94E60A9FEFE4E3E3
:101D1000FCE09150E040F040E1F700C000000E947C
:101D20006D0740913B0150913C0160913D017091E4
:101D30003E0180E391E00E9408068091340181FF1A
:101D4000D3CF80E391E00E94C80D80918B029091E7
:101D50008C028115974541F610928B0210928C02ED
:101D6000C3CF6FEF7FEF80E090E00E94441F0E949E
:101D70000F0BF801278130852115310541F1C9018B
:101D80000E94C003C82FF8016581892F82958F704A
:101D9000883009F4A9C0268122952F708930C8F5B2
:101DA000843058F5823008F443C0892F8F70907FBB
:101DB000903211F08295807FC13009F07AC06115B0
:101DC00009F471C02630E0F40E94C20919C0E08015
:101DD000F180911569F0C7010E949C04C82F682FFB
:101DE000C7010E941E02B7018C2F0E94AF02C8CF0C
:101DF000C7010E945402C82FF6CF853009F470C085
:101E000060E0C8010E94CE04CDB7DEB7E6E00C94D6
:101E1000CB1E09F4D9C08A5F8F70823088F7C23F29
:101E200009F0E4C0892F8F71611509F40EC1DBC080
:101E3000D92FDF70903110F0D295D07F6115C9F0A5
:101E4000D11569F080E28C0F883010F0C1110BC001
:101E500080918F028D2B80938F020E946F098C2FAF
:101E60000E94EC09CDCF809190028D2B809390023F
:101E7000F4CF8C2F0E949C0AD11511F2D09580E2EC
:101E80008C0F883010F0C11108C080918F028D2313
:101E900080938F020E946F09B3CF809190028D23AF
:101EA00080939002F7CF253008F0AACF0E94D60980
:101EB000A7CF611521F0211509F486CFD0CF2115C8
:101EC000A9F3C93349F4FFEF27EE83E0F150204036
:101ED0008040E1F700C000008C2F0E949C0A90CF48
:101EE0008C2F0E9479068CCF892F8370A9F5611100
:101EF00028C08C2F829586958770880F880F4C2F6D
:101F00004F70082E01C0440F0A94EAF72C2F20715D
:101F1000C4FF06C02FE001C0220F8A95EAF7209582
:101F2000969596959370923091F0822F842B9330F2
:101F300031F080910803913039F0242B82230E94E4
:101F4000FE010E940D065CCF842B822BF8CF242B40
:101F5000809108038227F3CF611559F190FFF1CFEB
:101F60008C2F829586958770880F880F4C2F4F7025
:101F7000082E01C0440F0A94EAF72C2F2071C4FFE9
:101F800006C02FE001C0220F8A95EAF720959695AA
:101F900096959370923099F0822F842B933031F084
:101FA00080910903913041F0242B82230E94010289
:101FB000C8CF8230A8F6C5CF842B822BF7CF242B35
:101FC000809109038227F2CFD92FDF70611539F094
:101FD0008D2F0E9404028C2F0E94C209B2CF8C2F39
:101FE0000E94D6098D2F0E940F02ABCF60F4C03F34
:101FF000B1F0C13F31F1611571F1211549F18C2F1B
:102000000E94EC099ECFC33FB1F780E0611571F2E9
:102010009F7181E001C0880F9A95EAF7C7CF6115DB
:1020200071F0253008F08DCF292F2F7181E001C08C
:10203000880F2A95EAF7909109038927B7CF2630B0
:10204000F1CF892F8F71611571F20E94040279CF4F
:10205000892F8F71FACF211579F0C93349F49FEF99
:10206000E7EEF3E09150E040F040E1F700C00000FF
:102070008C2F0E949C0A65CF892F8F71B4CF8091DD
:102080006B02803170F480916A02811551F0E09109
:102090001C0220911B0230916602409165022E13B2
:1020A00001C00895BF0189E0E89FF0011124DF011C
:1020B000A35EBD4F14968C911497811561F1119612
:1020C0008C911197831327C08C91841324C015968B
:1020D0008C91159781111FC012968D919D91A091A1
:1020E0006702B09168028A1B9B0B883C910598F4AB
:1020F00080916B028F70806180936B02ED5DFD4F6C
:1021000080818F708061808385E692E00E94060E58
:102110000E94A5020895FB013196E770C0CFAFE0A1
:10212000B0E0E5E9F0E10C94A81E8C0186E0F8012E
:10213000DE011A9601900D928A95E1F7F801F5807B
:10214000C48085E6882E82E0982E70906902711016
:1021500020C0C114D9F0F11409F449C1C8010E948A
:102160000905811509F443C189E0F801D401019002
:102170000D928A95E1F7F1E0CF1206C080916502D9
:10218000909166020E94F5040E943F10FF24F39490
:102190005DC0E080A280B380D0906A028091670227
:1021A000909168029501281B390BD11409F4E8C0FD
:1021B000283C310508F0B4C0C11441F39091660287
:1021C000C18080916B02803108F061C0C9121DC0CE
:1021D000909165029E1119C040916C0250916D0260
:1021E000278130854217530781F4F1104AC08F7060
:1021F000806180936B0285E692E00E94060E8091DA
:102200006B02F8018683F12C21C0F1103AC040E046
:102210006C2D8E2D0E94870240E06C2D8E2D0E9429
:102220008702F82E8111EFCF8A859B850E94F504E5
:10223000292F22952F70903470F49F702230A0F0D7
:102240009115B1F0F8019681903190F48F2D2F9671
:10225000EDE00C94C41E2A5F2F70223068F0C80194
:102260000E94060EFD2CF2CF911511F0811571F32D
:10227000805E883058F3F3CF803F40F3815F833036
:10228000F9CF80916B02816080936B02BCCFC91241
:102290001CC0909165029E1118C040916C02509133
:1022A0006D02278130854217530779F4F1100DC074
:1022B0008683C8010E94060E89E0F801A5E6B2E017
:1022C00001900D928A95E1F761CFC8010E9409053E
:1022D000811509F48CC0F11409F489C080916B0256
:1022E0008032A8F0209165023091660229833A83FA
:1022F000AB82BC827D821E828F8380916C02909122
:102300006D0288879987CE0101960E94060E89E0AA
:10231000F801A5E6B2E001900D928A95E1F734CF7D
:1023200080916B02803150F485E692E00E94060EA7
:1023300089E0F40111928A95E9F765CFC11409F497
:1023400025CF2091660291812913BFCF909165021C
:102350009E11BBCF40916C0250916D022781308558
:102360004217530709F0B1CFF110AFCF8683C801F0
:102370000E94060E89E0F40111928A95E9F706CFD2
:10238000283C3105A8F6C11409F400CFF11479F105
:10239000909166028181981320C0809165028E1110
:1023A0001CC020916C0230916D02878190852817A6
:1023B000390799F490916B0290FD7ECF903108F42B
:1023C0007BCF892F9683907F903F09F472CF982F0F
:1023D000907F905F8F70892B6BCFC8010E94090599
:1023E000811195CF80916B02816080936B02C8014F
:1023F0000E94060ECBCEA2E1B0E0E1E0F2E10C9447
:10240000B11E0A871B872C873D874E875F87688BA5
:10241000798B8A8BCE010A960E948F10811128C079
:1024200020911B0230911C0289E0FE013A96DE01E8
:10243000119601900D928A95E1F78E858115C1F074
:10244000822F90E08395877090E038171906D1F0BD
:1024500099E0929FD0011124A35EBD4FFE013196F9
:1024600001900D929A95E1F780931B020E94A502BC
:1024700080911C0290911B02891312C06296E4E0C5
:102480000C94CD1E0E94E60A10921B0210921C02B0
:1024900089E0E5E6F2E0DF011D928A95E9F7E8CFF1
:1024A000B9E08B9FC0011124835E9D4F0E948F1065
:1024B000811521F320911C022F5F3F4FC9018770C6
:1024C00080931C02D5CFEF92FF920F931F93CF936F
:1024D000DF9380910503E0919901CDE0811131C036
:1024E000CDB7DEB7E6E00C94CB1ED1E0DE0FD09383
:1024F0009901EE2EF12CCE9FF0011124E356FD4FF1
:1025000084818115E9F087819085892B21F481856B
:102510009285019659F40081118122813381448191
:1025200055816681778180850E94FB11CE9DF001E7
:10253000CF9DF00D1124E356FD4F148210929002AE
:10254000ED2F80910503E81780F210920503109299
:102550009901C6CF4F925F927F928F929F92AF92D6
:10256000BF92CF92DF92EF92FF920F931F93CF9380
:10257000DF93C0919C0201E010E080919B028C13DC
:1025800014C00E9463120E945605DF91CF911F91E3
:102590000F91FF90EF90DF90CF90BF90AF909F9002
:1025A0008F907F905F904F900895D0E0FE01EE0FE6
:1025B000FF1FEF56FD4F80819181A0E0B0E0823097
:1025C000910540F427E0289FD001299FB00D1124E8
:1025D000A15CBE4F14962C911497211152C070909B
:1025E00005036DE972E040E050E0A12C471508F0CA
:1025F00046C0FB0143845484CD90DD90129799240A
:102600009A94892CB12C2B2D30E0F601EB0DF11DA5
:10261000EB0DF11DE590F5904E145F0409F0940167
:10262000EF2819F0B3944901EECF2F3F320771F133
:10263000F80101C0EE0F2A95EAF7AE2A980102C010
:10264000220F331FBA94E2F721503109A216130664
:10265000D9F412962D913D916DE0649FF001659F34
:10266000F00D1124E356FD4F2783308724E02483A7
:10267000108211828187928761E011966C930E948B
:102680006B05C395C37079CFFB0114824F5F5F4F19
:10269000635F7F4FABCF1092060310920703109237
:1026A0004D0180919B0280939C020E9456050E94DE
:1026B00063120895AEE1B0E0E0E6F3E10C94A31EEE
:1026C0004B8B5C8B6D8B7E8B8F8B592E988F9111E2
:1026D00010929002188A198A1A8A86E0FE0173966F
:1026E000DE011A9601900D928A95E1F74F88411408
:1026F00089F04E865F8661E0CE010A960E94CE0484
:102700005C0180352CE7920791F4511419F181E0B6
:1027100080934D014E865F860A851B852C853D85FD
:10272000A201688979898A890E94FB11C2C081351A
:102730003CE7930729F4511469F00E944B13EACF48
:1027400082359C4739F4511429F080914D01811153
:10275000F4CFDDCF5FE3E52E51E0F52E312C812C57
:10276000912C34016394D7012D913D916FEF80E05E
:102770009FEFC82ED12CF901E80FF11DE80FF11DD4
:1027800045915591A416B50611F0C62ED92E452BAC
:1027900021F08F5F6C2D9D2DECCF10E0BFEFCB169D
:1027A000DC0409F445C0F701448110914D01411149
:1027B00010E0D70115962D909C911697511409F4AD
:1027C00001C1111509F4FEC0211015C021E00C2C27
:1027D00001C0220F0A94EAF7922B16969C9320913F
:1027E000990230919A022233310528F422E3209392
:1027F000990210929A02F30102C0EE0FFF1F8A9510
:10280000E2F7CF010197D70116962C9128171906E8
:1028100079F48091060390910703009709F44DC065
:102820000E945E07C39708F448C081E0F7018483E3
:10283000312AC4010196B7E0EB0EF11C21E0822E93
:10284000912C029709F08FCF511409F417C131145C
:1028500009F414C10E94460680930603909307036F
:1028600080910503883028F591E0980F9093050337
:1028700099E0FE013A96DE01119601900D929A952B
:10288000E1F74D825E82EDE08E9FC00111248356F8
:102890009D4F29E0FE013196DC0101900D922A95B1
:1028A000E1F72FEF3FEFDC0119962D933D93AD92A9
:1028B000BD926E96E2E10C94BF1E90919C028091B5
:1028C0009B02292FA0E0B0E037E061E0981709F4FF
:1028D0004FC0492F50E0998F1A8EFA01EE0FFF1F5B
:1028E000EF56FD4F40815181A0E0B0E042305105EC
:1028F00038F4349FD001359FB00D1124A15CBE4F38
:102900004D915D9112974D8F5E8F212C70E000E00C
:10291000ED8DFE8DE00FF11DE00FF11DC590D590FE
:10292000C114D104E1F0F7010190F081E02DEB8FAB
:10293000FC8F70E007C0E1E0C416D50609F0E0E0C6
:102940002E2A7F5FEB8DFC8DE70FF11DE70FF11D48
:10295000459155914115510571F70F5FD9CF21145C
:1029600071F17017C0F4E1E0D7011496EC9314975D
:1029700020939C02AE15BF0509F45ACF90E0FC01EC
:10298000EE0FFF1FEF56FD4F8082918201968370FC
:1029900080939B024DCF109761F014966C9314971F
:1029A000AE15BF0529F3921304C0A9014395242F46
:1029B0002370498D5A8D4395942F937087CFA0E053
:1029C000B0E0F7CF292F30E0211020C0B30102C0C2
:1029D000660F771F8A95E2F7CB010197821793075D
:1029E00079F010E0F30102C0EE0FFF1FCA94E2F786
:1029F0006F01C094D70116968C918C218C9318CFBF
:102A0000411581F3C4010E946B05EBCFA9010C2C89
:102A100002C0559547950A94E2F7C90101978223B0
:102A20009323892B41F540FF26C0D70112968D9143
:102A30009D91892BD9F0FE01319687E0DF011D922F
:102A40008A95E9F70E9446069C018B839C8384E06B
:102A50008D83F70192818381792F988789870981F6
:102A60001A8144E05E816F810E94FB11D7011596A7
:102A70001C92122DB7CF142F1170B4CF90919C02DD
:102A800080919B02981729F00E94AA12311011CF51
:102A900041CE0E94631210920603109207030E9417
:102AA0005605F4CFA6E0B0E0E8E5F5E10C94B11EE0
:102AB0000E9446068C018091EF019091F0018017F1
:102AC000910779F019821A820E944606BC01498159
:102AD0005A8180E090E00E945A130093EF01109316
:102AE000F0012696E4E00C94CD1EAEE0B0E0EBE7FA
:102AF000F5E10C94AE1EFE01319688E0DF011D92D7
:102B00008A95E9F780E5E82E81E0F82E8F01ED87C0
:102B10001E87F70181917F018F3F09F43FC0F89430
:102B2000E82FE295EF70F0E021A18F7041E001C045
:102B3000440F8A95EAF7842F922F942B91A392A1A8
:102B40008095892382A3789400C0E4E5F1E031E028
:102B5000D12C21912F3F79F0A22FA295AF70A05ECA
:102B6000B0E08C9190E02F7002C0959587952A95E2
:102B7000E2F780FF82C080E0D82A330F8AE591E037
:102B80008E179F0731F7F70182918F3F11F00E9456
:102B90003E0590EA9A95F1F7D801DC920F5F1F4F3E
:102BA000B4E5EB16B1E0FB0609F0B3CF48E050E026
:102BB0006D857E8581EE91E00E945A1F009749F055
:102BC00028E0ED85FE85A1EEB1E001900D922A95F9
:102BD000E1F70091E00110E008521E4F892B09F443
:102BE0004EC081E08093D7010E9446068093D501B4
:102BF0009093D6018091E901811509F497C07E0177
:102C0000E9E0EE0EF11C84E0D7011D928A95E9F708
:102C10008091D0018A3008F054C040E457E1B701F8
:102C2000C8010E94D308811509F46EC04AED57E12E
:102C3000B701C8010E94D308811509F465C04AEEA6
:102C400056E1B701C8010E94D308811509F45CC0A0
:102C50001092D0018091D40190E044E050E0B7019F
:102C600088529E4F0E945A1F21E02093D301892B46
:102C7000E9F52E96E7E00C94CA1E832F7DCF809154
:102C8000D701811509F4B6CF8091D5019091D60175
:102C90000E945E07059708F4ADCF44E050E061EE76
:102CA00071E0C8010E945A1F892B41F084E0E1EED7
:102CB000F1E0D80101900D928A95E1F71092D701C9
:102CC00099CF8091D1019091D2010E945E07843FFB
:102CD000914008F0A2CF8091D301811551F284E098
:102CE000F70111928A95E9F71092D301E091D4018E
:102CF000F0E0E852FE4F89859A85AB85BC858083DC
:102D00009183A283B383B5CF8091D0018F3F39F4F3
:102D10000E9446068093D1019093D201DCCF8F5F51
:102D20008093D0018A3008F495CFF2CFE090D4019F
:102D3000F12CA70148525E4F7A01F8018081918100
:102D4000A281B3818093B8019093B901A093BA0195
:102D5000B093BB0188EB91E00E949C058093B70182
:102D60008091BC019091BD01A091BE01B091BF01C5
:102D7000F70180839183A283B383E090C001F09038
:102D8000C1010091C2011091C3018091CC019091C9
:102D9000CD01A091CE01B091CF01E816F9060A0746
:102DA0001B0709F466CFE092CC01F092CD010093AD
:102DB000CE011093CF010E943C07E61AF70A080BD8
:102DC000190BE092EB01F092EC010093ED011093EE
:102DD000EE014FCFA4E0B0E0E0EFF6E10C94B21EBC
:102DE0004091AB015091AC016091AD017091AE0189
:102DF0002FB7F8948091B3019091B401A091B501DF
:102E0000B091B6012FBF841B950BA60BB70B11E039
:102E100084369105A105B10570F10E944807DC01D7
:102E2000CB010296A11DB11D89839A83AB83BC831C
:102E3000809128019091290189549E4F209127016A
:102E4000422F50E0253008F044E0BE016F5F7F4F15
:102E50000E94671F83E090E00E94211E182F8115B9
:102E600051F00E943C076093AB017093AC018093DA
:102E7000AD019093AE01812F2496E3E00C94CE1E19
:102E8000A7E0B0E0E6E4F7E10C94B21E6E837F8326
:102E900080E090E00E94211E182F811509F469C07E
:102EA00080911201482F50E0811141E0609113019F
:102EB0007091140169547E4FCE0105960E94671FE0
:102EC0004091C8015091C9016091CA017091CB0134
:102ED0002FB7F8948091B3019091B401A091B501FE
:102EE000B091B6012FBF841B950BA60BB70B843690
:102EF0009105A105B10538F488EB91E00E949C058D
:102F00009D818917B1F181E090E00E94211E811519
:102F1000F1F180911A01482F50E0853008F044E02B
:102F200060911B0170911C0169547E4FCE01019686
:102F30000E94671F88EB91E00E949C059D81891388
:102F400026C00E943C076093C8017093C90180931A
:102F5000CA019093CB0189819A81AB81BC81809316
:102F6000C4019093C501A093C601B093C70181E04D
:102F70000FC08091B8019091B901A091BA01B091B0
:102F8000BB0189839A83AB83BC831111E4CF80E0BA
:102F90004091C4015091C5016091C6017091C70173
:102FA000EE81FF8140835183628373832796E3E040
:102FB0000C94CE1EA2E0B0E0E0EEF7E10C94B11E5E
:102FC00089839A8344E050E06CEB71E00E945A1FC1
:102FD0000091AF011091B0012091B1013091B20187
:102FE000EFB7F8944091B3015091B4016091B501ED
:102FF0007091B601EFBF401B510B620B730B44364F
:1030000051056105710510F4892B09F180912001AA
:103010009091210189549E4F20911F01422F50E031
:10302000253008F044E069817A810E94671F82E0C0
:1030300090E00E94211E811559F00E943C07609388
:10304000AF017093B0018093B1019093B20181E020
:103050002296E4E00C94CD1ECDB7DEB72C970FB6C8
:10306000F894DEBF0FBECDBF85B7806885BF85B73A
:10307000806885BF84B7877F84BF0FB6F894A89512
:1030800080916000886180936000109260000FBEA4
:1030900080E890E00FB6F89480936100909361000F
:1030A0000FBE8CE395E080935A0190935B010E94E0
:1030B000B5080E945C088091E20084608093E20081
:1030C000789480919C01811599F08091E90010918C
:1030D000EC008F7010FB112717F9182B1092E900E4
:1030E0008091E80083FD0E94250B1F701093E9007A
:1030F00082E084BD93E095BD9AEF97BD80936E000A
:103100001092EB011092EC011092ED011092EE0181
:1031100088EC90E02091E30027FD0EC0AFE3BCE90E
:103120001197F1F700C000000197A1F70E94B508C0
:1031300010929C0180E001C081E08093E9018093BE
:10314000EA018093040181110E942F1D80910401E6
:103150008091040191E08927880F880F8093E00116
:1031600094E0981B9093D40100E511E024E5E22E51
:1031700021E0F22EF80181918F018F3F11F00E9422
:103180003E05E016F106B1F704E511E09AE5E92EF7
:1031900091E0F92ED8018D918D018F3F11F00E94A1
:1031A0003E05E016F106B1F788E0E8EDF1E0DF0159
:1031B000282F1D922A95E9F7E1EEF1E0DF011D923B
:1031C0008A95E9F780E090E00E94101F853E9E4FAF
:1031D00009F45EC065EE7EEF80E090E00E94441F3F
:1031E00060E082E090E00E94261F81E08093080367
:1031F00061E083E090E00E94261F60E074E184E0DB
:1032000090E00E94441F60E086E090E00E94261F4C
:1032100060E087E090E00E94261F60E070E0AB0174
:1032200088E090E00E94381F60E083E290E00E9416
:10323000261F60E08CE090E00E94261F60E08DE099
:1032400090E00E94261F19821A821B821C821D8216
:103250001E821F82188648E050E067E170E0CE01D0
:1032600001960E94161F60E070E0AB018FE190E0D4
:103270000E94381F60E070E0AB018FE090E00E9498
:10328000381F60E070E0AB0183E190E00E94381FDE
:1032900082E090E00E94081F80939D0184E090E00E
:1032A0000E94101F80938002909381020E947515E6
:1032B000EFEFF6E721E0E150F0402040E1F700C0F9
:1032C00000000E947515E091EA0181E0E827EE0F09
:1032D000EE0FF0E0E852FE4F808181FF08C06FEFF3
:1032E0007FEF80E090E00E94441F0E946D0783E022
:1032F00090E00E94081F0E94FE018091E901811167
:1033000002C00E94321D85E091E0809311029093EB
:103310001202CE0101968B879C8780919C0185309B
:1033200069F400E110E482E1F82E80919C0185307F
:1033300009F451C00E94E60A0E940D060E9475150C
:103340000EE911E0E8EDF1E0E987FA87D8019D91F7
:10335000808126EA31E02A173B0709F471C03196D3
:103360009817A9F3A090E901F12CA985BA85ED90F1
:10337000A987BA87F801B1908F01BE1429F1BE2444
:10338000CC24C394D12C8B2D8C21B9F0A114A9F09D
:10339000D982FA820E9446068B839C83F1E0FD83EA
:1033A00091E08E2D8C2109F490E09E8349815A8111
:1033B0006B817C818D810E945A13D394CC0C26E0C2
:1033C000D212E1CFF801E292F39438E0F312CDCFBC
:1033D0000E94480739C080919C01843019F11092F5
:1033E0009A0188E190E00FB6F894A8958093600068
:1033F0000FBE1093600083B7817F846083BF83B763
:10340000816083BF7894889583B78E7F83BF0FB622
:10341000F894A89580916000886180936000109274
:1034200060000FBE0E947515E8EDF1E0808181110A
:1034300038C13196A0EEB1E0AE17BF07B9F775CF2E
:10344000981390CF0E9452158091E901811509F4DB
:1034500040C000918B0210918C0201151105A9F05A
:1034600080918D0290918E020E945E07893C9105A9
:1034700060F080E391E0011511F080E090E0DC0164
:1034800014962C9122FF0E94E20D80914D0181152E
:1034900001F180910603909107030097D1F00E94FB
:1034A0005E072091990230919A022817390788F413
:1034B00090919C0280919B02981709F4DFC00E94B2
:1034C000AA121092990210929A0210920603109278
:1034D000070386E0E5E8F2E0AB85BC8501900D923C
:1034E0008A95E1F7D0908602F090870210918802C9
:1034F000E090890200918A0210928702109288025D
:103500001092890210928A02812F8F2909F43FC0FC
:103510008091A8019091A9010E945E079C01909161
:103520008302911509F4B8C02531310580F19F3F20
:1035300019F09F5F90938302F11459F00E94C30524
:1035400091E01F140CF09FEF899F802D1124809330
:103550008702111559F00E94C30591E011160CF075
:103560009FEF899F802D112480938802809187028C
:10357000811569F0C0908802C11449F00E94B50518
:10358000809387028C2D0E94B50580938802802F3E
:103590008E2909F43FC08091A6019091A7010E9455
:1035A0005E079C0190918202911509F470C021354B
:1035B000310580F19F3F19F09F5F90938202E114E3
:1035C00059F00E94E30591E01E140CF09FEF899FD3
:1035D000802D112480938902011559F00E94E30582
:1035E00091E010160CF09FEF899F802D112480939D
:1035F0008A0280918902811569F0E0908A02E114C3
:1036000049F00E94B505809389028E2D0E94B50570
:1036100080938A0280918602D81219C08091870215
:10362000811511F08F1113C020918802211511F01E
:1036300012130DC090918A02911511F0091307C061
:1036400030918902311103C0822B892B11F00E9425
:10365000520686E0EB85FC85A5E8B2E001900D926C
:103660008A95E1F70E940D069091AA01891709F445
:1036700054CE8093AA010E943C074FCE0E94631251
:1036800010920603109207030E94560522CF2B309A
:10369000310508F091CFBECF2B30310508F049CF6E
:1036A00076CF80919B01811509F43FCE09BDF9BC0D
:1036B00009B400FEFDCF8091D8008F7D8093D800A3
:1036C0008091E00082608093E0008091E00081FDC5
:1036D000FCCF0E94E60A29CE1F921FB61F9211242A
:1036E0008F939F93AF93BF9380919A01811113C0E1
:1036F0008091B3019091B401A091B501B091B60150
:103700004196A11DB11D8093B3019093B401A09384
:10371000B501B093B601BF91AF919F918F911F906A
:103720001FBE1F90189578941F921FB61F921124E8
:103730008F939F93AF93BF938091B3019091B40106
:10374000A091B501B091B6010196A11DB11D809364
:10375000B3019093B401A093B501B093B601BF91AA
:10376000AF919F918F911F901FBE1F9018951F9230
:103770000F920FB60F9211242F933F934F935F93A5
:103780006F937F938F939F93AF93BF93EF93FF9329
:103790008091E10082FF09C08091E20082FF05C0B4
:1037A0008091E1008B7F8093E1008091DA0080FFBF
:1037B00024C08091D80080FF20C08091DA008E7FE5
:1037C0008093DA008091D90080FF9BC080E189BDA1
:1037D00082E189BD09B400FEFDCF81E080939C01A8
:1037E00080918701811109C00E94B5080E945C0880
:1037F0008091E20084608093E2008091E10080FF8C
:1038000017C08091E20080FF13C08091E2008E7F9C
:103810008093E2008091E20080618093E2008091D9
:10382000D80080628093D80019BC85E080939C0109
:103830008091E10084FF29C08091E20084FF25C0CF
:1038400080E189BD82E189BD09B400FEFDCF809190
:10385000D8008F7D8093D8008091E1008F7E809387
:10386000E1008091E2008F7E8093E2008091E2008F
:1038700081608093E20080918601811509F447C040
:1038800084E080939C0180919C018091E10083FF02
:1038900027C08091E20083FF23C08091E100877FF1
:1038A0008093E10082E080939C01109286018091D8
:1038B000E1008E7F8093E1008091E2008E7F809313
:1038C000E2008091E20080618093E20042E060E0EB
:1038D00080E00E94DC078091F00088608093F00017
:1038E000FF91EF91BF91AF919F918F917F916F91D8
:1038F0005F914F913F912F910F900FBE0F901F90AE
:10390000189519BC10929C011092870176CF809176
:10391000E30087FF02C083E0B4CF81E0B2CF1F9203
:103920000F920FB60F921124EF92FF920F931F93F5
:103930002F933F934F935F936F937F938F939F93B7
:10394000AF93BF93CF93EF93FF9309EE10E0F8018D
:103950008081C091EC008F70C0FBCC27C7F9C82BC9
:103960001082E0EF8081877F808378940E94250B0E
:10397000F8011082E0EF808188608083CF70E9EEEB
:10398000C083FF91EF91CF91BF91AF919F918F91A4
:103990007F916F915F914F913F912F911F910F9167
:1039A000FF90EF900F900FBE0F901F9018958EE133
:1039B0004A9B02C08150E1F74A9BFECF08955A9876
:1039C00080E28A95F1F75A9A0895FC012BE02A9536
:1039D000F1F728E080E090E031E040E14A95F1F72E
:1039E000880F4A9B02C08160932742E04A95F1F715
:1039F000000040E14A95F1F7215079F720E12A953E
:103A0000F1F729B132E03A95F1F7000040E14A952B
:103A1000F1F731E022FD93272081920F90830895E2
:103A2000A1E0B0E0E6E1FDE10C94AF1E19828C014B
:103A30007C01E60EF11C0E94D71CCE0101960E946B
:103A4000E51CF80181938F01EE15FF05A1F781E0D8
:103A50009981911180E02196E6E00C94CB1E529A58
:103A60005A9A089552985A9AEA9AE9E6F0E08081C3
:103A70008F7C808308956150770B91E001C0990F8E
:103A80006A95EAF7692F90E021E0611108C091156D
:103A900091F05A9A80E28A95F1F75A980895362F54
:103AA000382339F05A9A922730E23A95F1F7669521
:103AB000ECCF5A98F9CF5A98EDCFA3E0B0E0E3E607
:103AC000FDE10C94B11E8A839B830A811B81060F42
:103AD000111DEA81FB818191EA83FB8389830E9426
:103AE000DF1C68E089810E943B1DEA81FB81E017B1
:103AF000F10779F72396E4E00C94CD1E1F920F9204
:103B00000FB60F9211240F931F932F933F934F9350
:103B10005F936F937F938F939F93AF93BF93EF9335
:103B2000FF93CF93DF930F92CDB7DEB719820E9438
:103B3000D71CCE0101960E94E51C082F069506951C
:103B40000695282F22952570902F9570920F292F7A
:103B5000237096959695920F982797708981892B57
:103B600009F059C0053008F056C080E18A95F1F798
:103B70005A9A529A82E08A95F1F700C05A9888E0E2
:103B8000089F80011124D801A15FBE4F1696ED91C8
:103B9000FD911897309791F060914E0170914F010F
:103BA00014962D913D91260F371F15978D919D915C
:103BB000680F791F4C9113978C910995F801E15F7B
:103BC000FE4F6381611551F020914E0130914F01FC
:103BD00084819581820F931F0E945D1D0E94DF1CCE
:103BE00080E18A95F1F75A9852985A9A80E18A951D
:103BF000F1F7F801E15FFE4F6081611551F020910E
:103C00004E0130914F0181819281820F931F0E945A
:103C1000101D0E94D71C0F90DF91CF91FF91EF9163
:103C2000BF91AF919F918F917F916F915F914F91D4
:103C30003F912F911F910F910F900FBE0F901F90EA
:103C40001895A4E0B0E0E7E2FEE10C94B31E89838E
:103C50009A83853091050CF06FC0F894529A5A9867
:103C600045E04A95F1F70000982F96959570898167
:103C70008570980F892F8370292F26952695E981C5
:103C8000FA8193E0EE0FFF1F9A95E1F7EB83FC8337
:103C9000280FE22BF32BE983FA830E94DF1C00C07C
:103CA00068E089810E943B1DF0E1FA95F1F7529896
:103CB0005A9A4A9B3AC087E090E04A9938C0EB8113
:103CC000FC81E15FFE4F6381611561F020914E013F
:103CD00030914F0184819581820F931F0E94101DA6
:103CE000811539F10E94D71C40E24A95F1F75A98A4
:103CF000529A50E15A95F1F78B819C81815F9E4FDA
:103D000089839A83FC016081611551F020914E01F5
:103D100030914F0181819281820F931F0E945D1D1E
:103D20000E94DF1C789481E008C000C0C2CF0197D8
:103D300041F4529A5A9A789480E02496E2E00C94E6
:103D4000CF1E00C0BACF2F923F924F925F926F92D8
:103D50007F928F929F92AF92BF92CF92DF92EF921B
:103D6000FF920F931F93CF93DF93CDB7DEB7CA1B9C
:103D7000DB0B0FB6F894DEBF0FBECDBF09942A88C7
:103D8000398848885F846E847D848C849B84AA846F
:103D9000B984C884DF80EE80FD800C811B81AA81FC
:103DA000B981CE0FD11D0FB6F894DEBF0FBECDBFC7
:103DB000ED01089597FB072E16F4009407D077FDC8
:103DC00009D00E94F41E07FC05D03EF49095819521
:103DD0009F4F0895709561957F4F0895EE0FFF1FD7
:103DE0000590F491E02D0994AA1BBB1B51E107C07B
:103DF000AA1FBB1FA617B70710F0A61BB70B881F7B
:103E0000991F5A95A9F780959095BC01CD01089509
:103E1000F999FECF92BD81BDF89A992780B5089592
:103E2000A8E1B0E042E050E00C944C1FDC01A40F8C
:103E3000B51F4150504048F0CB01840F951F2E9183
:103E40000E94271F41505040D0F70895262FF9991E
:103E5000FECF92BD81BDF89A019700B4021639F0E9
:103E60001FBA20BD0FB6F894FA9AF99A0FBE0895BA
:103E70000396272F0E94271F0E94261F252F0E948E
:103E8000271F242F0C94271F0196272F0E94271FDE
:103E90000C94261FDC01CB01FC01F999FECF06C072
:103EA000F2BDE1BDF89A319600B40D9241505040F8
:103EB000B8F70895FB01DC0104C08D9101908019D1
:103EC00021F441505040C8F7881B990B0895FB011D
:103ED000DC0102C001900D9241505040D8F7089586
:103EE000F894FFCF85068D0690069606AB06AB06C6
:103EF000AB06AB06AB06AB06AB06AB0699069E0659
:103F0000A206A806B806BE06C206030C290C2F0C92
:0E3F1000290C2F0C800CA20C2F0C930DA00D71
:103F1E0034002900017E074D0961096809810700F7
:103F2E000000010000000000000004010000000479
:103F3E000500000000000004090000000000000160
:103F4E000000000000850A960AD60A00000001B49F
:103F5E00000052000000AC00035200000001B70147
:0A3F6E00946697C6F4F5F6F73133B8
:00000001FF
