:100000000C94E9010C9406020C9406020C94DA1E7E
:100010000C9406020C9406020C9406020C94060240
:100020000C9406020C9406020C94131D0C94EB1D08
:100030000C94C81C0C9406020C9406020C94060244
:100040000C9406020C9406020C9406020C94060210
:100050000C9406020C94EF1C0C9406020C940602FD
:100060000C9406020C9406020C9406020C940602F0
:100070000C9406020C9406020C9406020C940602E0
:100080000C9406020C9406020C9406020C940602D0
:100090000C9406020C9406020C9406020C940602C0
:1000A0000C9406020C9406020C9406020700090048
:1000B0000D000E0000000B000E000F0000000D00F0
:1000C0000E000F0000000D000F0000000D000E00DC
:1000D00000000E000F000000160007000A000000DC
:1000E00016000700090000001600090000000700C4
:1000F0000900000016000700000018000C001200A4
:100100000000100036003700000005010902A101BF
:1001100085020901A1000509190129081500250119
:100120009508750181020501093009311581257F86
:1001300095027508810609381581257F9501750896
:100140008106050C0A38021581257F950175088105
:1001500006C0C005010906A1018506050719E029A9
:10016000E715002501950875018102050719002989
:10017000EF1500250195F075018102050819012987
:1001800005950575019102950175039101C0050161
:100190000906A101050719E029E7150025019508C1
:1001A000750181029501750881010507190029FF74
:1001B000150026FF0095067508810005081901291C
:1001C00005150025019505750191029501750391AD
:1001D00001C009023B00020100A0FA09040000016D
:1001E00003010100092111010001224400070581DA
:1001F00003080001090401000103000000092111A6
:100200000100012284000705820320000112010081
:100210000200000008534601000100010200011E17
:100220000343006F0072006E00650020004B006504
:1002300000790062006F0061007200640000000C31
:1002400003430052004B0042004400000004030935
:1002500004000014001A0008001500170000000434
:10026000001600070009000A0000001D001B000620
:1002700000190005000000000000000000225228C4
:10028000000000130012000C0018001C0000000009
:10029000570F000E000D000B00000038003700362D
:1002A0000010001100000000000000000021522C8E
:1002B0000000000100240025002600270000002B7C
:1002C000002100220023008000000001001E001F0A
:1002D000002000810000000000000000000100017B
:1002E0000000002B00010001000100010000002AB5
:1002F000004F0052005100500000004C000100016E
:1003000000010001000000000000000000010001E9
:1003100000000001000100010001000100000023B5
:1003200002240225022602270200001E021F0220CC
:100330000221022202000000000000000001000172
:10034000000000010030022F0230002F00000031B9
:10035000002D002E0034003500000031022D022E49
:10036000023402350200000000000000000100011C
:10037000000000290014001A00080015000000E128
:100380000004001600070009000000E0001D001B2B
:100390000006001900000000000000000028002CEA
:1003A0000000000100010001000100010000000147
:1003B0000001000100010001000000010001000136
:1003C0000001000100000000000000000001000129
:1003D000000011241FBECFEFDAE0DEBFCDBF11E079
:1003E000A0E0B1E0E6EDF1E402C005900D92A83A7C
:1003F000B107D9F723E0A8EAB1E001C01D92AB35FF
:10040000B207E1F70E9488190C94CC200C940000EC
:100410009C01FB0191509F31B0F4832F817034FF18
:100420000AC08295807F31FD806232FD806433FD99
:1004300080680995089531FD826032FD846033FF44
:10044000F8CF8860F6CF80E0F4CF80935903089509
:1004500080935A03089521E001C0220F8A95EAF79C
:1004600080915A03822B0E942802089521E030E0F7
:10047000A90101C0440F8A95EAF7842F80959091D5
:100480005A0389230E9428020895292F983090F555
:10049000863080F590E036E0239F800D911D112479
:1004A00051E081FD54E080FD550F82FD529523E01F
:1004B000969587952A95E1F7FC01EE0FFF1FE80F4F
:1004C000F91FE454FD4F20E030E070E04191DF017E
:1004D000CB01022E02C0969587950A94E2F7869585
:1004E000880B8427852384278E932F5F3F4F2330EB
:1004F000310561F70895292F983070F5863060F541
:1005000090E036E0239F800D911D1124682F6770C5
:1005100023E0969587952A95E1F7FC01EE0FFF1FE2
:10052000E80FF91FE454FD4F40E050E080E02191D6
:1005300030E0062E02C0369527950A94E2F7217026
:10054000042E01C0220F0A94EAF7822B4F5F5F4FFF
:100550004330510561F7089580E00895E0916A0203
:1005600090916902E91302C080E008959F0159E06B
:10057000E59FF0011124E559FD4F5181561306C046
:100580005081581303C05581541304C0F9013196AA
:10059000E770E8CF81E0089580916A0220916902B6
:1005A000281301C0089501968770FACF9091DE025A
:1005B000809589238093DE02282F277069F489179C
:1005C00059F09091E00292FF07C086958695869536
:1005D0000E9436021092DE0208958091DB02909113
:1005E000E102892B9091DC029115C9F0892B909141
:1005F0002F01911521F09091DF0297FD11C096E037
:100600002CEA31E040E09150F90150812F5F3F4FDB
:1006100051114F5F9111F7CF41111092DC020895F3
:100620009EE124EB31E0EECF982F90958091DB0294
:1006300089238093DB020895972F7830B8F46630D1
:10064000A8F48430B0F470E026E0929F600D711D34
:100650001124FB0190E3899FE00DF11D1124EE0FA1
:10066000FF1FEF5AFD4F85919591089580E090E02E
:10067000089581E0FCCF803E9105D1F1C8F481332B
:10068000910509F481C048F48932910509F471C0DB
:100690008A32910509F47FC0089589339105E1F00C
:1006A00082389105C9F08533910509F45DC008953C
:1006B000843E9105D1F148F4823E910531F1833EAB
:1006C000910541F181EE90E00895863E9105C1F1DA
:1006D000873E9105F1F108952091DF02237009F022
:1006E00064C02091E00223FF14C089E290E00895E5
:1006F0002091DF0220FD45C03091E00230FF09C0AB
:1007000024FD24C083EE90E008952091DF0222FDB5
:10071000F7CF08952091DF0222FD44C03091E0021E
:1007200030FD43C024FFF5CF11C02091E00221FF2E
:10073000F0CF8091DF0284FD09C087EE90E008953C
:100740002091DF0223FFE5CF24FFF7CF80E090E088
:1007500008952091DF0223FD2BC03091E00231FF8C
:10076000E1CF84EE90E008952091DF0225FFD1CF04
:10077000BCCF2091DF0225FD1EC02091E00223FFA7
:10078000C8CF89E390E008952091DF0226FFC1CF12
:100790008AE290E008952091DF0226FFBACF81E33C
:1007A00090E0089582EE90E0089580EE90E0089544
:1007B00086EE90E0089585E390E008959091DF0241
:1007C00092FF10C041E0282F2471243009F040E04E
:1007D00031E0282F2871283009F030E0431711F05C
:1007E0002CE0822793FF10C041E0282F2471243190
:1007F00009F040E031E0282F2871283109F030E07D
:10080000431711F02CE082273091E00230FF10C036
:1008100051E0282F2171213009F050E041E0282FCC
:100820002871283009F040E0541711F029E08227A0
:1008300031FF10C041E0282F2171213109F040E043
:1008400031E0282F2871283109F030E0431711F0EA
:1008500029E0822794FD877E08950F931F93CF93FD
:10086000DF930E943B03EC01923508F03FC09035C6
:1008700008F0AFC0883E9105E0F4803E910558F441
:10088000853A910570F4049730F481E0219709F0DE
:1008900080E0C82FD0E0CE01DF91CF911F910F9162
:1008A00008958D5C9109D0654397A8F3C0E0D0E02E
:1008B000F2CFD03490F4D03208F0A0C0CE019150E5
:1008C0009F31A0F78D2F0E94DE03082F8C2F90E020
:1008D0000E943B03EC01D02BDECF8C2F90E00E94D6
:1008E0003B03DF70C82FD92BD06AD5CF803842E5C3
:1008F0009407C8F5803652E5950708F04FC0C0341C
:1009000082E5D807D0F48C2FC03292E5D90708F0E1
:1009100040C08695869520E2829FC0011124C37055
:1009200021E030E0A90102C0440F551FCA95E2F74B
:10093000EA01C82BD92BDD68AECF8C2F8695869522
:10094000877050E2859FC0011124C37021E030E020
:10095000A90102C0440F551FCA95E2F7EA01C82B4E
:10096000D92BDC6898CF803C52E5950740F48F7115
:10097000C03AD24540F5D82FC4EFD06A8CCF805C06
:100980009245809708F092CFDC2FDF71C0EFD06ADC
:1009900082CF8F71D82FC1EFD06A7DCF8695869593
:1009A000877020E2829FC0011124C37021E030E0F3
:1009B000A90102C0440F551FCA95E2F7EA01C82BEE
:1009C000D92BDA6868CF0E94DE03C0E0D82FD0624E
:1009D00062CF8F710E94DE0393E0CC0FDD1F9A95EA
:1009E000E1F7DF70282F30E084FF04C050E1859FDD
:1009F00090011124C22FD32BD0694DCF8D2F8F7131
:100A00000E94DE03082F8C2F90E00E943B03EC0134
:100A1000D02BDDCFA4E0B0E0E0E1F5E00C940C20B9
:100A200089839A8300915A0380915903082B87E0A8
:100A30008B831C8210E0C8010B8002C095958795BE
:100A40000A94E2F780FD0DC08B819C8101978B8316
:100A50009C83019681F7F12C8F2D2496E5E00C9470
:100A60002820FB8069817A818F2D0E941C030E94BF
:100A70002D04019749F3F0CF0F931F93CF93FC01FF
:100A80002781308521153105A1F4858100811181EF
:100A90008115A1F0611591F0C8010E940A05C82FC7
:100AA000682FC8010E944502B8018C2F0E941C03C8
:100AB0009C01C901CF911F910F910895C8010E9417
:100AC0007B02C82FF1CFA2E0B0E0E9E6F5E00C949C
:100AD0000F2089839A830E940A0569817A810E9486
:100AE0001C030E942D042296E2E00C942B20FC01B2
:100AF0008481811511F1878190850097A1F00E9472
:100B00002D04282F92959F709630C1F088F4925F43
:100B10009F70923030F4203FD9F060F481E0283E9D
:100B200060F080E00895808191810E946305E9CFA3
:100B30009A5FEECF81E0243FA1F7089591E0813FD5
:100B400009F090E081E0283E08F080E0892B0895CC
:100B500081E0089580E00895F894E82FE295EF7021
:100B6000F0E041A18F7021E030E0B90101C0660FD3
:100B70008A95EAF7862F962F9095942391A392A1B8
:100B8000892B82A3789408951092EA021092EB02C6
:100B9000E0E4F1E08581811102C01482168237966B
:100BA00081E0EB39F807B1F70895AC018091ED02CF
:100BB0006091EC02982F691301C00895292F30E04D
:100BC000F901EE0FFF1FEE51FD4F0190F081E02D76
:100BD000E417F507B9F4E0E0F0E04D30510540F4DA
:100BE00067E0649FF001659FF00D1124E05CFE4F0B
:100BF00041E044839813E1CF2F5F3F4F2370209350
:100C0000ED0208952395922F9370D5CFFC01AC018E
:100C10004C5F5F4F8FEF61E39191892728E030E0CF
:100C2000982F990F87FF09C0892F862721503040C0
:100C3000B9F7E417F50781F70895892FF7CF282F23
:100C400035EB2303C001112497FF04C0805891099C
:100C5000892F089580589F4FFBCF8091D00280FD4F
:100C600014C081FD14C082FD16C08091CF02811591
:100C700081F08E3180F420E5829FC00111246EE165
:100C800070E00E943620862F089584E1089588E25E
:100C9000089588E0089580E508958091D00280FD50
:100CA00017C081FD17C082FD19C08091CE02811549
:100CB00099F0883298F428E0829FC001112468E2FC
:100CC00070E00E9436206115710551F0862F08955D
:100CD00062E0FCCF64E0FACF61E0F8CF68E0F6CFE5
:100CE00081E00895FA01309709F0099508958091FF
:100CF0003702811561F0E0915F02F0916002309758
:100D000029F00190F081E02D0995089580E0089583
:100D100090912F01911521F09091DF0297FD0CC069
:100D2000ECEAF1E09191891302C0DF011E9291E09B
:100D3000E23BF907B9F70895E82FE695E695E695C1
:100D4000803FC8F7F0E0EE54FE4F9DEF81FD97EF36
:100D500080FF959582FD92958281892382830895F3
:100D60002FB7F8948091010290910202A0910302A2
:100D7000B09104022FBF08950E94B0069C0190918B
:100D8000D3028091D402982B21F02093F601309366
:100D9000F7019091D5028091D602982B21F02093F3
:100DA000F4013093F501E0915F02F0916002309719
:100DB00049F082E08093D1020680F781E02D81ED39
:100DC00092E009950895611509F44AC0E3E3E80F3C
:100DD000E33150F4F0E0E253FF4D0C944A200E94BE
:100DE0002D0681958093D4020E94BC0608950E942E
:100DF0002D06F8CF0E942D0681958093D302F4CF63
:100E00000E942D06FACF0E944D068093D502ECCFAA
:100E10000E944D068195F9CF0E944D0681958093E1
:100E2000D602E2CF0E944D06FACF815D990B21E0F8
:100E300001C0220F8A95EAF78091D202822B80931B
:100E4000D202D2CF8091D00281608093D002CCCFE9
:100E50008091D0028260F9CF8091D0028460F5CF7A
:100E60004091D3028D3C59F48091D40287FF0DC08C
:100E70001092D402411559F41092CF0208C08E3C52
:100E800081F48091D40218169CF3411581F0809171
:100E9000D5029091D602892B09F0A6CF1092CE02EE
:100EA000A3CF8F3C41F447FFF0CF1092D302809143
:100EB000D4028115E0CF803D19F41416B4F3E5CFC8
:100EC0009091D502893D29F41916FCF61092D502AD
:100ED000DCCF8A3D19F497FFD8CFF8CF9091D60296
:100EE0008B3D29F497FFD1CF1092D602CECF8C3D07
:100EF00019F41916CCF3C9CF9FE2980F983088F4F3
:100F0000815D990B21E030E0B90101C0660F8A953F
:100F1000EAF7862F80959091D20289238093D2029E
:100F2000B4CF8D3D31F48091D0028E7F8093D0027A
:100F3000ACCF8E3D21F48091D0028D7FF7CF8F3DD5
:100F400009F0A3CF8091D0028B7FF0CF2FB7F89418
:100F5000609101027091020280910302909104025B
:100F60002FBF089580913702811519F00E94A607BE
:100F700008950E94A6072091390230913A024091CB
:100F80003B0250913C02620F731F841F951F08950E
:100F90009C014FB7F8948091010290910202A091B8
:100FA0000302B09104024FBF821B930B089587E7A1
:100FB00097E7809300089093010888E19AE00FB6C4
:100FC000F894A895809360000FBE90936000FFCFC7
:100FD0008091E60108950895FC018091DC019091D3
:100FE000DD018617970748F06115710529F4809196
:100FF000E8008E778093E800CB0140E0009741F451
:10100000411106C08091E80082FF30C080E0089561
:101010002091EA012115B1F12530B1F12091E800CC
:1010200023FD2EC02091E80022FDECCF2091E800A6
:1010300020FFE4CF4091F3002091F200342F00977D
:1010400019F02830310558F041E02830310509F019
:1010500040E02091E8002E772093E800CFCF419127
:101060004093F10001972F5F3F4FE9CF8091EA0154
:10107000811541F0853041F08091E80083FFC2CFB7
:1010800081E0089582E0089583E00895982F909379
:10109000E900891771F07091EC002091ED005091FA
:1010A000F00021FD09C09F5F973089F78093E90028
:1010B0000895762F242F50E03091EB003E7F30933F
:1010C000EB003091ED003D7F3093ED003091EB006F
:1010D00031603093EB007093EC002093ED0050935F
:1010E000F0002091EE0027FDDECF08958091D6011B
:1010F00087FF13C08091E80082FF06C08091E8005E
:101100008B778093E80008958091EA018111F2CFF6
:1011100008958091EA018115D9F38091E80080FF5C
:10112000F8CF8091E8008E77ECCF2091E4003091E9
:10113000E50095E6A9012091EC00822F817020FF47
:1011400006C08091E80080FF06C080E008952091ED
:10115000E80022FD1AC08091EA01811589F08530EE
:1011600089F08091EB0085FD0FC02091E400309163
:10117000E50042175307F9F29150E1F684E0089533
:1011800082E0089583E0089581E00895A0E0B0E052
:10119000ECECF8E00C940920C8EDD0E088818F7E5B
:1011A0008883E7EDF0E080818160808384E082BF06
:1011B00081E08093D50188818E7F888302EE10E0E4
:1011C000E2EE10821092DA006801CA94E1EE108219
:1011D00088818F77888388818068888388818F7DE4
:1011E000888319BC1092EA011092D4011092E9018F
:1011F0001092D3017601EA94E0EE80818B7F8083A8
:1012000088818160888342E060E080E00E94460837
:10121000F60180818E7F8083E2EE80818160808311
:10122000808188608083E0EE80818E7F80838881EA
:1012300080618883CDB7DEB7E8E00C942520E8ED27
:10124000F0E080818E7F80831092E2001092DA00BD
:101250001092E100A0EEB0E08C9181608C938081CF
:101260008F77808319BCA7ED8C918E7F8C938081C2
:101270008F7E80831092D5010895A8E0B0E0E3E46A
:10128000F9E00C940D2089839A836B837C834D83D2
:101290005E8380911E020AE010E08A3010F001E0C7
:1012A00010E021E02F8318866B817C8189819A81EF
:1012B000ED81FE81099581111BC02F8138852F5F3B
:1012C0003F4F2F8338870217130794F0C901889F77
:1012D0009001899F300D300D112480E090E045E3AE
:1012E0004A95F1F70000019682179307C1F7DCCF0A
:1012F0002896E4E00C9429200F931F93CF93DF935B
:10130000EB018A019091EA01943061F58093E90044
:101310008FEF9091E80095FD06C095ED9A95F1F755
:1013200000008150B1F78091E80085FF1BC00E944A
:101330009508811112C08091E80085FD06C080915A
:10134000E8008E778093E800F2CF88818093F100E7
:101350000150104011F02196EECF8091E8008E7779
:101360008093E800DF91CF911F910F910895CF9363
:10137000DF93EC0148E050E0BC0181E00E947C0971
:1013800088E0FE01AEEDB1E001900D928A95E1F7A3
:10139000DF91CF91089540E250E0BC0182E00E94CD
:1013A0007C09089546E050E0BC0182E00E947C097F
:1013B00008959091E00292FB222720F9281779F0F6
:1013C00080FB92F99093E0026091DF027091E0025D
:1013D00084E090E00E94A02082E00E94D60208955E
:1013E00080912F01811559F18091DF0287FF27C07D
:1013F0000E94ED028093B30140E250E06FE372E09F
:1014000082EB91E00E94B620892BC1F080E2E2EBF2
:10141000F1E0AFE3B2E001900D928A95E1F7E0913F
:101420005F02F0916002309749F086E08093B2014C
:101430000480F581E02D82EB91E0099508950E94EA
:10144000ED028093AA0148E050E061E672E08AEA8A
:1014500091E00E94B620892B89F388E0EAEAF1E066
:10146000A1E6B2E001900D928A95E1F7E0915F026A
:10147000F0916002309711F30280F381E02D8AEA47
:1014800091E0DBCF811539F09091DB02982B90939E
:10149000DB020E94F0090895811539F09091E10274
:1014A000982B9093E1020E94F0090895811521F094
:1014B0000E9414030E94F0090895811541F080955F
:1014C0009091E10289238093E1020E94F00908953E
:1014D000CF93C82F811509F463C08CEF8C0F813A2C
:1014E00008F060C080912F01811127C0ECEAF1E083
:1014F0008081C817C9F1319681E0E23BF807C1F756
:1015000080912F01811136C0ACEAB1E0EFEF80E0AD
:101510009C91C91709F442C01196EF3F19F491113B
:1015200001C0E82F8F5F863099F7EF3FB9F1FE2FAA
:10153000FF0FFF0BE655FE4F30C08091DF0287FFA3
:10154000D5CFEC2FE695E695E695F0E0EE54FE4F0C
:10155000828190E04C2F477021E001C0220F4A9514
:10156000EAF78223892B31F08C2F0E9488060E9493
:10157000F009C6CF8091DF0287FFC6CFEC2FE6953A
:10158000E695E695F0E0EE54FE4FC77081E001C0AD
:10159000880FCA95EAF7C281C82BC2830E94F0095E
:1015A000CF91089580E28C0F883060F4C77081E09D
:1015B00001C0880FCA95EAF7C091DB02C82BC0931F
:1015C000DB02ECCF83E38C0F833150F761E08C2F8B
:1015D0000E94E306E5CFCF93DF93EC01805E910993
:1015E000089720F06CE47AE0209711F462E47AE046
:1015F000CE010E9408028C2F0E94680ADF91CF91D1
:101600000895CF93DF93EC018A81823041F4FB018E
:10161000828193810E94EB0A8D8182608D83DF91AC
:10162000CF910895FB01808191810E94EB0A08957A
:101630008115F9F09CEF980F913A28F40E948806E2
:101640000E94F009089590E2980F983058F4982F6E
:1016500081E091FD84E090FD880F92FD82950E94CB
:101660001403EECF93E3980F933118F460E00E94D7
:10167000E3060895CF93DF93EC010E94180BCE018F
:10168000805E9109089720F06DE57AE0209711F4CB
:1016900066E57AE0CE010E940802DF91CF910895BD
:1016A000FC018281813031F4FB01808191810E94B3
:1016B0003A0B08958230E9F7FB0182819381F7CFDD
:1016C0001092DB0280912F018115F9F08091DF02E9
:1016D00087FF1BC0E4EBF1E08EE1DF011D928A95EC
:1016E000E9F71092E1020E94F00986E0E1EDF2E0F4
:1016F000DF011D928A95E9F71092CF021092CE0277
:101700001092D0020E94BC060895ECEAF1E086E057
:10171000E4CF0E94600B2FEF84E39CE021508040D7
:101720009040E1F700C0000088E19AE00FB6F8941D
:10173000A895809360000FBE90936000FFCFAAE24F
:10174000B0E0E5EAFBE00C940E2086ED91E0FC01B0
:1017500001962091F100208321E08E3D9207B9F798
:101760008091D701893009F456C0C8F4823009F459
:10177000B3C0833009F482C0813071F18091E800F8
:1017800083FFE7C08091D6019091D7019A3008F08D
:10179000E0C0E92FF0E0EF51FF4D0C944A208A3071
:1017A00009F489C08B3051F78091D601813231F72D
:1017B0008091DA019091DB01892B01F78091E8009B
:1017C000877F8093E8000E9476088091D8018093FB
:1017D0002F010E94600BD2CF8091D601813A71F621
:1017E0008091E800877F8093E8008091DA019091F2
:1017F000DB01892B61F060E080E090E070E00E9406
:10180000EC078091E8008B778093E800B7CF68E021
:101810008EED91E0F3CF8091D601813209F0AECF09
:101820008091DA019091DB01029708F0A7CF8091B7
:10183000E800877F8093E8008091E80082FF19C06C
:101840002091F3008091F200922F029731F4809161
:10185000F100813011F0863021F48091F100809305
:10186000E6018091E8008B778093E8000E9476087B
:1018700085CF8091EA018111DFCF80CF8091D601A1
:10188000813A09F07BCF8091DA019091DB01892BBD
:1018900009F074CF8091E800877F8093E800809101
:1018A000E80080FFFCCF80912F018093F1008091B0
:1018B000E8008E77D9CF8091D601813209F05ECFD2
:1018C0008091E800877F8093E8000E9476088091ED
:1018D000D9018093D20152CF8091D601813A09F08B
:1018E0004DCF8091E800877F8093E8008091E800E9
:1018F00080FFFCCF8091D201D8CF803889F0823828
:1019000041F58091DA018F70873018F58093E900F6
:101910008091EB0085FB882780F91092E90006C0D2
:101920008091E901880F9091D301892B9091E80073
:10193000977F9093E8008093F1001092F1008091DE
:10194000E8008E7723C0811116C08091D8018130C4
:1019500011F18091E80083FF0AC08091E800877F41
:101960008093E8008091EB0080628093EB00AA9660
:10197000E3E00C942A20823061F78091D801811530
:1019800081F01092E9008091E800877F8093E80061
:101990000E947608DECF933009F080E08093E90161
:1019A000F0CF8091DA018F702FEF280F263088F664
:1019B0008093E9002091EB0020FFE3CF933031F4D6
:1019C0008091EB0080628093EB00DBCF9091EB0085
:1019D00090619093EB0021E030E0A90101C0440F39
:1019E0008A95EAF74093EA001092EA008091EB00B2
:1019F0008860E9CF8111ADCF1091D8011F77809118
:101A0000E3008078812B8093E3008091E800877F5A
:101A10008093E8000E9476088091E80080FFFCCF68
:101A20008091E30080688093E30083E0111101C09E
:101A300082E08093EA018DCF8058823008F089CF10
:101A40002091D8013091D9012C3D53E0350791F513
:101A500083E08A838AE289834FB7F894DE01139684
:101A600020E03EE051E2E32FF0E0509357008491F4
:101A700020FF03C082958F703F5F8F708A30C0F067
:101A8000895C8D931D922F5F243169F74FBF809140
:101A9000E800877F8093E8006AE270E0CE0101965B
:101AA0000E94EC078091E8008B778093E80051CF8B
:101AB000805DE7CF832F90E08330910519F160F4CA
:101AC0008130910509F46CC08230910509F041CF55
:101AD0008BE3E2EDF1E029C02091DA013091DB01E6
:101AE0008132910509F453C08232910509F031CF5A
:101AF0002130310508F45CC009F02BCF84E8EAE01E
:101B0000F1E013C0822F90E0213099F182309105ED
:101B1000B9F1009709F01DCFEDE4F2E0E4918E2FCA
:101B2000EDE4F2E0009709F414CF2091E800277F5C
:101B30002093E8002091DC013091DD0182179307AA
:101B400008F49C0140E021153105B1F5411134C084
:101B50008091E80082FDA6CF8091EA01811509F409
:101B6000A1CF853009F49ECF8091E80083FFF0CFAC
:101B700099CFEFE3F2E0E4918E2FEFE3F2E0D2CFE2
:101B8000EFE1F2E0E4918E2FEFE1F2E0CBCF2130F4
:101B9000310550F009F0DDCE89E0EDEFF1E0C5CF81
:101BA00082E1EDE0F2E0C1CF89E0E4EEF1E0BDCF0B
:101BB00084E4EEE8F1E0B9CF8091EA01811509F4FF
:101BC00071CF853009F46ECF8091E80083FD6ACF34
:101BD0008091E80082FDBCCF8091E80080FFB3CF08
:101BE0004091F3008091F200942F2115310519F0F6
:101BF0008830910550F041E0089709F040E080916D
:101C0000E8008E778093E8009ECF44914093F100E6
:101C10003196215031090196E8CF803809F099CEEC
:101C20008091E800877F8093E8008091D4018093C1
:101C3000F10085CE81118DCE1091D801123008F0BF
:101C400088CE8091E800877F8093E8001093D401CC
:101C50000E947608111581F084E08093EA0142E049
:101C600061EC81E00E94460842E261EC82E00E9461
:101C700046088091EA016DCE8091E30087FDECCFAC
:101C800081E0EBCFCF93DF93EC014A855B856E85D6
:101C90007F850E9472069B8190958091E102892345
:101CA0008093E1028C810E9414030E94F00986E077
:101CB000FE0111928A95E9F7DF91CF910895CF93B4
:101CC000DF93EC018D8181FD17C082608D8380914F
:101CD000E1029B81892B8093E1028091DB029C8150
:101CE000892B8093DB020E94F009488559856E8517
:101CF0007F85CE010E9472061092D7021092D80200
:101D00008D8180FD03C0CE010E94420EDF91CF91F4
:101D10000895A0E0B0E0EFE8FEE00C9409207C011B
:101D2000FC018481811509F4F8C061E0C7010E94BB
:101D30003C05EC01F70185818115F1F08091D70216
:101D40009091D8020097C1F0C817D907A9F0E0E335
:101D5000F1E0811511F0E0E0F0E085818460858399
:101D6000C083D183CF010E945F0E1092E10261E037
:101D7000C7010E943C05EC019D2F9755D9F50C2F0A
:101D800010E0C111C6C0F70185819091350180FB3B
:101D900090F990933501811509F49AC00E94B0061C
:101DA0008093D9029093DA02809132018F5F809301
:101DB00032018091E1029091DB02892B8093330103
:101DC0008091DC02809334014091360150913701BB
:101DD00060913E0170913F0180E391E00E947206A4
:101DE0008091350181FD02C000E017E50093D70224
:101DF0001093D802F70185818115A9F0CA35FCE757
:101E0000DF0709F4B5C008F08DC0C1303CE7D30747
:101E100009F4ACC0C3308CE7D80709F4A1C0C115E0
:101E2000DC4709F490C0F70187819085009709F499
:101E3000AFC00E942D04D82FC92FF701C58006819D
:101E400002950F708091DE02877001F1DC2CC114C5
:101E5000F1F0892F807F803461F080E28D0F88302F
:101E6000A8F0892F807E803221F4D23078F00115DD
:101E700069F08091E00282FF09C082E00E94D602F0
:101E80008091DE028770DD24D3948111D12C8C2FB8
:101E900082958F70883009F464C108F0AFC0843037
:101EA00008F08DC01C2F1F70823008F4B8C0C07FAE
:101EB000C03211F01295107FD13008F4E6C009F459
:101EC0002DC1C11409F437C1011509F4FCC0BCC00F
:101ED00040913C0150913D0160913E0170913F0164
:101EE00080E391E00E9472068091350181FF82CFEC
:101EF00080E391E00E94420E8091D7029091D80237
:101F00008115974509F076CF1092D7021092D8022A
:101F100071CF8091DE02877079F5CDB7DEB7E8E04A
:101F20000C942520CB35ECE7DE0721F18091E0020F
:101F3000002482FF0394802DCC35DC4709F073CF59
:101F40000E94D90970CF0E94600B2FEF34E38CE020
:101F5000215030408040E1F700C000000E94D707C8
:101F60006FEF7FEF80E090E00E94A0200E94890B3D
:101F700081E0E6CF80E0E4CFF7018581811569F249
:101F80008091E00282FFC9CF82E00E94D602C5CFD5
:101F9000858100811181811569F0C8010E940A05BF
:101FA000C82F682FC8010E944502B8018C2F0E94DB
:101FB0001C033FCFC8010E947B02C82FF6CF85309B
:101FC00009F4CAC0D114A9F08091DE0280FD11C0CD
:101FD000F70115828695869586950E942B02C7018A
:101FE0000E94890E8091DE028695869586950E94D4
:101FF000360260E0C7010E943C058FCF893009F4AA
:1020000020C18A5F8F708230E8F6D23F09F02AC182
:102010008C2F8F71C11023C10E942B02CFC0C03101
:1020200010F01295107FC114B9F0111569F080E21B
:102030008D0F883010F0D11109C08091DB02812B07
:102040008093DB020E94F0098D2F2FC08091E10266
:10205000812B8093E102F6CF8D2F0E94180B111572
:1020600009F4B0CF80E28D0F883010F0D11104C098
:10207000812F0E94140306C010958091E1028123F4
:102080008093E1020E94F0099DCF8091E00282FDE1
:1020900016C0C11469F0111539F08091DB02812B53
:1020A0008093DB020E94F00980E00E94680A8ACFD8
:1020B00080E00E94180B111509F484CFD9CFC11408
:1020C00099F0013020F4812F0E94420A7BCF09F061
:1020D00079CF8091DC02912F9823191709F472CFE0
:1020E000812B8093DC026ECF01116CCF812F0E9477
:1020F000560A9091DC02812F892329F0812F809547
:1021000089238093DC028091DD02912F982309F4CA
:1021100059CF109518231093DD0254CFC11421F02C
:10212000063008F04FCFCFCF053008F04BCF812FCE
:102130000E94560A47CF0115D1F3D93349F4FFEF76
:1021400027EE33E0F15020403040E1F700C00000BE
:102150008D2F0E94180B36CF6C2D8D2F0E94E30619
:1021600031CF8C2F8370A9F5C11028C08D2F829597
:1021700086958770880F880F4D2F4F70082E01C0ED
:10218000440F0A94EAF72D2F2071D4FF06C02FE0E8
:1021900001C0220F8A95EAF72095C695C695C370AF
:1021A000C23091F0822F842BC33031F080915903DB
:1021B000C13039F0242B82230E9425020E94770629
:1021C00001CF842B822BF8CF242B809159038227B7
:1021D000F3CFC11459F1C0FFF1CF8D2F82958695B1
:1021E0008770880F880F4D2F4F70082E01C0440F45
:1021F0000A94EAF72D2F2071D4FF06C02FE001C00A
:10220000220F8A95EAF72095C695C695C370C2300D
:1022100099F0822F842BC33031F080915A03C13062
:1022200041F0242B82230E942802C8CF823030F252
:10223000D4CF842B822BF7CF242B80915A03822773
:10224000F2CFCF70C11439F08C2F0E942B028D2F4A
:102250000E94420AB3CF8D2F0E94560A8C2F0E94F3
:102260003602ACCF70F4D03FC9F0D13F91F0C11429
:1022700009F44DC0011509F447C08D2F0E94680A6A
:102280009DCFD33FF1F0D43F91F79091E00292FDC2
:1022900023C08C2F8F71C11411F3BECEC11479F0FD
:1022A000053008F08BCFCF7181E090E0FC0101C0D8
:1022B000EE0FCA95EAF780915A038E27B4CF063005
:1022C000F0CF80E0C11409F4AECFCF7181E001C03E
:1022D000880FCA95EAF7A7CFC11461F08C2F8F71D0
:1022E00092FF9ACE982F990F990F990F9360909320
:1022F000DE0292CE81E00E94D602023008F45ECF68
:1023000082E00E94D6025ACF8C2F8F7185CE0115A4
:1023100079F0D93349F4FFEF27EE33E0F150204054
:102320003040E1F700C000008D2F0E94180B46CF0F
:102330008C2F8F7194CF8091B902803170F480918D
:10234000B802811551F0E0916A0220916902309142
:10235000B4024091B3022E1301C00895BF0189E079
:10236000E89FF0011124DF01A559BD4F14968C910F
:102370001497811561F111968C911197831327C0E1
:102380008C91841324C015968C91159781111FC0D0
:1023900012968D919D91A091B502B091B6028A1BC3
:1023A0009B0B883C910598F48091B9028F708061F5
:1023B0008093B902EF58FD4F80818F7080618083D8
:1023C00083EB92E00E94890E0E94CC020895FB01EB
:1023D0003196E770C0CFAFE0B0E0E1EFF1E10C94EF
:1023E00004208C0186E0F801DE011A9601900D921E
:1023F0008A95E1F7F801F580C48083EB882E82E0AE
:10240000982E7090B702711020C0C114D9F0F11449
:1024100009F449C1C8010E947705811509F443C137
:1024200089E0F801D40101900D928A95E1F7F1E07D
:10243000CF1206C08091B3029091B4020E9463054E
:102440000E949B11FF24F3945DC0E080A280B380C2
:10245000D090B8028091B5029091B6029501281BE8
:10246000390BD11409F4E8C0283C310508F0B4C098
:10247000C11441F39091B402C1808091B9028031BE
:1024800008F061C0C9121DC09091B3029E1119C01D
:102490004091BA025091BB02278130854217530701
:1024A00081F4F1104AC08F7080618093B90283EB90
:1024B00092E00E94890E8091B902F8018683F12C86
:1024C00021C0F1103AC040E06C2D8E2D0E94AE026A
:1024D00040E06C2D8E2D0E94AE02F82E8111EFCFC0
:1024E0008A859B850E946305292F22952F70903441
:1024F00070F49F702230A0F09115B1F0F801968130
:10250000903190F48F2D2F96EDE00C9420202A5FCF
:102510002F70223068F0C8010E94890EFD2CF2CF86
:10252000911511F0811571F3805E883058F3F3CF67
:10253000803F40F3815F8330F9CF8091B9028160A1
:102540008093B902BCCFC9121CC09091B3029E11F6
:1025500018C04091BA025091BB02278130854217C2
:10256000530779F4F1100DC08683C8010E94890ECB
:1025700089E0F801A3EBB2E001900D928A95E1F7B2
:1025800061CFC8010E947705811509F48CC0F11450
:1025900009F489C08091B9028032A8F02091B30279
:1025A0003091B40229833A83AB82BC827D821E8241
:1025B0008F838091BA029091BB0288879987CE0160
:1025C00001960E94890E89E0F801A3EBB2E0019028
:1025D0000D928A95E1F734CF8091B902803150F4A1
:1025E00083EB92E00E94890E89E0F40111928A95B2
:1025F000E9F765CFC11409F425CF2091B402918188
:102600002913BFCF9091B3029E11BBCF4091BA0264
:102610005091BB02278130854217530709F0B1CF93
:10262000F110AFCF8683C8010E94890E89E0F401C2
:1026300011928A95E9F706CF283C3105A8F6C11416
:1026400009F400CFF11479F19091B40281819813CB
:1026500020C08091B3028E111CC02091BA0230912B
:10266000BB02878190852817390799F49091B902A8
:1026700090FD7ECF903108F47BCF892F9683907F99
:10268000903F09F472CF982F907F905F8F70892BC5
:102690006BCFC8010E947705811195CF8091B90257
:1026A00081608093B902C8010E94890ECBCEA2E15D
:1026B000B0E0EDE5F3E10C940D200A871B872C8731
:1026C0003D874E875F87688B798B8A8BCE010A9610
:1026D0000E94EB11811128C02091690230916A0299
:1026E00089E0FE013A96DE01119601900D928A95DD
:1026F000E1F78E858115C1F0822F90E08395877078
:1027000090E038171906D1F099E0929FD00111247A
:10271000A559BD4FFE01319601900D929A95E1F7B2
:10272000809369020E94CC0280916A0290916902B2
:10273000891312C06296E4E00C9429200E94600B79
:102740001092690210926A0289E0E3EBF2E0DF0185
:102750001D928A95E9F7E8CFB9E08B9FC00111245B
:1027600085599D4F0E94EB11811521F320916A023A
:102770002F5F3F4FC901877080936A02D5CFEF92D8
:10278000FF920F931F93CF93DF9380915603E091B5
:10279000E701CDE0811131C0CDB7DEB7E6E00C94A2
:1027A0002720D1E0DE0FD093E701EE2EF12CCE9F53
:1027B000F0011124E251FD4F84818115E9F08781F8
:1027C0009085892B21F481859285019659F40081A9
:1027D0001181228133814481558166817781808591
:1027E0000E945713CE9DF001CF9DF00D1124E251B0
:1027F000FD4F14821092E102ED2F80915603E817ED
:1028000080F2109256031092E701C6CF4F925F926A
:102810007F928F929F92AF92BF92CF92DF92EF9270
:10282000FF920F931F93CF93DF93C091ED0201E0CE
:1028300010E08091EC028C1314C00E94BF130E9420
:10284000C405DF91CF911F910F91FF90EF90DF9022
:10285000CF90BF90AF909F908F907F905F904F9060
:102860000895D0E0FE01EE0FFF1FEE51FD4F808175
:102870009181A0E0B0E08D30910540F427E0289FE1
:10288000D001299FB00D1124A05CBE4F14962C914D
:102890001497211152C0709056036EEE72E040E022
:1028A00050E0A12C471508F046C0FB014384548436
:1028B000CD90DD90129799249A94892CB12C2B2DD0
:1028C00030E0F601EB0DF11DEB0DF11DE590F590FB
:1028D0004E145F0409F09401EF2819F0B3944901F4
:1028E000EECF2F3F320771F1F80101C0EE0F2A95AC
:1028F000EAF7AE2A980102C0220F331FBA94E2F71A
:1029000021503109A2161306D9F412962D913D914A
:102910006DE0649FF001659FF00D1124E251FD4FC1
:102920002783308724E02483108211828187928755
:1029300061E011966C930E94D505C395C37079CF61
:10294000FB0114824F5F5F4F635F7F4FABCF1092ED
:1029500057031092580310929B018091EC028093D0
:10296000ED020E94C4050E94BF130895AEE1B0E0DD
:10297000ECEBF4E10C94FF1F4B8B5C8B6D8B7E8B2F
:102980008F8B592E988F91111092E102188A198A13
:102990001A8A86E0FE017396DE011A9601900D9266
:1029A0008A95E1F74F88411489F04E865F8661E091
:1029B000CE010A960E943C055C0180352CE7920707
:1029C00091F4511419F181E080939B014E865F864A
:1029D0000A851B852C853D85A201688979898A89AC
:1029E0000E945713C2C081353CE7930729F4511464
:1029F00069F00E94A714EACF82359C4739F451143C
:102A000029F080919B018111F4CFDDCF50E4E52EB8
:102A100051E0F52E312C812C912C34016394D70197
:102A20002D913D916FEF80E09FEFC82ED12CF901E1
:102A3000E80FF11DE80FF11D45915591A416B5065B
:102A400011F0C62ED92E452B21F08F5F6C2D9D2DB8
:102A5000ECCF10E0BFEFCB16DC0409F445C0F70162
:102A6000448110919B01411110E0D70115962D90E2
:102A70009C911697511409F401C1111509F4FEC077
:102A8000211015C021E00C2C01C0220F0A94EAF796
:102A9000922B16969C932091EA023091EB022233FE
:102AA000310528F422E32093EA021092EB02F301AD
:102AB00002C0EE0FFF1F8A95E2F7CF010197D70101
:102AC00016962C912817190679F480915703909146
:102AD0005803009709F44DC00E94C807C39708F433
:102AE00048C081E0F7018483312ABFEF8B1A9B0A2B
:102AF000E7E0EE0EF11CFDE08F16910409F08FCF98
:102B0000511409F417C1311409F414C10E94B0061C
:102B1000809357039093580380915603883028F58B
:102B200091E0980F9093560399E0FE013A96DE01EA
:102B3000119601900D929A95E1F74D825E822DE0FB
:102B4000829FC001112482519D4F29E0FE013196E0
:102B5000DC0101900D922A95E1F72FEF3FEFDC01A8
:102B600019962D933D93AD92BD926E96E2E10C9431
:102B70001B209091ED028091EC02292FA0E0B0E0A3
:102B800037E061E0981709F44FC0492F50E0998F62
:102B90001A8EFA01EE0FFF1FEE51FD4F4081518159
:102BA000A0E0B0E04D30510538F4349FD001359F9E
:102BB000B00D1124A05CBE4F4D915D9112974D8FC9
:102BC0005E8F212C70E000E0ED8DFE8DE00FF11D99
:102BD000E00FF11DC590D590C114D104E1F0F701CB
:102BE0000190F081E02DEB8FFC8F70E007C0E1E0F9
:102BF000C416D50609F0E0E02E2A7F5FEB8DFC8D30
:102C0000E70FF11DE70FF11D459155914115510554
:102C100071F70F5FD9CF211471F17017C0F4E1E0A3
:102C2000D7011496EC9314972093ED02AE15BF05CF
:102C300009F45ACF90E0FC01EE0FFF1FEE51FD4F5B
:102C400080829182019683708093EC024DCF109721
:102C500061F014966C931497AE15BF0529F3921387
:102C600004C0A9014395242F2370498D5A8D4395A3
:102C7000942F937087CFA0E0B0E0F7CF292F30E0FA
:102C8000211020C0B30102C0660F771F8A95E2F7BA
:102C9000CB0101978217930779F010E0F30102C08E
:102CA000EE0FFF1FCA94E2F76F01C094D70116968A
:102CB0008C918C218C9318CF411581F3C4010E9413
:102CC000D505EBCFA9010C2C02C0559547950A9468
:102CD000E2F7C901019782239323892B41F540FF35
:102CE00026C0D70112968D919D91892BD9F0FE01B6
:102CF000319687E0DF011D928A95E9F70E94B006C0
:102D00009C018B839C8384E08D83F7019281838176
:102D1000792F9887898709811A8144E05E816F81C4
:102D20000E945713D70115961C92122DB7CF142F5E
:102D30001170B4CF9091ED028091EC02981729F0B8
:102D40000E940614311011CF41CE0E94BF13109281
:102D50005703109258030E94C405F4CFA6E0B0E0D8
:102D6000E4EBF6E10C940D200E94B0068C018091FA
:102D70003D0290913E028017910779F019821A82E4
:102D80000E94B006BC0149815A8180E090E00E9417
:102D9000B61400933D0210933E022696E4E00C9494
:102DA0002920AEE0B0E0E7EDF6E10C940A20FE0148
:102DB000319688E0DF011D928A95E9F78EE9E82EC9
:102DC00081E0F82E8F01ED871E87F70181917F0149
:102DD0008F3F09F43FC0F894E82FE295EF70F0E0E0
:102DE00021A18F7041E001C0440F8A95EAF7842F3A
:102DF000922F942B91A392A18095892382A37894FA
:102E000000C0E2EAF1E031E0D12C21912F3F79F0CE
:102E1000A22FA295AF70A05EB0E08C9190E02F70D1
:102E200002C0959587952A95E2F780FF82C080E0E1
:102E3000D82A330F88EA91E08E179F0731F7F70100
:102E400082918F3F11F00E94AC0590EA9A95F1F7BC
:102E5000D801DC920F5F1F4FB2EAEB16B1E0FB0620
:102E600009F0B3CF48E050E06D857E858FE292E0B7
:102E70000E94B620009749F028E0ED85FE85AFE27C
:102E8000B2E001900D922A95E1F700912E0210E038
:102E90000A5D1D4F892B09F44EC081E08093250205
:102EA0000E94B006809323029093240280913702FF
:102EB000811509F497C07E01E9E0EE0EF11C84E073
:102EC000D7011D928A95E9F780911E028A3008F099
:102ED00054C04CE958E1B701C8010E943D09811571
:102EE00009F46EC046E359E1B701C8010E943D09EB
:102EF000811509F465C046E458E1B701C8010E9494
:102F00003D09811509F45CC010921E0280912202D5
:102F100090E044E050E0B7018A5D9D4F0E94B620EA
:102F200021E020932102892BE9F52E96E7E00C940D
:102F30002620832F7DCF80912502811509F4B6CFFD
:102F400080912302909124020E94C807059708F4FB
:102F5000ADCF44E050E06FE272E0C8010E94B620BD
:102F6000892B41F084E0EFE2F2E0D80101900D926C
:102F70008A95E1F71092250299CF80911F029091D6
:102F800020020E94C807843F914008F0A2CF8091A0
:102F90002102811551F284E0F70111928A95E9F737
:102FA00010922102E0912202F0E0EA5DFD4F898556
:102FB0009A85AB85BC8580839183A283B383B5CF8B
:102FC00080911E028F3F39F40E94B00680931F0249
:102FD00090932002DCCF8F5F80931E028A3008F42A
:102FE00095CFF2CFE0902202F12CA7014A5D5D4F10
:102FF0007A01F80180819181A281B38180930602D8
:1030000090930702A0930802B093090286E092E031
:103010000E9406068093050280910A0290910B029D
:10302000A0910C02B0910D02F70180839183A283DD
:10303000B383E0900E02F0900F0200911002109105
:10304000110280911A0290911B02A0911C02B09172
:103050001D02E816F9060A071B0709F466CFE0927D
:103060001A02F0921B0200931C0210931D020E9490
:10307000A607E61AF70A080B190BE0923902F0923C
:103080003A0200933B0210933C024FCFA4E0B0E021
:10309000ECE4F8E10C940E204091F9015091FA0112
:1030A0006091FB017091FC012FB7F89480910102AF
:1030B00090910202A0910302B09104022FBF841BE1
:1030C000950BA60BB70B11E084369105A105B10550
:1030D00070F10E94B207DC01CB010296A11DB11D67
:1030E00089839A83AB83BC838091280190912901C5
:1030F0008B5F9D4F20912701422F50E0253008F033
:1031000044E0BE016F5F7F4F0E94C32083E090E0E8
:103110000E947D1F182F811551F00E94A607609311
:10312000F9017093FA018093FB019093FC01812FC8
:103130002496E3E00C942A20A7E0B0E0E2EAF8E16C
:103140000C940E206E837F8380E090E00E947D1FB0
:10315000182F811509F469C080911201482F50E0A1
:10316000811141E060911301709114016B5F7D4FFB
:10317000CE0105960E94C32040911602509117027D
:1031800060911802709119022FB7F8948091010292
:1031900090910202A0910302B09104022FBF841B00
:1031A000950BA60BB70B84369105A105B10538F434
:1031B00086E092E00E9406069D818917B1F181E0C8
:1031C00090E00E947D1F8115F1F180911A01482F36
:1031D00050E0853008F044E060911B0170911C01C3
:1031E0006B5F7D4FCE0101960E94C32086E092E086
:1031F0000E9406069D81891326C00E94A60760933F
:103200001602709317028093180290931902898115
:103210009A81AB81BC818093120290931302A09398
:103220001402B093150281E00FC0809106029091C4
:103230000702A0910802B091090289839A83AB83A7
:10324000BC831111E4CF80E040911202509113022F
:103250006091140270911502EE81FF8140835183C9
:10326000628373832796E3E00C942A20A2E0B0E007
:10327000ECE3F9E10C940D2089839A8344E050E05B
:103280006AE072E00E94B6200091FD011091FE01FB
:103290002091FF0130910002EFB7F89440910102B4
:1032A000509102026091030270910402EFBF401B33
:1032B000510B620B730B443651056105710510F417
:1032C000892B09F180912001909121018B5F9D4F05
:1032D00020911F01422F50E0253008F044E0698121
:1032E0007A810E94C32082E090E00E947D1F8115B8
:1032F00059F00E94A6076093FD017093FE01809330
:10330000FF019093000281E02296E4E00C942920D2
:10331000CDB7DEB72C970FB6F894DEBF0FBECDBF8A
:1033200085B7806885BF85B7806885BF84B7877F8C
:1033300084BF0FB6F894A89580916000886180934F
:103340006000109260000FBE80E890E00FB6F89425
:1033500080936100909361000FBE8AEA95E08093AC
:10336000A8019093A9010E941F090E94C60880919C
:10337000E20084608093E20078948091EA018115F4
:1033800099F08091E9001091EC008F7010FB1127EB
:1033900017F9182B1092E9008091E80083FD0E9434
:1033A0009F0B1F701093E90082E084BD93E095BDF0
:1033B0009AEF97BD80936E001092390210923A02F4
:1033C00010923B0210923C0288EC90E02091E300C6
:1033D00027FD0EC0AFE3BCE91197F1F700C0000074
:1033E0000197A1F70E941F091092EA0180E001C035
:1033F00081E0809337028093380280930401811129
:103400000E948B1E809104018091040191E0892724
:10341000880F880F80932E0294E0981B90932202CD
:103420000EE911E022EAE22E21E0F22EF80181916C
:103430008F018F3F11F00E94AC05E016F106B1F745
:1034400002EA11E098EAE92E91E0F92ED8018D9177
:103450008D018F3F11F00E94AC05E016F106B1F727
:1034600088E0E6E2F2E0DF01282F1D922A95E9F7D5
:10347000EFE2F2E0DF011D928A95E9F780E090E04B
:103480000E946C20853E9E4F09F45EC065EE7EEF83
:1034900080E090E00E94A02060E082E090E00E9446
:1034A000822081E08093590361E083E090E00E94F4
:1034B000822060E074E184E090E00E94A02060E05F
:1034C00086E090E00E94822060E087E090E00E9429
:1034D000822060E070E0AB0188E090E00E949420E0
:1034E00060E083E290E00E94822060E08CE090E067
:1034F0000E94822060E08DE090E00E94822019828C
:103500001A821B821C821D821E821F82188648E03E
:1035100050E067E170E0CE0101960E94722060E009
:1035200070E0AB018FE190E00E94942060E070E0D9
:10353000AB018FE090E00E94942060E070E0AB016E
:1035400083E190E00E94942082E090E00E94642059
:103550008093EB0184E090E00E946C208093DF0276
:103560009093E0020E94D116EFEFF6E721E0E150E0
:10357000F0402040E1F700C000000E94D116E09129
:10358000380281E0E827EE0FEE0FF0E0EA5DFD4F34
:10359000808181FF08C06FEF7FEF80E090E00E94A4
:1035A000A0200E94D70783E090E00E9464200E9440
:1035B000250280913702811102C00E948E1E85E093
:1035C00091E080935F0290936002CE0101968B8719
:1035D0009C878091EA01853069F400E110E482E182
:1035E000F82E8091EA01853009F451C00E94600BE9
:1035F0000E9477060E94D1160CEE11E0E6E2F2E09E
:10360000E987FA87D8019D91808124EF31E02A175C
:103610003B0709F471C031969817A9F3A0903702BF
:10362000F12CA985BA85ED90A987BA87F801B190E8
:103630008F01BE1429F1BE24CC24C394D12C8B2D30
:103640008C21B9F0A114A9F0D982FA820E94B006A7
:103650008B839C83F1E0FD8391E08E2D8C2109F416
:1036600090E09E8349815A816B817C818D810E948B
:10367000B614D394CC0C26E0D212E1CFF801E2923A
:10368000F39438E0F312CDCF0E94B20739C0809195
:10369000EA01843019F11092E80188E190E00FB658
:1036A000F894A895809360000FBE1093600083B7D4
:1036B000817F846083BF83B7816083BF789488955E
:1036C00083B78E7F83BF0FB6F894A8958091600072
:1036D000886180936000109260000FBE0E94D11636
:1036E000E6E2F2E08081811138C13196AEE2B2E0CB
:1036F000AE17BF07B9F775CF981390CF0E94AE16DB
:1037000080913702811509F440C00091D7021091D1
:10371000D80201151105A9F08091D9029091DA0221
:103720000E94C807893C910560F080E391E0011593
:1037300011F080E090E0DC0115962C9122FF0E94B0
:103740005F0E80919B01811501F18091570390914B
:1037500058030097D1F00E94C8072091EA023091E7
:10376000EB022817390788F49091ED028091EC0262
:10377000981709F4DFC00E9406141092EA02109212
:10378000EB02109257031092580386E0E1EDF2E04D
:10379000AB85BC8501900D928A95E1F7D090D2025D
:1037A000F090D3021091D402E090D5020091D6029D
:1037B0001092D3021092D4021092D5021092D60227
:1037C000812F8F2909F43FC08091F6019091F70174
:1037D0000E94C8079C019091CF02911509F4B8C0CE
:1037E0002531310580F19F3F19F09F5F9093CF0203
:1037F000F11459F00E942D0691E01F140CF09FEF78
:10380000899F802D11248093D302111559F00E94B5
:103810002D0691E011160CF09FEF899F802D112449
:103820008093D4028091D302811569F0C090D402B4
:10383000C11449F00E941F068093D3028C2D0E9470
:103840001F068093D402802F8E2909F43FC08091F7
:10385000F4019091F5010E94C8079C019091CE025D
:10386000911509F470C02135310580F19F3F19F0A1
:103870009F5F9093CE02E11459F00E944D0691E0B3
:103880001E140CF09FEF899F802D11248093D50288
:10389000011559F00E944D0691E010160CF09FEFB3
:1038A000899F802D11248093D6028091D5028115A5
:1038B00069F0E090D602E11449F00E941F0680935F
:1038C000D5028E2D0E941F068093D6028091D202CF
:1038D000D81219C08091D302811511F08F1113C035
:1038E0002091D402211511F012130DC09091D6022F
:1038F000911511F0091307C03091D502311103C0A1
:10390000822B892B11F00E94BC0686E0EB85FC859A
:10391000A1EDB2E001900D928A95E1F70E94770641
:103920009091F801891709F454CE8093F8010E9410
:10393000A6074FCE0E94BF13109257031092580350
:103940000E94C40522CF2B30310508F091CFBECFA5
:103950002B30310508F049CF76CF8091E9018115F0
:1039600009F43FCE09BDF9BC09B400FEFDCF80913A
:10397000D8008F7D8093D8008091E0008260809392
:10398000E0008091E00081FDFCCF0E94600B29CE19
:103990001F921FB61F9211248F939F93AF93BF93D3
:1039A0008091E801811113C080910102909102027F
:1039B000A0910302B09104024196A11DB11D809314
:1039C000010290930202A0930302B0930402BF91FC
:1039D000AF919F918F911F901FBE1F901895789463
:1039E0001F921FB61F9211248F939F93AF93BF9383
:1039F0008091010290910202A0910302B091040211
:103A00000196A11DB11D8093010290930202A09323
:103A10000302B0930402BF91AF919F918F911F90C9
:103A20001FBE1F9018951F920F920FB60F92112470
:103A30002F933F934F935F936F937F938F939F93B6
:103A4000AF93BF93EF93FF938091E10082FF09C092
:103A50008091E20082FF05C08091E1008B7F80931E
:103A6000E1008091DA0080FF24C08091D80080FFBF
:103A700020C08091DA008E7F8093DA008091D90097
:103A800080FF9BC080E189BD82E189BD09B400FE51
:103A9000FDCF81E08093EA018091D501811109C0B9
:103AA0000E941F090E94C6088091E20084608093F2
:103AB000E2008091E10080FF17C08091E20080FF6A
:103AC00013C08091E2008E7F8093E2008091E2003B
:103AD00080618093E2008091D80080628093D8005A
:103AE00019BC85E08093EA018091E10084FF29C040
:103AF0008091E20084FF25C080E189BD82E189BD1B
:103B000009B400FEFDCF8091D8008F7D8093D8004E
:103B10008091E1008F7E8093E1008091E2008F7EB2
:103B20008093E2008091E20081608093E2008091C6
:103B3000D401811509F447C084E08093EA018091A3
:103B4000EA018091E10083FF27C08091E20083FFBA
:103B500023C08091E100877F8093E10082E0809321
:103B6000EA011092D4018091E1008E7F8093E10000
:103B70008091E2008E7F8093E2008091E20080617C
:103B80008093E20042E060E080E00E94460880917D
:103B9000F00088608093F000FF91EF91BF91AF91AA
:103BA0009F918F917F916F915F914F913F912F9155
:103BB0000F900FBE0F901F90189519BC1092EA013C
:103BC0001092D50176CF8091E30087FF02C083E099
:103BD000B4CF81E0B2CF1F920F920FB60F92112493
:103BE000EF92FF920F931F932F933F934F935F9307
:103BF0006F937F938F939F93AF93BF93CF93EF93E5
:103C0000FF9309EE10E0F8018081C091EC008F7005
:103C1000C0FBCC27C7F9C82B1082E0EF8081877FDB
:103C2000808378940E949F0BF8011082E0EF8081DE
:103C300088608083CF70E9EEC083FF91EF91CF91D0
:103C4000BF91AF919F918F917F916F915F914F91B4
:103C50003F912F911F910F91FF90EF900F900FBE0A
:103C60000F901F9018958EE14A9B02C08150E1F79A
:103C70004A9BFECF08955A9880E28A95F1F75A9AA6
:103C80000895FC012BE02A95F1F728E080E090E010
:103C900031E040E14A95F1F7880F4A9B02C081600C
:103CA000932742E04A95F1F7000040E14A95F1F789
:103CB000215079F720E12A95F1F729B132E03A95C0
:103CC000F1F7000040E14A95F1F731E022FD93273A
:103CD0002081920F90830895A1E0B0E0E2E7FEE139
:103CE0000C940B2019828C017C01E60EF11C0E94C1
:103CF000331ECE0101960E94411EF80181938F016F
:103D0000EE15FF05A1F781E09981911180E02196E0
:103D1000E6E00C942720529A5A9A089552985A9A9B
:103D2000EA9AE9E6F0E080818F7C80830895615013
:103D3000770B91E001C0990F6A95EAF7692F90E03F
:103D400021E0611108C0911591F05A9A80E28A959C
:103D5000F1F75A980895362F382339F05A9A922756
:103D600030E23A95F1F76695ECCF5A98F9CF5A9828
:103D7000EDCFA3E0B0E0EFEBFEE10C940D208A83E1
:103D80009B830A811B81060F111DEA81FB818191B2
:103D9000EA83FB8389830E943B1E68E089810E943D
:103DA000971EEA81FB81E017F10779F72396E4E09B
:103DB0000C9429201F920F920FB60F9211240F938B
:103DC0001F932F933F934F935F936F937F938F93A3
:103DD0009F93AF93BF93EF93FF93CF93DF930F9294
:103DE000CDB7DEB719820E94331ECE0101960E9424
:103DF000411E082F069506950695282F22952570B9
:103E0000902F9570920F292F237096959695920F6B
:103E1000982797708981892B09F059C0053008F0DF
:103E200056C080E18A95F1F75A9A529A82E08A95B3
:103E3000F1F700C05A9888E0089F80011124D8014A
:103E4000A15FBE4F1696ED91FD911897309791F0B6
:103E500060919C0170919D0114962D913D91260FCA
:103E6000371F15978D919D91680F791F4C9113976E
:103E70008C910995F801E15FFE4F6381611551F066
:103E800020919C0130919D0184819581820F931F27
:103E90000E94B91E0E943B1E80E18A95F1F75A9854
:103EA00052985A9A80E18A95F1F7F801E15FFE4F46
:103EB0006081611551F020919C0130919D018181BB
:103EC0009281820F931F0E946C1E0E94331E0F90DE
:103ED000DF91CF91FF91EF91BF91AF919F918F9122
:103EE0007F916F915F914F913F912F911F910F9112
:103EF0000F900FBE0F901F901895A4E0B0E0E3E87C
:103F0000FFE10C940F2089839A83853091050CF092
:103F10006FC0F894529A5A9845E04A95F1F700001C
:103F2000982F9695957089818570980F892F837049
:103F3000292F26952695E981FA8193E0EE0FFF1F40
:103F40009A95E1F7EB83FC83280FE22BF32BE983AF
:103F5000FA830E943B1E00C068E089810E94971E80
:103F6000F0E1FA95F1F752985A9A4A9B3AC087E0E5
:103F700090E04A9938C0EB81FC81E15FFE4F63819C
:103F8000611561F020919C0130919D0184819581A2
:103F9000820F931F0E946C1E811539F10E94331EFF
:103FA00040E24A95F1F75A98529A50E15A95F1F742
:103FB0008B819C81815F9E4F89839A83FC01608104
:103FC000611551F020919C0130919D018181928178
:103FD000820F931F0E94B91E0E943B1E789481E0BD
:103FE00008C000C0C2CF019741F4529A5A9A7894FF
:103FF00080E02496E2E00C942B2000C0BACF2F92F0
:104000003F924F925F926F927F928F929F92AF9268
:10401000BF92CF92DF92EF92FF920F931F93CF93B5
:10402000DF93CDB7DEB7CA1BDB0B0FB6F894DEBF4C
:104030000FBECDBF09942A88398848885F846E8472
:104040007D848C849B84AA84B984C884DF80EE80BC
:10405000FD800C811B81AA81B981CE0FD11D0FB6C5
:10406000F894DEBF0FBECDBFED01089597FB072E7C
:1040700016F4009407D077FD09D00E94502007FC69
:1040800005D03EF4909581959F4F08957095619568
:104090007F4F0895EE0FFF1F0590F491E02D0994D6
:1040A000AA1BBB1B51E107C0AA1FBB1FA617B7075E
:1040B00010F0A61BB70B881F991F5A95A9F780957A
:1040C0009095BC01CD010895F999FECF92BD81BDB7
:1040D000F89A992780B50895A8E1B0E042E050E051
:1040E0000C94A820DC01A40FB51F4150504048F0AB
:1040F000CB01840F951F2E910E9483204150504088
:10410000D0F70895262FF999FECF92BD81BDF89A78
:10411000019700B4021639F01FBA20BD0FB6F8940B
:10412000FA9AF99A0FBE08950396272F0E948320CA
:104130000E948220252F0E948320242F0C9483200C
:104140000196272F0E9483200C948220DC01CB0152
:10415000FC01F999FECF06C0F2BDE1BDF89A319697
:1041600000B40D9241505040B8F70895FB01DC01B6
:1041700004C08D910190801921F441505040C8F73E
:10418000881B990B0895FB01DC0102C001900D9280
:1041900041505040D8F70895F894FFCFEF06F70646
:1041A000FA06000715071507150715071507150760
:1041B00015071507030708070C071207220728072A
:1041C0002C077D0CA30CA90CA30CA90CFA0C1C0D3C
:0641D000A90C0D0E1A0EF1
:1041D6003300290001E807B709CB09D209EB07002C
:1041E60000000100000000000000040100000004BF
:1041F60005000000000000040900000000000001A6
:10420600000000000000010B120B500B0000000123
:1042160002010052000000FA000352000000F40000
:10422600A852000000EE00A252000000E800A152D1
:10423600000000E000AA52000000D800A3520000CF
:1042460000D200B852000000CC00B252000000C6F6
:1042560000B152000000BE00BA52000000B600B322
:1042660052000000AC00390000000001050294660F
:0842760097C6F4F5F6F73133A9
:00000001FF
