:100000000C94E9010C9406020C9406020C94F41E64
:100010000C9406020C9406020C9406020C94060240
:100020000C9406020C9406020C942D1D0C94051ED3
:100030000C94E21C0C9406020C9406020C9406022A
:100040000C9406020C9406020C9406020C94060210
:100050000C9406020C94091D0C9406020C940602E2
:100060000C9406020C9406020C9406020C940602F0
:100070000C9406020C9406020C9406020C940602E0
:100080000C9406020C9406020C9406020C940602D0
:100090000C9406020C9406020C9406020C940602C0
:1000A0000C9406020C9406020C9406020700090048
:1000B0000D000E00000010000E000F0000000D00EB
:1000C0000E000F0000000D000F0000000D000E00DC
:1000D00000000E000F0000001600070019000000CD
:1000E00016000700090000001600090000000700C4
:1000F0000900000016000700000018000C001200A4
:100100000000100036003700000005010902A101BF
:1001100085020901A1000509190129081500250119
:100120009508750181020501093009311581257F86
:1001300095027508810609381581257F9501750896
:100140008106050C0A38021581257F950175088105
:1001500006C0C005010906A1018506050719E029A9
:10016000E715002501950875018102050719002989
:10017000EF1500250195F075018102050819012987
:1001800005950575019102950175039101C0050161
:100190000906A101050719E029E7150025019508C1
:1001A000750181029501750881010507190029FF74
:1001B000150026FF0095067508810005081901291C
:1001C00005150025019505750191029501750391AD
:1001D00001C009023B00020100A0FA09040000016D
:1001E00003010100092111010001224400070581DA
:1001F00003080001090401000103000000092111A6
:100200000100012284000705820320000112010081
:100210000200000008534601000100010200011E17
:100220000343006F0072006E00650020004B006504
:1002300000790062006F0061007200640000000C31
:1002400003430052004B0042004400000004030935
:1002500004000014001A0008001500170000000434
:10026000001600070009000A0000001D001B000125
:100270005702570500000000000000E0002252284D
:10028000220000130012000C0018001C00000000E7
:10029000570F000E000D000B00000038003700362D
:1002A00000100011000000000000002B0021522C63
:1002B0000000001E021F0220022102220200002F65
:1002C000002F0234023002300000003502350034C5
:1002D000000100010000000000000000000100011A
:1002E0000000002702260225022402230200002A21
:1002F000002D022D002E002E02000031020100010F
:1003000000010001000000000000000000010001E9
:100310000000001E001F002000210022000000013C
:100320000001000100230080000000010001007CAA
:100330000020008100000000000000010001000119
:1003400000000027002600250024002300000001F3
:10035000004F0052005100500000004C000100010D
:100360000001000100000000000000010001000188
:10037000000000290014001A000800150000002BDE
:100380000004001600070009000000E1001D001B2A
:100390000006001900000000000000E00028002C0A
:1003A0000000000100010001000100010000000147
:1003B0000001000100010001000000010001000136
:1003C0000001000100000000000000010001000128
:1003D000000011241FBECFEFDAE0DEBFCDBF11E079
:1003E000A0E0B1E0EAE0F2E402C005900D92A03D89
:1003F000B107D9F723E0A0EDB1E001C01D92A33809
:10040000B207E1F70E949B190C94E6200C940000BF
:100410009C01FB0191509F31B0F4832F817034FF18
:100420000AC08295807F31FD806232FD806433FD99
:1004300080680995089531FD826032FD846033FF44
:10044000F8CF8860F6CF80E0F4CF809381030895E1
:1004500080938203089521E001C0220F8A95EAF774
:1004600080918203822B0E942802089521E030E0CF
:10047000A90101C0440F8A95EAF7842F80959091D5
:10048000820389230E9428020895292F983090F52D
:10049000863080F590E036E0239F800D911D112479
:1004A00051E081FD54E080FD550F82FD529523E01F
:1004B000969587952A95E1F7FC01EE0FFF1FE80F4F
:1004C000F91FEC51FD4F20E030E070E04191DF0179
:1004D000CB01022E02C0969587950A94E2F7869585
:1004E000880B8427852384278E932F5F3F4F2330EB
:1004F000310561F70895292F983070F5863060F541
:1005000090E036E0239F800D911D1124682F6770C5
:1005100023E0969587952A95E1F7FC01EE0FFF1FE2
:10052000E80FF91FEC51FD4F40E050E080E02191D1
:1005300030E0062E02C0369527950A94E2F7217026
:10054000042E01C0220F0A94EAF7822B4F5F5F4FFF
:100550004330510561F7089580E00895E0919202DB
:1005600090919102E91302C080E008959F0159E043
:10057000E59FF0011124ED56FD4F5181561306C041
:100580005081581303C05581541304C0F9013196AA
:10059000E770E8CF81E00895809192022091910266
:1005A000281301C0089501968770FACF9091060331
:1005B0008095892380930603282F277069F4891773
:1005C00059F09091080392FF07C08695869586950D
:1005D0000E943602109206030895809103039091C1
:1005E0000903892B909104039115C9F0892B9091EF
:1005F0003701911521F09091070397FD11C096E006
:1006000024ED31E040E09150F90150812F5F3F4FE0
:1006100051114F5F9111F7CF4111109204030895CA
:100620009EE12CED31E0EECF982F90958091030361
:100630008923809303030895972F7830B8F46630A8
:10064000A8F48430B0F470E026E0929F600D711D34
:100650001124FB0190E3899FE00DF11D1124EE0FA1
:10066000FF1FEF5AFD4F85919591089580E090E02E
:10067000089581E0FCCF803E9105D1F1C8F481332B
:10068000910509F481C048F48932910509F471C0DB
:100690008A32910509F47FC0089589339105E1F00C
:1006A00082389105C9F08533910509F45DC008953C
:1006B000843E9105D1F148F4823E910531F1833EAB
:1006C000910541F181EE90E00895863E9105C1F1DA
:1006D000873E9105F1F1089520910703237009F0F9
:1006E00064C02091080323FF14C089E290E00895BC
:1006F0002091070320FD45C03091080330FF09C059
:1007000024FD24C083EE90E008952091070322FD8C
:10071000F7CF08952091070322FD44C030910803CC
:1007200030FD43C024FFF5CF11C02091080321FF05
:10073000F0CF8091070384FD09C087EE90E0089513
:100740002091070323FFE5CF24FFF7CF80E090E05F
:1007500008952091070323FD2BC03091080331FF3A
:10076000E1CF84EE90E008952091070325FFD1CFDB
:10077000BCCF2091070325FD1EC02091080323FF55
:10078000C8CF89E390E008952091070326FFC1CFE9
:100790008AE290E008952091070326FFBACF81E313
:1007A00090E0089582EE90E0089580EE90E0089544
:1007B00086EE90E0089585E390E008959091070318
:1007C00092FF10C041E0282F2471243009F040E04E
:1007D00031E0282F2871283009F030E0431711F05C
:1007E0002CE0822793FF10C041E0282F2471243190
:1007F00009F040E031E0282F2871283109F030E07D
:10080000431711F02CE082273091080330FF10C00D
:1008100051E0282F2171213009F050E041E0282FCC
:100820002871283009F040E0541711F029E08227A0
:1008300031FF10C041E0282F2171213109F040E043
:1008400031E0282F2871283109F030E0431711F0EA
:1008500029E0822794FD877E08950F931F93CF93FD
:10086000DF930E943B03EC01923508F03FC09035C6
:1008700008F0AFC0883E9105E0F4803E910558F441
:10088000853A910570F4049730F481E0219709F0DE
:1008900080E0C82FD0E0CE01DF91CF911F910F9162
:1008A00008958D5C9109D0654397A8F3C0E0D0E02E
:1008B000F2CFD03490F4D03208F0A0C0CE019150E5
:1008C0009F31A0F78D2F0E94DE03082F8C2F90E020
:1008D0000E943B03EC01D02BDECF8C2F90E00E94D6
:1008E0003B03DF70C82FD92BD06AD5CF803842E5C3
:1008F0009407C8F5803652E5950708F04FC0C0341C
:1009000082E5D807D0F48C2FC03292E5D90708F0E1
:1009100040C08695869520E2829FC0011124C37055
:1009200021E030E0A90102C0440F551FCA95E2F74B
:10093000EA01C82BD92BDD68AECF8C2F8695869522
:10094000877050E2859FC0011124C37021E030E020
:10095000A90102C0440F551FCA95E2F7EA01C82B4E
:10096000D92BDC6898CF803C52E5950740F48F7115
:10097000C03AD24540F5D82FC4EFD06A8CCF805C06
:100980009245809708F092CFDC2FDF71C0EFD06ADC
:1009900082CF8F71D82FC1EFD06A7DCF8695869593
:1009A000877020E2829FC0011124C37021E030E0F3
:1009B000A90102C0440F551FCA95E2F7EA01C82BEE
:1009C000D92BDA6868CF0E94DE03C0E0D82FD0624E
:1009D00062CF8F710E94DE0393E0CC0FDD1F9A95EA
:1009E000E1F7DF70282F30E084FF04C050E1859FDD
:1009F00090011124C22FD32BD0694DCF8D2F8F7131
:100A00000E94DE03082F8C2F90E00E943B03EC0134
:100A1000D02BDDCFA4E0B0E0E0E1F5E00C9426209F
:100A200089839A830091820380918103082B87E058
:100A30008B831C8210E0C8010B8002C095958795BE
:100A40000A94E2F780FD0DC08B819C8101978B8316
:100A50009C83019681F7F12C8F2D2496E5E00C9470
:100A60004220FB8069817A818F2D0E941C030E94A5
:100A70002D04019749F3F0CF0F931F93CF93FC01FF
:100A80002781308521153105A1F4858100811181EF
:100A90008115A1F0611591F0C8010E940A05C82FC7
:100AA000682FC8010E944502B8018C2F0E941C03C8
:100AB0009C01C901CF911F910F910895C8010E9417
:100AC0007B02C82FF1CFA2E0B0E0E9E6F5E00C949C
:100AD000292089839A830E940A0569817A810E946C
:100AE0001C030E942D042296E2E00C944520FC0198
:100AF0008481811511F1878190850097A1F00E9472
:100B00002D04282F92959F709630C1F088F4925F43
:100B10009F70923030F4203FD9F060F481E0283E9D
:100B200060F080E00895808191810E946305E9CFA3
:100B30009A5FEECF81E0243FA1F7089591E0813FD5
:100B400009F090E081E0283E08F080E0892B0895CC
:100B500081E0089580E00895F894E82FE295EF7021
:100B6000F0E041A18F7021E030E0B90101C0660FD3
:100B70008A95EAF7862F962F9095942391A392A1B8
:100B8000892B82A378940895109212031092130374
:100B9000E8E6F1E08581811102C014821682379661
:100BA00081E0E33CF807B1F70895AC0180911503AB
:100BB00060911403982F691301C00895292F30E024
:100BC000F901EE0FFF1FE65FFC4F0190F081E02D71
:100BD000E417F507B9F4E0E0F0E04D30510540F4DA
:100BE00067E0649FF001659FF00D1124E859FE4F06
:100BF00041E044839813E1CF2F5F3F4F2370209350
:100C0000150308952395922F9370D5CFFC01AC0165
:100C10004C5F5F4F8FEF61E39191892728E030E0CF
:100C2000982F990F87FF09C0892F862721503040C0
:100C3000B9F7E417F50781F70895892FF7CF282F23
:100C400035EB2303C001112497FF04C0805891099C
:100C5000892F089580589F4FFBCF8091F80280FD27
:100C600014C081FD14C082FD16C08091F702811569
:100C700081F08E3180F420E5829FC00111246EE165
:100C800070E00E945020862F089584E1089588E244
:100C9000089588E0089580E508958091F80280FD28
:100CA00017C081FD17C082FD19C08091F602811521
:100CB00099F0883298F428E0829FC001112468E2FC
:100CC00070E00E9450206115710551F0862F089543
:100CD00062E0FCCF64E0FACF61E0F8CF68E0F6CFE5
:100CE00081E00895FA01309709F0099508958091FF
:100CF0005F02811561F0E0918702F09188023097E0
:100D000029F00190F081E02D0995089580E0089583
:100D100090913701911521F09091070397FD0CC038
:100D2000E4EDF1E09191891302C0DF011E9291E0A0
:100D3000EA3DF907B9F70895E82FE695E695E695B7
:100D4000803FC8F7F0E0E652FE4F9DEF81FD97EF40
:100D500080FF959582FD92958281892382830895F3
:100D60002FB7F8948091290290912A02A0912B022A
:100D7000B0912C022FBF08950E94B0069C01909163
:100D8000FB028091FC02982B21F020931E023093ED
:100D90001F029091FD028091FE02982B21F020937A
:100DA0001C0230931D02E0918702F0918802309777
:100DB00049F082E08093F9020680F781E02D89EF07
:100DC00092E009950895611509F44AC0E3E3E80F3C
:100DD000E33150F4F0E0E851FF4D0C9464200E94A0
:100DE0002D0681958093FC020E94BC0608950E9406
:100DF0002D06F8CF0E942D0681958093FB02F4CF3B
:100E00000E942D06FACF0E944D068093FD02ECCF82
:100E10000E944D068195F9CF0E944D0681958093E1
:100E2000FE02E2CF0E944D06FACF815D990B21E0D0
:100E300001C0220F8A95EAF78091FA02822B8093F3
:100E4000FA02D2CF8091F80281608093F802CCCF71
:100E50008091F8028260F9CF8091F8028460F5CF2A
:100E60004091FB028D3C59F48091FC0287FF0DC03C
:100E70001092FC02411559F41092F70208C08E3C02
:100E800081F48091FC0218169CF3411581F0809149
:100E9000FD029091FE02892B09F0A6CF1092F60276
:100EA000A3CF8F3C41F447FFF0CF1092FB0280911B
:100EB000FC028115E0CF803D19F41416B4F3E5CFA0
:100EC0009091FD02893D29F41916FCF61092FD025D
:100ED000DCCF8A3D19F497FFD8CFF8CF9091FE026E
:100EE0008B3D29F497FFD1CF1092FE02CECF8C3DDF
:100EF00019F41916CCF3C9CF9FE2980F983088F4F3
:100F0000815D990B21E030E0B90101C0660F8A953F
:100F1000EAF7862F80959091FA0289238093FA024E
:100F2000B4CF8D3D31F48091F8028E7F8093F8022A
:100F3000ACCF8E3D21F48091F8028D7FF7CF8F3DAD
:100F400009F0A3CF8091F8028B7FF0CF2FB7F894F0
:100F50006091290270912A0280912B0290912C02BB
:100F60002FBF089580915F02811519F00E94A60796
:100F700008950E94A607209161023091620240917B
:100F8000630250916402620F731F841F951F0895BE
:100F90009C014FB7F8948091290290912A02A09168
:100FA0002B02B0912C024FBF821B930B089587E751
:100FB00097E7809300089093010888E19AE00FB6C4
:100FC000F894A895809360000FBE90936000FFCFC7
:100FD00080910E0208950895FC0180910402909181
:100FE00005028617970748F06115710529F480916D
:100FF000E8008E778093E800CB0140E0009741F451
:10100000411106C08091E80082FF30C080E0089561
:10101000209112022115B1F12530B1F12091E800A3
:1010200023FD2EC02091E80022FDECCF2091E800A6
:1010300020FFE4CF4091F3002091F200342F00977D
:1010400019F02830310558F041E02830310509F019
:1010500040E02091E8002E772093E800CFCF419127
:101060004093F10001972F5F3F4FE9CF809112022B
:10107000811541F0853041F08091E80083FFC2CFB7
:1010800081E0089582E0089583E00895982F909379
:10109000E900891771F07091EC002091ED005091FA
:1010A000F00021FD09C09F5F973089F78093E90028
:1010B0000895762F242F50E03091EB003E7F30933F
:1010C000EB003091ED003D7F3093ED003091EB006F
:1010D00031603093EB007093EC002093ED0050935F
:1010E000F0002091EE0027FDDECF08958091FE01F3
:1010F00087FF13C08091E80082FF06C08091E8005E
:101100008B778093E8000895809112028111F2CFCD
:101110000895809112028115D9F38091E80080FF33
:10112000F8CF8091E8008E77ECCF2091E4003091E9
:10113000E50095E6A9012091EC00822F817020FF47
:1011400006C08091E80080FF06C080E008952091ED
:10115000E80022FD1AC080911202811589F08530C5
:1011600089F08091EB0085FD0FC02091E400309163
:10117000E50042175307F9F29150E1F684E0089533
:1011800082E0089583E0089581E00895A0E0B0E052
:10119000ECECF8E00C942320C8EDD0E088818F7E41
:1011A0008883E7EDF0E080818160808384E082BF06
:1011B00081E08093FD0188818E7F888302EE10E0BC
:1011C000E2EE10821092DA006801CA94E1EE108219
:1011D00088818F77888388818068888388818F7DE4
:1011E000888319BC109212021092FC011092110215
:1011F0001092FB017601EA94E0EE80818B7F808380
:1012000088818160888342E060E080E00E94460837
:10121000F60180818E7F8083E2EE80818160808311
:10122000808188608083E0EE80818E7F80838881EA
:1012300080618883CDB7DEB7E8E00C943F20E8ED0D
:10124000F0E080818E7F80831092E2001092DA00BD
:101250001092E100A0EEB0E08C9181608C938081CF
:101260008F77808319BCA7ED8C918E7F8C938081C2
:101270008F7E80831092FD010895A8E0B0E0E3E442
:10128000F9E00C94272089839A836B837C834D83B8
:101290005E83809146020AE010E08A3010F001E09F
:1012A00010E021E02F8318866B817C8189819A81EF
:1012B000ED81FE81099581111BC02F8138852F5F3B
:1012C0003F4F2F8338870217130794F0C901889F77
:1012D0009001899F300D300D112480E090E045E3AE
:1012E0004A95F1F70000019682179307C1F7DCCF0A
:1012F0002896E4E00C9443200F931F93CF93DF9341
:10130000EB018A0190911202943061F58093E9001B
:101310008FEF9091E80095FD06C095ED9A95F1F755
:1013200000008150B1F78091E80085FF1BC00E944A
:101330009508811112C08091E80085FD06C080915A
:10134000E8008E778093E800F2CF88818093F100E7
:101350000150104011F02196EECF8091E8008E7779
:101360008093E800DF91CF911F910F910895CF9363
:10137000DF93EC0148E050E0BC0181E00E947C0971
:1013800088E0FE01A6E0B2E001900D928A95E1F7B7
:10139000DF91CF91089540E250E0BC0182E00E94CD
:1013A0007C09089546E050E0BC0182E00E947C097F
:1013B00008959091080392FB222720F9281779F0CD
:1013C00080FB92F9909308036091070370910803E2
:1013D00084E090E00E94BA2082E00E94D602089544
:1013E00080913701811559F18091070387FF27C04C
:1013F0000E94ED028093DB0140E250E067E672E07C
:101400008AED91E00E94D020892BC1F080E2EAEDC4
:10141000F1E0A7E6B2E001900D928A95E1F7E09144
:101420008702F0918802309749F086E08093DA01D4
:101430000480F581E02D8AED91E0099508950E94E0
:10144000ED028093D20148E050E069E872E082ED5D
:1014500091E00E94D020892B89F388E0E2EDF1E051
:10146000A9E8B2E001900D928A95E1F7E091870238
:10147000F0918802309711F30280F381E02D82ED24
:1014800091E0DBCF811539F090910303982B909375
:1014900003030E94F0090895811539F09091090322
:1014A000982B909309030E94F0090895811521F06B
:1014B0000E9414030E94F0090895811541F080955F
:1014C000909109038923809309030E94F0090895EC
:1014D000CF93C82F811509F463C08CEF8C0F813A2C
:1014E00008F060C080913701811127C0E4EDF1E080
:1014F0008081C817C9F1319681E0EA3DF807C1F74C
:1015000080913701811136C0A4EDB1E0EFEF80E0AA
:101510009C91C91709F442C01196EF3F19F491113B
:1015200001C0E82F8F5F863099F7EF3FB9F1FE2FAA
:10153000FF0FFF0BEE52FE4F30C08091070387FF75
:10154000D5CFEC2FE695E695E695F0E0E652FE4F16
:10155000828190E04C2F477021E001C0220F4A9514
:10156000EAF78223892B31F08C2F0E9488060E9493
:10157000F009C6CF8091070387FFC6CFEC2FE69511
:10158000E695E695F0E0E652FE4FC77081E001C0B7
:10159000880FCA95EAF7C281C82BC2830E94F0095E
:1015A000CF91089580E28C0F883060F4C77081E09D
:1015B00001C0880FCA95EAF7C0910303C82BC093F6
:1015C0000303ECCF83E38C0F833150F761E08C2F62
:1015D0000E94E306E5CFCF93DF93EC01805E910993
:1015E000089720F06CE47AE0209711F462E47AE046
:1015F000CE010E9408028C2F0E94680ADF91CF91D1
:101600000895CF93DF93EC018A81823041F4FB018E
:10161000828193810E94EB0A8D8182608D83DF91AC
:10162000CF910895FB01808191810E94EB0A08957A
:101630008115F9F09CEF980F913A28F40E948806E2
:101640000E94F009089590E2980F983058F4982F6E
:1016500081E091FD84E090FD880F92FD82950E94CB
:101660001403EECF93E3980F933118F460E00E94D7
:10167000E3060895CF93DF93EC010E94180BCE018F
:10168000805E9109089720F06DE57AE0209711F4CB
:1016900066E57AE0CE010E940802DF91CF910895BD
:1016A000FC018281813031F4FB01808191810E94B3
:1016B0003A0B08958230E9F7FB0182819381F7CFDD
:1016C00010920303809137018115F9F0809107038F
:1016D00087FF1BC0ECEDF1E08EE1DF011D928A95E2
:1016E000E9F7109209030E94F00986E0E9EFF2E0C1
:1016F000DF011D928A95E9F71092F7021092F60227
:101700001092F8020E94BC060895E4EDF1E086E034
:10171000E4CF0E94600B2FEF84E39CE021508040D7
:101720009040E1F700C0000088E19AE00FB6F8941D
:10173000A895809360000FBE90936000FFCFAAE24F
:10174000B0E0E5EAFBE00C9428208EEF91E0FC018C
:1017500001962091F100208322E086309207B9F7AC
:101760008091FF01893009F456C0C8F4823009F431
:10177000B3C0833009F482C0813071F18091E800F8
:1017800083FFE7C08091FE019091FF019A3008F03D
:10179000E0C0E92FF0E0E550FF4D0C9464208A3062
:1017A00009F489C08B3051F78091FE01813231F705
:1017B0008091020290910302892B01F78091E80049
:1017C000877F8093E8000E947608809100028093D2
:1017D00037010E94600BD2CF8091FE01813A71F6F1
:1017E0008091E800877F8093E800809102029091C9
:1017F0000302892B61F060E080E090E070E00E94DD
:10180000EC078091E8008B778093E800B7CF68E021
:1018100086E092E0F3CF8091FE01813209F0AECFF5
:101820008091020290910302029708F0A7CF809165
:10183000E800877F8093E8008091E80082FF19C06C
:101840002091F3008091F200922F029731F4809161
:10185000F100813011F0863021F48091F100809305
:101860000E028091E8008B778093E8000E94760852
:1018700085CF809112028111DFCF80CF8091FE0150
:10188000813A09F07BCF8091020290910302892B6B
:1018900009F074CF8091E800877F8093E800809101
:1018A000E80080FFFCCF809137018093F1008091A8
:1018B000E8008E77D9CF8091FE01813209F05ECFAA
:1018C0008091E800877F8093E8000E9476088091ED
:1018D00001028093FA0152CF8091FE01813A09F012
:1018E0004DCF8091E800877F8093E8008091E800E9
:1018F00080FFFCCF8091FA01D8CF803889F0823800
:1019000041F5809102028F70873018F58093E900CD
:101910008091EB0085FB882780F91092E90006C0D2
:1019200080911102880F9091FB01892B9091E80022
:10193000977F9093E8008093F1001092F1008091DE
:10194000E8008E7723C0811116C08091000281309B
:1019500011F18091E80083FF0AC08091E800877F41
:101960008093E8008091EB0080628093EB00AA9660
:10197000E3E00C944420823061F7809100028115ED
:1019800081F01092E9008091E800877F8093E80061
:101990000E947608DECF933009F080E08093110238
:1019A000F0CF809102028F702FEF280F263088F63B
:1019B0008093E9002091EB0020FFE3CF933031F4D6
:1019C0008091EB0080628093EB00DBCF9091EB0085
:1019D00090619093EB0021E030E0A90101C0440F39
:1019E0008A95EAF74093EA001092EA008091EB00B2
:1019F0008860E9CF8111ADCF109100021F778091EF
:101A0000E3008078812B8093E3008091E800877F5A
:101A10008093E8000E9476088091E80080FFFCCF68
:101A20008091E30080688093E30083E0111101C09E
:101A300082E0809312028DCF8058823008F089CFE7
:101A400020910002309101022C3D53E0350791F5C1
:101A500083E08A838AE289834FB7F894DE01139684
:101A600020E03EE051E2E32FF0E0509357008491F4
:101A700020FF03C082958F703F5F8F708A30C0F067
:101A8000895C8D931D922F5F243169F74FBF809140
:101A9000E800877F8093E8006AE270E0CE0101965B
:101AA0000E94EC078091E8008B778093E80051CF8B
:101AB000805DE7CF832F90E08330910519F160F4CA
:101AC0008130910509F46CC08230910509F041CF55
:101AD0008BE3E2EDF1E029C0209102023091030294
:101AE0008132910509F453C08232910509F031CF5A
:101AF0002130310508F45CC009F02BCF84E8EAE01E
:101B0000F1E013C0822F90E0213099F182309105ED
:101B1000B9F1009709F01DCFEDE4F2E0E4918E2FCA
:101B2000EDE4F2E0009709F414CF2091E800277F5C
:101B30002093E80020910402309105028217930758
:101B400008F49C0140E021153105B1F5411134C084
:101B50008091E80082FDA6CF80911202811509F4E0
:101B6000A1CF853009F49ECF8091E80083FFF0CFAC
:101B700099CFEFE3F2E0E4918E2FEFE3F2E0D2CFE2
:101B8000EFE1F2E0E4918E2FEFE1F2E0CBCF2130F4
:101B9000310550F009F0DDCE89E0EDEFF1E0C5CF81
:101BA00082E1EDE0F2E0C1CF89E0E4EEF1E0BDCF0B
:101BB00084E4EEE8F1E0B9CF80911202811509F4D6
:101BC00071CF853009F46ECF8091E80083FD6ACF34
:101BD0008091E80082FDBCCF8091E80080FFB3CF08
:101BE0004091F3008091F200942F2115310519F0F6
:101BF0008830910550F041E0089709F040E080916D
:101C0000E8008E778093E8009ECF44914093F100E6
:101C10003196215031090196E8CF803809F099CEEC
:101C20008091E800877F8093E8008091FC01809399
:101C3000F10085CE81118DCE10910002123008F096
:101C400088CE8091E800877F8093E8001093FC01A4
:101C50000E947608111581F084E08093120242E020
:101C600061EC81E00E94460842E261EC82E00E9461
:101C70004608809112026DCE8091E30087FDECCF83
:101C800081E0EBCFCF93DF93EC014A855B856E85D6
:101C90007F850E9472069B8190958091090389231C
:101CA000809309038C810E9414030E94F00986E04E
:101CB000FE0111928A95E9F7DF91CF910895CF93B4
:101CC000DF93EC018D8181FD17C082608D8380914F
:101CD00009039B81892B80930903809103039C81D5
:101CE000892B809303030E94F009488559856E85EE
:101CF0007F85CE010E9472061092FF0210920003AF
:101D00008D8180FD03C0CE010E94420EDF91CF91F4
:101D10000895A0E0B0E0EFE8FEE00C9423207C0101
:101D2000DC0114968C91811509F405C161E0C701AD
:101D30000E943C05EC01F7018581811529F1809114
:101D4000FF02909100030097F9F0C817D907E1F05E
:101D5000E82FF0E0833008F0C8C0E295F295F07FFC
:101D6000FE27E07FFE27E85CFE4F85818460858347
:101D7000C083D183CF010E945F0E1092090361E0FE
:101D8000C7010E943C05EC019D2F975509F03FC00B
:101D9000EC2FF0E0C33008F0CAC0E295F295F07F76
:101DA000FE27E07FFE278F01085C1E4FD7011596A6
:101DB0008C91E35CFE4F908180FB90F990838115BC
:101DC00009F498C00E94B006809301039093020327
:101DD000F80182818F5F82838091090390910303D0
:101DE000892B838380910403848346815781668590
:101DF0007785C8010E947206D80115968C9181FDE5
:101E000076C09C2F8D2F9093FF0280930003F701E3
:101E100085818115A9F0CA35FCE7DF0709F4B6C052
:101E200008F08EC0C1303CE7D30709F4ADC0C33021
:101E30008CE7D80709F4A2C0C115DC4709F491C0AA
:101E4000F70187819085009709F4B1C00E942D04A5
:101E5000D82FC92FF701C580068102950F70809198
:101E60000603877001F1DC2CC114F1F0892F807F0B
:101E7000803461F080E28D0F8830A8F0892F807E59
:101E8000803221F4D23078F0011569F08091080396
:101E900082FF09C082E00E94D6028091060387700B
:101EA000DD24D3948111D12C8C2F82958F708830B2
:101EB00009F46AC108F0B5C0843008F092C01C2F44
:101EC0001F70823008F4BEC0C07FC03211F012957E
:101ED000107FD13008F4ECC009F433C1C11409F407
:101EE0003DC1011509F402C1C2C0E0E03ECF80E06F
:101EF00090E089CFF8014485558566857785C801CE
:101F00000E947206D80115968C9181FF80CFC8017E
:101F10000E94420E8091FF0290910003C817D907DA
:101F200009F075CF1092FF021092000370CF8091DC
:101F30000603877079F5CDB7DEB7E8E00C943F2053
:101F4000CB35ACE7DA0721F180910803002482FF4A
:101F50000394802DCC35DC4709F072CF0E94D9095B
:101F60006FCF0E94600BEFEFF4E32CE0E150F04004
:101F70002040E1F700C000000E94D7076FEF7FEF1D
:101F800080E090E00E94BA200E94890B81E0E6CFB9
:101F900080E0E4CFD70115968C91811561F2809194
:101FA000080382FFC8CF82E00E94D602C4CFD701C7
:101FB00015968C9115970D911D91811569F0C801A9
:101FC0000E940A05C82F682FC8010E944502B80167
:101FD0008C2F0E941C033ACFC8010E947B02C82F9D
:101FE000F6CF853009F4CBC0D114B1F0809106034F
:101FF00080FD12C0D70115961C9286958695869510
:102000000E942B02C7010E94890E809106038695CB
:10201000869586950E94360260E0C7010E943C05C5
:102020008ACF893009F420C18A5F8F708230E0F650
:10203000D23F09F02AC18C2F8F71C11023C10E9499
:102040002B02CFC0C03110F01295107FC114B9F02F
:10205000111569F080E28D0F883010F0D11109C0A0
:1020600080910303812B809303030E94F0098D2F3D
:102070002FC080910903812B80930903F6CF8D2F08
:102080000E94180B111509F4AFCF80E28D0F883034
:1020900010F0D11104C0812F0E94140306C01095C6
:1020A000809109038123809309030E94F0099CCF4A
:1020B0008091080382FD16C0C11469F0111539F032
:1020C00080910303812B809303030E94F00980E039
:1020D0000E94680A89CF80E00E94180B111509F44C
:1020E00083CFD9CFC11499F0013020F4812F0E9401
:1020F000420A7ACF09F078CF80910403912F982378
:10210000191709F471CF812B809304036DCF01114E
:102110006BCF812F0E94560A90910403812F89234F
:1021200029F0812F809589238093040380910503F2
:10213000912F982309F458CF109518231093050375
:1021400053CFC11421F0063008F04ECFCFCF053069
:1021500008F04ACF812F0E94560A46CF0115D1F3CD
:10216000D93349F4FFEF27EE33E0F15020403040FF
:10217000E1F700C000008D2F0E94180B35CF6C2DA9
:102180008D2F0E94E30630CF8C2F8370A9F5C110EC
:1021900028C08D2F829586958770880F880F4D2FC8
:1021A0004F70082E01C0440F0A94EAF72D2F2071BA
:1021B000D4FF06C02FE001C0220F8A95EAF72095D0
:1021C000C695C695C370C23091F0822F842BC33060
:1021D00031F080918103C13039F0242B82230E9499
:1021E00025020E94770600CF842B822BF8CF242B68
:1021F000809181038227F3CFC11459F1C0FFF1CF41
:102200008D2F829586958770880F880F4D2F4F7080
:10221000082E01C0440F0A94EAF72D2F2071D4FF35
:1022200006C02FE001C0220F8A95EAF72095C695D7
:10223000C695C370C23099F0822F842BC33031F021
:1022400080918203C13041F0242B82230E94280216
:10225000C8CF823030F2D4CF842B822BF7CF242BFF
:10226000809182038227F2CFCF70C11439F08C2F76
:102270000E942B028D2F0E94420AB3CF8D2F0E9405
:10228000560A8C2F0E943602ACCF70F4D03FC9F0B2
:10229000D13F91F0C11409F44DC0011509F447C0B4
:1022A0008D2F0E94680A9DCFD33FF1F0D43F91F764
:1022B0009091080392FD23C08C2F8F71C11411F3EC
:1022C000BECEC11479F0053008F08BCFCF7181E01C
:1022D00090E0DC0101C0AA0FCA95EAF78091820361
:1022E0008A27B4CF0630F0CF80E0C11409F4AECF16
:1022F000CF7181E001C0880FCA95EAF7A7CFC1145A
:1023000061F08C2F8F7192FF9ACE982F990F990FB1
:10231000990F93609093060392CE81E00E94D602BB
:10232000023008F45ECF82E00E94D6025ACF8C2F92
:102330008F7185CE011579F0D93349F4BFEFE7EEFF
:10234000F3E0B150E040F040E1F700C000008D2F15
:102350000E94180B46CF8C2F8F7194CF8091E10291
:10236000803170F48091E002811551F0E091920289
:10237000209191023091DC024091DB022E1301C0CA
:102380000895BF0189E0E89FF0011124DF01AD56F7
:10239000BD4F14968C911497811561F111968C9113
:1023A0001197831327C08C91841324C015968C91A8
:1023B000159781111FC012968D919D91A091DD02FC
:1023C000B091DE028A1B9B0B883C910598F48091AA
:1023D000E1028F7080618093E102E756FD4F8081BA
:1023E0008F70806180838BED92E00E94890E0E9445
:1023F000CC020895FB013196E770C0CFAFE0B0E0AA
:10240000E4E0F2E10C941E208C0186E0F801DE018C
:102410001A9601900D928A95E1F7F801F580C48033
:102420008BED882E82E0982E7090DF02711020C014
:10243000C114D9F0F11409F449C1C8010E9477050B
:10244000811509F443C189E0F801D40101900D928E
:102450008A95E1F7F1E0CF1206C08091DB029091FE
:10246000DC020E9463050E94AE11FF24F3945DC05C
:10247000E080A280B380D090E0028091DD02909154
:10248000DE029501281B390BD11409F4E8C0283C61
:10249000310508F0B4C0C11441F39091DC02C18051
:1024A0008091E102803108F061C0C9121DC0909195
:1024B000DB029E1119C04091E2025091E302278194
:1024C00030854217530781F4F1104AC08F70806144
:1024D0008093E1028BED92E00E94890E8091E102EF
:1024E000F8018683F12C21C0F1103AC040E06C2D38
:1024F0008E2D0E94AE0240E06C2D8E2D0E94AE0209
:10250000F82E8111EFCF8A859B850E946305292FC4
:1025100022952F70903470F49F702230A0F09115A6
:10252000B1F0F8019681903190F48F2D2F96EDE067
:102530000C943A202A5F2F70223068F0C8010E9464
:10254000890EFD2CF2CF911511F0811571F3805E8B
:10255000883058F3F3CF803F40F3815F8330F9CF69
:102560008091E10281608093E102BCCFC9121CC05E
:102570009091DB029E1118C04091E2025091E3025B
:10258000278130854217530779F4F1100DC08683F7
:10259000C8010E94890E89E0F801ABEDB2E001901C
:1025A0000D928A95E1F761CFC8010E9477058115E8
:1025B00009F48CC0F11409F489C08091E1028032E1
:1025C000A8F02091DB023091DC0229833A83AB82B0
:1025D000BC827D821E828F838091E2029091E30211
:1025E00088879987CE0101960E94890E89E0F801BB
:1025F000ABEDB2E001900D928A95E1F734CF809176
:10260000E102803150F48BED92E00E94890E89E066
:10261000F40111928A95E9F765CFC11409F425CF29
:102620002091DC0291812913BFCF9091DB029E1192
:10263000BBCF4091E2025091E302278130854217DF
:10264000530709F0B1CFF110AFCF8683C8010E94C4
:10265000890E89E0F40111928A95E9F706CF283CAA
:102660003105A8F6C11409F400CFF11479F1909165
:10267000DC028181981320C08091DB028E111CC086
:102680002091E2023091E302878190852817390773
:1026900099F49091E10290FD7ECF903108F47BCFC8
:1026A000892F9683907F903F09F472CF982F907F67
:1026B000905F8F70892B6BCFC8010E9477058111C5
:1026C00095CF8091E10281608093E102C8010E9470
:1026D000890ECBCEA2E1B0E0E0E7F3E10C94272035
:1026E0000A871B872C873D874E875F87688B798B8E
:1026F0008A8BCE010A960E94FE11811128C020917A
:1027000091023091920289E0FE013A96DE01119623
:1027100001900D928A95E1F78E858115C1F0822F87
:1027200090E08395877090E038171906D1F099E012
:10273000929FD0011124AD56BD4FFE0131960190FC
:102740000D929A95E1F7809391020E94CC028091BC
:10275000920290919102891312C06296E4E00C9467
:1027600043200E94600B109291021092920289E025
:10277000EBEDF2E0DF011D928A95E9F7E8CFB9E0D1
:102780008B9FC00111248D569D4F0E94FE11811513
:1027900021F3209192022F5F3F4FC90187708093F0
:1027A0009202D5CFEF92FF920F931F93CF93DF93B7
:1027B00080917E03E0910F02CDE0811131C0CDB751
:1027C000DEB7E6E00C944120D1E0DE0FD0930F029B
:1027D000EE2EF12CCE9FF0011124EA5EFC4F848195
:1027E0008115E9F087819085892B21F48185928577
:1027F000019659F4008111812281338144815581F0
:102800006681778180850E946A13CE9DF001CF9DFD
:10281000F00D1124EA5EFC4F148210920903ED2F93
:1028200080917E03E81780F210927E0310920F02CF
:10283000C6CF4F925F927F928F929F92AF92BF923C
:10284000CF92DF92EF92FF920F931F93CF93DF937C
:10285000C091150301E010E0809114038C1314C0A3
:102860000E94D2130E94C405DF91CF911F910F9156
:10287000FF90EF90DF90CF90BF90AF909F908F90A0
:102880007F905F904F900895D0E0FE01EE0FFF1F04
:10289000E65FFC4F80819181A0E0B0E08D30910532
:1028A00040F427E0289FD001299FB00D1124A8599A
:1028B000BE4F14962C911497211152C070907E0334
:1028C00066E173E040E050E0A12C471508F046C0F7
:1028D000FB0143845484CD90DD90129799249A94FF
:1028E000892CB12C2B2D30E0F601EB0DF11DEB0DF9
:1028F000F11DE590F5904E145F0409F09401EF2866
:1029000019F0B3944901EECF2F3F320771F1F8016E
:1029100001C0EE0F2A95EAF7AE2A980102C0220FF5
:10292000331FBA94E2F721503109A2161306D9F4E5
:1029300012962D913D916DE0649FF001659FF00D21
:102940001124EA5EFC4F2783308724E02483108221
:1029500011828187928761E011966C930E94D50560
:10296000C395C37079CFFB0114824F5F5F4F635FE4
:102970007F4FABCF10927F03109280031092C30160
:1029800080911403809315030E94C4050E94D21302
:102990000895AEE1B0E0EFECF4E10C9419204B8B1C
:1029A0005C8B6D8B7E8B8F8B592E988F9111109233
:1029B0000903188A198A1A8A86E0FE017396DE01D5
:1029C0001A9601900D928A95E1F74F88411489F08B
:1029D0004E865F8661E0CE010A960E943C055C014E
:1029E00080352CE7920791F4511419F181E080931E
:1029F000C3014E865F860A851B852C853D85A20115
:102A0000688979898A890E946A13C2C081353CE746
:102A1000930729F4511469F00E94BA14EACF823561
:102A20009C4739F4511429F08091C3018111F4CFEE
:102A3000DDCF58E6E52E51E0F52E312C812C912C7E
:102A400034016394D7012D913D916FEF80E09FEFAA
:102A5000C82ED12CF901E80FF11DE80FF11D4591A9
:102A60005591A416B50611F0C62ED92E452B21F08E
:102A70008F5F6C2D9D2DECCF10E0BFEFCB16DC04EB
:102A800009F445C0F70144811091C301411110E0E0
:102A9000D70115962D909C911697511409F401C1F8
:102AA000111509F4FEC0211015C021E00C2C01C045
:102AB000220F0A94EAF7922B16969C932091120308
:102AC000309113032233310528F422E320931203BB
:102AD00010921303F30102C0EE0FFF1F8A95E2F775
:102AE000CF010197D70116962C912817190679F472
:102AF00080917F0390918003009709F44DC00E945C
:102B0000C807C39708F448C081E0F7018483312ADD
:102B1000BFEF8B1A9B0AE7E0EE0EF11CFDE08F166B
:102B2000910409F08FCF511409F417C1311409F43D
:102B300014C10E94B00680937F039093800380911C
:102B40007E03883028F591E0980F90937E0399E0FA
:102B5000FE013A96DE01119601900D929A95E1F7E9
:102B60004D825E822DE0829FC00111248A5E9C4FBF
:102B700029E0FE013196DC0101900D922A95E1F7E2
:102B80002FEF3FEFDC0119962D933D93AD92BD924F
:102B90006E96E2E10C943520909115038091140318
:102BA000292FA0E0B0E037E061E0981709F44FC0AA
:102BB000492F50E0998F1A8EFA01EE0FFF1FE65F42
:102BC000FC4F40815181A0E0B0E04D30510538F418
:102BD000349FD001359FB00D1124A859BE4F4D919F
:102BE0005D9112974D8F5E8F212C70E000E0ED8D8E
:102BF000FE8DE00FF11DE00FF11DC590D590C114C1
:102C0000D104E1F0F7010190F081E02DEB8FFC8F12
:102C100070E007C0E1E0C416D50609F0E0E02E2A16
:102C20007F5FEB8DFC8DE70FF11DE70FF11D4591E7
:102C300055914115510571F70F5FD9CF211471F1ED
:102C40007017C0F4E1E0D7011496EC931497209329
:102C50001503AE15BF0509F45ACF90E0FC01EE0F45
:102C6000FF1FE65FFC4F8082918201968370809304
:102C700014034DCF109761F014966C931497AE1512
:102C8000BF0529F3921304C0A9014395242F237093
:102C9000498D5A8D4395942F937087CFA0E0B0E073
:102CA000F7CF292F30E0211020C0B30102C0660FFA
:102CB000771F8A95E2F7CB0101978217930779F086
:102CC00010E0F30102C0EE0FFF1FCA94E2F76F019C
:102CD000C094D70116968C918C218C9318CF4115F6
:102CE00081F3C4010E94D505EBCFA9010C2C02C0D1
:102CF000559547950A94E2F7C901019782239323DA
:102D0000892B41F540FF26C0D70112968D919D91E8
:102D1000892BD9F0FE01319687E0DF011D928A955B
:102D2000E9F70E94B0069C018B839C8384E08D832D
:102D3000F70192818381792F9887898709811A8188
:102D400044E05E816F810E946A13D70115961C9240
:102D5000122DB7CF142F1170B4CF9091150380911D
:102D60001403981729F00E941914311011CF41CE85
:102D70000E94D21310927F03109280030E94C40518
:102D8000F4CFA6E0B0E0E7ECF6E10C9427200E9437
:102D9000B0068C01809165029091660280179107C0
:102DA00079F019821A820E94B006BC0149815A81C9
:102DB00080E090E00E94C9140093650210936602BF
:102DC0002696E4E00C944320AEE0B0E0EAEEF6E1B3
:102DD0000C942420FE01319688E0DF011D928A9533
:102DE000E9F786ECE82E81E0F82E8F01ED871E874B
:102DF000F70181917F018F3F09F43FC0F894E82FDC
:102E0000E295EF70F0E021A18F7041E001C0440F26
:102E10008A95EAF7842F922F942B91A392A1809503
:102E2000892382A3789400C0EAECF1E031E0D12C50
:102E300021912F3F79F0A22FA295AF70A05EB0E054
:102E40008C9190E02F7002C0959587952A95E2F7B6
:102E500080FF82C080E0D82A330F80ED91E08E178A
:102E60009F0731F7F70182918F3F11F00E94AC0567
:102E700090EA9A95F1F7D801DC920F5F1F4FBAECF8
:102E8000EB16B1E0FB0609F0B3CF48E050E06D85EA
:102E90007E8587E592E00E94D020009749F028E0E7
:102EA000ED85FE85A7E5B2E001900D922A95E1F748
:102EB0000091560210E0025B1D4F892B09F44EC0B1
:102EC00081E080934D020E94B00680934B02909364
:102ED0004C0280915F02811509F497C07E01E9E000
:102EE000EE0EF11C84E0D7011D928A95E9F78091DE
:102EF00046028A3008F054C04FEA58E1B701C801D1
:102F00000E943D09811509F46EC049E459E1B701F9
:102F1000C8010E943D09811509F465C049E558E1E1
:102F2000B701C8010E943D09811509F45CC01092E7
:102F3000460280914A0290E044E050E0B701825B93
:102F40009D4F0E94D02021E020934902892BE9F572
:102F50002E96E7E00C944020832F7DCF80914D0288
:102F6000811509F4B6CF80914B0290914C020E94DA
:102F7000C807059708F4ADCF44E050E067E572E07C
:102F8000C8010E94D020892B41F084E0E7E5F2E0FF
:102F9000D80101900D928A95E1F710924D0299CFD8
:102FA00080914702909148020E94C807843F914057
:102FB00008F0A2CF80914902811551F284E0F70117
:102FC00011928A95E9F710924902E0914A02F0E0E5
:102FD000E25BFD4F89859A85AB85BC8580839183B3
:102FE000A283B383B5CF809146028F3F39F40E940C
:102FF000B0068093470290934802DCCF8F5F8093A6
:1030000046028A3008F495CFF2CFE0904A02F12CC4
:10301000A701425B5D4F7A01F80180819181A28115
:10302000B38180932E0290932F02A0933002B0932D
:1030300031028EE292E00E94060680932D0280917A
:10304000320290913302A0913402B0913502F7011F
:1030500080839183A283B383E0903602F09037029D
:1030600000913802109139028091420290914302FE
:10307000A0914402B0914502E816F9060A071B0721
:1030800009F466CFE0924202F092430200934402B8
:10309000109345020E94A607E61AF70A080B190BBF
:1030A000E0926102F0926202009363021093640264
:1030B0004FCFA4E0B0E0EFE5F8E10C942820409178
:1030C00021025091220260912302709124022FB7B5
:1030D000F8948091290290912A02A0912B02B0913C
:1030E0002C022FBF841B950BA60BB70B11E0843667
:1030F0009105A105B10570F10E94B207DC01CB0179
:103100000296A11DB11D89839A83AB83BC838091F4
:10311000300190913101835D9D4F20912F01422F0D
:1031200050E0253008F044E0BE016F5F7F4F0E9401
:10313000DD2083E090E00E94971F182F811551F049
:103140000E94A607609321027093220280932302BB
:1031500090932402812F2496E3E00C944420A7E06E
:10316000B0E0E5EBF8E10C9428206E837F8380E0EB
:1031700090E00E94971F182F811509F469C0809173
:103180001A01482F50E0811141E060911B017091BC
:103190001C01635D7D4FCE0105960E94DD204091AC
:1031A0003E0250913F0260914002709141022FB760
:1031B000F8948091290290912A02A0912B02B0915B
:1031C0002C022FBF841B950BA60BB70B84369105E1
:1031D000A105B10538F48EE292E00E9406069D81B9
:1031E0008917B1F181E090E00E94971F8115F1F1FC
:1031F00080912201482F50E0853008F044E0609132
:10320000230170912401635D7D4FCE0101960E94E0
:10321000DD208EE292E00E9406069D81891326C081
:103220000E94A60760933E0270933F028093400283
:103230009093410289819A81AB81BC8180933A024B
:1032400090933B02A0933C02B0933D0281E00FC0FB
:1032500080912E0290912F02A0913002B091310204
:1032600089839A83AB83BC831111E4CF80E04091C2
:103270003A0250913B0260913C0270913D02EE8116
:10328000FF8140835183628373832796E3E00C942C
:103290004420A2E0B0E0EFE4F9E10C942720898318
:1032A0009A8344E050E062E372E00E94D0200091F3
:1032B0002502109126022091270230912802EFB7B3
:1032C000F8944091290250912A0260912B0270914A
:1032D0002C02EFBF401B510B620B730B44365105A0
:1032E0006105710510F4892B09F1809128019091F5
:1032F0002901835D9D4F20912701422F50E0253009
:1033000008F044E069817A810E94DD2082E090E04B
:103310000E94971F811559F00E94A607609325020D
:1033200070932602809327029093280281E02296D0
:10333000E4E00C944320CDB7DEB72C970FB6F89499
:10334000DEBF0FBECDBF85B7806885BF85B78068FB
:1033500085BF84B7877F84BF0FB6F894A895809106
:103360006000886180936000109260000FBE80E86A
:1033700090E00FB6F89480936100909361000FBEC7
:103380008AEA95E08093D0019093D1010E941F09B1
:103390000E94C6088091E20084608093E2007894E5
:1033A00080911202811599F08091E9001091EC0052
:1033B0008F7010FB112717F9182B1092E9008091DC
:1033C000E80083FD0E949F0B1F701093E90082E0CC
:1033D00084BD93E095BD9AEF97BD80936E001092E7
:1033E000610210926202109263021092640288ECF1
:1033F00090E02091E30027FD0EC0AFE3BCE91197F8
:10340000F1F700C000000197A1F70E941F09109278
:10341000120280E001C081E080935F02809360022D
:1034200080930C0181110E94A51E80910C01809156
:103430000C0191E08927880F880F8093560294E051
:10344000981B90934A0206EC11E04AECE42E41E00E
:10345000F42EF80181918F018F3F11F00E94AC058D
:10346000E016F106B1F70AEC11E0D8018D918D015B
:103470008F3F11F00E94AC05B1E0003D1B07A9F79A
:1034800088E0EEE4F2E0DF01282F1D922A95E9F7AB
:10349000E7E5F2E0DF011D928A95E9F780E090E030
:1034A0000E948620853E9E4F09F45EC065EE7EEF49
:1034B00080E090E00E94BA2060E082E090E00E940C
:1034C0009C2081E08093810361E083E090E00E9492
:1034D0009C2060E074E184E090E00E94BA2060E00B
:1034E00086E090E00E949C2060E087E090E00E94EF
:1034F0009C2060E070E0AB0188E090E00E94AE208C
:1035000060E083E290E00E949C2060E08CE090E02C
:103510000E949C2060E08DE090E00E949C20198237
:103520001A821B821C821D821E821F82188648E01E
:1035300050E067E170E0CE0101960E948C2060E0CF
:1035400070E0AB018FE190E00E94AE2060E070E09F
:10355000AB018FE090E00E94AE2060E070E0AB0134
:1035600083E190E00E94AE2082E090E00E947E2005
:103570008093130284E090E00E94862080930703EA
:10358000909308030E94E416EFEFF6E721E0E15084
:10359000F0402040E1F700C000000E94E416E091F6
:1035A000600281E0E827EE0FEE0FF0E0E25BFD4FF6
:1035B000808181FF08C06FEF7FEF80E090E00E9484
:1035C000BA200E94D70783E090E00E947E200E94EC
:1035D000250280915F02811102C00E94A81E8DE029
:1035E00091E08093870290938802CE0101968B87A9
:1035F0009C878091120200E110E432E1F32E8530C5
:1036000009F481C00E94E41604E112E0EEE4F2E065
:10361000E987FA87D8019D9180812CE132E02A1751
:103620003B0709F47AC031969817A9F3A0905F027E
:10363000F12CA985BA85ED90A987BA87F801B190D8
:103640008F01BE1429F1BE24CC24C394D12C8B2D20
:103650008C21B9F0A114A9F0D982FA820E94B00697
:103660008B839C83F1E0FD8391E08E2D8C2109F406
:1036700090E09E8349815A816B817C818D810E947B
:10368000C914D394CC0C26E0D212E1CFF801E29217
:10369000F39438E0F312CDCF0E94B20742C080917C
:1036A0001202843019F11092100288E190E00FB6F6
:1036B000F894A895809360000FBE1093600083B7C4
:1036C000817F846083BF83B7816083BF789488954E
:1036D00083B78E7F83BF0FB6F894A8958091600062
:1036E000886180936000109260000FBE0E94E41613
:1036F000EEE4F2E0808181114AC13196A6E5B2E0A4
:10370000AE17BF07B9F780911202853009F4C7CF11
:103710000E94600B0E94770675CF981387CF0E9496
:10372000C11680915F02811509F447C00091FF0224
:103730001091000301151105E1F0809101039091B2
:1037400002030E94C807893C910598F0802F90E001
:10375000033008F007C182959295907F9827807F6B
:103760009827885C9E4FDC0115962C9122FF0E94C1
:103770005F0E8091C301811501F180917F039091CB
:1037800080030097D1F00E94C80720911203309166
:1037900013032817390788F49091150380911403B7
:1037A000981709F4E1C00E941914109212031092A4
:1037B000130310927F031092800386E0E9EFF2E09A
:1037C000AB85BC8501900D928A95E1F7D090FA0205
:1037D000F090FB021091FC02E090FD020091FE02CD
:1037E0001092FB021092FC021092FD021092FE0257
:1037F000812F8F2909F43FC080911E0290911F02F2
:103800000E94C8079C019091F702911509F4BAC073
:103810002531310580F19F3F19F09F5F9093F702AA
:10382000F11459F00E942D0691E01F140CF09FEF47
:10383000899F802D11248093FB02111559F00E945D
:103840002D0691E011160CF09FEF899F802D112419
:103850008093FC028091FB02811569F0C090FC020C
:10386000C11449F00E941F068093FB028C2D0E9418
:103870001F068093FC02802F8E2909F43FC080919F
:103880001C0290911D020E94C8079C019091F602B3
:10389000911509F472C02135310580F19F3F19F06F
:1038A0009F5F9093F602E11459F00E944D0691E05B
:1038B0001E140CF09FEF899F802D11248093FD0230
:1038C000011559F00E944D0691E010160CF09FEF83
:1038D000899F802D11248093FE028091FD02811525
:1038E00069F0E090FE02E11449F00E941F06809307
:1038F000FD028E2D0E941F068093FE028091FA0227
:10390000D81219C08091FB02811511F08F1113C0DC
:103910002091FC02211511F012130DC09091FE02AE
:10392000911511F0091307C03091FD02311103C048
:10393000822B892B11F00E94BC0686E0EB85FC856A
:10394000A9EFB2E001900D928A95E1F70E94770607
:1039500090912002891709F44CCE809320020E9496
:10396000A60747CE80E0FFCE0E94D21310927F03BD
:10397000109280030E94C40520CF2B30310508F03F
:103980008FCFBCCF2B30310508F047CF74CF80915B
:103990001102811509F4B7CE09BDF9BC09B400FEC6
:1039A000FDCF8091D8008F7D8093D8008091E0007A
:1039B00082608093E0008091E00081FDFCCF0E9456
:1039C000600BA1CE1F921FB61F9211248F939F935D
:1039D000AF93BF9380911002811113C0809129028F
:1039E00090912A02A0912B02B0912C024196A11D28
:1039F000B11D8093290290932A02A0932B02B093C9
:103A00002C02BF91AF919F918F911F901FBE1F906D
:103A1000189578941F921FB61F9211248F939F932D
:103A2000AF93BF938091290290912A02A0912B021B
:103A3000B0912C020196A11DB11D80932902909393
:103A40002A02A0932B02B0932C02BF91AF919F91B9
:103A50008F911F901FBE1F9018951F920F920FB647
:103A60000F9211242F933F934F935F936F937F9304
:103A70008F939F93AF93BF93EF93FF938091E10058
:103A800082FF09C08091E20082FF05C08091E100C1
:103A90008B7F8093E1008091DA0080FF24C08091C9
:103AA000D80080FF20C08091DA008E7F8093DA00FA
:103AB0008091D90080FF9BC080E189BD82E189BDF2
:103AC00009B400FEFDCF81E0809312028091FD01D8
:103AD000811109C00E941F090E94C6088091E2005E
:103AE00084608093E2008091E10080FF17C08091A4
:103AF000E20080FF13C08091E2008E7F8093E2009D
:103B00008091E20080618093E2008091D800806221
:103B10008093D80019BC85E0809312028091E10067
:103B200084FF29C08091E20084FF25C080E189BD27
:103B300082E189BD09B400FEFDCF8091D8008F7D60
:103B40008093D8008091E1008F7E8093E100809186
:103B5000E2008F7E8093E2008091E200816080939A
:103B6000E2008091FC01811509F447C084E0809354
:103B70001202809112028091E10083FF27C08091A0
:103B8000E20083FF23C08091E100877F8093E10002
:103B900082E0809312021092FC018091E1008E7FFE
:103BA0008093E1008091E2008E7F8093E20080911B
:103BB000E20080618093E20042E060E080E00E94E9
:103BC00046088091F00088608093F000FF91EF91AB
:103BD000BF91AF919F918F917F916F915F914F9125
:103BE0003F912F910F900FBE0F901F90189519BC09
:103BF000109212021092FD0176CF8091E30087FFB0
:103C000002C083E0B4CF81E0B2CF1F920F920FB613
:103C10000F921124EF92FF920F931F932F933F93D4
:103C20004F935F936F937F938F939F93AF93BF93C4
:103C3000CF93EF93FF9309EE10E0F8018081C091DC
:103C4000EC008F70C0FBCC27C7F9C82B1082E0EFC7
:103C50008081877F808378940E949F0BF801108277
:103C6000E0EF808188608083CF70E9EEC083FF91B0
:103C7000EF91CF91BF91AF919F918F917F916F9174
:103C80005F914F913F912F911F910F91FF90EF9076
:103C90000F900FBE0F901F9018958EE14A9B02C0A7
:103CA0008150E1F74A9BFECF08955A9880E28A95A9
:103CB000F1F75A9A0895FC012BE02A95F1F728E0D4
:103CC00080E090E031E040E14A95F1F7880F4A9BAF
:103CD00002C08160932742E04A95F1F7000040E17D
:103CE0004A95F1F7215079F720E12A95F1F729B1AA
:103CF00032E03A95F1F7000040E14A95F1F731E002
:103D000022FD93272081920F90830895A1E0B0E0D7
:103D1000ECE8FEE10C94252019828C017C01E60E72
:103D2000F11C0E944D1ECE0101960E945B1EF801FF
:103D300081938F01EE15FF05A1F781E09981911123
:103D400080E02196E6E00C944120529A5A9A089518
:103D500052985A9AEA9AE9E6F0E080818F7C808353
:103D600008956150770B91E001C0990F6A95EAF7C9
:103D7000692F90E021E0611108C0911591F05A9AE5
:103D800080E28A95F1F75A980895362F382339F052
:103D90005A9A922730E23A95F1F76695ECCF5A9805
:103DA000F9CF5A98EDCFA3E0B0E0E9EDFEE10C9435
:103DB00027208A839B830A811B81060F111DEA81BC
:103DC000FB818191EA83FB8389830E94551E68E011
:103DD00089810E94B11EEA81FB81E017F10779F722
:103DE0002396E4E00C9443201F920F920FB60F929B
:103DF00011240F931F932F933F934F935F936F93D0
:103E00007F938F939F93AF93BF93EF93FF93CF9342
:103E1000DF930F92CDB7DEB719820E944D1ECE01FF
:103E200001960E945B1E082F069506950695282F81
:103E300022952570902F9570920F292F23709695BB
:103E40009695920F982797708981892B09F059C010
:103E5000053008F056C080E18A95F1F75A9A529AD7
:103E600082E08A95F1F700C05A9888E0089F8001A7
:103E70001124D801A95EBE4F1696ED91FD911897B9
:103E8000309791F06091C4017091C50114962D9105
:103E90003D91260F371F15978D919D91680F791FC2
:103EA0004C9113978C910995F801E95EFE4F63815F
:103EB000611551F02091C4013091C5018481958133
:103EC000820F931F0E94D31E0E94551E80E18A9587
:103ED000F1F75A9852985A9A80E18A95F1F7F801C9
:103EE000E95EFE4F6081611551F02091C40130916F
:103EF000C50181819281820F931F0E94861E0E94BC
:103F00004D1E0F90DF91CF91FF91EF91BF91AF9137
:103F10009F918F917F916F915F914F913F912F91E1
:103F20001F910F910F900FBE0F901F901895A4E056
:103F3000B0E0EDE9FFE10C94292089839A83853074
:103F400091050CF06FC0F894529A5A9845E04A9542
:103F5000F1F70000982F9695957089818570980FDC
:103F6000892F8370292F26952695E981FA8193E080
:103F7000EE0FFF1F9A95E1F7EB83FC83280FE22BEE
:103F8000F32BE983FA830E94551E00C068E0898103
:103F90000E94B11EF0E1FA95F1F752985A9A4A9BA5
:103FA0003AC087E090E04A9938C0EB81FC81E95E35
:103FB000FE4F6381611561F02091C4013091C5010C
:103FC00084819581820F931F0E94861E811539F18D
:103FD0000E944D1E40E24A95F1F75A98529A50E1DC
:103FE0005A95F1F78B819C81895E9E4F89839A83D4
:103FF000FC016081611551F02091C4013091C5012F
:1040000081819281820F931F0E94D31E0E94551EB0
:10401000789481E008C000C0C2CF019741F4529A61
:104020005A9A789480E02496E2E00C94452000C0EF
:10403000BACF2F923F924F925F926F927F928F9260
:104040009F92AF92BF92CF92DF92EF92FF920F9327
:104050001F93CF93DF93CDB7DEB7CA1BDB0B0FB631
:10406000F894DEBF0FBECDBF09942A8839884888EE
:104070005F846E847D848C849B84AA84B984C88484
:10408000DF80EE80FD800C811B81AA81B981CE0F7B
:10409000D11D0FB6F894DEBF0FBECDBFED01089560
:1040A00097FB072E16F4009407D077FD09D00E94E5
:1040B0006A2007FC05D03EF4909581959F4F0895A6
:1040C000709561957F4F0895EE0FFF1F0590F49155
:1040D000E02D0994AA1BBB1B51E107C0AA1FBB1FFF
:1040E000A617B70710F0A61BB70B881F991F5A9584
:1040F000A9F780959095BC01CD010895F999FECF5F
:1041000092BD81BDF89A992780B50895A8E1B0E0E5
:1041100042E050E00C94C220DC01A40FB51F4150D6
:10412000504048F0CB01840F951F2E910E949D2096
:1041300041505040D0F70895262FF999FECF92BDF7
:1041400081BDF89A019700B4021639F01FBA20BD5C
:104150000FB6F894FA9AF99A0FBE08950396272F8E
:104160000E949D200E949C20252F0E949D20242F8C
:104170000C949D200196272F0E949D200C949C203A
:10418000DC01CB01FC01F999FECF06C0F2BDE1BD17
:10419000F89A319600B40D9241505040B8F7089506
:1041A000FB01DC0104C08D910190801921F4415084
:1041B0005040C8F7881B990B0895FB01DC0102C031
:1041C00001900D9241505040D8F70895F894FFCFD8
:1041D000EF06F706FA060007150715071507150776
:1041E0001507150715071507030708070C0712071A
:1041F000220728072C077D0CA30CA90CA30CA90CE3
:0A420000FA0C1C0DA90C0D0E1A0E8D
:10420A0019007D0006007C003300290001E807B789
:10421A0009CB09D209EB07000000010000000000E9
:10422A000000040100000004050000000000000472
:10423A000900000000000001000000000000010B5E
:10424A00120B500B00000801000000000000010BD7
:10425A00120B500B00000401000000000000010BCB
:10426A00120B500B0000000102010052000000FA7C
:10427A00000352000000F400A852000000EE00A261
:10428A0052000000E800A152000000E000AA52001B
:10429A000000D800A352000000D200B8520000006B
:1042AA00CC00B252000000C600B152000000BE00AD
:1042BA00BA52000000B600B352000000AC00390048
:1042CA00000000012D02946697C6F4F5F6F7313323
:00000001FF
