:100000000C9495010C94B2010C94B2010C94F51C63
:100010000C94B2010C94B2010C94B2010C94B20194
:100020000C94B2010C94B2010C942E1B0C94061C7F
:100030000C94E31A0C94B2010C94B2010C94B2012A
:100040000C94B2010C94B2010C94B2010C94B20164
:100050000C94B2010C940A1B0C94B2010C94B201E2
:100060000C94B2010C94B2010C94B2010C94B20144
:100070000C94B2010C94B2010C94B2010C94B20134
:100080000C94B2010C94B2010C94B2010C94B20124
:100090000C94B2010C94B2010C94B2010C94B20114
:1000A0000C94B2010C94B2010C94B2010501090642
:1000B000A1018506050719E029E715002501950826
:1000C000750181020507190029EF1500250195F03A
:1000D000750181020508190129059505750191022F
:1000E000950175039101C005010906A101050719D4
:1000F000E029E71500250195087501810295017534
:100100000881010507190029FF150026FF00950643
:1001100075088100050819012905150025019505B7
:1001200075019102950175039101C009023B00021E
:100130000100A0FA090400000103010100092111D6
:1001400001000122440007058103080001090401A0
:10015000000103000000092111010001223B0007FA
:10016000058203200001120100020000000853462E
:1001700001000100010200011E0343006F00720034
:100180006E00650020004B006500790062006F0082
:1001900061007200640000000C03430052004B0039
:1001A00042004400000004030904000014001A0087
:1001B00008001500170000000400160007000900E1
:1001C0000A0000001D001B000600190005000000C9
:1001D000000000000000225228000000130012005E
:1001E0000C0018001C00000033000F000E000D0072
:1001F0000B0000003800370036001000110000002E
:1002000000000000000021522C0000001E021F020E
:1002100020022102220200002F002F0234023002AD
:1002200030000000350235003400010001000000FC
:10023000000000000000010001000000270226026B
:1002400025022402230200002A002D022D002E0088
:100250002E02000031023100010001000100000007
:100260000000000000000100010000001E001F004F
:1002700020002100220000002B00010001000100ED
:1002800080000000460001007C007D00810000002D
:10029000000000000000010001000000270026000F
:1002A000250024002300000001004F0052005100EF
:1002B000500000004C00010001000100010000009E
:1002C00000000000000001000100000029001400EF
:1002D0001A000800150000002B000400160007009B
:1002E00009000000E1001D001B00060019000000CD
:1002F00000000000E00028002C00000001000100C8
:1003000001000100010000000100010001000100E6
:1003100001000000010001000100010001000000D7
:100320000000000000000100010011241FBECFEFFB
:10033000DAE0DEBFCDBF12E0A0E0B1E0E6E9FDE328
:1003400002C005900D92AE30B107D9F723E0AEE0C0
:10035000B2E001C01D92AB39B207E1F70E94651807
:100360000C94BF1E0C940000CF93DF938F5F3091ED
:100370008603E82FF0E0EE0FFF1FE957FC4F8317CD
:1003800020F080E0DF91CF910895DA0111969C91E1
:10039000A081B18111962C911197921315C0EA0199
:1003A0002881CC912C1310C01296CD91DD91149719
:1003B000C617D70761F014960D90BC91A02D6A174F
:1003C0007B0729F0922B19F432968F5FD8CF81E00A
:1003D000D9CF20E030E0232B31F0FC0184819581DE
:1003E0000E9400000895E62FF0E0E65FFD4F608177
:1003F00070E080E090E0089580E0FB0109950895A9
:10040000982F92959F7061F420E0982F892F869500
:10041000869511F02E5F982F892F8695820F08956B
:1004200024E0F4CF8093E402089580932A03089592
:1004300021E001C0220F8A95EAF780912A03822BDE
:100440000E941502089521E030E0A90101C0440F87
:100450008A95EAF7842F809590912A0389230E9438
:1004600015020895292F983090F5863080F590E098
:1004700036E0239F800D911D112451E081FD54E051
:1004800080FD550F82FD529523E0969587952A951C
:10049000E1F7FC01EE0FFF1FE80FF91FE153FD4FDD
:1004A00020E030E070E04191DF01CB01022E02C07C
:1004B000969587950A94E2F78695880B842785237D
:1004C00084278E932F5F3F4F2330310561F70895C6
:1004D000292F983070F5863060F590E036E0239F44
:1004E000800D911D1124682F677023E096958795E4
:1004F0002A95E1F7FC01EE0FFF1FE80FF91FE1530A
:10050000FD4F40E050E080E0219130E0062E02C037
:10051000369527950A94E2F72170042E01C0220F28
:100520000A94EAF7822B4F5F5F4F4330510561F722
:10053000089580E00895E091EA029091E902E913BC
:1005400002C080E008959F0157E0E59FF00111246B
:10055000E551FD4F5181561306C05081581303C019
:100560005581541304C0F9013196E770E8CF81E05A
:1005700008958091EA022091E902281301C00895AC
:1005800001968770FACF9091E50280958923809338
:10059000E502282F277069F4891759F09091E70236
:1005A00092FF07C08695869586950E942302109239
:1005B000E50208958091E1029091E802892B9091E3
:1005C000E2029115C9F0892B90912B01911521F030
:1005D0009091E60297FD11C096E022E132E040E002
:1005E0009150F90150812F5F3F4F51114F5F911191
:1005F000F7CF41111092E20208959EE12AE132E024
:10060000EECF982F90958091E10289238093E102AB
:100610000895972F7830B8F46630A8F48430B0F499
:1006200070E026E0929F600D711D1124FB0190E3A4
:10063000899FE00DF11D1124EE0FFF1FE655FE4FBF
:1006400085919591089580E090E0089581E0FCCF38
:10065000803E9105D1F1C8F48133910509F481C040
:1006600048F48932910509F471C08A32910509F480
:100670007FC0089589339105E1F082389105C9F072
:100680008533910509F45DC00895843E9105D1F14B
:1006900048F4823E910531F1833E910541F181EEAE
:1006A00090E00895863E9105C1F1873E9105F1F1F4
:1006B00008952091E602237009F064C02091E702BA
:1006C00023FF14C089E290E008952091E60220FD06
:1006D00045C03091E70230FF09C024FD24C083EEFD
:1006E00090E008952091E60222FDF7CF0895209131
:1006F000E60222FD44C03091E70230FD43C024FFF2
:10070000F5CF11C02091E70221FFF0CF8091E602E2
:1007100084FD09C087EE90E008952091E60223FF52
:10072000E5CF24FFF7CF80E090E008952091E60226
:1007300023FD2BC03091E70231FFE1CF84EE90E042
:1007400008952091E60225FFD1CFBCCF2091E6028B
:1007500025FD1EC02091E70223FFC8CF89E390E06A
:1007600008952091E60226FFC1CF8AE290E0089525
:100770002091E60226FFBACF81E390E0089582EE51
:1007800090E0089580EE90E0089586EE90E0089560
:1007900085E390E008959091E60292FF10C041E059
:1007A000282F2471243009F040E031E0282F2871EF
:1007B000283009F030E0431711F02CE0822793FF36
:1007C00010C041E0282F2471243109F040E031E0CD
:1007D000282F2871283109F030E0431711F02CE060
:1007E00082273091E70230FF10C051E0282F21719D
:1007F000213009F050E041E0282F2871283009F01D
:1008000040E0541711F029E0822731FF10C041E089
:10081000282F2171213109F040E031E0282F287183
:10082000283109F030E0431711F029E0822794FDC8
:10083000877E08950F931F93CF93DF930E94280321
:10084000EC01923508F03FC0903508F0AFC0883E0B
:100850009105E0F4803E910558F4853A910570F4D5
:10086000049730F481E0219709F080E0C82FD0E0B0
:10087000CE01DF91CF911F910F9108958D5C910969
:10088000D0654397A8F3C0E0D0E0F2CFD03490F425
:10089000D03208F0A0C0CE0191509F31A0F78D2F2B
:1008A0000E94CB03082F8C2F90E00E942803EC01BC
:1008B000D02BDECF8C2F90E00E942803DF70C82F52
:1008C000D92BD06AD5CF803842E59407C8F5803659
:1008D00052E5950708F04FC0C03482E5D807D0F440
:1008E0008C2FC03292E5D90708F040C086958695D6
:1008F00020E2829FC0011124C37021E030E0A901F1
:1009000002C0440F551FCA95E2F7EA01C82BD92B44
:10091000DD68AECF8C2F86958695877050E2859FD7
:10092000C0011124C37021E030E0A90102C0440FCE
:10093000551FCA95E2F7EA01C82BD92BDC6898CF7E
:10094000803C52E5950740F48F71C03AD24540F59E
:10095000D82FC4EFD06A8CCF805C9245809708F086
:1009600092CFDC2FDF71C0EFD06A82CF8F71D82F8A
:10097000C1EFD06A7DCF86958695877020E2829FF1
:10098000C0011124C37021E030E0A90102C0440F6E
:10099000551FCA95E2F7EA01C82BD92BDA6868CF50
:1009A0000E94CB03C0E0D82FD06262CF8F710E942B
:1009B000CB0393E0CC0FDD1F9A95E1F7DF70282F72
:1009C00030E084FF04C050E1859F90011124C22FC4
:1009D000D32BD0694DCF8D2F8F710E94CB03082F61
:1009E0008C2F90E00E942803EC01D02BDDCFA4E0F7
:1009F000B0E0EDEFF4E00C94271E89839A83009118
:100A00002A038091E402082B87E08B831C8210E08C
:100A1000C8010B8002C0959587950A94E2F780FD86
:100A20000DC08B819C8101978B839C83019681F7FC
:100A3000F12C8F2D2496E5E00C94431EFB806981F8
:100A40007A818F2D0E9409030E941A04019749F3AD
:100A5000F0CF0F931F93CF93FC012581008111816B
:100A6000C801211589F0611579F00E94F704C82F9B
:100A7000682FC8010E943202B8018C2F0E9409031E
:100A8000CF911F910F9108950E946802C82FF4CF53
:100A9000A2E0B0E0EEE4F5E00C942A1E89839A838C
:100AA0000E94F70469817A810E9409030E941A0456
:100AB0002296E2E00C94461EFC0124812115A1F04F
:100AC000808191810E944805282F92959F709630D1
:100AD00099F060F4925F9F70923030F4203FB1F053
:100AE00038F481E0283E38F080E008959A5FF3CF33
:100AF00081E0243FC9F7089591E0213F09F090E09B
:100B000081E0283E08F080E0892B089581E0089577
:100B100080E00895F894E82FE295EF70F0E041A1AD
:100B20008F7021E030E0B90101C0660F8A95EAF7C5
:100B3000862F962F9095942391A392A1892B82A31F
:100B400078940895FC01AC014C5F5F4F8FEF61E337
:100B50009191892728E030E0982F990F87FF09C0ED
:100B6000892F862721503040B9F7E417F50781F720
:100B70000895892FF7CF80919D02811561F0E09152
:100B8000C502F091C602309729F00190F081E02D66
:100B90000995089580E0089590912B01911521F019
:100BA0009091E60297FD0CC0E2E1F2E09191891389
:100BB00002C0DF011E9292E0E831F907B9F708950B
:100BC000E82FE695E695E695803FC8F7F0E0E85E09
:100BD000FD4F9DEF81FD97EF80FF959582FD9295EA
:100BE00082818923828308952FB7F89480918502AA
:100BF00090918602A0918702B09188022FBF08953C
:100C00002FB7F894609185027091860280918702D7
:100C1000909188022FBF089580919D02811519F04F
:100C20000E94000608950E94000620919F023091C4
:100C3000A0024091A1025091A202620F731F841F73
:100C4000951F0895CF92DF92EF92FF921F93CF935B
:100C5000DF9300D000D000D0CDB7DEB76B017C01B0
:100C600049835A832B833C83C114D104E104F104EA
:100C700081F410E0812F0F900F900F900F900F9044
:100C80000F90DF91CF911F91FF90EF90DF90CF9069
:100C900008958CE293E08D839E83ED81FE818081B7
:100CA000811135C090914D0281E0890F811539F194
:100CB000ECE2F3E02081281711F1399623E0E638C1
:100CC000F207C1F7182F10934D02811591F2ED81B3
:100CD000FE8110830E940006C60ED71EE81EF91E74
:100CE000ED81FE81C182D282E382F48289819A8180
:100CF000858396838B819C8187839087BBCF11E00E
:100D0000180F981711F0812FD1CF80E0DCCFED8143
:100D1000FE813996ED83FE83E658F34009F0BDCF9E
:100D2000A8CF1F93CF93DF93EC011F851F86688B9D
:100D3000623009F470C078F561115CC02C89E091D3
:100D400086038E2F8150990BBC01822F90E02617CD
:100D50001706DCF1E150E0938603F0E0EE0FFF1F91
:100D6000E957FC4F10821182188A188219821A8260
:100D70001B821C821D821E821F82188619861A867B
:100D80001B861C861D861E861F86198A1C8A8FEF6D
:100D90008A8B8B8B06C0643009F44CC0653009F433
:100DA00057C0111571F0ECE2F3E0808118135EC0BA
:100DB0001082118212821382148215821682178287
:100DC0001086DF91CF911F910895DC01AA0FBB1F00
:100DD000A757BC4F4D915D91880F991FDC01A95712
:100DE000BC4F4D935D93DA0154968C9181508C9356
:100DF0002F5FABCF0E9400066F83788789879A8721
:100E000060E0CE010E94E9019E0141E85FE00E949E
:100E100022068F87C6CF0E9400066B877C878D874E
:100E20009E87198A61E0CE010E94E9019E0149E98D
:100E30005FE0EDCF0E9400066B877C878D879E87E1
:100E400062E0CE010E94E9019E0145EB5FE0DFCF49
:100E50000E9400066B877C878D879E8762E0CE01AB
:100E60000E94E9019E014DEC5FE0D1CF3996B3E0DD
:100E7000E638FB0709F099CFA4CFEF92FF920F93CA
:100E80001F93EFB7F894209185023091860240912C
:100E9000870250918802EFBF79018A01E61AF70AAA
:100EA000080B190BB701C8011F910F91FF90EF902C
:100EB000089587E797E7809300089093010888E1F9
:100EC0009AE00FB6F894A895809360000FBE9093B7
:100ED0006000FFCF80914C02089508950895FC01B1
:100EE00080914202909143028617970748F061155E
:100EF000710529F48091E8008E778093E800CB019A
:100F000040E0009741F4411106C08091E80082FF63
:100F100030C080E00895209150022115B1F12530B4
:100F2000B1F12091E80023FD2EC02091E80022FDC0
:100F3000ECCF2091E80020FFE4CF4091F300209116
:100F4000F200342F009719F02830310558F041E0B5
:100F50002830310509F040E02091E8002E772093F9
:100F6000E800CFCF41914093F10001972F5F3F4FB1
:100F7000E9CF80915002811541F0853041F0809198
:100F8000E80083FFC2CF81E0089582E0089583E006
:100F90000895982F9093E900891771F07091EC00F3
:100FA0002091ED005091F00021FD09C09F5F973026
:100FB00089F78093E9000895762F242F50E030912F
:100FC000EB003E7F3093EB003091ED003D7F30939E
:100FD000ED003091EB0031603093EB007093EC004A
:100FE0002093ED005093F0002091EE0027FDDECF1E
:100FF000089580913C0287FF13C08091E80082FF32
:1010000006C08091E8008B778093E8000895809176
:1010100050028111F2CF0895809150028115D9F3C9
:101020008091E80080FFF8CF8091E8008E77ECCFC8
:101030002091E4003091E50095E6A9012091EC00B3
:10104000822F817020FF06C08091E80080FF06C0DB
:1010500080E008952091E80022FD1AC0809150029E
:10106000811589F0853089F08091EB0085FD0FC0F6
:101070002091E4003091E50042175307F9F29150B6
:10108000E1F684E0089582E0089583E0089581E028
:101090000895A0E0B0E0EFE4F8E00C94241EC8ED61
:1010A000D0E088818F7E8883E7EDF0E080818160E9
:1010B000808384E082BF81E080933B0288818E7FC1
:1010C000888302EE10E0E2EE10821092DA006801EE
:1010D000CA94E1EE108288818F7788838881806846
:1010E000888388818F7D888319BC1092500210926A
:1010F0003A0210924F02109239027601EA94E0EE21
:1011000080818B7F808388818160888342E060E07A
:1011100080E00E94C907F60180818E7F8083E2EE25
:10112000808181608083808188608083E0EE80811F
:101130008E7F8083888180618883CDB7DEB7E8E0C9
:101140000C94401EE8EDF0E080818E7F8083109249
:10115000E2001092DA001092E100A0EEB0E08C9173
:1011600081608C9380818F77808319BCA7ED8C91EF
:101170008E7F8C9380818F7E808310923B020895B6
:10118000A8E0B0E0E6ECF8E00C94281E89839A838E
:101190006B837C834D835E83809180020AE010E044
:1011A0008A3010F001E010E021E02F8318866B8177
:1011B0007C8189819A81ED81FE81099581111BC015
:1011C0002F8138852F5F3F4F2F83388702171307F2
:1011D00094F0C901889F9001899F300D300D112432
:1011E00080E090E045E34A95F1F700000196821710
:1011F0009307C1F7DCCF2896E4E00C94441E0F93CC
:101200001F93CF93DF93EB018A01909150029430AA
:1012100061F58093E9008FEF9091E80095FD06C09D
:1012200095ED9A95F1F700008150B1F78091E800B3
:1012300085FF1BC00E941808811112C08091E80030
:1012400085FD06C08091E8008E778093E800F2CF9C
:1012500088818093F1000150104011F02196EECF6B
:101260008091E8008E778093E800DF91CF911F9105
:101270000F910895CF93DF93EC0148E050E0BC015B
:1012800081E00E94FF0888E0FE01A4E4B2E0019042
:101290000D928A95E1F7DF91CF91089540E250E0F9
:1012A000BC0182E00E94FF0808959091E70292FB42
:1012B000222720F9281779F080FB92F99093E70212
:1012C0006091E6027091E70284E090E00E94931E34
:1012D00082E00E94C302089580912B01811559F18B
:1012E0008091E60287FF27C00E94DA0280931902EC
:1012F00040E250E065EA72E088E192E00E94A91EB7
:10130000892BC1F080E2E8E1F2E0A5EAB2E00190C9
:101310000D928A95E1F7E091C502F091C6023097EF
:1013200049F086E0809318020480F581E02D88E181
:1013300092E0099508950E94DA028093100248E035
:1013400050E067EC72E080E192E00E94A91E892BD8
:1013500089F388E0E0E1F2E0A7ECB2E001900D92C1
:101360008A95E1F7E091C502F091C602309711F33A
:101370000280F381E02D80E192E0DBCF811539F02E
:101380009091E102982B9093E1020E946C090895DC
:10139000811539F09091E802982B9093E8020E9411
:1013A0006C090895811521F00E9401030E946C09C7
:1013B0000895811541F080959091E80289238093EA
:1013C000E8020E946C090895CF93C82F811509F493
:1013D00063C08CEF8C0F813A08F060C080912B01C4
:1013E000811127C0E2E1F2E08081C817C9F131968E
:1013F00082E0E831F807C1F780912B01811136C0F6
:10140000A2E1B2E0EFEF80E09C91C91709F442C07D
:101410001196EF3F19F4911101C0E82F8F5F8630CC
:1014200099F7EF3FB9F1FE2FFF0FFF0BE05FFD4F84
:1014300030C08091E60287FFD5CFEC2FE695E69588
:10144000E695F0E0E85EFD4F828190E04C2F47701A
:1014500021E001C0220F4A95EAF78223892B31F05F
:101460008C2F0E94CC050E946C09C6CF8091E602A9
:1014700087FFC6CFEC2FE695E695E695F0E0E85EAF
:10148000FD4FC77081E001C0880FCA95EAF7C2819D
:10149000C82BC2830E946C09CF91089580E28C0F03
:1014A0008830D0F7C77081E001C0880FCA95EAF78D
:1014B000C091E102C82BC093E102ECCFA1E0B0E003
:1014C000E4E6FAE00C942A1E898368EC79E00E9435
:1014D000FC0189810E94E4092196E2E00C94461EF9
:1014E000811541F09CEF980F913A28F40E94CC05A9
:1014F0000E946C09089590E2980F9830D8F7982FC1
:1015000081E091FD84E090FD880F92FD82950E941C
:101510000103EECFA2E0B0E0E0E9FAE00C942A1E6D
:1015200089839A830E94700A69ED79E089819A81A2
:101530000E94FC012296E2E00C94461EA4E0B0E07A
:10154000E4EAFAE00C942A1E89839A836B837C83F5
:101550000E945E0A8B819C81892B41F489819A814A
:101560000E948A0A2496E2E00C94461E8FE99FE0CE
:101570000197F1F700C000008B819C8101978B835C
:101580009C83E8CF1092E10280912B01811581F0BC
:101590008091E60287FF0CC0EAE1F2E08EE1DF0114
:1015A0001D928A95E9F71092E8020E946C0908954D
:1015B000E2E1F2E086E0F3CF0E94C20A2FEF84E37B
:1015C0009CE0215080409040E1F700C0000088E19D
:1015D0009AE00FB6F894A895809360000FBE9093A0
:1015E0006000FFCFA0E0B0E0E8EFFAE00C94231E2B
:1015F0007C01DC0114968C91811509F4F6C061E040
:10160000C7010E942905EC01B0902B03B11409F425
:10161000F3C0F701858181111AC1F701858100812D
:101620001181811509F44EC1C8010E94F704C82F29
:10163000682FC8010E943202B8018C2F0E94090352
:101640000E941A04D82FC92FD7011596DD90CC908F
:10165000C2948FE0C8228091E5028770F9F00D2DC9
:10166000D114E9F0892F807F803461F080E28D0F02
:101670008830A0F0892F807E803221F4D23070F043
:10168000C11461F08091E70282FF08C082E00E94ED
:10169000C3028091E502877001E0811100E08C2F88
:1016A00082958F70883009F4D7C108F010C182305C
:1016B00008F41FC1825F8F70823008F452C1011597
:1016C000B1F08091E50280FD12C0D70115961C9201
:1016D0008695869586950E941802C7010E94F20A97
:1016E0008091E5028695869586950E94230260E0AA
:1016F000C7010E94290579C0E12FF0E0EE0FFF1F1E
:10170000E957FC4FC080D180D70111968C91119779
:10171000F6019181891314C09C912081921310C00D
:1017200022813381C217D30709F464C02481358133
:10173000C217D30709F45EC0982B81E0911101C054
:1017400080E08170B82A9701AE01B6010E94E50FD2
:10175000D60150968C91811101C011501F5F80916C
:101760008603181748F2811149C0B1102EC0F70145
:101770008581811551F1ECE2F1E080E090E0208973
:1017800021115EC025E1289FF001299FF00D112451
:10179000E45DFE4F80918603A82FB0E0AA0FBB1F27
:1017A000A957BC4FED93FD93848BC283D383D7019C
:1017B0002D913D91208331838F5F80938603970124
:1017C000AE01BF0181E00E94E50F8091E5028770C4
:1017D00061F0D70115968C91811539F08091E7025F
:1017E00082FF03C082E00E94C302CDB7DEB7E9E00A
:1017F0000C943F1E81E0A5CF10E0B1CF282F2150DF
:10180000330BF901EE0FFF1FE957FC4F00811181E7
:10181000D80150969C9161E0943019F0953059F4BC
:1018200063E0C8010E943B0E60E0C8010E9491067F
:101830008091860398CF923009F097CF815093CF53
:10184000019675968A30910509F099CFBECFCA35B9
:10185000BCE7DB0799F1C8F4C130FCE7DF0761F1B1
:10186000C3302CE7D20711F1C115DC4709F0D5CE02
:101870000E94C20AAFEFB4E3ECE0A150B040E040F8
:10188000E1F700C000000E945907CB358CE7D8076C
:10189000B9F08091E702002482FF0394802DCC35BB
:1018A000DC4709F0BACE0E945509B7CE6FEF7FEF43
:1018B00080E090E00E94931E0E94DC0A81E0F3CF5A
:1018C00080E0F1CFC8010E946802C82FB5CE8930F0
:1018D00009F432C18A5F8F70823008F0F0CED23FB7
:1018E00009F03BC18C2F8F71D11034C10E941802B6
:1018F000E0C01C2F1F70C03110F01295107FD11462
:10190000B9F0111569F080E28D0F883010F0D11117
:1019100009C08091E102812B8093E1020E946C0951
:101920008D2F40C08091E802812B8093E802F6CF92
:101930008D2F0E94700A111509F4C1CE80E28D0F1F
:10194000883010F0D11104C0812F0E94010306C01D
:1019500010958091E80281238093E8020E946C092F
:10196000AECE1C2F1F70C07FC03211F01295107FB9
:10197000D13040F009F450C0D11409F45CC0C11456
:10198000F9F0CECF8091E70282FD16C0D11469F044
:10199000111539F08091E102812B8093E1020E94C0
:1019A0006C0980E00E94E4098ACE80E00E94700AFF
:1019B000111509F484CEC8CFD114A1F0C11004C010
:1019C000812F0E94BE097BCEB1E0CB1278CE8091F0
:1019D000E202912F9823191709F471CE812B80937D
:1019E000E2026DCEC1106BCE812F0E94D209909180
:1019F000E202812F892329F0812F8095892380930A
:101A0000E2028091E302912F982309F458CE1095B9
:101A100018231093E30253CED11429F0E6E0CE163A
:101A200008F04DCECDCFF5E0CF1608F048CE812F8F
:101A30000E94D20944CEC114D1F3D93349F42FEF17
:101A400037EE83E0215030408040E1F700C00000D5
:101A50008D2F0E94700A33CE8C2F8370A9F5D11080
:101A600028C08D2F829586958770880F880F4D2FFF
:101A70004F70082E01C0440F0A94EAF72D2F2071F1
:101A8000D4FF06C02FE001C0220F8A95EAF7209507
:101A9000C695C695C370C23091F0822F842BC33097
:101AA00031F08091E402C13039F0242B82230E946E
:101AB00012020E94BB0503CE842B822BF8CF242B6D
:101AC0008091E4028227F3CFD11459F1C0FFF1CF06
:101AD0008D2F829586958770880F880F4D2F4F70B8
:101AE000082E01C0440F0A94EAF72D2F2071D4FF6D
:101AF00006C02FE001C0220F8A95EAF72095C6950F
:101B0000C695C370C23099F0822F842BC33031F058
:101B100080912A03C13041F0242B82230E941502B8
:101B2000C8CF823030F2D4CF842B822BF7CF242B36
:101B300080912A038227F2CFCF70D11439F08C2FF5
:101B40000E9418028D2F0E94BE09B3CF8D2F0E94D4
:101B5000D2098C2F0E942302ACCF70F4D03FC9F081
:101B6000D13F91F0D11409F450C0C11409F44AC016
:101B70008D2F0E94E4099DCFD33F01F1D43F91F70F
:101B80009091E70292FD25C08C2F8F71D11411F333
:101B9000ADCED11481F095E0C91608F08ACFCF718F
:101BA00081E090E0DC0101C0AA0FCA95EAF78091BC
:101BB0002A038A27B3CFB6E0CB16EFCF80E0D1144B
:101BC00009F4ACCFCF7181E001C0880FCA95EAF764
:101BD000A5CFD11461F08C2F8F7192FF87CE982FF3
:101BE000990F990F990F93609093E5027FCE81E052
:101BF0000E94C302E2E0CE1608F45BCF82E00E94AE
:101C0000C30257CF8C2F8F7171CEC11479F0D933A5
:101C100049F4FFEF27EE33E0F15020403040E1F788
:101C200000C000008D2F0E94700A43CF8C2F8F714F
:101C300091CFAAE0B0E0EFE1FEE00C94291E888786
:101C400069874A8711E010932B030E94F4051F82D5
:101C50002885298329852A838B839C831D838A85F4
:101C60008E83CE0101960E94F20A10922B032A96CF
:101C7000E3E00C94451E0F931F93CF93DF93EC0189
:101C8000162F8B898F3F31F0982F990F990B86175C
:101C900091050CF41B8B8A8918164CF4212F30E027
:101CA000082E001C0008821703060CF061C03C8956
:101CB000E7E8F3E082E090E039135FC0823008F497
:101CC00057C009892C813D8121153105C9F48091C6
:101CD0002A030E9400022981988130E3839FF0014A
:101CE000112486E0289FE00DF11D1124E90FF11D5C
:101CF000EE0FFF1FE655FE4F208131812C833D837F
:101D000081E080932B038E812930310509F4A2C034
:101D100008F041C02430310509F44CC027303105AA
:101D200009F47FC081E010922B039989981708F479
:101D3000898B813069F4812F8D7F09F0A6C0111144
:101D400007C041E0698188810E94190E82E0898B79
:101D50001A8B023069F08989823051F40C8910E0C5
:101D60000F5F1F4F80918603081711050CF493C075
:101D7000DF91CF911F910F910895A191B19150964C
:101D80002C915097223029F051962C91281708F465
:101D9000822F9F5F91CF2631310521F6123099F1C4
:101DA0001330C1F1113009F06EC060E070E086E1DF
:101DB00090E00BC0123061F01330A9F0113009F03F
:101DC00062C060E070E084E090E00E949E0A19C06A
:101DD000811104C082E00E94BE0911C084E090E03D
:101DE0000E945E0A0EC0811106C082E00E94D209E4
:101DF0000E946C0904C084E090E00E948A0A0E945C
:101E00006C0982E090CF811102C081E0E4CF86E1CD
:101E100090E0E6CF811102C081E0E8CF86E190E05A
:101E2000ECCF123049F0133071F0113061F560E001
:101E300070E087E090E0C9CF811102C088E0CBCF8D
:101E400087E090E0CDCF811102C088E0CFCF87E05E
:101E500090E0D3CF123049F0133071F0113099F483
:101E600060E070E089E090E0B0CF811102C084E0D2
:101E7000B2CF89E090E0B4CF811102C084E0B6CF48
:101E800089E090E0BACF80E04ECF40E06981888160
:101E90000E94190E5DCFF801EE0FFF1FE957FC4FAE
:101EA000C081D1818B898F3F09F462CF9A899F3F8E
:101EB00019F098170CF05CCF8230E9F054F48130BF
:101EC000A8F009F04DCF60E0CE010E943B0E61E02A
:101ED0000EC0833009F044CF60E0CE010E943B0E7B
:101EE00062E0CE010E943B0E63E001C060E0CE01E3
:101EF0000E943B0E35CF60E0CE010E943B0E62E0B7
:101F0000F6CFA2E0B0E0E7E8FFE00C942A1E498398
:101F10005A8363E0CA010E94910662E089819A8136
:101F20000E943B0E80E090E0BC012296E2E00C941F
:101F3000461ECF93DF93EA0180E090E0892B59F0B1
:101F400060E08C819D810E940000811521F061E09C
:101F5000CE010E943B0E60E0CE010E94910680E01F
:101F600090E0BC01DF91CF910895A2E0B0E0EBEBEF
:101F7000FFE00C942A1E49835A8361E0CA010E9443
:101F80003B0E60E089819A810E94910680E090E09A
:101F9000BC012296E2E00C94461EA2E0B0E0E3ED24
:101FA000FFE00C942A1E49835A8363E0CA010E9411
:101FB0003B0E60E089819A810E94910680E090E06A
:101FC000BC012296E2E00C94461EA8E0B0E0EBEEE5
:101FD000FFE00C94271EF82E6F83788749835A837D
:101FE0008901FB018089833009F48FC0C8F48130F6
:101FF00091F18230F9F4F9019581F11409F472C07C
:102000009115A1F0EF81F88586818F5F86838FEF30
:10201000828B838B60E0CF010E943B0E61E037C072
:10202000843009F48CC0853009F4B4C02896E5E00A
:102030000C94431EF114D1F3F90185818115B1F39C
:1020400061E08F8198850E94910660E08F8198857C
:102050000E943B0EEBCFEF81F8858489282F30E07A
:102060002F5F3F4F9091860392171306F9F4F114F6
:10207000E9F2F80185818111D9CF80E090E0892BC8
:1020800059F461E08F8198850E943B0E62E08F8158
:1020900098850E949106CACF60E0EF81F88584811F
:1020A00095810E9400008111F1CFEBCFF11429F04E
:1020B000F801958164E0911551F3A80169817A8155
:1020C0000E94B401811509F4B1CFF110AFCFF8012E
:1020D00085818111ABCF63E08F8198850E94910645
:1020E00062E0B4CF911509F4A1CFEF81F885818B1F
:1020F00080E090E0892B09F160E0848195810E9465
:1021000000008115D1F061E014C0F11409F48ECF04
:10211000F901858181118ACFEF81F8852489809129
:1021200086038150990B65E02817190609F0AFCF97
:1021300063E08F8198850E943B0E60E0A8CFF90193
:1021400085818111E0CFEF81F88563857485858570
:1021500096850E943D076B837C838D839E8362E01E
:102160008F8198850E94E9012B813C814D815E81A0
:10217000261737074807590730F6A80169817A8181
:10218000EF81F88584890E94B40165E0811509F426
:102190004DCFA2CFF90185818111CACFEF81F8859A
:1021A0002489809186038150990B2817190609F01C
:1021B0003DCFBECF80912903803170F480912803F8
:1021C000811551F0E091EA022091E9023091240357
:1021D000409123032E1301C00895BF0187E0E89FBB
:1021E000F0011124DF01A551BD4F14968C91149775
:1021F000811561F111968C911197831327C08C91F1
:10220000841324C015968C91159781111FC01296C6
:102210008D919D91A0912503B09126038A1B9B0B64
:10222000883C910598F4809129038F708061809398
:102230002903EF50FD4F80818F708061808383E29E
:1022400093E00E94F20A0E94B9020895FB013196C0
:10225000E770C0CFADE0B0E0E0E3F1E10C941F1E09
:102260008C0186E0F801DE01189601900D928A95A6
:10227000E1F7F801F580C48083E2882E83E0982E90
:1022800070902703711020C0C114D9F0F11409F423
:102290001CC1C8010E945C05811509F416C187E0C4
:1022A000F801D40101900D928A95E1F7F1E0CF1287
:1022B00006C080912303909124030E9448050E9448
:1022C000DA10FF24F39454C0E080A280B380D09051
:1022D000280380912503909126039501281B390B33
:1022E000D11409F4BAC0283C310508F090C0C114DB
:1022F00041F390912403C18080912903803108F03B
:1023000058C0C91214C0909123039E1110C0F1103F
:102310004AC08F7080618093290383E293E00E941A
:10232000F20A80912903F8018683F12C21C0F11073
:102330003AC040E06C2D8E2D0E949B0240E06C2D37
:102340008E2D0E949B02F82E8111EFCF88859985F2
:102350000E944805292F22952F70903470F49F70A9
:102360002230A0F09115B1F0F8019681903190F4EF
:102370008F2D2D96EDE00C943B1E2A5F2F7022309E
:1023800068F0C8010E94F20AFD2CF2CF911511F0FD
:10239000811571F3805E883058F3F3CF803F40F3AE
:1023A000815F8330F9CF8091290381608093290375
:1023B000BCCFC91207C0909123039E1103C0F11432
:1023C00009F46CC0C8010E945C05811509F47DC048
:1023D000F11409F47AC080912903803278F02091B9
:1023E00023033091240329833A83AB82BC827D820C
:1023F0001E828F83CE0101960E94F20A87E0F801C7
:10240000A3E2B3E001900D928A95E1F758CF809155
:102410002903803150F483E293E00E94F20A87E0BE
:10242000F40111928A95E9F780CFC11409F449CFDC
:102430002091240391812913C5CF909123039E11EC
:10244000C1CFF110BFCF8683C8010E94F20A87E096
:10245000F40111928A95E9F734CF283C3105F8F65A
:10246000C11409F42ECFF11481F1909124038181DC
:10247000981321C0809123038E111DC080912903E0
:1024800080FD10C0803170F08683807F803F39F0FE
:102490008681982F907F905F8F70892B8683C801EB
:1024A0000E94F20A87E0F801A3E2B3E001900D92E6
:1024B0008A95E1F706CFC8010E945C0581119ECF85
:1024C00080912903816080932903C8010E94F20A48
:1024D000F8CEABE1B0E0EFE6F2E10C94281E4E8BB3
:1024E0005F8B688F798F8A8F192F9B8F9111109234
:1024F000E8021D8A86E0FE017696DE011F960190B5
:102500000D928A95E1F70A8D011539F00B8B1C8B22
:1025100061E0CE010F960E9429050B8B1C8B87E092
:10252000FE013F96DE01189601900D928A95E1F723
:10253000CE0108960E942A11811128C02091E9023B
:102540003091EA0287E0FE013896DE011196019093
:102550000D928A95E1F78C858115C1F0822F90E06C
:102560008395877090E038171906D1F097E0929F15
:10257000D0011124A551BD4FFE01319601900D925D
:102580009A95E1F78093E9020E94B9028091EA02EC
:102590009091E902891312C06B96E4E00C94441EFA
:1025A0000E94C20A1092E9021092EA0287E0E3E276
:1025B000F3E0DF011D928A95E9F7E8CFB7E08B9F42
:1025C000C001112485519D4F0E942A11811521F3CC
:1025D0002091EA022F5F3F4FC90187708093EA0282
:1025E000D5CFA6E0B0E0E7EFF2E10C94281E0E9400
:1025F000F4058C018091A3029091A40280179107A9
:1026000079F019821A820E94F405BC0149815A812D
:1026100080E090E00E9469120093A3021093A4024C
:102620002696E4E00C94441EAAE2B0E0EAE1F3E16D
:102630000C94291E8CE392E0FC0101962091F1009C
:10264000208322E084349207B9F780913D028930DB
:1026500009F456C0C8F4823009F4B3C0833009F4D9
:1026600082C0813071F18091E80083FFE7C08091E2
:102670003C0290913D029A3008F0E0C0E92FF0E072
:10268000EF53F14E0C94511E8A3009F489C08B30FF
:1026900051F780913C02813231F780914002909154
:1026A0004102892B01F78091E800877F8093E80041
:1026B0000E94F90780913E0280932B010E94C20A7A
:1026C000D2CF80913C02813A71F68091E800877FF9
:1026D0008093E8008091400290914102892B61F043
:1026E00060E080E090E070E00E946F078091E80079
:1026F0008B778093E800B7CF68E084E492E0F3CF73
:1027000080913C02813209F0AECF809140029091DD
:102710004102029708F0A7CF8091E800877F80935D
:10272000E8008091E80082FF19C02091F3008091B9
:10273000F200922F029731F48091F100813011F074
:10274000863021F48091F10080934C028091E80062
:102750008B778093E8000E94F90785CF8091500223
:102760008111DFCF80CF80913C02813A09F07BCF8D
:102770008091400290914102892B09F074CF8091A1
:10278000E800877F8093E8008091E80080FFFCCF1D
:1027900080912B018093F1008091E8008E77D9CF52
:1027A00080913C02813209F05ECF8091E800877F02
:1027B0008093E8000E94F90780913F0280933802DD
:1027C00052CF80913C02813A09F04DCF8091E800D0
:1027D000877F8093E8008091E80080FFFCCF8091A4
:1027E0003802D8CF803889F0823841F58091400294
:1027F0008F70873018F58093E9008091EB0085FB9E
:10280000882780F91092E90006C080914F02880F56
:1028100090913902892B9091E800977F9093E8007E
:102820008093F1001092F1008091E8008E7723C030
:10283000811116C080913E02813011F18091E80033
:1028400083FF0AC08091E800877F8093E800809131
:10285000EB0080628093EB00AA96E3E00C94451EA7
:10286000823061F780913E02811581F01092E9007B
:102870008091E800877F8093E8000E94F907DECF0F
:10288000933009F080E080934F02F0CF80914002B6
:102890008F702FEF280F263088F68093E900209163
:1028A000EB0020FFE3CF933031F48091EB008062A6
:1028B0008093EB00DBCF9091EB0090619093EB0065
:1028C00021E030E0A90101C0440F8A95EAF7409366
:1028D000EA001092EA008091EB008860E9CF811154
:1028E000ADCF10913E021F778091E3008078812B5D
:1028F0008093E3008091E800877F8093E8000E9446
:10290000F9078091E80080FFFCCF8091E3008068A8
:102910008093E30083E0111101C082E080935002B4
:102920008DCF8058823008F089CF20913E023091BF
:102930003F022C3D53E0350791F583E08A838AE21C
:1029400089834FB7F894DE01139620E03EE051E210
:10295000E32FF0E050935700849120FF03C082954D
:102960008F703F5F8F708A30C0F0895C8D931D92AD
:102970002F5F243169F74FBF8091E800877F8093F4
:10298000E8006AE270E0CE0101960E946F07809134
:10299000E8008B778093E80051CF805DE7CF832FED
:1029A00090E08330910519F160F48130910509F4CC
:1029B0006CC08230910509F041CF8BE3EBE2F1E08E
:1029C00029C020914002309141028132910509F4E1
:1029D00053C08232910509F031CF2130310508F41E
:1029E0005CC009F02BCF8BE3ECEAF0E013C0822F40
:1029F00090E0213099F182309105B9F1009709F00A
:102A00001DCFE6EAF1E0E4918E2FE6EAF1E00097CF
:102A100009F414CF2091E800277F2093E80020914B
:102A20004202309143028217930708F49C0140E070
:102A300021153105B1F5411134C08091E80082FDC6
:102A4000A6CF80915002811509F4A1CF853009F4F9
:102A50009ECF8091E80083FFF0CF99CFE8E9F1E0C5
:102A6000E4918E2FE8E9F1E0D2CFE8E7F1E0E491DC
:102A70008E2FE8E7F1E0CBCF2130310550F009F09F
:102A8000DDCE89E0E6E5F1E0C5CF82E1E6E6F1E002
:102A9000C1CF89E0EDE3F1E0BDCF84E4E7EEF0E003
:102AA000B9CF80915002811509F471CF853009F4B6
:102AB0006ECF8091E80083FD6ACF8091E80082FDAF
:102AC000BCCF8091E80080FFB3CF4091F3008091AC
:102AD000F200942F2115310519F08830910550F03E
:102AE00041E0089709F040E08091E8008E778093FC
:102AF000E8009ECF44914093F10031962150310976
:102B00000196E8CF803809F099CE8091E800877F60
:102B10008093E80080913A028093F10085CE811184
:102B20008DCE10913E02123008F088CE8091E800E0
:102B3000877F8093E80010933A020E94F9071115ED
:102B400081F084E08093500242E061EC81E00E94D9
:102B5000C90742E261EC82E00E94C90780915002FD
:102B60006DCE8091E30087FDECCF81E0EBCFAEE04E
:102B7000B0E0EDEBF5E10C94251EFE01319688E006
:102B8000DF011D928A95E9F780E0E82E82E0F82EB9
:102B90008F01ED871E87F70181917F018F3F09F437
:102BA0003FC0F894E82FE295EF70F0E021A18F701C
:102BB00041E001C0440F8A95EAF7842F922F942BAD
:102BC00091A392A18095892382A3789400C0E4E028
:102BD000F2E031E0D12C21912F3F79F0A22FA29584
:102BE000AF70A05EB0E08C9190E02F7002C0959520
:102BF00087952A95E2F780FF81C080E0D82A330FBD
:102C00008AE092E08E179F0731F7F70182918F3F9C
:102C100011F00E948A0590EA9A95F1F7D801DC92AA
:102C20000F5F1F4FE4E0F2E0EE15FF0509F0B3CFB0
:102C300048E050E06D857E8585E992E00E94A91EFE
:102C4000892B09F45DC088E0ED85FE85A5E9B2E039
:102C500001900D928A95E1F781E080938B020E94AA
:102C6000F4058093890290938A020091940210E007
:102C700004571D4F80919D02811509F4B4C07E0157
:102C8000F9E0EF0EF11C84E0D7011D928A95E9F777
:102C9000809180028A3008F065C040E957E1B701B1
:102CA000C8010E94C008811509F48BC04DE158E1AC
:102CB000B701C8010E94C008811509F482C047E429
:102CC00057E1B701C8010E94C008811509F479C015
:102CD000109280028091840290E044E050E0B701BD
:102CE00084579D4F0E94A91E21E020938302892BC7
:102CF00009F059C02E96E7E00C94411E832F7ECF39
:102D000080918B02811509F4B0CF0091940220913B
:102D1000890230918A024FB7F89480918502909190
:102D20008602A0918702B09188024FBF821B930B4D
:102D3000059708F49ACF10E004571D4F44E050E087
:102D400065E972E0C8010E94A91E892B41F084E068
:102D5000E5E9F2E0D80101900D928A95E1F7109231
:102D60008B0283CF20918102309182024FB7F89479
:102D70008091850290918602A0918702B09188028D
:102D80004FBF821B930B843F914008F086CF809108
:102D90008302811509F4AECF84E0F70111928A9580
:102DA000E9F710928302E0918402F0E0E457FD4FCE
:102DB00089859A85AB85BC8580839183A283B38303
:102DC00099CF809180028F3F39F40E94F40580935F
:102DD000810290938202DBCF8F5F809380028A30E2
:102DE00008F478CFF2CFE0908402F12CA701445789
:102DF0005D4F7A01F80180819181A281B381809336
:102E0000680290936902A0936A02B0936B0288E60D
:102E100092E00E94A2058093670280916C029091DB
:102E20006D02A0916E02B0916F02F70180839183D1
:102E3000A283B383E0907002F0907102009172025D
:102E40001091730280917C0290917D02A0917E028C
:102E5000B0917F02E816F9060A071B0709F44ACF6A
:102E6000E0927C02F0927D0200937E0210937F023A
:102E70000E940006E61AF70A080B190BE0929F025F
:102E8000F092A0020093A1021093A20233CFA4E01B
:102E9000B0E0EDE4F7E10C94291E60915F027091BF
:102EA000600280916102909162020E943D0711E0F0
:102EB000643671058105910570F10E940C06DC01F4
:102EC000CB010296A11DB11D89839A83AB83BC837C
:102ED000809124019091250189599D4F20912301D2
:102EE000422F50E0253008F044E0BE016F5F7F4F75
:102EF0000E94B61E83E090E00E94981D182F811555
:102F000051F00E94000660935F027093600280930C
:102F1000610290936202812F2496E3E00C94451E97
:102F2000A7E0B0E0E6E9F7E10C94291E6E837F8309
:102F300080E090E00E94981D182F811509F45CC074
:102F400080910E01482F50E0811141E060910F0106
:102F50007091100169597D4FCE0105960E94B61EF1
:102F6000609178027091790280917A0290917B024F
:102F70000E943D07643671058105910538F488E6A5
:102F800092E00E94A2059D818917B1F181E090E055
:102F90000E94981D8115F1F180911601482F50E093
:102FA000853008F044E0609117017091180169596B
:102FB0007D4FCE0101960E94B61E88E692E00E94E7
:102FC000A2059D81891326C00E94000660937802A5
:102FD0007093790280937A0290937B0289819A811F
:102FE000AB81BC818093740290937502A0937602AA
:102FF000B093770281E00FC08091680290916902DE
:10300000A0916A02B0916B0289839A83AB83BC83DF
:103010001111E4CF80E040917402509175026091EB
:10302000760270917702EE81FF8140835183628343
:1030300073832796E3E00C94451EA4E0B0E0E3E23E
:10304000F8E10C942A1E89839A83AD016CE672E044
:103050000E94A91E8B839C8360916302709164021D
:1030600080916502909166020E943D076436710569
:103070008105910520F48B819C81892B09F1809138
:103080001C0190911D0189599D4F20911B01422FD8
:1030900050E0253008F044E069817A810E94B61E34
:1030A00082E090E00E94981D811559F00E94000670
:1030B000609363027093640280936502909366024A
:1030C00081E02496E2E00C94461ECDB7DEB72A9745
:1030D0000FB6F894DEBF0FBECDBF85B7806885BF41
:1030E00085B7806885BF84B7877F84BF0FB6F894A3
:1030F000A8958091600088618093600010926000C4
:103100000FBE80E890E00FB6F89480936100909332
:1031100061000FBE88E895E080930E0290930F0245
:103120000E94A2080E9449088091E2008460809376
:10313000E200789480915002811599F08091E90025
:103140001091EC008F7010FB112717F9182B1092BB
:10315000E9008091E80083FD0E9414131F70109312
:10316000E90082E084BD93E095BD9AEF97BD80931E
:103170006E0010929F021092A0021092A102109273
:10318000A20288EC90E02091E30027FD0EC0AFE39F
:10319000BCE91197F1F700C000000197A1F70E9468
:1031A000A2081092500280E001C081E080939D024D
:1031B00080939E028093000181110E94A61C809141
:1031C00000018091000191E08927880F880F80938A
:1031D000940294E0981B9093840200E012E094E043
:1031E000E92E92E0F92EF80181918F018F3F11F0C5
:1031F0000E948A05E016F106B1F704E012E08AE0C9
:10320000E82E82E0F82ED8018D918D018F3F11F0CC
:103210000E948A05E016F106B1F788E0ECE8F2E0DA
:10322000DF01282F1D922A95E9F7E5E9F2E0DF0199
:103230001D928A95E9F780E090E00E945F1E853E2E
:103240009E4F09F45EC065EE7EEF80E090E00E9444
:10325000931E60E082E090E00E94751E81E0809302
:10326000E40261E083E090E00E94751E60E074E19A
:1032700084E090E00E94931E60E086E090E00E946F
:10328000751E60E087E090E00E94751E60E070E0CF
:10329000AB0188E090E00E94871E60E083E290E04E
:1032A0000E94751E60E08CE090E00E94751E60E058
:1032B0008DE090E00E94751E19821A821B821C828A
:1032C0001D821E821F82188648E050E067E170E090
:1032D000CE0101960E94651E60E070E0AB018FE1B7
:1032E00090E00E94871E60E070E0AB018FE090E00C
:1032F0000E94871E60E070E0AB0183E190E00E94D5
:10330000871E82E090E00E94571E8093510284E065
:1033100090E00E945F1E8093E6029093E7020E9475
:10332000B715EFEFF6E721E0E150F0402040E1F77C
:1033300000C000000E94B715E0919E0281E0E827DE
:10334000EE0FEE0FF0E0E457FD4F808181FF08C0E3
:103350006FEF7FEF80E090E00E94931E0E9459077C
:1033600083E090E00E94571E0E94120280919D020D
:10337000811102C00E94A91C81E091E08093C502E6
:103380009093C6028091500202E110E4853009F466
:1033900082C00E94B71502E512E0ACE8B2E0A9874E
:1033A000BA87FD01D8019D9180812AE532E02A1774
:1033B0003B0709F47AC031969817A9F3A0909D02B3
:1033C000F12CA985BA85ED90A987BA87F801B1904B
:1033D0008F01BE1429F1BE24CC24C394D12C8B2D93
:1033E0008C21B9F0A114A9F0D982FA820E94F405C7
:1033F0008B839C83F1E0FD8391E08E2D8C2109F479
:1034000090E09E8349815A816B817C818D810E94ED
:103410006912D394CC0C26E0D212E1CFF801E292EB
:10342000F39438E0F312CDCF0E940C0642C0809195
:103430005002843019F110924E0248E150E00FB66C
:10344000F894A895409360000FBE1093600083B776
:10345000817F846083BF83B7816083BF78948895C0
:1034600083B78E7F83BF0FB6F894A89580916000D4
:10347000886180936000109260000FBE0E94B715B3
:10348000ECE8F2E08081811182C0319684E992E01B
:103490008E179F07B9F780915002853009F4C7CF86
:1034A0000E94C20A0E94BB0574CF981387CF0E9466
:1034B000F1120E94BB0590915A02891721F0809366
:1034C0005A020E9400060E9400066B017C01809156
:1034D0005B0290915C02A0915D02B0915E02960148
:1034E000A701281B390B4A0B5B0BC901DA0118161F
:1034F00019061A061B060CF045CFC0925B02D0924B
:103500005C02E0925D02F0925E020CE213E0D801F0
:10351000BC90B11459F111966D917D918D919D9151
:1035200015979B01AC012C193D094E095F0909F063
:10353000EAF417964D915D911497ED91FD910995DF
:10354000F8012081B21212C0009770406040A9F0CB
:103550002181328143815481DC01CB01820F931F91
:10356000A41FB51F81839283A383B483075F1F4F7A
:10357000F3E006381F0759F605CF10821182128238
:10358000138214821582168217821086EFCF8091E3
:103590004F02811509F47FCF90E199BD09BD09B4AF
:1035A00000FEFDCF8091D8008F7D8093D800809160
:1035B000E00082608093E0008091E00081FDFCCF1C
:1035C0000E94C20A68CF1F921FB61F9211248F93C8
:1035D0009F93AF93BF9380914E02811113C080914E
:1035E000850290918602A0918702B091880241964F
:1035F000A11DB11D8093850290938602A09387023E
:10360000B0938802BF91AF919F918F911F901FBE81
:103610001F90189578941F921FB61F9211248F93B4
:103620009F93AF93BF938091850290918602A09162
:103630008702B09188020196A11DB11D8093850279
:1036400090938602A0938702B0938802BF91AF91B6
:103650009F918F911F901FBE1F9018951F920F92E0
:103660000FB60F9211242F933F934F935F936F9355
:103670007F938F939F93AF93BF93EF93FF9380912B
:10368000E10082FF09C08091E20082FF05C08091C5
:10369000E1008B7F8093E1008091DA0080FF24C0FD
:1036A0008091D80080FF20C08091DA008E7F8093C7
:1036B000DA008091D90080FF9BC080E189BD82E162
:1036C00089BD09B400FEFDCF81E080935002809156
:1036D0003B02811109C00E94A2080E944908809102
:1036E000E20084608093E2008091E10080FF17C0D7
:1036F0008091E20080FF13C08091E2008E7F809372
:10370000E2008091E20080618093E2008091D80025
:1037100080628093D80019BC85E08093500280912C
:10372000E10084FF29C08091E20084FF25C080E190
:1037300089BD82E189BD09B400FEFDCF8091D8002A
:103740008F7D8093D8008091E1008F7E8093E1008F
:103750008091E2008F7E8093E2008091E2008160A0
:103760008093E20080913A02811509F447C084E019
:1037700080935002809150028091E10083FF27C026
:103780008091E20083FF23C08091E100877F8093D6
:10379000E10082E08093500210923A028091E100B1
:1037A0008E7F8093E1008091E2008E7F8093E20023
:1037B0008091E20080618093E20042E060E080E07E
:1037C0000E94C9078091F00088608093F000FF910B
:1037D000EF91BF91AF919F918F917F916F915F9189
:1037E0004F913F912F910F900FBE0F901F90189502
:1037F00019BC1092500210923B0276CF8091E300E8
:1038000087FF02C083E0B4CF81E0B2CF1F920F9256
:103810000FB60F921124EF92FF920F931F932F93E5
:103820003F934F935F936F937F938F939F93AF9348
:10383000BF93CF93EF93FF9309EE10E0F8018081DF
:10384000C091EC008F70C0FBCC27C7F9C82B108249
:10385000E0EF8081877F808378940E941413F801C1
:103860001082E0EF808188608083CF70E9EEC083B2
:10387000FF91EF91CF91BF91AF919F918F917F91E8
:103880006F915F914F913F912F911F910F91FF90F9
:10389000EF900F900FBE0F901F9018958EE14A9BEE
:1038A00002C08150E1F74A9BFECF08955A9880E20A
:1038B0008A95F1F75A9A0895FC012BE02A95F1F7C1
:1038C00028E080E090E031E040E14A95F1F7880F90
:1038D0004A9B02C08160932742E04A95F1F70000BD
:1038E00040E14A95F1F7215079F720E12A95F1F767
:1038F00029B132E03A95F1F7000040E14A95F1F73D
:1039000031E022FD93272081920F90830895A1E05A
:10391000B0E0EDE8FCE10C94261E19828C017C01DC
:10392000E60EF11C0E944E1CCE0101960E945C1C0A
:10393000F80181938F01EE15FF05A1F781E09981D0
:10394000911180E02196E6E00C94421E529A5A9A18
:10395000089552985A9AEA9AE9E6F0E080818F7CBD
:10396000808308956150770B91E001C0990F6A95AB
:10397000EAF7692F90E021E0611108C0911591F0FC
:103980005A9A80E28A95F1F75A980895362F38238B
:1039900039F05A9A922730E23A95F1F76695ECCFD2
:1039A0005A98F9CF5A98EDCFA3E0B0E0EAEDFCE1E8
:1039B0000C94281E8A839B830A811B81060F111D8C
:1039C000EA81FB818191EA83FB8389830E94561CF3
:1039D00068E089810E94B21CEA81FB81E017F1074F
:1039E00079F72396E4E00C94441E1F920F920FB6D1
:1039F0000F9211240F931F932F933F934F935F9335
:103A00006F937F938F939F93AF93BF93EF93FF93A6
:103A1000CF93DF930F92CDB7DEB719820E944E1C71
:103A2000CE0101960E945C1C082F0695069506950E
:103A3000282F22952570902F9570920F292F237093
:103A400096959695920F982797708981892B09F002
:103A500059C0053008F056C080E18A95F1F75A9AAE
:103A6000529A82E08A95F1F700C05A9888E0089F40
:103A700080011124D801A55FBE4F1696ED91FD91EE
:103A80001897309791F06091FE017091FF011496A4
:103A90002D913D91260F371F15978D919D91680FA0
:103AA000791F4C9113978C910995F801E55FFE4FB2
:103AB0006381611551F02091FE013091FF018481F5
:103AC0009581820F931F0E94D41C0E94561C80E196
:103AD0008A95F1F75A9852985A9A80E18A95F1F7A7
:103AE000F801E55FFE4F6081611551F02091FE0104
:103AF0003091FF0181819281820F931F0E94871C68
:103B00000E944E1C0F90DF91CF91FF91EF91BF91DA
:103B1000AF919F918F917F916F915F914F913F9165
:103B20002F911F910F910F900FBE0F901F9018951E
:103B3000A4E0B0E0EEE9FDE10C942A1E89839A83AB
:103B4000853091050CF06FC0F894529A5A9845E070
:103B50004A95F1F70000982F9695957089818570A8
:103B6000980F892F8370292F26952695E981FA8150
:103B700093E0EE0FFF1F9A95E1F7EB83FC83280F8C
:103B8000E22BF32BE983FA830E94561C00C068E005
:103B900089810E94B21CF0E1FA95F1F752985A9A85
:103BA0004A9B3AC087E090E04A9938C0EB81FC819B
:103BB000E55FFE4F6381611561F02091FE01309158
:103BC000FF0184819581820F931F0E94871C8115BC
:103BD00039F10E944E1C40E24A95F1F75A98529AE8
:103BE00050E15A95F1F78B819C81855F9E4F8983C7
:103BF0009A83FC016081611551F02091FE013091A2
:103C0000FF0181819281820F931F0E94D41C0E9428
:103C1000561C789481E008C000C0C2CF019741F4DF
:103C2000529A5A9A789480E02496E2E00C94461EC8
:103C300000C0BACF2F923F924F925F926F927F92C5
:103C40008F929F92AF92BF92CF92DF92EF92FF92AC
:103C50000F931F93CF93DF93CDB7DEB7CA1BDB0B58
:103C60000FB6F894DEBF0FBECDBF09942A883988FD
:103C700048885F846E847D848C849B84AA84B98404
:103C8000C884DF80EE80FD800C811B81AA81B98110
:103C9000CE0FD11D0FB6F894DEBF0FBECDBFED0124
:103CA0000895EE0FFF1F0590F491E02D0994F99906
:103CB000FECF92BD81BDF89A992780B50895A8E1FD
:103CC000B0E042E050E00C949B1EDC01A40FB51F55
:103CD0004150504048F0CB01840F951F2E910E9417
:103CE000761E41505040D0F70895262FF999FECF07
:103CF00092BD81BDF89A019700B4021639F01FBA3F
:103D000020BD0FB6F894FA9AF99A0FBE089503965B
:103D1000272F0E94761E0E94751E252F0E94761E58
:103D2000242F0C94761E0196272F0E94761E0C9449
:103D3000751EDC01CB01FC01F999FECF06C0F2BD76
:103D4000E1BDF89A319600B40D9241505040B8F759
:103D50000895FB01DC0104C08D910190801921F4CC
:103D600041505040C8F7881B990B0895FB01DC01B6
:103D700002C001900D9241505040D8F70895F89438
:103D8000FFCFF21318141E1418141E146F1491147C
:063D90001E1482158F15C0
:103D9600016A073A094E096D076E07000000010027
:103DA60000000000000004010000000405000000FF
:103DB60000000004090000000000000100000000EF
:103DC6000000000000000000000000000000FFFFEF
:103DD60000000000000000000000000000000000DD
:103DE600000000FFFF0000000000000000000000CF
:103DF6000000000000000000FFFF000000000000BF
:103E060000000000000000000000000000FFFF00AE
:103E1600000000000000000000000000000000009C
:103E26000000FFFF0000000000000000000000008E
:103E360000000000000000FFFF000000000000007E
:103E4600000000000000000000000000FFFF00006E
:103E5600000000000000000000000000000000005C
:103E660000FFFF000000000000000000000000004E
:103E7600000000000000FFFF00000000000000003E
:103E86000000000000000000000000FFFF006702C5
:0E3E9600946697C6F4F5F6F73133C86432002F
:00000001FF
