:100000000C945C050C9479050C9479050C94DA2D0C
:100010000C9479050C9479050C9479050C94790568
:100020000C9479050C9479050C94782A0C94502B37
:100030000C9436130C9479050C9479050C9479057D
:100040000C9479050C9479050C9479050C94790538
:100050000C9479050C94542A0C9479050C94790528
:100060000C9479050C9479050C9479050C94790518
:100070000C9479050C9479050C9479050C94790508
:100080000C9479050C9479050C9479050C947905F8
:100090000C9479050C9479050C9479050C947905E8
:1000A0000C9479050C9479050C94790505010902E5
:1000B000A10185020901A1000509190129081500FE
:1000C0002501950875018102050109300931158165
:1000D000257F95027508810609381581257F9501D0
:1000E00075088106050C0A38021581257F95017572
:1000F000088106C0C005010980A101850319012AF4
:10010000B700150126B700950175108100C0050CD8
:100110000901A101850419012AA002150126A002E6
:10012000950175108100C005010906A1018506052C
:100130000719E029E71500250195087501810205D9
:1001400007190029EF1500250195F07501810205B9
:10015000081901290595057501910295017503910D
:1001600001C005010906A101050719E029E71500ED
:100170002501950875018102950175088101050722
:10018000190029FF150026FF009506750881000556
:10019000081901290515002501950575019102959C
:1001A0000175039101C009023B00020100A0FA0998
:1001B0000400000103010100092111010001224492
:1001C0000007058103080001090401000103000084
:1001D0000009211101000122B60007058203200059
:1001E0000112010002000000085346010001000155
:1001F0000200011E0343006F0072006E00650020C4
:10020000004B006500790062006F006100720064BD
:100210000000000C03430052004B00420044000069
:10022000000403090400AE00AF0000000000003E1F
:100230005B4F5B3E003E6B4F6B3E001C3E7C3E1CAA
:1002400000183C7E3C18001C577D571C001C5E7F2C
:100250005E1C0000183C180000FFE7C3E7FF000029
:100260001824180000FFE7DBE7FF0030483A060ECD
:1002700000262979292600407F05050700407F05D3
:10028000253F005A3CE73C5A007F3E1C1C080008F2
:100290001C1C3E7F0014227F2214005F5F005F5F02
:1002A0000006097F017F00006689956A0060606032
:1002B00060600094A2FFA2940008047E040800106D
:1002C000207E20100008082A1C0800081C2A0808A4
:1002D000001E10101010000C1E0C1E0C0030383EBA
:1002E000383000060E3E0E06000000000000000040
:1002F000005F000000000700070000147F147F1457
:1003000000242A7F2A12002313086462003649560B
:10031000205000000807030000001C2241000000DC
:1003200041221C00002A1C7F1C2A0008083E0808E5
:100330000000807030000008080808080000006015
:100340006000002010080402003E5149453E0000B4
:10035000427F4000007249494946002141494D33DE
:10036000001814127F10002745454539003C4A49C2
:1003700049310041211109070036494949360046F3
:100380004949291E0000001400000000403400000C
:100390000000081422410014141414140000412217
:1003A0001408000201590906003E415D594E007CC7
:1003B0001211127C007F49494936003E41414122D9
:1003C000007F4141413E007F49494941007F090981
:1003D0000901003E41415173007F0808087F000079
:1003E000417F4100002040413F01007F081422412D
:1003F000007F40404040007F021C027F007F0408D5
:10040000107F003E4141413E007F09090906003E40
:100410004151215E007F0919294600264949493288
:100420000003017F0103003F4040403F001F204088
:10043000201F003F4038403F00631408146300034E
:1004400004780403006159494D4300007F41414154
:1004500000020408102000004141417F0004020115
:100460000204004040404040000003070800002014
:1004700054547840007F2844443800384444442889
:1004800000384444287F0038545454180000087E33
:100490000902001824241C78007F08040478000056
:1004A000447D4000002040403D00007F1028440073
:1004B0000000417F4000007C04780478007C080440
:1004C0000478003844444438007C18242418001868
:1004D0002424187C007C0804040800485454542444
:1004E0000004043F4424003C4040207C001C204089
:1004F000201C003C4030403C004428102844004C64
:100500009090907C004464544C44000008364100B4
:1005100000000077000000004136080000020102E0
:100520000402003C2623263C0000000000000000DE
:10053000000000000000000000C0E0F0F8F8180023
:10054000C0F0FCFEFFFFFFFFFFFFFF7E000000008A
:10055000000000000080C0E0E0E0E0E0E0E0E0C09B
:10056000800000000080C0E0E0E0E0E0E0E0E0C00B
:1005700080000000E0E0C0C0E0E0E0E00000E0E07B
:10058000C0C0E0E0E0E0E0C0800000000080C0E02B
:10059000E0E0E0E0E0E0E0C08000000000000000FB
:1005A00000000000000000E0F0F0F0E0ECEEF7F3F7
:1005B0007020007C7C7C7E007E7E7E7F7F7F0000C2
:1005C00080C0E07E5B4F5BFEC00000C000DCD7DE79
:1005D000DEDED7DC00C000000000000000000000EC
:1005E000000000000000000000000000000000000B
:1005F0000000F8FCFEFFE000FFFFFFFFFFFF80FFB1
:10060000FFFFFFFFFFFFFFFF1F07010000000000CB
:1006100000000000FFFFFF8100000000000081C318
:10062000C3C30000FFFFFF8100000000000081FF46
:10063000FFFF0000FFFFFF01000000000000FFFFC0
:10064000FF010000000001FFFFFF0000FFFFFF9D12
:100650001C1C1C1C1C1C9DDFDFDF000000000000B8
:10066000000000000000000F1F3F7F7F7F7F7F3F63
:100670001E0C001F1F1F3F003F3F3F7F7F7F00304A
:100680007B7F7830202030787F3B0003000F7F0F86
:100690000F0F7F0F000300000000000000000000AB
:1006A000000000000000000000000000000000004A
:1006B0000000030F1F3F3F3F3F1F1F3F3F7F7F7FD4
:1006C0003F3F1F3F7F7F7F7F7C7878381C0F000083
:1006D00000000000000103070707070707070703DB
:1006E00001000000000103070707070707070703CA
:1006F00001000000070707000000000000000707D6
:1007000007000000000000070707000000010307C2
:1007100007070707070707030100000000000000A4
:1007200000000000000000000000000000000000C9
:1007300000000000000000000000000000000000B9
:1007400000000000000000000000000000000000A9
:100750000000000000000000000000000000000099
:100760000000000000000000000001010101010183
:100770000101010202020202020202020303030358
:100780000303030304040404040404050505050528
:1007900006060606060707070707080808080909E6
:1007A00009090A0A0A0B0B0B0C0C0C0D0D0D0E0E91
:1007B0000E0F0F0F10101111111212131314141524
:1007C0001516161717181819191A1A1B1B1C1D1D98
:1007D0001E1E1F20202122222324242526262728EE
:1007E00029292A2B2C2D2D2E2F303132323334351E
:1007F000363738393A3B3C3D3E3F40414243444521
:10080000464748494A4C4D4E4F50515354555658FF
:10081000595A5B5D5E5F616264656668696B6C6DA9
:100820006F7072737577787A7B7D7E80828385871F
:10083000888A8C8E8F91939596989A9C9EA0A2A35D
:10084000A5A7A9ABADAFB1B3B5B7BABCBEC0C2C462
:10085000C6C9CBCDCFD1D4D6D8DBDDDFE2E4E7E922
:10086000EBEEF0F3F5F8FAFDFF00DA0281FFD9F1C3
:10087000DB20A4A62EAF00A0C0D30000A1C8D300E7
:1008800000AED580A81F408D142000808182838413
:1008900085868788898A8B8C8D8E8F909192939490
:1008A000A0A1A2A3A4A5A6A7A8A9AAABACADAEAFD0
:1008B000B0B1B2B3B4C0C1C2C3C4C5C6C7C8C9CA47
:1008C000CBCCCDCECFD0D1D2D3D4003A002C206B1C
:1008D000007800556E6465660041646A7573740043
:1008E0005261697365004C6F77657200446566619B
:1008F000756C74004C617965723A200020202020CC
:100900006162636465666768696A6B6C6D6E6F705F
:100910007172737475767778797A3132333435360B
:1009200037383930524542545F2D3D5B5D5C233B87
:1009300027602C2E2F202020000014001A00080011
:1009400015001700000004001600070009000A0047
:1009500000001D001B00060019000500000000003B
:1009600000000000225228000000130012000C00BA
:1009700018001C00000033000F000E000D000B00DB
:1009800000003800370036001000110000000000A1
:100990000000000021522C0000001E021F02200255
:1009A0002102220200002F002F0234023002300008
:1009B0000000350235003400010001000000000095
:1009C00000000000010001000000270226022502AD
:1009D0002402230200002A002D022D002E002E02E8
:1009E00000003102310001000100010000000000A0
:1009F000000000000100010000001E001F00200098
:100A00002100220000002B000100010001008000F5
:100A10000000460001007C007D0081000000000015
:100A20000000000001000100000027002600250052
:100A300024002300000001004F005200510050002C
:100A400000004C0001000100010001000000000056
:100A500000000000010001000000290014001A003D
:100A60000800150000002B00040016000700090014
:100A70000000E1001D001B0006001900000000003E
:100A80000000E00028002C0000000100010001002F
:100A9000010001000000010001000100010001004F
:100AA0000000010001000100010001000000000041
:100AB000000000000100010011241FBECFEFDAE0AA
:100AC000DEBFCDBF12E0A0E0B1E0E4EEF0E602C090
:100AD00005900D92AA39B107D9F727E0AAE9B2E04B
:100AE00001C01D92A933B207E1F70E9476240C944D
:100AF00009300C940000CF93DF938F5F309124076F
:100B0000E82FF0E0EE0FFF1FEB5DF84F831720F0AA
:100B100080E0DF91CF910895DA0111969C91A08138
:100B2000B18111962C911197921315C0EA01288179
:100B3000CC912C1310C01296CD91DD911497C6174D
:100B4000D70761F014960D90BC91A02D6A177B0712
:100B500029F0922B19F432968F5FD8CF81E0D9CF4C
:100B600020E030E0232B31F0FC01848195810E944C
:100B700000000895E62FF0E0E956FD4F608170E037
:100B800080E090E0089580E0FB0109950895982F9A
:100B900092959F7061F420E0982F892F8695869515
:100BA00011F02E5F982F892F8695820F089524E0EB
:100BB000F4CF8093820608958093C806089521E0BB
:100BC00001C0220F8A95EAF78091C806822B0E9405
:100BD000DC05089521E030E0A90101C0440F8A95A9
:100BE000EAF7842F80959091C80689230E94DC053E
:100BF0000895292F983090F5863080F590E036E002
:100C0000239F800D911D112451E081FD54E080FD52
:100C1000550F82FD529523E0969587952A95E1F729
:100C2000FC01EE0FFF1FE80FF91FED5AF94F20E00E
:100C300030E070E04191DF01CB01022E02C09695B9
:100C400087950A94E2F78695880B84278523842765
:100C50008E932F5F3F4F2330310561F70895292F81
:100C6000983070F5863060F590E036E0239F800D77
:100C7000911D1124682F677023E0969587952A951A
:100C8000E1F7FC01EE0FFF1FE80FF91FED5AF94FD6
:100C900040E050E080E0219130E0062E02C0369521
:100CA00027950A94E2F72170042E01C0220F0A94BE
:100CB000EAF7822B4F5F5F4F4330510561F708958C
:100CC00080E00895E091880690918706E91302C0BC
:100CD00080E008959F0157E0E59FF0011124E75758
:100CE000F94F5181561306C05081581303C05581E6
:100CF000541304C0F9013196E770E8CF81E00895FC
:100D00008091880620918706281301C008950196D6
:100D10008770FACF9091830680958923809383060C
:100D2000282F277069F4891759F09091850692FF52
:100D300007C08695869586950E94EA0510928306DF
:100D4000089580917F0690918606892B9091800668
:100D50009115C9F0892B90914101911521F0909145
:100D6000840697FD11C096E02EE932E040E09150F4
:100D7000F90150812F5F3F4F51114F5F9111F7CF14
:100D800041111092800608959EE126EA32E0EECFEE
:100D9000982F909580917F06892380937F060895F0
:100DA000972F7830B8F46630A8F48430B0F470E04F
:100DB00026E0929F600D711D1124FB0190E3899F35
:100DC000E00DF11D1124EE0FFF1FE85CF64F859139
:100DD0009591089580E090E0089581E0FCCF803EF9
:100DE0009105D1F1C8F48133910509F481C048F42B
:100DF0008932910509F471C08A32910509F47FC0E6
:100E0000089589339105E1F082389105C9F0853361
:100E1000910509F45DC00895843E9105D1F148F42F
:100E2000823E910531F1833E910541F181EE90E0E2
:100E30000895863E9105C1F1873E9105F1F108952F
:100E400020918406237009F064C02091850623FF59
:100E500014C089E290E008952091840620FD45C0E9
:100E60003091850630FF09C024FD24C083EE90E058
:100E700008952091840622FDF7CF089520918406DD
:100E800022FD44C03091850630FD43C024FFF5CFDC
:100E900011C02091850621FFF0CF8091840684FD4A
:100EA00009C087EE90E008952091840623FFE5CFE6
:100EB00024FFF7CF80E090E008952091840623FD81
:100EC0002BC03091850631FFE1CF84EE90E008958C
:100ED0002091840625FFD1CFBCCF2091840625FD2B
:100EE0001EC02091850623FFC8CF89E390E00895B6
:100EF0002091840626FFC1CF8AE290E008952091D8
:100F0000840626FFBACF81E390E0089582EE90E058
:100F1000089580EE90E0089586EE90E0089585E3D0
:100F200090E008959091840692FF10C041E0282F30
:100F30002471243009F040E031E0282F2871283056
:100F400009F030E0431711F02CE0822793FF10C026
:100F500041E0282F2471243109F040E031E0282FAE
:100F60002871283109F030E0431711F02CE0822776
:100F70003091850630FF10C051E0282F21712130BB
:100F800009F050E041E0282F2871283009F040E0B6
:100F9000541711F029E0822731FF10C041E0282FBB
:100FA0002171213109F040E031E0282F28712831EA
:100FB00009F030E0431711F029E0822794FD877E85
:100FC00008950F931F93CF93DF930E94EF06EC01D8
:100FD000923508F04EC0903508F0C3C0803E9105B0
:100FE00020F58D3C910508F09AC0883A910570F47F
:100FF000853A910508F090C081309105A1F10497E0
:10100000813A910580F1C0E0D0E02DC0885A910965
:101010004B97C8F7C85AD0E0CC0FDD1FC55DDD4F38
:101020000990D881C02DD4641EC09034A8F4D03269
:1010300008F0ACC0C83ED105B0F0CE0191509F3150
:1010400010F78D2F0E949207082F8C2F90E00E949E
:10105000EF06EC01D02B07C090E00E94EF06DF7096
:10106000C82FD92BD06ACE01DF91CF911F910F915C
:101070000895803842E59407C8F5803652E5950713
:1010800008F054C0C03482E5D807D0F48C2FC032A9
:1010900092E5D90708F045C08695869520E2829FA3
:1010A000C0011124C37021E030E0A90102C0440F47
:1010B000551FCA95E2F7EA01C82BD92BDD68D3CFBB
:1010C0008C2F86958695877050E2859FC0011124EC
:1010D000C37021E030E0A90102C0440F551FCA953A
:1010E000E2F7EA01C82BD92BDC68BDCF803C52E582
:1010F000950740F48F71C03AD24568F5D82FC4EFF8
:10110000D06AB1CF805C9245809708F07CCFDC2F0D
:10111000DF71C0EFD06AA7CFA497D064A4CFD06509
:10112000A2CF8F71D82FC1EFD06A9DCF86958695BB
:10113000877020E2829FC0011124C37021E030E05B
:10114000A90102C0440F551FCA95E2F7EA01C82B56
:10115000D92BDA6888CF0E949207C0E0D82FD062DE
:1011600082CF8F710E94920793E0CC0FDD1F9A957A
:10117000E1F7DF70282F30E084FF04C050E1859F45
:1011800090011124C22FD32BD0696DCF8D2F8F7179
:101190000E949207082F8C2F90E00E94EF06EC012E
:1011A000D02BDDCFA4E0B0E0E8EDF8E00C94202FE8
:1011B00089839A830091C80680918206082B87E074
:1011C0008B831C8210E0C8010B8002C09595879527
:1011D0000A94E2F780FD0DC08B819C8101978B837F
:1011E0009C83019681F7F12C8F2D2496E5E00C94D9
:1011F0003C2FFB8069817A818F2D0E94D0060E944E
:10120000E107019749F3F0CF0F931F93CF93FC01B0
:10121000258100811181C801211589F0611579F0BE
:101220000E94D208C82F682FC8010E94F905B80192
:101230008C2F0E94D006CF911F910F9108950E948C
:101240002F06C82FF4CFA2E0B0E0E9E2F9E00C9459
:10125000232F89839A830E94D20869817A810E9410
:10126000D0060E94E1072296E2E00C943F2FFC0199
:1012700024812115A1F0808191810E942309282FCA
:1012800092959F70963099F060F4925F9F709230C3
:1012900030F4203FB1F038F481E0283E38F080E0AF
:1012A00008959A5FF3CF81E0243FC9F7089591E054
:1012B000213F09F090E081E0283E08F080E0892B92
:1012C000089581E0089580E00895F894E82FE2956C
:1012D000EF70F0E041A18F7021E030E0B90101C072
:1012E000660F8A95EAF7862F962F9095942391A3FF
:1012F00092A1892B82A378940895809177068430F7
:1013000070F4809177068370846080937706809173
:101310007A06893718F088E780937A06089588302E
:1013200080F7F5CF609101018091770680FF0EC0B4
:1013300070E02091000130E0C901880F991F820FF1
:10134000931F86519D4F0E94E40D089580910201E4
:1013500090910301282F30E0F901EE0FFF1FE20FFB
:10136000F31FE651FD4F891718F711821082128280
:101370008F5F3396F8CFFA01811511F00995089522
:10138000FB01FCCF539A0895FC01AC014C5F5F4F09
:101390008FEF61E39191892728E030E0982F990F32
:1013A00087FF09C0892F862721503040B9F7E417FD
:1013B000F50781F70895892FF7CF282F35EB230301
:1013C000C001112497FF04C080589109892F089506
:1013D00080589F4FFBCF8091670680FD14C081FD30
:1013E00014C082FD16C080916606811581F08E3191
:1013F00080F420E5829FC00111246EE170E00E941C
:10140000562F862F089584E1089588E2089588E094
:10141000089580E508958091670680FD17C081FDDD
:1014200017C082FD19C080916506811599F0883238
:1014300098F428E0829FC001112468E270E00E94C5
:10144000562F6115710551F0862F089562E0FCCF8B
:1014500064E0FACF61E0F8CF68E0F6CF81E008956C
:1014600080912106811561F0E0914906F0914A06CC
:10147000309729F00190F081E02D0995089580E0E2
:101480000895A3E0B0E0E7E4FAE00C94232F209164
:10149000DF023091E00228173907A1F08093DF02C4
:1014A0009093E002E0914906F0914A06309751F09E
:1014B00023E029838A839B830084F185E02DCE017C
:1014C000019609952396E2E00C943F2FA3E0B0E04B
:1014D000ECE6FAE00C94232F2091DD023091DE023D
:1014E00028173907A1F08093DD029093DE02E09186
:1014F0004906F0914A06309751F024E029838A8307
:101500009B830084F185E02DCE01019609952396F9
:10151000E2E00C943F2F90914101911113C0AEE98C
:10152000B2E0EFEF90E02C91821759F01196EF3F67
:1015300019F4211101C0E92F9F5F9630A1F7EF3F09
:10154000C1F408959091840697FFE9CFE82FE695BE
:10155000E695E695803FA8F7F0E0EC55FD4F8770E3
:1015600021E001C0220F8A95EAF78281822B8283D3
:101570000895FE2FFF0FFF0BE456FD4FF8CF90911B
:101580004101911521F09091840697FD0CC0EEE980
:10159000F2E09191891302C0DF011E9292E0E43AD9
:1015A000F907B9F70895E82FE695E695E695803FA7
:1015B000C8F7F0E0EC55FD4F9DEF81FD97EF80FF00
:1015C000959582FD929582818923828308952FB714
:1015D000F8946091D9027091DA028091DB029091C7
:1015E000DC022FBF089580912106811519F00E9419
:1015F000E70A08950E94E70A209123063091240605
:101600004091250650912606620F731F841F951F77
:101610000895CF92DF92EF92FF921F93CF93DF93C3
:1016200000D000D000D0CDB7DEB76B017C0149837C
:101630005A832B833C83C114D104E104F10481F467
:1016400010E0812F0F900F900F900F900F900F9040
:10165000DF91CF911F91FF90EF90DF90CF90089591
:101660008AEC96E08D839E83ED81FE8180818111DD
:1016700035C09091E30281E0890F811539F1EAECE0
:10168000F6E02081281711F1399627E0E432F207BD
:10169000C1F7182F1093E302811591F2ED81FE81BD
:1016A00010830E94E70AC60ED71EE81EF91EED81C0
:1016B000FE81C182D282E382F48289819A8185830C
:1016C00096838B819C8187839087BBCF11E0180F15
:1016D000981711F0812FD1CF80E0DCCFED81FE8112
:1016E0003996ED83FE83E452F74009F0BDCFA8CFD1
:1016F0001F93CF93DF93EC011F851F86688B6230A9
:1017000009F470C078F561115CC02C89E091240760
:101710008E2F8150990BBC01822F90E0261717065F
:10172000DCF1E150E0932407F0E0EE0FFF1FEB5DEA
:10173000F84F10821182188A188219821A821B822D
:101740001C821D821E821F82188619861A861B869D
:101750001C861D861E861F86198A1C8A8FEF8A8B1F
:101760008B8B06C0643009F44CC0653009F457C057
:10177000111571F0EAECF6E0808118135EC010825A
:1017800011821282138214821582168217821086A9
:10179000DF91CF911F910895DC01AA0FBB1FA95DB6
:1017A000B84F4D915D91880F991FDC01AB5DB84F2B
:1017B0004D935D93DA0154968C9181508C932F5FF9
:1017C000ABCF0E94E70A6F83788789879A8760E0AA
:1017D000CE010E94B0059E0143EE50E20E94090B2B
:1017E0008F87C6CF0E94E70A6B877C878D879E878D
:1017F000198A61E0CE010E94B0059E014BEF50E2D4
:10180000EDCF0E94E70A6B877C878D879E8762E019
:10181000CE010E94B0059E0147E151E2DFCF0E9458
:10182000E70A6B877C878D879E8762E0CE010E94E6
:10183000B0059E014FE251E2D1CF3996B7E0E432D4
:10184000FB0709F099CFA4CFEF92FF920F931F935C
:10185000EFB7F8942091D9023091DA024091DB027F
:101860005091DC02EFBF79018A01E61AF70A080BF2
:10187000190BB701C8011F910F91FF90EF900895C8
:1018800087E797E7809300089093010888E19AE042
:101890000FB6F894A895809360000FBE90936000F7
:1018A000FFCF8091D8020895FC018091CE029091E3
:1018B000CF028617970748F06115710529F48091CA
:1018C000E8008E778093E800CB0140E0009741F478
:1018D000411106C08091E80082FF30C080E0089589
:1018E00020918F032115B1F12530B1F12091E8004D
:1018F00023FD2EC02091E80022FDECCF2091E800CE
:1019000020FFE4CF4091F3002091F200342F0097A4
:1019100019F02830310558F041E02830310509F040
:1019200040E02091E8002E772093E800CFCF41914E
:101930004093F10001972F5F3F4FE9CF80918F03D4
:10194000811541F0853041F08091E80083FFC2CFDE
:1019500081E0089582E0089583E00895982F9093A0
:10196000E900891771F07091EC002091ED00509121
:10197000F00021FD09C09F5F973089F78093E9004F
:101980000895762F242F50E03091EB003E7F309366
:10199000EB003091ED003D7F3093ED003091EB0096
:1019A00031603093EB007093EC002093ED00509386
:1019B000F0002091EE0027FDDECF08958091C8024F
:1019C00087FF13C08091E80082FF06C08091E80085
:1019D0008B778093E800089580918F038111F2CF77
:1019E000089580918F038115D9F38091E80080FFDD
:1019F000F8CF8091E8008E77ECCF2091E400309111
:101A0000E50095E6A9012091EC00822F817020FF6E
:101A100006C08091E80080FF06C080E00895209114
:101A2000E80022FD1AC080918F03811589F085306E
:101A300089F08091EB0085FD0FC02091E40030918A
:101A4000E50042175307F9F29150E1F684E008955A
:101A500082E0089583E0089581E00895A0E0B0E079
:101A6000E4E3FDE00C941D2FC8EDD0E088818F7E6B
:101A70008883E7EDF0E080818160808384E082BF2D
:101A800081E08093C70288818E7F888302EE10E018
:101A9000E2EE10821092DA006801CA94E1EE108240
:101AA00088818F77888388818068888388818F7D0B
:101AB000888319BC10928F031092C60210928E0375
:101AC0001092C5027601EA94E0EE80818B7F8083DC
:101AD00088818160888342E060E080E00E94AE0CF3
:101AE000F60180818E7F8083E2EE80818160808339
:101AF000808188608083E0EE80818E7F8083888112
:101B000080618883CDB7DEB7E8E00C94392FE8ED2B
:101B1000F0E080818E7F80831092E2001092DA00E4
:101B20001092E100A0EEB0E08C9181608C938081F6
:101B30008F77808319BCA7ED8C918E7F8C938081E9
:101B40008F7E80831092C7020895A8E0B0E0EBEA90
:101B5000FDE00C94212F89839A836B837C834D83D2
:101B60005E83809108060AE010E08A3010F001E000
:101B700010E021E02F8318866B817C8189819A8116
:101B8000ED81FE81099581111BC02F8138852F5F62
:101B90003F4F2F8338870217130794F0C901889F9E
:101BA0009001899F300D300D112480E090E045E3D5
:101BB0004A95F1F70000019682179307C1F7DCCF31
:101BC0002896E4E00C943D2F9C014BB1477F5BB11C
:101BD0005860EFB7F894CB01880F991F860F971FB5
:101BE000820F931F2817390741F4EFBF8FE594E068
:101BF0000197F1F700C000000895D9016D919D0192
:101C000078E05BB9000000C067FF4BB9660F0000C9
:101C100000C000C000C04BB900C07A9591F7E2CF78
:101C20000F931F93CF93DF93EB018A0190918F0362
:101C3000943061F58093E9008FEF9091E80095FD75
:101C400006C095ED9A95F1F700008150B1F78091AB
:101C5000E80085FF1BC00E94FD0C811112C080911D
:101C6000E80085FD06C08091E8008E778093E8004B
:101C7000F2CF88818093F1000150104011F021963D
:101C8000EECF8091E8008E778093E800DF91CF91CE
:101C90001F910F910895CF93DF93EC0148E050E03E
:101CA000BC0181E00E94100E88E0FE01A0EDB2E0D0
:101CB00001900D928A95E1F7DF91CF91089540E26E
:101CC00050E0BC0182E00E94100E089546E050E012
:101CD000BC0182E00E94100E089543E050E0BC0178
:101CE00082E00E94100E08959091850692FB2227B3
:101CF00020F9281779F080FB92F99093850660917E
:101D000084067091850684E090E00E94F32F82E0C3
:101D10000E948A06089580914101811559F18091B0
:101D2000840687FF27C00E94A1068093A50240E297
:101D300050E069E276E084EA92E00E949B2F892BD2
:101D4000C1F080E2E4EAF2E0A9E2B6E001900D928F
:101D50008A95E1F7E0914906F0914A06309749F0FB
:101D600086E08093A4020480F581E02D84EA92E06D
:101D7000099508950E94A10680939C0248E050E0D6
:101D80006BE476E08CE992E00E949B2F892B89F32B
:101D900088E0ECE9F2E0ABE4B6E001900D928A95C0
:101DA000E1F7E0914906F0914A06309711F302807D
:101DB000F381E02D8CE992E0DBCF811539F0909131
:101DC0007F06982B90937F060E948B0E08958115B5
:101DD00039F090918606982B909386060E948B0E80
:101DE0000895811521F00E94C8060E948B0E089567
:101DF000811541F08095909186068923809386060F
:101E00000E948B0E0895A4E0B0E0E9E0FFE00C949E
:101E1000222F6091DC057091DD058091DE059091A7
:101E2000DF050E94240C11E06436710581059105DF
:101E300070F10E94F30ADC01CB010296A11DB11DD5
:101E400089839A83AB83BC83809132019091330163
:101E500084519A4F20913101422F50E0253008F0F3
:101E600044E0BE016F5F7F4F0E94A82F83E090E0A7
:101E70000E947D2E182F811551F00E94E70A609371
:101E8000DC057093DD058093DE059093DF05812FDF
:101E90002496E3E00C943E2FA7E0B0E0E2E5FFE0FB
:101EA0000C94212F8B836E837F8349832C833D8306
:101EB000FB0160817181828193810E94240C6436D0
:101EC00071058105910518F4F981F11551F18B81A6
:101ED000982F990F990B89839A839B8188E09802A8
:101EE000F0011124E75EFE4F8181928184519A4F67
:101EF0002081422F50E00217110508F4A8016C81DF
:101F00007D810E94A82F89819A810E947D2E811552
:101F100049F00E94E70AEE81FF816083718382832A
:101F2000938381E02796E4E00C943D2FABE0B0E092
:101F3000ECE9FFE00C94212F28E0E7E7F6E0CE0182
:101F40000196DC0101900D922A95E1F7309174061B
:101F5000209175065091760639872A875B8741E084
:101F60009C01511101C040E00BE010E068ED75E00C
:101F700084E00E944C0F8111109276062B96E4E0CB
:101F80000C943D2FA2E0B0E0E8ECFFE00C94212F90
:101F900089839A8344E050E061EF75E00E949B2FB3
:101FA00041E0892B09F440E004E010E029813A8106
:101FB00060EE75E082E00E944C0F2296E4E00C9403
:101FC0003D2FA7E0B0E0E7EEFFE00C94222F6E83F8
:101FD0007F8380E090E00E947D2E182F811509F408
:101FE0005CC080911C01482F50E0811141E060915C
:101FF0001D0170911E0164517A4FCE0105960E9419
:10200000A82F6091E8057091E9058091EA0590910B
:10201000EB050E94240C643671058105910538F4A6
:102020008DEE95E00E94C4099D818917B1F181E090
:1020300090E00E947D2E8115F1F180912401482FBE
:1020400050E0853008F044E0609125017091260150
:1020500064517A4FCE0101960E94A82F8DEE95E033
:102060000E94C4099D81891326C00E94E70A6093DB
:10207000E8057093E9058093EA059093EB05898163
:102080009A81AB81BC818093E4059093E505A09390
:10209000E605B093E70581E00FC08091ED059091D2
:1020A000EE05A091EF05B091F00589839A83AB838B
:1020B000BC831111E4CF80E04091E4055091E50527
:1020C0006091E6057091E705EE81FF8140835183C1
:1020D000628373832796E3E00C943E2F0F93CF9394
:1020E000DF9300D000D000D00F92CDB7DEB72983A8
:1020F0003A834B83052F6C837D838E839F830E945D
:102100007D0949815A816B81702F88E090E00E949F
:10211000E72F6C81262F60E070E0CB01622F83E215
:102120000E94D52F27960FB6F894DEBF0FBECDBF05
:10213000DF91CF910F91089580917B06833018F441
:102140008F5F80937B0620917706309178064091CF
:10215000790650917A0660917B0670917C06809199
:102160007D0690917E060E946E10089580917B06F8
:10217000811519F0815080937B062091770630916C
:1021800078064091790650917A0660917B067091AD
:102190007C0680917D0690917E060E946E100895C7
:1021A000A3E0B0E0E6EDF0E10C941C2F082F6A8369
:1021B0004B8329834091770640FF5AC0809178066F
:1021C000801309C080917906861305C080917A0634
:1021D000BB808B1529F0809176068260809376060D
:1021E000E42FE695E695F0E0EB5EFD4F808180936D
:1021F0007406842F8C7F843009F5EB81E93708F071
:10220000E8E7F0E0E759F84FCA80C11035C0E49123
:102210005E2F1E2F40FF12C080910201909103019A
:10222000282F30E0D901AA0FBB1FA20FB31FA65160
:10223000BD4F891708F48FC00E9492090093780659
:10224000BA80B0927906CB80C0927A06D980D11438
:1022500079F02091770660917B0670917C06302F93
:102260004B2D5C2D80917D0690917E060E946E1014
:102270002396E9E00C94382FB4901B2D86E0089F3C
:1022800070011124EFEFF0E0C701BF010E94FF2EA3
:1022900025E5269FC001279F900D11249801220F4C
:1022A000331F281B822F880F820FDF01CA80AC19D1
:1022B000B109BA9E9001BB9E300D1124532FC89EC8
:1022C00060011124CD2CD12CDF01AC19BD096D01A9
:1022D000BC9CD001BD9CB00D11246330710581F10F
:1022E0006F01C81AD108C601BA80B89E6001B99EB4
:1022F000D00C1124CD2CD12CCF018C199D096C014F
:102300001C9DC0011D9D900D1124E92FFCEFEF16BF
:10231000F3E0FF0658F461307105B1F062307105E9
:1023200009F078CFE12F132F592F74CF6430710546
:1023300071F06630710509F46DCFE32F5B2F6ACF22
:10234000132F5B2DEB2F66CFE12F1B2F63CFE32FD6
:10235000512F192F5FCF11961C93EE9312965D9318
:102360008F5F67CF2091770620FF24C02370246001
:1023700020937706809176068160809376066115BA
:1023800081F0309178064091790650917A066091FB
:102390007B0670917C0680917D0690917E060E945E
:1023A0006E1020E040917A0660917906809178065F
:1023B0000E94D010089561E081E00E94B21108955A
:1023C0008091770686958695815009F481E061E0D9
:1023D0000E94B2110895E7E7F6E0818121E0438190
:1023E0006281885F0E94D0100895E7E7F6E081815E
:1023F00021E04381628188500E94D0100895E7E770
:10240000F6E0628121E1620F08F46FEF21E0438181
:1024100081810E94D0100895E7E7F6E0628121E112
:10242000621B08F460E021E0438181810E94D010AA
:102430000895E7E7F6E0438121E1420F08F44FEF0A
:1024400021E0628181810E94D0100895E7E7F6E0E3
:10245000438121E1421B08F440E021E06281818157
:102460000E94D0100895AB0124E630E0BC0188E75B
:102470000E947E2C9C0181E0232B09F080E00895CE
:102480008091CE058115F9F00E94E70ADC01CB01AD
:10249000805A9541AF4FBF4F8093C7059093C805B1
:1024A000A093C905B093CA058091CB0581110BC0DB
:1024B00062E070E087E292E00E943312811519F029
:1024C00081E08093CB0508958091CE05811569F058
:1024D0008091CB05811549F062E070E085E292E0E1
:1024E0000E94331281111092CB050895CF93DF9390
:1024F000682F81E06A3019F06D3031F480E00E947D
:10250000F412DF91CF9108958091990390919A03ED
:1025100026E0FC01A4EEB2E001900D922A95E1F7CD
:10252000603E08F456C026E0FC0111922A95E9F7B6
:10253000C0919903D0919A0346E050E0BE0184EE29
:1025400092E00E949B2F9E01235C3340892B41F136
:10255000C90145E0969587954A95E1F741E050E03D
:10256000BA0102C0660F771F8A95E2F7CB0160912E
:10257000C5057091C605862B972BB9016B5F7F4F00
:10258000E5E076956795EA95E1F702C0440F551F9F
:102590006A95E2F7842B952B8093C5059093C60529
:1025A0002A5F3F4F40919B03642F70E0C9010E9456
:1025B000FF2E481B463010F4240F311D323010F02E
:1025C00020E030E02D533C4F2093990330939A0341
:1025D00098CFF6E06F9FB0011124675D7D4F46E014
:1025E00050E00E94922FA4CFCF93382FE09199030F
:1025F000F0919A03E35CF34020919B03622F70E01B
:10260000CF010E94FF2E281B822F311569F066E052
:102610000E944A2FC82FC11102C0CF910895C15006
:1026200080E20E947612F7CF8E0F9F2F911D92307D
:1026300010F080E090E08D539C4F8093990390932D
:102640009A03EBCFCF93DF93EC01FE0184918111CC
:1026500003C0DF91CF9108950E9476122196F5CFA5
:102660000E94221381E00E94F41208951F921FB667
:102670001F9211248F939F93AF93BF9380918D03EB
:10268000811113C08091D9029091DA02A091DB02EE
:10269000B091DC024196A11DB11D8093D9029093A7
:1026A000DA02A093DB02B093DC02BF91AF919F915D
:1026B0008F911F901FBE1F9018952FB7F89480918F
:1026C000D9029091DA02A091DB02B091DC022FBF17
:1026D00008950E945D139C0190916A0680916B069B
:1026E000982B21F02093D1053093D20590916C0660
:1026F00080916D06982B21F02093CF053093D00563
:10270000E0914906F0914A06309749F082E08093C3
:1027100068060680F781E02D88E696E00995089521
:10272000611509F44AC0E3E3E80FE33150F4F0E047
:10273000E55FFF4C0C948C2F0E94EB0981958093F0
:102740006B060E94691308950E94EB09F8CF0E945E
:10275000EB09819580936A06F4CF0E94EB09FACFCA
:102760000E940B0A80936C06ECCF0E940B0A8195A5
:10277000F9CF0E940B0A819580936D06E2CF0E94EB
:102780000B0AFACF815D990B21E001C0220F8A95D7
:10279000EAF780916906822B80936906D2CF8091F7
:1027A0006706816080936706CCCF80916706826060
:1027B000F9CF809167068460F5CF40916A068D3C21
:1027C00059F480916B0687FF0DC010926B0641157E
:1027D00059F41092660608C08E3C81F480916B0615
:1027E00018169CF3411581F080916C0690916D064E
:1027F000892B09F0A6CF10926506A3CF8F3C41F438
:1028000047FFF0CF10926A0680916B068115E0CFEA
:10281000803D19F41416B4F3E5CF90916C06893D10
:1028200029F41916FCF610926C06DCCF8A3D19F4D7
:1028300097FFD8CFF8CF90916D068B3D29F497FF85
:10284000D1CF10926D06CECF8C3D19F41916CCF372
:10285000C9CF9FE2980F983088F4815D990B21E0F1
:1028600030E0B90101C0660F8A95EAF7862F80959E
:1028700090916906892380936906B4CF8D3D31F428
:10288000809167068E7F80936706ACCF8E3D21F4E2
:10289000809167068D7FF7CF8F3D09F0A3CF8091A0
:1028A00067068B7FF0CFCF93C82F8115E1F08CEFB7
:1028B0008C0F813A98F580914101811521F080912A
:1028C000840687FD12C0EEE9F2E084EA92E02081FE
:1028D000C217F1F031968E179F07C9F78C2F0E940F
:1028E0008B0A0E948B0ECF910895EC2FE695E6950A
:1028F000E695F0E0EC55FD4F828190E04C2F47705B
:1029000021E001C0220F4A95EAF78223892B31F397
:102910008C2F0E94BF0A0E948B0EE0CF80E28C0FAA
:10292000883060F4C77081E001C0880FCA95EAF76B
:10293000C0917F06C82BC0937F06D3CF8BE58C0F49
:10294000833038F42C2F2452330BC9010E94410AE2
:10295000CACFE8E5EC0FEB3150F4F0E0EE0FFF1FCB
:10296000EF59FD4F808191810E94660ABCCF83E3BD
:102970008C0F833108F0B7CF61E08C2F0E94901349
:10298000B2CFA1E0B0E0E7ECF4E10C94232F89830F
:1029900067EE7EE00E94C30589810E945314219650
:1029A000E2E00C943F2F811589F19CEF980F913A4A
:1029B00028F40E94BF0A0E948B0E089590E2980F9F
:1029C000983058F4982F81E091FD84E090FD880FB5
:1029D00092FD82950E94C806EECF9BE5980F93303A
:1029E00028F480E090E00E94410A089598E5980F4D
:1029F0009B3128F480E090E00E94660A089593E3FA
:102A0000980F933118F460E00E9490130895A2E0AB
:102A1000B0E0EDE0F5E10C94232F89839A830E94C6
:102A2000D31468EF7EE089819A810E94C3052296C3
:102A3000E2E00C943F2FA4E0B0E0E1E2F5E10C9479
:102A4000232F89839A836B837C830E94C1148B819B
:102A50009C81892B41F489819A810E9407152496D3
:102A6000E2E00C943F2F8FE99FE00197F1F700C05F
:102A700000008B819C8101978B839C83E8CF10920F
:102A80007F0680914101811539F18091840687FF8D
:102A900023C0E6EAF2E08EE1DF011D928A95E9F7B4
:102AA00080E090E00E94410A80E090E00E94660A87
:102AB000109286060E948B0E86E0E8E6F6E0DF01C3
:102AC0001D928A95E9F7109266061092650610929B
:102AD00067060E9469130895EEE9F2E086E0DCCF14
:102AE0000E943F152FEF84E39CE0215080409040EE
:102AF000E1F700C0000088E19AE00FB6F894A895CD
:102B0000809360000FBE90936000FFCFAAE2B0E018
:102B1000ECE8F5E10C94222F88EC92E0FC010196A0
:102B20002091F100208322E0803D9207B9F7809147
:102B3000C902893009F456C0C8F4823009F4B3C020
:102B4000833009F482C0813071F18091E80083FF05
:102B5000E7C08091C8029091C9029A3008F0E0C0A5
:102B6000E92FF0E0E25EFF4C0C948C2F8A3009F4E0
:102B700089C08B3051F78091C802813231F7809142
:102B8000CC029091CD02892B01F78091E800877FDC
:102B90008093E8000E94DE0C8091CA02809341017C
:102BA0000E943F15D2CF8091C802813A71F6809180
:102BB000E800877F8093E8008091CC029091CD025D
:102BC000892B61F060E080E090E070E00E94540C9E
:102BD0008091E8008B778093E800B7CF68E080EDC4
:102BE00092E0F3CF8091C802813209F0AECF80919C
:102BF000CC029091CD02029708F0A7CF8091E80017
:102C0000877F8093E8008091E80082FF19C02091BF
:102C1000F3008091F200922F029731F48091F1003D
:102C2000813011F0863021F48091F1008093D80238
:102C30008091E8008B778093E8000E94DE0C85CFBE
:102C400080918F038111DFCF80CF8091C802813ABC
:102C500009F07BCF8091CC029091CD02892B09F0B5
:102C600074CF8091E800877F8093E8008091E8002E
:102C700080FFFCCF809141018093F1008091E800BA
:102C80008E77D9CF8091C802813209F05ECF8091D2
:102C9000E800877F8093E8000E94DE0C8091CB02E1
:102CA0008093C40252CF8091C802813A09F04DCF7F
:102CB0008091E800877F8093E8008091E80080FFA2
:102CC000FCCF8091C402D8CF803889F0823841F59A
:102CD0008091CC028F70873018F58093E900809145
:102CE000EB0085FB882780F91092E90006C08091EF
:102CF0008E03880F9091C502892B9091E800977FF1
:102D00009093E8008093F1001092F1008091E80028
:102D10008E7723C0811116C08091CA02813011F1D3
:102D20008091E80083FF0AC08091E800877F80934C
:102D3000E8008091EB0080628093EB00AA96E3E0CC
:102D40000C943E2F823061F78091CA02811581F088
:102D50001092E9008091E800877F8093E8000E944C
:102D6000DE0CDECF933009F080E080938E03F0CF4D
:102D70008091CC028F702FEF280F263088F6809339
:102D8000E9002091EB0020FFE3CF933031F48091F4
:102D9000EB0080628093EB00DBCF9091EB009061C1
:102DA0009093EB0021E030E0A90101C0440F8A9527
:102DB000EAF74093EA001092EA008091EB00886005
:102DC000E9CF8111ADCF1091CA021F778091E30046
:102DD0008078812B8093E3008091E800877F809347
:102DE000E8000E94DE0C8091E80080FFFCCF80911B
:102DF000E30080688093E30083E0111101C082E06A
:102E000080938F038DCF8058823008F089CF209136
:102E1000CA023091CB022C3D53E0350791F583E097
:102E20008A838AE289834FB7F894DE01139620E003
:102E30003EE051E2E32FF0E050935700849120FFF1
:102E400003C082958F703F5F8F708A30C0F0895CBD
:102E50008D931D922F5F243169F74FBF8091E80059
:102E6000877F8093E8006AE270E0CE0101960E94BD
:102E7000540C8091E8008B778093E80051CF805DFF
:102E8000E7CF832F90E08330910519F160F4813012
:102E9000910509F46CC08230910509F041CF8BE3B4
:102EA000E6EAF1E029C02091CC023091CD028132D6
:102EB000910509F453C08232910509F031CF2130D8
:102EC000310508F45CC009F02BCF86EBECEAF0E0AA
:102ED00013C0822F90E0213099F182309105B9F131
:102EE000009709F01DCFE1E2F2E0E4918E2FE1E2DC
:102EF000F2E0009709F414CF2091E800277F209397
:102F0000E8002091CE023091CF028217930708F497
:102F10009C0140E021153105B1F5411134C080918B
:102F2000E80082FDA6CF80918F03811509F4A1CF1F
:102F3000853009F49ECF8091E80083FFF0CF99CFD0
:102F4000E3E1F2E0E4918E2FE3E1F2E0D2CFE3EFB0
:102F5000F1E0E4918E2FE3EFF1E0CBCF21303105AA
:102F600050F009F0DDCE89E0E1EDF1E0C5CF82E17E
:102F7000E1EEF1E0C1CF89E0E8EBF1E0BDCF84E420
:102F8000E2E6F1E0B9CF80918F03811509F471CFAA
:102F9000853009F46ECF8091E80083FD6ACF80917F
:102FA000E80082FDBCCF8091E80080FFB3CF409164
:102FB000F3008091F200942F2115310519F088302B
:102FC000910550F041E0089709F040E08091E80059
:102FD0008E778093E8009ECF44914093F100319624
:102FE000215031090196E8CF803809F099CE8091BF
:102FF000E800877F8093E8008091C6028093F1000B
:1030000085CE81118DCE1091CA02123008F088CE83
:103010008091E800877F8093E8001093C6020E94A9
:10302000DE0C111581F084E080938F0342E061ECA7
:1030300081E00E94AE0C42E261EC82E00E94AE0CA4
:1030400080918F036DCE8091E30087FDECCF81E00E
:10305000EBCF9C014FB7F8948091D9029091DA029E
:10306000A091DB02B091DC024FBF821B930B08954D
:103070008F929F92AF92BF92EF92FF920F931F9306
:10308000CF93DF93CDB7DEB764970FB6F894DEBF6A
:103090000FBECDBFFE013C9688E0DF011D928A95F0
:1030A000E9F781E2E82E82E0F82E8F0195E2892E81
:1030B00092E0992EEC8BA12EF70181917F018F3F39
:1030C00009F43FC0F894E82FE295EF70F0E021A1F9
:1030D0008F7041E001C0440F8A95EAF7842F922F48
:1030E000942B91A392A18095892382A3789400C008
:1030F000E5E2F2E031E0B12C21912F3F79F0A22FEF
:10310000A295AF70A05EB0E08C9190E02F7002C0ED
:10311000959587952A95E2F780FF97C080E0B82AB9
:10312000330F8BE292E08E179F0731F7F701829100
:103130008F3F11F00E94650990EA9A95F1F7D80146
:10314000BC920F5F1F4F8E149F0409F0B5CF48E06B
:1031500050E06C897A2D89E196E00E949B2F0097C0
:1031600049F028E0EC89FA2DA9E1B6E001900D9232
:103170002A95E1F70091180610E0005F194F892B9E
:1031800009F465C081E080930F060E945D1380936F
:103190000D0690930E06809121067E01BFEFEB1A7B
:1031A000FB0A811509F4ABC084E0F70111928A95FE
:1031B000E9F7809108068A3008F06BC041EE5FE0C5
:1031C000B701C8010E94A50D811509F486C042EC23
:1031D0005FE0B701C8010E94A50D811509F47DC00B
:1031E00043E05FE0B701C8010E94A50D811509F415
:1031F00074C046E95FE0B701C8010E94A50D8115C2
:1032000009F46BC01092080680910C0690E044E02F
:1032100050E0B701805F994F0E949B2F21E02093DF
:103220000B06892B09F04BC064960FB6F894DEBFED
:103230000FBECDBFDF91CF911F910F91FF90EF9007
:10324000BF90AF909F908F900895832F68CF80910B
:103250000F06811509F49FCF80910D0690910E06FF
:103260000E942918059708F496CF44E050E069E1E0
:1032700076E0C8010E949B2F892B41F084E0E9E1B0
:10328000F6E0D80101900D928A95E1F710920F06B1
:1032900082CF8091090690910A060E942918843FE6
:1032A000914008F08BCF80910B06811509F4BCCFBB
:1032B00084E0D7011D928A95E9F710920B06E09100
:1032C0000C06F0E0E05FF94F89819A81AB81BC8107
:1032D00080839183A283B383A7CF809108068F3F19
:1032E00039F40E945D138093090690930A06DBCFA0
:1032F0008F5F809308068A3008F486CFF2CFA090C3
:103300000C06B12CF501E05FF94F5F01F8018081F7
:103310009181A281B3818093ED059093EE05A093F6
:10332000EF05B093F0058DEE95E00E94C4098093FF
:10333000EC058091F1059091F205A091F305B09113
:10334000F405F50180839183A283B3838090F50512
:103350009090F605A090F705B090F80580910406CE
:1033600090910506A0910606B09107068816990669
:10337000AA06BB06B1F08092040690920506A092C0
:103380000606B09207060E94E70A861A970AA80A5C
:10339000B90A8092230690922406A0922506B09244
:1033A00026068BE0E9EFF5E0D70101900D928A95B2
:1033B000E1F70091FA05F090FB05E090FC05109113
:1033C000030610920306111509F42ECF10FF0DC04D
:1033D00089819091770680FF11C091609093770664
:1033E00060E0869586950E94B21111FF1DCF20E006
:1033F0004E2D6F2D802F0E94D01016CF9E7F909360
:103400007706809176068160809376060E94920905
:10341000ECCFA3E0B0E0EFE0FAE10C94212F6A8357
:103420004B8329838115B1F0609372060E945D136E
:103430008093E1029093E2029A8181E091FD84E021
:1034400090FD880F92FD82950E94DD0E2396E4E0A8
:103450000C943D2F809172069A81981338C0809108
:10346000E1029091E2020E942918883C910578F5CA
:103470001B81105E8A819B818917B1F087708A83D6
:1034800001E0802F0A8001C0880F0A94EAF70E94A9
:10349000F10E183048F48B81877001C0000F8A95B7
:1034A000EAF7802F0E94DD0E89810E9453148981E2
:1034B0000E94D3149B81183048F681E091FD84E08E
:1034C00090FD880F92FD82950E94F10EBFCF9A81E8
:1034D000F4CFA0E0B0E0EFE6FAE10C941C2F7C0101
:1034E000DC0114968C91811509F4C5C061E0C70117
:1034F0000E940409EC01F7018581811501F1918198
:103500009093710690819093700690E2909342019F
:10351000C0936E06D0936F069E0130523032F8F49D
:10352000D70116969C91903150F0EC2FF0E0ED33DE
:10353000F10528F4E450F74FE491E0934201B09094
:10354000C906B11409F49EC0FE01E851FC47E730FA
:10355000F10508F0DFC0E85DFF4C0C948C2F9E0154
:103560003054303118F4F7019681DDCF9E0131508F
:103570003F31D8F29E01205A324520323105F8F20F
:10358000FE01D5CFE12FF0E0EE0FFF1FEB5DF84F0E
:10359000C080D180D70111968C911197F60191814D
:1035A000891314C09C912081921310C02281338111
:1035B000C217D30709F464C024813581C217D30729
:1035C00009F45EC0982B81E0911101C080E0817008
:1035D000B82A9701AE01B6010E944721D601509644
:1035E0008C91811101C011501F5F80912407181721
:1035F00048F2811149C0B1102EC0F70185818115B3
:1036000051F1E3E4F1E080E090E0208921115EC017
:1036100025E1289FF001299FF00D1124ED5BFE4F5D
:1036200080912407A82FB0E0AA0FBB1FAB5DB84F55
:10363000ED93FD93848BC283D383D7012D913D916C
:10364000208331838F5F809324079701AE01BF01F0
:1036500081E00E94472180918306877061F0D70145
:1036600015968C91811539F08091850682FF03C0F3
:1036700082E00E948A06CDB7DEB7E9E00C94382FCD
:1036800081E0A5CF10E0B1CF282F2150330BF901F5
:10369000EE0FFF1FEB5DF84F00811181D8015096AE
:1036A0009C9161E0943019F0953059F463E0C801C1
:1036B0000E94831F60E0C8010E94780B809124075C
:1036C00098CF923009F097CF815093CF019675969D
:1036D0008A30910509F099CFBECF26E241EE61EE26
:1036E0000E94091AB8CF27E245EE65EEF9CF26E22F
:1036F00041EE60EEF5CF27E245EE64EEF1CF26E233
:1037000041EE62EEEDCF27E245EE66EEE9CF28E22C
:1037100041E0EBCF811509F4C6C310927206CE01C9
:103720009057839708F0A8C384E090E00E94BF2FD1
:103730008093840690938506FE01E150F047E232C3
:10374000F10520F4E15DFF4C0C948C2F80918406F0
:10375000816080938406609184067091850684E080
:1037600090E00E94F32F0E943F1575CF809185064F
:10377000886080938506EFCF809184068260E9CFD0
:10378000809184068460E5CF809184068860E1CFD3
:10379000809185068160EDCF809185068260E9CFBA
:1037A000809184068061D5CF809184068062D1CFDC
:1037B000809184068064CDCF0E943F15809184065D
:1037C0008068C7CF809184068C60C3CF80918506C6
:1037D0008360CFCF809184068E7FBBCF809185069A
:1037E000877FC7CF809184068D7FB3CF8091840679
:1037F0008B7FAFCF80918406877FABCF809185068A
:103800008E7FB7CF809185068D7FB3CF8091840660
:103810008F7E9FCF809184068F7D9BCF8091840681
:103820008F7B97CF0E943F15809184068F7791CF31
:1038300080918406837F8DCF809185068C7F99CF80
:1038400090918406892F8B7F92FF8460877F92FFFF
:1038500088607FCF80918506982F909590FB80F9A6
:1038600090FB81F986CF90918406892F8F7B96FFFC
:1038700080646FCF0E943F1590918406892F97FB3B
:1038800087F9805866CF61E08EE090E00E94D52FE6
:1038900062CF60E0F9CF90918406892F8F7E94FFEC
:1038A000806157CF90918406892F8E7F90FF816031
:1038B00050CF90918506892F877F93FF886059CFDD
:1038C00089E2ECC289E2FAC280917F068272FE012F
:1038D000E052F847E531F10508F07BC0EF5AFF4CA4
:1038E0000C948C2FCA35BCE7DB0709F062C081E07D
:1038F000CBC08091770680FF1CC0282F2E7F20939D
:103900007706309178064091790650917A06609159
:103910007B0670917C0680917D0690917E060E94C8
:103920006E10809176068160809376060E949209DF
:1039300092CE81608093770661E0869586950E949D
:10394000B21189CE40EE51E16BED71E10E94BB09ED
:1039500082CE4BED51E160EE71E1F8CF45EF51E1E0
:103960006BEE71E1F3CF4BEE51E165EF71E1EECF1C
:103970004CE052E16FEF71E1E9CF4FEF51E16CE0C4
:1039800072E1E4CF46E252E169E172E1DFCF49E161
:1039900052E166E272E1DACF46EB50E16CE970E1A8
:1039A000D5CF4CE950E166EB70E1D0CF61E081E02A
:1039B000C6CF08F05BC0C130FCE7DF0709F47AC06E
:1039C000C3302CE7D20709F46FC0C115DC4709F4F6
:1039D0005EC0F701858100811181811509F46EC0F7
:1039E000C8010E94D208C82F682FC8010E94F9059B
:1039F000B8018C2F0E94D0060E94E107D82FC92F52
:103A0000D7011596CD900C9102950F708091830689
:103A1000877001F1DC2CC114F1F0892F807F803494
:103A200061F080E28D0F8830A8F0892F807E80328F
:103A300021F4D23078F0011569F08091850682FF7B
:103A400009C082E00E948A06809183068770DD2487
:103A5000D3948111D12CEC2FE295EF70C03C08F08B
:103A600092C0F0E0EA59FF4C0C948C2FCB358CE7D8
:103A7000D80711F180918506002482FF0394802DE0
:103A8000CC35DC4709F0A5CF0E94740EA2CF0E946E
:103A90003F15AFEFB4E3ECE0A150B040E040E1F7F8
:103AA00000C000000E94400C6FEF7FEF80E090E0CC
:103AB0000E94F32F0E94701580E0E6CFC8010E949B
:103AC0002F06C82F95CF1C2F1F70C03110F01295F4
:103AD000107FC114B9F0111569F080E28D0F8830A4
:103AE00010F0D11109C080917F06812B80937F0651
:103AF0000E948B0E8D2F3FC080918606812B809374
:103B00008606F6CF8D2F0E94D3141115E1F180E2C5
:103B10008D0F883010F0D11104C0812F0E94C8068B
:103B200006C01095809186068123809386060E94A8
:103B30008B0E29C01C2F1F70C07FC03211F0129550
:103B4000107FD13040F009F468C0C11409F472C08C
:103B50000115D1F1CFCF8091850682FD31C0C1140E
:103B600069F0111539F080917F06812B80937F06D3
:103B70000E948B0E80E00E94531405C080E00E94DA
:103B8000D3141111CACFD114B1F08091830680FDF6
:103B900012C0D70115961C928695869586950E942F
:103BA000DF05C7010E94691A809183068695869574
:103BB00086950E94EA0560E0C7010E9404095BCD7A
:103BC000C11489F0013020F4812F0E94DD0EDBCF7B
:103BD000D1F680918006912F98231917A1F2812B9D
:103BE00080938006D0CF0111CECF812F0E94F10E9D
:103BF00090918006812F892329F0812F8095892338
:103C00008093800680918106912F982309F4BBCF81
:103C10001095182310938106B6CFC11421F00630F9
:103C200008F0B1CFD1CF053008F0ADCF812F0E9481
:103C3000F10EA9CF0115D1F3D93349F4BFEFE7EE67
:103C4000F3E0B150E040F040E1F700C000008D2FFC
:103C50000E94D31498CF8C2F8695869583708130DF
:103C600060F009F090CF8D2F9C2F9370C11002C08F
:103C700080E090E00E94660A86CF8D2F9C2F937083
:103C8000C11002C080E090E00E94410A7CCF6C2D00
:103C90008D2F0E94901377CF8C2F8370A9F5C110C0
:103CA00028C08D2F829586958770880F880F4D2F9D
:103CB0004F70082E01C0440F0A94EAF72D2F20718F
:103CC000D4FF06C02FE001C0220F8A95EAF72095A5
:103CD000C695C695C370C23091F0822F842BC33035
:103CE00031F080918206C13039F0242B82230E946A
:103CF000D9050E94300A47CF842B822BF8CF242B82
:103D0000809182068227F3CFC11459F1C0FFF1CF11
:103D10008D2F829586958770880F880F4D2F4F7055
:103D2000082E01C0440F0A94EAF72D2F2071D4FF0A
:103D300006C02FE001C0220F8A95EAF72095C695AC
:103D4000C695C370C23099F0822F842BC33031F0F6
:103D50008091C806C13041F0242B82230E94DC05EB
:103D6000C8CF8230A8F6C5CF842B822BF7CF242B67
:103D70008091C8068227F2CFCF70C11439F08C2F02
:103D80000E94DF058D2F0E94DD0EB3CF8D2F0E9484
:103D9000F10E8C2F0E94EA05ACCFD23F61F170F496
:103DA000D03FC9F0D13F91F0C11409F451C00115C1
:103DB00009F44BC08D2F0E9453149BCFD33F11F1B8
:103DC000D43F91F79091850692FD27C08C2F8F717B
:103DD000C11401F314C0C11461F0053008F089CF9B
:103DE000CF7181E090E09C0101C0220FCA95EAF7F3
:103DF000BFCF0630F3CF8C2F8F71C110CBCF0E9475
:103E0000DF0577CF80E0C11409F4A8CFCF7181E03E
:103E100001C0880FCA95EAF7A1CFC11461F08C2FB9
:103E20008F7192FFECCF982F990F990F990F936094
:103E300090938306E4CF81E00E948A06023008F462
:103E400058CF82E00E948A0654CF8C2F8F71D7CF33
:103E5000011579F0D93349F43FEF87EE93E0315003
:103E600080409040E1F700C000008D2F0E94D314E5
:103E700040CF8C2F8F718ECFC631BCE7DB0709F0A6
:103E800031CD80917F068A7A91E0811101C090E066
:103E900090937306811509F413CD85E30E948B0A74
:103EA0000E948B0ED8CBC631ECE7DE0709F00CCDB3
:103EB00080917306811509F405CD85E30E94BF0A40
:103EC000EFCFAAE0B0E0E7E6FFE10C94222F88876D
:103ED00069874A8711E01093C9060E945D131F820B
:103EE0002885298329852A838B839C831D838A8542
:103EF0008E83CE0101960E94691A1092C9062A96F5
:103F0000E3E00C943E2F0F931F93CF93DF93EC01CC
:103F1000162F8B898F3F31F0982F990F990B8617A9
:103F200091050CF41B8B8A8918164CF4212F30E074
:103F3000082E001C0008821703060CF061C03C89A3
:103F4000E5E2F7E082E090E039135FC0823008F4E8
:103F500057C009892C813D8121153105C9F4809113
:103F6000C8060E94C7052981988130E3839FF0012C
:103F7000112486E0289FE00DF11D1124E90FF11DA9
:103F8000EE0FFF1FE85CF64F208131812C833D83CB
:103F900081E08093C9068E812930310509F4B6C0CD
:103FA00008F041C02430310509F44FC027303105F5
:103FB00009F48CC081E01092C9069989981708F419
:103FC000898B813069F4812F8D7F09F0C0C0111178
:103FD00007C041E0698188810E94611F82E0898B6E
:103FE0001A8B023069F08989823051F40C8910E013
:103FF0000F5F1F4F80912407081711050CF4ADC007
:10400000DF91CF911F910F910895A191B191509699
:104010002C915097223029F051962C91281708F4B2
:10402000822F9F5F91CF2631310521F61230E9F1C1
:10403000133009F444C081E0113071F40E94F10E94
:1040400060E070E086E190E013C01230A1F0133020
:10405000F9F082E0113031F00E94DD0E0E948B0EEB
:1040600080E0A9CF0E94F10E60E070E084E090E073
:104070000E941B150BC0811549F082E00E94F10ED1
:104080000E948B0E84E090E00E94C11482E093CFE6
:10409000811106C082E00E94F10E0E948B0EF6CFC5
:1040A00084E090E00E940715F1CF811579F381E05B
:1040B0000E94F10E0E948B0E86E190E0E5CF811107
:1040C00002C081E0E8CF86E190E0ECCF123069F0E9
:1040D0001330A9F088E0113009F0BECF0E94F10E34
:1040E00060E070E087E090E0C3CF811579F288E06E
:1040F0000E94F10E0E948B0E87E090E0C5CF8111E7
:1041000002C088E0C8CF87E090E0CCCF123069F0E1
:104110001330B1F084E0113009F09ECF0E94F10E0F
:1041200060E070E089E090E0A3CF811509F4AECFA4
:1041300084E00E94F10E0E948B0E89E090E0A4CFF3
:10414000811102C084E0A7CF89E090E0ABCF40E0CE
:10415000698188810E94611F43CFF801EE0FFF1F24
:10416000EB5DF84FC081D1818B898F3F09F448CF37
:104170009A899F3F19F098170CF042CF8230E9F0EE
:1041800054F48130A8F009F033CF60E0CE010E94F2
:10419000831F61E00EC0833009F02ACF60E0CE01BA
:1041A0000E94831F62E0CE010E94831F63E001C072
:1041B00060E0CE010E94831F1BCF60E0CE010E9411
:1041C000831F62E0F6CFA2E0B0E0E9EEF0E20C94EB
:1041D000232F49835A8363E0CA010E94780B62E06F
:1041E00089819A810E94831F80E090E0BC01229621
:1041F000E2E00C943F2FCF93DF93EA0180E090E060
:10420000892B59F060E08C819D810E94000081150E
:1042100021F061E0CE010E94831F60E0CE010E9488
:10422000780B80E090E0BC01DF91CF910895A2E08F
:10423000B0E0EDE1F1E20C94232F49835A8361E071
:10424000CA010E94831F60E089819A810E94780BD5
:1042500080E090E0BC012296E2E00C943F2FA2E0C7
:10426000B0E0E5E3F1E20C94232F49835A8363E045
:10427000CA010E94831F60E089819A810E94780BA5
:1042800080E090E0BC012296E2E00C943F2FA8E091
:10429000B0E0EDE4F1E20C94202FF82E6F837887E4
:1042A00049835A838901FB018089833009F48FC0D7
:1042B000C8F4813091F18230F9F4F9019581F1145B
:1042C00009F472C09115A1F0EF81F88586818F5FA6
:1042D00086838FEF828B838B60E0CF010E94831FE8
:1042E00061E037C0843009F48CC0853009F4B4C073
:1042F0002896E5E00C943C2FF114D1F3F901858167
:104300008115B1F361E08F8198850E94780B60E0A0
:104310008F8198850E94831FEBCFEF81F885848978
:10432000282F30E02F5F3F4F9091240792171306FC
:10433000F9F4F114E9F2F80185818111D9CF80E017
:1043400090E0892B59F461E08F8198850E94831F4A
:1043500062E08F8198850E94780BCACF60E0EF8180
:10436000F885848195810E9400008111F1CFEBCF07
:10437000F11429F0F801958164E0911551F3A80139
:1043800069817A810E947B05811509F4B1CFF11012
:10439000AFCFF80185818111ABCF63E08F81988524
:1043A0000E94780B62E0B4CF911509F4A1CFEF81A0
:1043B000F885818B80E090E0892B09F160E08481B1
:1043C00095810E9400008115D1F061E014C0F114C4
:1043D00009F48ECFF901858181118ACFEF81F885AB
:1043E0002489809124078150990B65E028171906CC
:1043F00009F0AFCF63E08F8198850E94831F60E052
:10440000A8CFF90185818111E0CFEF81F88563851F
:104410007485858596850E94240C6B837C838D83AF
:104420009E8362E08F8198850E94B0052B813C813C
:104430004D815E81261737074807590730F6A801D6
:1044400069817A81EF81F88584890E947B0565E026
:10445000811509F44DCFA2CFF90185818111CACF11
:10446000EF81F8852489809124078150990B2817C2
:10447000190609F03DCFBECF8091C706803170F498
:104480008091C606811551F0E0918806209187063B
:104490003091C2064091C1062E1301C00895BF019C
:1044A00087E0E89FF0011124DF01A757B94F149668
:1044B0008C911497811561F111968C91119783134A
:1044C00027C08C91841324C015968C911597811167
:1044D0001FC012968D919D91A091C306B091C40604
:1044E0008A1B9B0B883C910598F48091C7068F70BE
:1044F00080618093C706E157F94F80818F7080619A
:10450000808381EC96E00E94691A0E9480060895DB
:10451000FB013196E770C0CFADE0B0E0E2E9F2E236
:104520000C94182F8C0186E0F801DE01189601909A
:104530000D928A95E1F7F801F580C48081EC882E10
:1045400086E0982E7090C506711020C0C114D9F075
:10455000F11409F41CC1C8010E943709811509F43E
:1045600016C187E0F801D40101900D928A95E1F718
:10457000F1E0CF1206C08091C1069091C2060E9460
:1045800023090E943C22FF24F39454C0E080A280BF
:10459000B380D090C6068091C3069091C406950161
:1045A000281B390BD11409F4BAC0283C310508F096
:1045B00090C0C11441F39091C206C1808091C7069A
:1045C000803108F058C0C91214C09091C1069E11E4
:1045D00010C0F1104AC08F7080618093C70681ECD3
:1045E00096E00E94691A8091C706F8018683F12C33
:1045F00021C0F1103AC040E06C2D8E2D0E94620661
:1046000040E06C2D8E2D0E946206F82E8111EFCFB6
:10461000888599850E942309292F22952F7090342F
:1046200070F49F702230A0F09115B1F0F8019681DE
:10463000903190F48F2D2D96EDE00C94342F2A5F5D
:104640002F70223068F0C8010E94691AFD2CF2CF49
:10465000911511F0811571F3805E883058F3F3CF16
:10466000803F40F3815F8330F9CF8091C70681603E
:104670008093C706BCCFC91207C09091C1069E1196
:1046800003C0F11409F46CC0C8010E9437098115F8
:1046900009F47DC0F11409F47AC08091C706803214
:1046A00078F02091C1063091C20629833A83AB820B
:1046B000BC827D821E828F83CE0101960E94691A80
:1046C00087E0F801A1ECB6E001900D928A95E1F740
:1046D00058CF8091C706803150F481EC96E00E945B
:1046E000691A87E0F40111928A95E9F780CFC11425
:1046F00009F449CF2091C20691812913C5CF909129
:10470000C1069E11C1CFF110BFCF8683C8010E94A0
:10471000691A87E0F40111928A95E9F734CF283CB1
:104720003105F8F6C11409F42ECFF11481F19091FE
:10473000C2068181981321C08091C1068E111DC0CF
:104740008091C70680FD10C0803170F08683807F25
:10475000803F39F08681982F907F905F8F70892BF2
:104760008683C8010E94691A87E0F801A1ECB6E0CF
:1047700001900D928A95E1F706CFC8010E94370992
:1047800081119ECF8091C70681608093C706C801C2
:104790000E94691AF8CEABE1B0E0E1EDF3E20C94CF
:1047A000212F4E8B5F8B688F798F8A8F192F9B8F6C
:1047B0009111109286061D8A86E0FE017696DE0132
:1047C0001F9601900D928A95E1F70A8D011539F037
:1047D0000B8B1C8B61E0CE010F960E9404090B8BA2
:1047E0001C8B87E0FE013F96DE01189601900D922A
:1047F0008A95E1F7CE0108960E948C22811128C08B
:10480000209187063091880687E0FE013896DE0108
:10481000119601900D928A95E1F78C858115C1F072
:10482000822F90E08395877090E038171906D1F0B9
:1048300097E0929FD0011124A757B94FFE013196FE
:1048400001900D929A95E1F7809387060E94800669
:104850008091880690918706891312C06B96E4E0D8
:104860000C943D2F0E943F151092870610928806E7
:1048700087E0E1ECF6E0DF011D928A95E9F7E8CFE9
:10488000B7E08B9FC00111248757994F0E948C225B
:10489000811521F3209188062F5F3F4FC901877052
:1048A00080938806D5CFA6E0B0E0E9E5F4E20C9469
:1048B000212F0E945D138C0180912706909128067C
:1048C0008017910779F019821A820E945D13BC014A
:1048D00049815A8180E090E00E94CB230093270613
:1048E000109328062696E4E00C943D2FCDB7DEB752
:1048F0002E970FB6F894DEBF0FBECDBF85B7806888
:1049000085BF85B7806885BF84B7877F84BF0FB6B2
:10491000F894A8958091600088618093600010925F
:1049200060000FBE80E890E00FB6F89480936100BD
:10493000909361000FBE83E699E080939A02909372
:104940009B020E94870D0E942E0D8091E2008460E0
:104950008093E200789480918F03811599F0809183
:10496000E9001091EC008F7010FB112717F9182B3C
:104970001092E9008091E80083FD0E9486151F7067
:104980001093E90082E084BD93E095BD9AEF97BD56
:1049900080936E0010922306109224061092250632
:1049A0001092260688EC90E02091E30027FD0EC0CF
:1049B000AFE3BCE91197F1F700C000000197A1F740
:1049C0000E94870D10928F0380E001C081E08093E8
:1049D00021068093220680930501811509F4D8C031
:1049E000109200018BE1809301010E948B2D809138
:1049F00005018091050191E08927880F880F809338
:104A0000180694E0981B90930C0601E212E0F5E280
:104A1000EF2EF2E0FF2EF80181918F018F3F11F010
:104A20000E946509E016F106B1F705E212E0EBE23B
:104A3000EE2EE2E0FE2ED8018D918D018F3F11F018
:104A40000E946509E016F106B1F788E0E0E1F6E0C2
:104A5000DF01282F1D922A95E9F7E9E1F6E0DF0151
:104A60001D928A95E9F780E090E00E94BF2F853E75
:104A70009E4F09F45EC065EE7EEF80E090E00E94FC
:104A8000F32F60E082E090E00E94D52F81E08093D8
:104A9000820661E083E090E00E94D52F60E074E13F
:104AA00084E090E00E94F32F60E086E090E00E94B6
:104AB000D52F60E087E090E00E94D52F60E070E0A5
:104AC000AB0188E090E00E94E72F60E083E290E095
:104AD0000E94D52F60E08CE090E00E94D52F60E02E
:104AE0008DE090E00E94D52F19821A821B821C82D1
:104AF0001D821E821F82188648E050E067E170E048
:104B0000CE0101960E94C52F60E070E0AB018FE1FD
:104B100090E00E94E72F60E070E0AB018FE090E052
:104B20000E94E72F60E070E0AB0183E190E00E941B
:104B3000E72F82E090E00E94B12F8093900384E001
:104B400090E00E94BF2F80938406909385060E9478
:104B50003818EFEFF6E721E0E150F0402040E1F7B0
:104B600000C000000E943818E091220611E0E12701
:104B7000EE0FEE0FF0E0E05FF94F808181FF0EC095
:104B80006FEF7FEF80E090E00E94F32F0E94400CD7
:104B90008BE1809300018093010129CF83E090E0B5
:104BA0000E94B12F0E94D905809121068127880F8C
:104BB0008093C30580E880939B030E94ED2B6BE0FC
:104BC00070E080E898E00E943312811509F43FC03C
:104BD0008091C30565E070E081FD0CC18BE798E032
:104BE0000E943312811599F16DE070E089E698E03A
:104BF0000E943312811559F10E94E70ADC01CB01B2
:104C0000805A9541AF4FBF4F8093C7059093C80519
:104C1000A093C905B093CA05E3ECF3E080E092E00D
:104C2000DF019C011D9221503040E1F7E093990390
:104C3000F0939A038FEF9FEF8093C5059093C6057D
:104C400081E08093CE058093CB051092C4058091BE
:104C50008C03811168C088E090E00E94B92F6B013D
:104C60007C0183E290E00E94B12F282F40E050E0C9
:104C7000CA0170E0A22F970160E0FC2DC092770678
:104C8000D0927806E092790630937A06A0937B065C
:104C900010927C0610927D0610927E062091760678
:104CA000236020937606F43070F525E02093770694
:104CB000109278062FEF2093790628E720937A0642
:104CC00010927B0625E030E04FEF58E70E946E100F
:104CD00088E090E00E94B92F6B017C0183E290E0B4
:104CE0000E94B12F9701C0927706D0927806E09289
:104CF000790630937A0680937B0610927C06109298
:104D00007D0610927E060E947D090E94C209809154
:104D1000770680FF05C060E0869586950E94B211F7
:104D200081E080938C0380912106811102C00E9452
:104D30008E2D86E091E08093490690934A06CE013D
:104D400001968B879C8780918F0300E110E472E1CC
:104D5000F72E853009F487C00E94381801E913E066
:104D600060E1E62E66E0F62EF701D8019D91808184
:104D700029E933E02A173B0709F47FC031969817D9
:104D8000A9F380902106D12CD701CD907D01F801A7
:104D900091908F019C1429F19C24AA24A394B12CF6
:104DA000892D8A21B9F08114A9F0B982DA820E9492
:104DB0005D138B839C83F1E0FD8391E08A2D8C2130
:104DC00009F490E09E8349815A816B817C818D81B9
:104DD0000E94CB23B394AA0C26E0B212E1CFF801D3
:104DE000C292D39438E0D312CFCF0E94F30ADD24CD
:104DF000D39448C086E798E0F3CE80918F03843047
:104E000029F10E94641210928D0348E150E00FB620
:104E1000F894A895409360000FBE1093600083B78C
:104E2000817F846083BF83B7816083BF78948895D6
:104E300083B78E7F83BF0FB6F894A89580916000EA
:104E4000886180936000109260000FBE0E94381845
:104E5000E0E1F6E0808181110CC3319688E196E0B3
:104E60008E179F07B9F780918F03853009F4C5CF5E
:104E70000E943F150E94300A6FCF981382CF0E9484
:104E80005324D12C8091CE05811509F44BC180911A
:104E9000CC059091CD050E942918C29708F45FC0F7
:104EA0000E945D138093CC059093CD0583EC93E035
:104EB0008093990390939A0380912106811509F4B8
:104EC000A7C284EF98E00E9422138091C8060E9436
:104ED000C705823009F462C208F058C281115BC272
:104EE0008CEE98E00E94301380917106805D0E94E4
:104EF000761281ED98E00E94221380917006805D09
:104F00000E9476128DEC98E00E94221380906E062B
:104F100090906F068091100190911101881699066A
:104F200009F042C28091A203803209F03DC2ECE94F
:104F3000F3E08F0181918032E1F3F80101900020CC
:104F4000E9F731977F010E151F0508F45BC28BEC62
:104F500098E00E942213809142010E947612809173
:104F6000C5059091C605892B09F4C3C08091CE0573
:104F7000811509F4BEC08091C4058111BAC00E9498
:104F800040128091C5059091C605009709F4B1C003
:104F900080FBEE24E0F8F12C10E080FD0FC041E032
:104FA00050E01F5F7A01012E02C0EE0CFF1C0A9434
:104FB000E2F79C012E213F21232B99F38091C30519
:104FC00080FF2BC2912F990F990F990F37E0390F5E
:104FD00080E023E090931401809317013093150132
:104FE0002093180124E630E047E050E062E171E0F0
:104FF00088E70E94282C892B09F07BC0E0E21E9FE5
:10500000A00111248091C30580FF18C280E2A3EAA9
:10501000B3E01D928A95E9F72BE1622E22E0722E11
:1050200007E112E03FE1832E32E0932EF3019191EC
:105030003F01D8018D918D01FA01E80FF11DED8737
:10504000FE87E92FF0E0ED55FC4F20E030E097E0DF
:10505000A92EA21ACC24C394022E01C0CC0C0A940F
:10506000EAF78D859E858D539C4F89879A8790E0BE
:10507000A985BA858D91A987BA878C216A2D691B6C
:10508000677070E0B82F062E01C0BB0F0A94EAF7D4
:10509000719561957109677001C086956A95EAF707
:1050A0008B2B6081862B80839F5F983009F72F5F61
:1050B0003F4F31962830310551F68614970409F098
:1050C000B5CF04E610E020E230E043EA53E060E4CC
:1050D00088E70E94D62C892B61F4E094F0948091AB
:1050E000C5059091C605E822F922E092C505F09227
:1050F000C6058091CB058115A9F00E94E70A0091B1
:10510000C7051091C8052091C9053091CA05601BDB
:10511000710B820B930B6F3F7F4F8F4F9F4710F4A4
:105120000E946412D1100E94401286E0E8E6F6E088
:10513000AB85BC8501900D928A95E1F7C090690618
:10514000F0906A0600916B06E0906C0610916D0677
:1051500010926A0610926B0610926C0610926D0601
:10516000802F8F2909F43FC08091D1059091D205FD
:105170000E9429189C0190916606911509F474C14A
:105180002531310580F19F3F19F09F5F90936606AE
:10519000F11459F00E94EB0991E01F140CF09FEFFD
:1051A000899F802D112480936A06011559F00E9471
:1051B000EB0991E010160CF09FEF899F802D1124D0
:1051C00080936B0680916A06811569F0D0906B061A
:1051D000D11449F00E94DD0980936A068D2D0E944A
:1051E000DD0980936B068E2D812B09F43FC08091E1
:1051F000CF059091D0050E9429189C0190916506D9
:10520000911509F42CC12135310580F19F3F19F02A
:105210009F5F90936506E11459F00E940B0A91E09C
:105220001E140CF09FEF899F802D112480936C0633
:10523000111559F00E940B0A91E011160CF09FEF26
:10524000899F802D112480936D0680916C068115B5
:1052500069F0E0906D06E11449F00E94DD09809349
:105260006C068E2D0E94DD0980936D068091690683
:105270008C1119C080916A06811511F08F1113C02D
:1052800020916B06211511F020130DC090916D0631
:10529000911511F0191307C030916C06311103C03C
:1052A000822B892B11F00E94691386E0EB85FC8527
:1052B000A8E6B6E001900D928A95E1F70E94300AC7
:1052C0009091D305891721F08093D3050E94E70AB6
:1052D0000E94E70A4B015C018091D4059091D505AD
:1052E000A091D605B091D7059401A501281B390BD3
:1052F0004A0B5B0BC901DA01181619061A061B06C0
:105300000CF021CD8092D4059092D505A092D605BF
:10531000B092D7050AEC16E084E2E82E87E0F82E7A
:10532000D801DC90D11461F111966D917D918D9130
:105330009D9115979B01AC01281939094A095B0910
:1053400009F0F2F417964D915D911497ED91FD914E
:105350000995F8012081D21213C000977040604077
:1053600009F473C02181328143815481DC01CB0176
:10537000820F931FA41FB51F81839283A383B483DD
:10538000075F1F4FE016F10659F6DDCC833049F078
:1053900083ED98E0A7CD86EE98E0A4CD80EE98E06E
:1053A000A1CD89ED98E09ECD8092100190921101DF
:1053B00080E28093A203A12CB12C1092A10351EAA8
:1053C000E52E53E0F52E8501B401C5012AE030E059
:1053D00040E050E00E946A2F605D603341F40115A7
:1053E000110529F089288A288B2809F460E2D70161
:1053F0006E937D0149015A010F5F1F4F0530110562
:1054000019F795CDD8018D918D010E9476129BCD13
:105410008BE898E00E942213A2CDB0E21B9FC0014E
:105420001124880F892F881F990B9195282F912F70
:105430009295990F90763FE1390FCCCD4D535C4F4B
:1054400004E610E020E230E042CE108211821282A7
:1054500013821482158216821782108691CF2B3008
:10546000310508F0D5CE02CF2B30310508F08DCEB6
:10547000BACE80918E03811509F4F5CC09BDF9BC33
:1054800009B400FEFDCF8091D8008F7D8093D800B5
:105490008091E00082608093E0008091E00081FDD7
:1054A000FCCF0E943F15DFCC78941F921FB61F924D
:1054B00011248F939F93AF93BF938091D9029091C2
:1054C000DA02A091DB02B091DC020196A11DB11DB0
:1054D0008093D9029093DA02A093DB02B093DC02AE
:1054E000BF91AF919F918F911F901FBE1F901895F4
:1054F0001F920F920FB60F9211242F933F934F9349
:105500005F936F937F938F939F93AF93BF93EF932B
:10551000FF938091E10082FF09C08091E20082FF49
:1055200005C08091E1008B7F8093E1008091DA00DB
:1055300080FF24C08091D80080FF20C08091DA00D5
:105540008E7F8093DA008091D90080FF9BC080E13C
:1055500089BD82E189BD09B400FEFDCF81E0809361
:105560008F038091C702811109C00E94870D0E949C
:105570002E0D8091E20084608093E2008091E10032
:1055800080FF17C08091E20080FF13C08091E2008D
:105590008E7F8093E2008091E20080618093E20040
:1055A0008091D80080628093D80019BC85E08093F8
:1055B0008F038091E10084FF29C08091E20084FF85
:1055C00025C080E189BD82E189BD09B400FEFDCF1F
:1055D0008091D8008F7D8093D8008091E1008F7EEC
:1055E0008093E1008091E2008F7E8093E2008091C1
:1055F000E20081608093E2008091C602811509F487
:1056000047C084E080938F0380918F038091E100F5
:1056100083FF27C08091E20083FF23C08091E100D7
:10562000877F8093E10082E080938F031092C6020F
:105630008091E1008E7F8093E1008091E2008E7F77
:105640008093E2008091E20080618093E20042E07A
:1056500060E080E00E94AE0C8091F0008860809352
:10566000F000FF91EF91BF91AF919F918F917F914A
:105670006F915F914F913F912F910F900FBE0F90BF
:105680001F90189519BC10928F031092C70276CF05
:105690008091E30087FF02C083E0B4CF81E0B2CF06
:1056A0001F920F920FB60F921124EF92FF920F9359
:1056B0001F932F933F934F935F936F937F938F939A
:1056C0009F93AF93BF93CF93EF93FF9309EE10E0B7
:1056D000F8018081C091EC008F70C0FBCC27C7F926
:1056E000C82B1082E0EF8081877F808378940E94AE
:1056F0008615F8011082E0EF808188608083CF708A
:10570000E9EEC083FF91EF91CF91BF91AF919F914F
:105710008F917F916F915F914F913F912F911F9149
:105720000F91FF90EF900F900FBE0F901F90189564
:10573000A3E0B0E0EEE9FBE20C94212F8B838B0118
:105740001092BC0084EA8093BC000E945D138983A0
:105750009A838091BC0087FF28C08091B900887F20
:10576000883029F08091B900887F803199F58B814C
:105770008093BB0084E88093BC000E945D13898302
:105780009A838091BC0087FF1DC02091B900287FBB
:1057900080E090E0283191F081E090E0203409F43D
:1057A00080E091958195910909C089819A810E9433
:1057B00029180817190768F68EEF9FEF2396E4E083
:1057C0000C943D2F89819A810E9429180817190786
:1057D000C0F6F2CF8FEF9FEFF1CF1092B9008CE0BF
:1057E0008093B8000895A4E0B0E0E9EFFBE20C94E8
:1057F000232F6B837C838093BB0084E88093BC0061
:105800000E945D1389839A838091BC0087FF0FC03B
:105810002091B900287F81E090E0283209F480E0EF
:105820009195819591092496E2E00C943F2F2B816C
:105830003C812F3F3F4F41F389819A810E94291873
:105840002B813C8128173907F8F68EEF9FEFEBCFBD
:10585000A7E0B0E0EEE2FCE20C941D2F89836A839E
:105860007B836A0189010E945D138C839D830431CF
:10587000110548F10F3F100751F1C80164E170E0D4
:105880000E94FF2EF62EE72E6F2D7E2D89810E941D
:10589000982B8E839F83EE81FF81EF2BD9F4EA80D2
:1058A000FB80CE0CDF1CEC14FD0421F08E819F8167
:1058B000892BD9F084E98093BC008E819F81279643
:1058C000E8E00C94392FFF24F394E12CDDCF85E040
:1058D000F82EFBCF0F3F1007B9F28C819D810E94FB
:1058E00029180817190780F6DACFB801F701819156
:1058F0007F010E94F32B8E839F83D5CFA7E0B0E07A
:10590000E4E8FCE20C941D2F89836A837B836A019F
:1059100089010E945D138C839D830431110548F138
:105920000F3F100751F1C80164E170E00E94FF2EA3
:10593000F62EE72E6F2D7E2D89810E94982B8E8367
:105940009F83EE81FF81EF2BD9F4EA80FB80CE0CA0
:10595000DF1CEC14FD0421F08E819F81892BD9F08E
:1059600084E98093BC008E819F812796E8E00C94A7
:10597000392FFF24F394E12CDDCF85E0F82EFBCF07
:105980000F3F1007B9F28C819D810E9429180817DA
:10599000190780F6DACFF7018491B8010E94F32B42
:1059A0008E839F83FFEFEF1AFF0AD3CFA8E0B0E00A
:1059B000ECEDFCE20C941D2F89836A834B835C839E
:1059C00069010F8318870E945D138D839E832F8149
:1059D00038852431310538F12F3F320741F1C901B3
:1059E00064E170E00E94FF2EF62EE72E6F2D7E2DD3
:1059F00089810E94982B8C01892BE1F0EF81F88539
:105A00003196A1F38D819E810E942918EF81F8853E
:105A1000E817F90758F784E98093BC00C801289675
:105A2000E8E00C94392FFF24F394E12CDFCF85E0DC
:105A3000F82EFBCF6F8178858A810E94F32B8C0131
:105A4000EB80FC80CE0CDF1CEC14FD0421F301156F
:105A5000110509F76F817885F70181917F010E9417
:105A6000F32B8C01F1CF8EE14A9B02C08150E1F70C
:105A70004A9BFECF08955A9880E28A95F1F75A9A88
:105A80000895FC012BE02A95F1F728E080E090E0F2
:105A900031E040E14A95F1F7880F4A9B02C08160EE
:105AA000932742E04A95F1F7000040E14A95F1F76B
:105AB000215079F720E12A95F1F729B132E03A95A2
:105AC000F1F7000040E14A95F1F731E022FD93271C
:105AD0002081920F90830895A1E0B0E0E2E7FDE21B
